{
  "_format": "hh-sol-artifact-1",
  "contractName": "User",
  "sourceName": "contracts/User.sol",
  "abi": [
    {
      "anonymous": false,
      "inputs": [
        {
          "indexed": true,
          "internalType": "address",
          "name": "userAddress",
          "type": "address"
        },
        {
          "indexed": true,
          "internalType": "string",
          "name": "CID",
          "type": "string"
        }
      ],
      "name": "UserRegistered",
      "type": "event"
    },
    {
      "inputs": [
        {
          "internalType": "address",
          "name": "_userAddress",
          "type": "address"
        }
      ],
      "name": "getUserCID",
      "outputs": [
        {
          "internalType": "string",
          "name": "",
          "type": "string"
        }
      ],
      "stateMutability": "view",
      "type": "function"
    },
    {
      "inputs": [
        {
          "internalType": "address",
          "name": "",
          "type": "address"
        }
      ],
      "name": "isUsers",
      "outputs": [
        {
          "internalType": "bool",
          "name": "",
          "type": "bool"
        }
      ],
      "stateMutability": "view",
      "type": "function"
    },
    {
      "inputs": [],
      "name": "owner",
      "outputs": [
        {
          "internalType": "address payable",
          "name": "",
          "type": "address"
        }
      ],
      "stateMutability": "view",
      "type": "function"
    },
    {
      "inputs": [
        {
          "internalType": "string",
          "name": "_CID",
          "type": "string"
        }
      ],
      "name": "registerUser",
      "outputs": [],
      "stateMutability": "nonpayable",
      "type": "function"
    },
    {
      "inputs": [
        {
          "internalType": "address",
          "name": "",
          "type": "address"
        }
      ],
      "name": "userCID",
      "outputs": [
        {
          "internalType": "string",
          "name": "",
          "type": "string"
        }
      ],
      "stateMutability": "view",
      "type": "function"
    }
  ],
  "bytecode": "0x608060405234801561001057600080fd5b50336000806101000a81548173ffffffffffffffffffffffffffffffffffffffff021916908373ffffffffffffffffffffffffffffffffffffffff160217905550610d6f806100606000396000f3fe608060405234801561001057600080fd5b50600436106100575760003560e01c8063296c0c071461005c578063704f1b941461008c5780638da5cb5b146100a8578063a5240e49146100c6578063e4d7c830146100f6575b600080fd5b610076600480360381019061007191906105c5565b610126565b604051610083919061060d565b60405180910390f35b6100a660048036038101906100a1919061076e565b610146565b005b6100b061028b565b6040516100bd91906107d8565b60405180910390f35b6100e060048036038101906100db91906105c5565b6102af565b6040516100ed9190610872565b60405180910390f35b610110600480360381019061010b91906105c5565b61034f565b60405161011d9190610872565b60405180910390f35b60026020528060005260406000206000915054906101000a900460ff1681565b600081511161018a576040517f08c379a0000000000000000000000000000000000000000000000000000000008152600401610181906108e0565b60405180910390fd5b80600160003373ffffffffffffffffffffffffffffffffffffffff1673ffffffffffffffffffffffffffffffffffffffff16815260200190815260200160002090816101d69190610b16565b506001600260003373ffffffffffffffffffffffffffffffffffffffff1673ffffffffffffffffffffffffffffffffffffffff16815260200190815260200160002060006101000a81548160ff0219169083151502179055508060405161023d9190610c24565b60405180910390203373ffffffffffffffffffffffffffffffffffffffff167f48cac28ad4dc618e15f4c2dd5e97751182f166de97b25618318b2112aa951a2f60405160405180910390a350565b60008054906101000a900473ffffffffffffffffffffffffffffffffffffffff1681565b600160205280600052604060002060009150905080546102ce9061092f565b80601f01602080910402602001604051908101604052809291908181526020018280546102fa9061092f565b80156103475780601f1061031c57610100808354040283529160200191610347565b820191906000526020600020905b81548152906001019060200180831161032a57829003601f168201915b505050505081565b6060600073ffffffffffffffffffffffffffffffffffffffff168273ffffffffffffffffffffffffffffffffffffffff16036103c0576040517f08c379a00000000000000000000000000000000000000000000000000000000081526004016103b790610c87565b60405180910390fd5b60008054906101000a900473ffffffffffffffffffffffffffffffffffffffff1673ffffffffffffffffffffffffffffffffffffffff163373ffffffffffffffffffffffffffffffffffffffff16148061044557508173ffffffffffffffffffffffffffffffffffffffff163373ffffffffffffffffffffffffffffffffffffffff16145b610484576040517f08c379a000000000000000000000000000000000000000000000000000000000815260040161047b90610d19565b60405180910390fd5b600160008373ffffffffffffffffffffffffffffffffffffffff1673ffffffffffffffffffffffffffffffffffffffff16815260200190815260200160002080546104ce9061092f565b80601f01602080910402602001604051908101604052809291908181526020018280546104fa9061092f565b80156105475780601f1061051c57610100808354040283529160200191610547565b820191906000526020600020905b81548152906001019060200180831161052a57829003601f168201915b50505050509050919050565b6000604051905090565b600080fd5b600080fd5b600073ffffffffffffffffffffffffffffffffffffffff82169050919050565b600061059282610567565b9050919050565b6105a281610587565b81146105ad57600080fd5b50565b6000813590506105bf81610599565b92915050565b6000602082840312156105db576105da61055d565b5b60006105e9848285016105b0565b91505092915050565b60008115159050919050565b610607816105f2565b82525050565b600060208201905061062260008301846105fe565b92915050565b600080fd5b600080fd5b6000601f19601f8301169050919050565b7f4e487b7100000000000000000000000000000000000000000000000000000000600052604160045260246000fd5b61067b82610632565b810181811067ffffffffffffffff8211171561069a57610699610643565b5b80604052505050565b60006106ad610553565b90506106b98282610672565b919050565b600067ffffffffffffffff8211156106d9576106d8610643565b5b6106e282610632565b9050602081019050919050565b82818337600083830152505050565b600061071161070c846106be565b6106a3565b90508281526020810184848401111561072d5761072c61062d565b5b6107388482856106ef565b509392505050565b600082601f83011261075557610754610628565b5b81356107658482602086016106fe565b91505092915050565b6000602082840312156107845761078361055d565b5b600082013567ffffffffffffffff8111156107a2576107a1610562565b5b6107ae84828501610740565b91505092915050565b60006107c282610567565b9050919050565b6107d2816107b7565b82525050565b60006020820190506107ed60008301846107c9565b92915050565b600081519050919050565b600082825260208201905092915050565b60005b8381101561082d578082015181840152602081019050610812565b60008484015250505050565b6000610844826107f3565b61084e81856107fe565b935061085e81856020860161080f565b61086781610632565b840191505092915050565b6000602082019050818103600083015261088c8184610839565b905092915050565b7f4349442063616e6e6f7420626520656d70747900000000000000000000000000600082015250565b60006108ca6013836107fe565b91506108d582610894565b602082019050919050565b600060208201905081810360008301526108f9816108bd565b9050919050565b7f4e487b7100000000000000000000000000000000000000000000000000000000600052602260045260246000fd5b6000600282049050600182168061094757607f821691505b60208210810361095a57610959610900565b5b50919050565b60008190508160005260206000209050919050565b60006020601f8301049050919050565b600082821b905092915050565b6000600883026109c27fffffffffffffffffffffffffffffffffffffffffffffffffffffffffffffffff82610985565b6109cc8683610985565b95508019841693508086168417925050509392505050565b6000819050919050565b6000819050919050565b6000610a13610a0e610a09846109e4565b6109ee565b6109e4565b9050919050565b6000819050919050565b610a2d836109f8565b610a41610a3982610a1a565b848454610992565b825550505050565b600090565b610a56610a49565b610a61818484610a24565b505050565b5b81811015610a8557610a7a600082610a4e565b600181019050610a67565b5050565b601f821115610aca57610a9b81610960565b610aa484610975565b81016020851015610ab3578190505b610ac7610abf85610975565b830182610a66565b50505b505050565b600082821c905092915050565b6000610aed60001984600802610acf565b1980831691505092915050565b6000610b068383610adc565b9150826002028217905092915050565b610b1f826107f3565b67ffffffffffffffff811115610b3857610b37610643565b5b610b42825461092f565b610b4d828285610a89565b600060209050601f831160018114610b805760008415610b6e578287015190505b610b788582610afa565b865550610be0565b601f198416610b8e86610960565b60005b82811015610bb657848901518255600182019150602085019450602081019050610b91565b86831015610bd35784890151610bcf601f891682610adc565b8355505b6001600288020188555050505b505050505050565b600081905092915050565b6000610bfe826107f3565b610c088185610be8565b9350610c1881856020860161080f565b80840191505092915050565b6000610c308284610bf3565b915081905092915050565b7f496e76616c696420616464726573730000000000000000000000000000000000600082015250565b6000610c71600f836107fe565b9150610c7c82610c3b565b602082019050919050565b60006020820190508181036000830152610ca081610c64565b9050919050565b7f4f6e6c79206f776e6572206f7220757365722063616e2063616c6c207468697360008201527f2066756e6374696f6e0000000000000000000000000000000000000000000000602082015250565b6000610d036029836107fe565b9150610d0e82610ca7565b604082019050919050565b60006020820190508181036000830152610d3281610cf6565b905091905056fea2646970667358221220218d8290de2dd41b7ab69bb178ab4d29201a16864f5f0066d25950f6944330e764736f6c63430008130033",
  "linkReferences": {},
  "deployedLinkReferences": {}
}