{
  "_format": "hh-sol-artifact-1",
  "contractName": "User",
  "sourceName": "contracts/User.sol",
  "abi": [
    {
      "anonymous": false,
      "inputs": [
        {
          "indexed": true,
          "internalType": "address",
          "name": "userAddress",
          "type": "address"
        },
        {
          "indexed": true,
          "internalType": "string",
          "name": "CID",
          "type": "string"
        }
      ],
      "name": "UserRegistered",
      "type": "event"
    },
    {
      "inputs": [
        {
          "internalType": "address",
          "name": "_userAddress",
          "type": "address"
        }
      ],
      "name": "getUserCID",
      "outputs": [
        {
          "internalType": "string",
          "name": "",
          "type": "string"
        }
      ],
      "stateMutability": "view",
      "type": "function"
    },
    {
      "inputs": [
        {
          "internalType": "address",
          "name": "",
          "type": "address"
        }
      ],
      "name": "isUsers",
      "outputs": [
        {
          "internalType": "bool",
          "name": "",
          "type": "bool"
        }
      ],
      "stateMutability": "view",
      "type": "function"
    },
    {
      "inputs": [],
      "name": "owner",
      "outputs": [
        {
          "internalType": "address payable",
          "name": "",
          "type": "address"
        }
      ],
      "stateMutability": "view",
      "type": "function"
    },
    {
      "inputs": [
        {
          "internalType": "string",
          "name": "_CID",
          "type": "string"
        }
      ],
      "name": "registerUser",
      "outputs": [],
      "stateMutability": "nonpayable",
      "type": "function"
    },
    {
      "inputs": [
        {
          "internalType": "address",
          "name": "",
          "type": "address"
        }
      ],
      "name": "userCID",
      "outputs": [
        {
          "internalType": "string",
          "name": "",
          "type": "string"
        }
      ],
      "stateMutability": "view",
      "type": "function"
    }
  ],
  "bytecode": "0x608060405234801561001057600080fd5b50336000806101000a81548173ffffffffffffffffffffffffffffffffffffffff021916908373ffffffffffffffffffffffffffffffffffffffff160217905550610e94806100606000396000f3fe608060405234801561001057600080fd5b50600436106100575760003560e01c8063296c0c071461005c578063704f1b941461008c5780638da5cb5b146100a8578063a5240e49146100c6578063e4d7c830146100f6575b600080fd5b61007660048036038101906100719190610658565b610126565b60405161008391906106a0565b60405180910390f35b6100a660048036038101906100a19190610801565b610146565b005b6100b061028b565b6040516100bd919061086b565b60405180910390f35b6100e060048036038101906100db9190610658565b6102af565b6040516100ed9190610905565b60405180910390f35b610110600480360381019061010b9190610658565b61034f565b60405161011d9190610905565b60405180910390f35b60026020528060005260406000206000915054906101000a900460ff1681565b600081511161018a576040517f08c379a000000000000000000000000000000000000000000000000000000000815260040161018190610973565b60405180910390fd5b80600160003373ffffffffffffffffffffffffffffffffffffffff1673ffffffffffffffffffffffffffffffffffffffff16815260200190815260200160002090816101d69190610ba9565b506001600260003373ffffffffffffffffffffffffffffffffffffffff1673ffffffffffffffffffffffffffffffffffffffff16815260200190815260200160002060006101000a81548160ff0219169083151502179055508060405161023d9190610cb7565b60405180910390203373ffffffffffffffffffffffffffffffffffffffff167f48cac28ad4dc618e15f4c2dd5e97751182f166de97b25618318b2112aa951a2f60405160405180910390a350565b60008054906101000a900473ffffffffffffffffffffffffffffffffffffffff1681565b600160205280600052604060002060009150905080546102ce906109c2565b80601f01602080910402602001604051908101604052809291908181526020018280546102fa906109c2565b80156103475780601f1061031c57610100808354040283529160200191610347565b820191906000526020600020905b81548152906001019060200180831161032a57829003601f168201915b505050505081565b606060011515600260003373ffffffffffffffffffffffffffffffffffffffff1673ffffffffffffffffffffffffffffffffffffffff16815260200190815260200160002060009054906101000a900460ff161515146103e4576040517f08c379a00000000000000000000000000000000000000000000000000000000081526004016103db90610d40565b60405180910390fd5b600073ffffffffffffffffffffffffffffffffffffffff168273ffffffffffffffffffffffffffffffffffffffff1603610453576040517f08c379a000000000000000000000000000000000000000000000000000000000815260040161044a90610dac565b60405180910390fd5b60008054906101000a900473ffffffffffffffffffffffffffffffffffffffff1673ffffffffffffffffffffffffffffffffffffffff163373ffffffffffffffffffffffffffffffffffffffff1614806104d857508173ffffffffffffffffffffffffffffffffffffffff163373ffffffffffffffffffffffffffffffffffffffff16145b610517576040517f08c379a000000000000000000000000000000000000000000000000000000000815260040161050e90610e3e565b60405180910390fd5b600160008373ffffffffffffffffffffffffffffffffffffffff1673ffffffffffffffffffffffffffffffffffffffff1681526020019081526020016000208054610561906109c2565b80601f016020809104026020016040519081016040528092919081815260200182805461058d906109c2565b80156105da5780601f106105af576101008083540402835291602001916105da565b820191906000526020600020905b8154815290600101906020018083116105bd57829003601f168201915b50505050509050919050565b6000604051905090565b600080fd5b600080fd5b600073ffffffffffffffffffffffffffffffffffffffff82169050919050565b6000610625826105fa565b9050919050565b6106358161061a565b811461064057600080fd5b50565b6000813590506106528161062c565b92915050565b60006020828403121561066e5761066d6105f0565b5b600061067c84828501610643565b91505092915050565b60008115159050919050565b61069a81610685565b82525050565b60006020820190506106b56000830184610691565b92915050565b600080fd5b600080fd5b6000601f19601f8301169050919050565b7f4e487b7100000000000000000000000000000000000000000000000000000000600052604160045260246000fd5b61070e826106c5565b810181811067ffffffffffffffff8211171561072d5761072c6106d6565b5b80604052505050565b60006107406105e6565b905061074c8282610705565b919050565b600067ffffffffffffffff82111561076c5761076b6106d6565b5b610775826106c5565b9050602081019050919050565b82818337600083830152505050565b60006107a461079f84610751565b610736565b9050828152602081018484840111156107c0576107bf6106c0565b5b6107cb848285610782565b509392505050565b600082601f8301126107e8576107e76106bb565b5b81356107f8848260208601610791565b91505092915050565b600060208284031215610817576108166105f0565b5b600082013567ffffffffffffffff811115610835576108346105f5565b5b610841848285016107d3565b91505092915050565b6000610855826105fa565b9050919050565b6108658161084a565b82525050565b6000602082019050610880600083018461085c565b92915050565b600081519050919050565b600082825260208201905092915050565b60005b838110156108c05780820151818401526020810190506108a5565b60008484015250505050565b60006108d782610886565b6108e18185610891565b93506108f18185602086016108a2565b6108fa816106c5565b840191505092915050565b6000602082019050818103600083015261091f81846108cc565b905092915050565b7f4349442063616e6e6f7420626520656d70747900000000000000000000000000600082015250565b600061095d601383610891565b915061096882610927565b602082019050919050565b6000602082019050818103600083015261098c81610950565b9050919050565b7f4e487b7100000000000000000000000000000000000000000000000000000000600052602260045260246000fd5b600060028204905060018216806109da57607f821691505b6020821081036109ed576109ec610993565b5b50919050565b60008190508160005260206000209050919050565b60006020601f8301049050919050565b600082821b905092915050565b600060088302610a557fffffffffffffffffffffffffffffffffffffffffffffffffffffffffffffffff82610a18565b610a5f8683610a18565b95508019841693508086168417925050509392505050565b6000819050919050565b6000819050919050565b6000610aa6610aa1610a9c84610a77565b610a81565b610a77565b9050919050565b6000819050919050565b610ac083610a8b565b610ad4610acc82610aad565b848454610a25565b825550505050565b600090565b610ae9610adc565b610af4818484610ab7565b505050565b5b81811015610b1857610b0d600082610ae1565b600181019050610afa565b5050565b601f821115610b5d57610b2e816109f3565b610b3784610a08565b81016020851015610b46578190505b610b5a610b5285610a08565b830182610af9565b50505b505050565b600082821c905092915050565b6000610b8060001984600802610b62565b1980831691505092915050565b6000610b998383610b6f565b9150826002028217905092915050565b610bb282610886565b67ffffffffffffffff811115610bcb57610bca6106d6565b5b610bd582546109c2565b610be0828285610b1c565b600060209050601f831160018114610c135760008415610c01578287015190505b610c0b8582610b8d565b865550610c73565b601f198416610c21866109f3565b60005b82811015610c4957848901518255600182019150602085019450602081019050610c24565b86831015610c665784890151610c62601f891682610b6f565b8355505b6001600288020188555050505b505050505050565b600081905092915050565b6000610c9182610886565b610c9b8185610c7b565b9350610cab8185602086016108a2565b80840191505092915050565b6000610cc38284610c86565b915081905092915050565b7f4f6e6c7920726567697374657265642075736572732063616e2063616c6c207460008201527f6869732066756e6374696f6e0000000000000000000000000000000000000000602082015250565b6000610d2a602c83610891565b9150610d3582610cce565b604082019050919050565b60006020820190508181036000830152610d5981610d1d565b9050919050565b7f496e76616c696420616464726573730000000000000000000000000000000000600082015250565b6000610d96600f83610891565b9150610da182610d60565b602082019050919050565b60006020820190508181036000830152610dc581610d89565b9050919050565b7f4f6e6c79206f776e6572206f7220757365722063616e2063616c6c207468697360008201527f2066756e6374696f6e0000000000000000000000000000000000000000000000602082015250565b6000610e28602983610891565b9150610e3382610dcc565b604082019050919050565b60006020820190508181036000830152610e5781610e1b565b905091905056fea26469706673582212207b8818ae99c8233f55b815e154221788858b12aa0906d8d2d44c22470cee34aa64736f6c63430008130033",
  "linkReferences": {},
  "deployedLinkReferences": {}
}