{
  "_format": "hh-sol-artifact-1",
  "contractName": "Tickets",
  "sourceName": "contracts/Tickets.sol",
  "abi": [
    {
      "anonymous": false,
      "inputs": [
        {
          "indexed": true,
          "internalType": "uint256",
          "name": "eventId",
          "type": "uint256"
        }
      ],
      "name": "EventCreated",
      "type": "event"
    },
    {
      "anonymous": false,
      "inputs": [
        {
          "indexed": true,
          "internalType": "address",
          "name": "organizerAddress",
          "type": "address"
        },
        {
          "indexed": true,
          "internalType": "string",
          "name": "CID",
          "type": "string"
        }
      ],
      "name": "OrganizerRegistered",
      "type": "event"
    },
    {
      "anonymous": false,
      "inputs": [
        {
          "indexed": true,
          "internalType": "uint256",
          "name": "eventId",
          "type": "uint256"
        },
        {
          "indexed": true,
          "internalType": "address",
          "name": "buyer",
          "type": "address"
        }
      ],
      "name": "TicketPurchased",
      "type": "event"
    },
    {
      "anonymous": false,
      "inputs": [
        {
          "indexed": true,
          "internalType": "address",
          "name": "userAddress",
          "type": "address"
        },
        {
          "indexed": true,
          "internalType": "string",
          "name": "CID",
          "type": "string"
        }
      ],
      "name": "UserRegistered",
      "type": "event"
    },
    {
      "inputs": [
        {
          "internalType": "uint256",
          "name": "_eventId",
          "type": "uint256"
        },
        {
          "internalType": "uint256",
          "name": "_totalAmount",
          "type": "uint256"
        },
        {
          "internalType": "uint256",
          "name": "_totalTickets",
          "type": "uint256"
        }
      ],
      "name": "buyTicket",
      "outputs": [],
      "stateMutability": "payable",
      "type": "function"
    },
    {
      "inputs": [
        {
          "internalType": "string",
          "name": "_eventCid",
          "type": "string"
        },
        {
          "internalType": "uint256",
          "name": "_totalTickets",
          "type": "uint256"
        },
        {
          "internalType": "uint256",
          "name": "_price",
          "type": "uint256"
        },
        {
          "internalType": "string",
          "name": "_eventImageCid",
          "type": "string"
        }
      ],
      "name": "createEvent",
      "outputs": [],
      "stateMutability": "payable",
      "type": "function"
    },
    {
      "inputs": [
        {
          "internalType": "uint256",
          "name": "",
          "type": "uint256"
        }
      ],
      "name": "events",
      "outputs": [
        {
          "internalType": "string",
          "name": "eventCID",
          "type": "string"
        },
        {
          "internalType": "uint256",
          "name": "totalTickets",
          "type": "uint256"
        },
        {
          "internalType": "uint256",
          "name": "remTickets",
          "type": "uint256"
        },
        {
          "internalType": "uint256",
          "name": "price",
          "type": "uint256"
        },
        {
          "internalType": "address payable",
          "name": "creator",
          "type": "address"
        },
        {
          "internalType": "string",
          "name": "eventImageCID",
          "type": "string"
        }
      ],
      "stateMutability": "view",
      "type": "function"
    },
    {
      "inputs": [],
      "name": "getAllEvents",
      "outputs": [
        {
          "components": [
            {
              "internalType": "string",
              "name": "eventCID",
              "type": "string"
            },
            {
              "internalType": "uint256",
              "name": "totalTickets",
              "type": "uint256"
            },
            {
              "internalType": "uint256",
              "name": "remTickets",
              "type": "uint256"
            },
            {
              "internalType": "uint256",
              "name": "price",
              "type": "uint256"
            },
            {
              "internalType": "address payable",
              "name": "creator",
              "type": "address"
            },
            {
              "internalType": "string",
              "name": "eventImageCID",
              "type": "string"
            }
          ],
          "internalType": "struct Tickets.Event[]",
          "name": "",
          "type": "tuple[]"
        }
      ],
      "stateMutability": "view",
      "type": "function"
    },
    {
      "inputs": [
        {
          "internalType": "uint256",
          "name": "_eventId",
          "type": "uint256"
        }
      ],
      "name": "getIpfsCID",
      "outputs": [
        {
          "internalType": "string",
          "name": "",
          "type": "string"
        }
      ],
      "stateMutability": "view",
      "type": "function"
    },
    {
      "inputs": [
        {
          "internalType": "address",
          "name": "_organizerAddress",
          "type": "address"
        }
      ],
      "name": "getOrganizerCID",
      "outputs": [
        {
          "internalType": "string",
          "name": "",
          "type": "string"
        }
      ],
      "stateMutability": "view",
      "type": "function"
    },
    {
      "inputs": [
        {
          "internalType": "address",
          "name": "_userAddress",
          "type": "address"
        }
      ],
      "name": "getUserCID",
      "outputs": [
        {
          "internalType": "string",
          "name": "",
          "type": "string"
        }
      ],
      "stateMutability": "view",
      "type": "function"
    },
    {
      "inputs": [
        {
          "internalType": "address",
          "name": "",
          "type": "address"
        }
      ],
      "name": "isUsers",
      "outputs": [
        {
          "internalType": "bool",
          "name": "",
          "type": "bool"
        }
      ],
      "stateMutability": "view",
      "type": "function"
    },
    {
      "inputs": [
        {
          "internalType": "address",
          "name": "",
          "type": "address"
        }
      ],
      "name": "organizerCID",
      "outputs": [
        {
          "internalType": "string",
          "name": "",
          "type": "string"
        }
      ],
      "stateMutability": "view",
      "type": "function"
    },
    {
      "inputs": [
        {
          "internalType": "address",
          "name": "",
          "type": "address"
        }
      ],
      "name": "organizers",
      "outputs": [
        {
          "internalType": "bool",
          "name": "",
          "type": "bool"
        }
      ],
      "stateMutability": "view",
      "type": "function"
    },
    {
      "inputs": [],
      "name": "owner",
      "outputs": [
        {
          "internalType": "address payable",
          "name": "",
          "type": "address"
        }
      ],
      "stateMutability": "view",
      "type": "function"
    },
    {
      "inputs": [
        {
          "internalType": "string",
          "name": "_CID",
          "type": "string"
        }
      ],
      "name": "registerEventOrganizer",
      "outputs": [],
      "stateMutability": "nonpayable",
      "type": "function"
    },
    {
      "inputs": [
        {
          "internalType": "string",
          "name": "_CID",
          "type": "string"
        }
      ],
      "name": "registerUser",
      "outputs": [],
      "stateMutability": "nonpayable",
      "type": "function"
    },
    {
      "inputs": [
        {
          "internalType": "address",
          "name": "",
          "type": "address"
        },
        {
          "internalType": "uint256",
          "name": "",
          "type": "uint256"
        }
      ],
      "name": "ticketHolders",
      "outputs": [
        {
          "internalType": "address",
          "name": "userAddress",
          "type": "address"
        },
        {
          "internalType": "string",
          "name": "eventName",
          "type": "string"
        },
        {
          "internalType": "uint256",
          "name": "eventId",
          "type": "uint256"
        },
        {
          "internalType": "uint256",
          "name": "ticketsOwned",
          "type": "uint256"
        }
      ],
      "stateMutability": "view",
      "type": "function"
    },
    {
      "inputs": [
        {
          "internalType": "address",
          "name": "",
          "type": "address"
        }
      ],
      "name": "userCID",
      "outputs": [
        {
          "internalType": "string",
          "name": "",
          "type": "string"
        }
      ],
      "stateMutability": "view",
      "type": "function"
    }
  ],
  "bytecode": "0x608060405234801561001057600080fd5b50336000806101000a81548173ffffffffffffffffffffffffffffffffffffffff021916908373ffffffffffffffffffffffffffffffffffffffff160217905550612ed4806100606000396000f3fe6080604052600436106100e85760003560e01c8063826155691161008a578063c4c6710d11610059578063c4c6710d14610348578063e4d7c83014610364578063f3ef0d88146103a1578063fb894fa2146103bd576100e8565b806382615569146102755780638da5cb5b146102b5578063a5240e49146102e0578063c27a500d1461031d576100e8565b806320e24413116100c657806320e24413146101a9578063296c0c07146101e657806363d3b01914610223578063704f1b941461024c576100e8565b8063038a03c4146100ed5780630544c5b91461012a5780630b79143014610167575b600080fd5b3480156100f957600080fd5b50610114600480360381019061010f9190611cbc565b6103fa565b6040516101219190611d79565b60405180910390f35b34801561013657600080fd5b50610151600480360381019061014c9190611df9565b610586565b60405161015e9190611e41565b60405180910390f35b34801561017357600080fd5b5061018e60048036038101906101899190611cbc565b6105a6565b6040516101a096959493929190611e8c565b60405180910390f35b3480156101b557600080fd5b506101d060048036038101906101cb9190611df9565b610712565b6040516101dd9190611d79565b60405180910390f35b3480156101f257600080fd5b5061020d60048036038101906102089190611df9565b6109a9565b60405161021a9190611e41565b60405180910390f35b34801561022f57600080fd5b5061024a60048036038101906102459190612030565b6109c9565b005b34801561025857600080fd5b50610273600480360381019061026e9190612030565b610b0e565b005b34801561028157600080fd5b5061029c60048036038101906102979190612079565b610c53565b6040516102ac94939291906120c8565b60405180910390f35b3480156102c157600080fd5b506102ca610d48565b6040516102d79190612114565b60405180910390f35b3480156102ec57600080fd5b5061030760048036038101906103029190611df9565b610d6c565b6040516103149190611d79565b60405180910390f35b34801561032957600080fd5b50610332610e0c565b60405161033f91906122e9565b60405180910390f35b610362600480360381019061035d919061230b565b611106565b005b34801561037057600080fd5b5061038b60048036038101906103869190611df9565b611523565b6040516103989190611d79565b60405180910390f35b6103bb60048036038101906103b6919061235e565b6117ba565b005b3480156103c957600080fd5b506103e460048036038101906103df9190611df9565b611b86565b6040516103f19190611d79565b60405180910390f35b606060011515600260003373ffffffffffffffffffffffffffffffffffffffff1673ffffffffffffffffffffffffffffffffffffffff16815260200190815260200160002060009054906101000a900460ff1615151461048f576040517f08c379a00000000000000000000000000000000000000000000000000000000081526004016104869061246f565b60405180910390fd5b6000821180156104a157506007548211155b6104e0576040517f08c379a00000000000000000000000000000000000000000000000000000000081526004016104d7906124db565b60405180910390fd5b6005600083815260200190815260200160002060000180546105019061252a565b80601f016020809104026020016040519081016040528092919081815260200182805461052d9061252a565b801561057a5780601f1061054f5761010080835404028352916020019161057a565b820191906000526020600020905b81548152906001019060200180831161055d57829003601f168201915b50505050509050919050565b60046020528060005260406000206000915054906101000a900460ff1681565b60056020528060005260406000206000915090508060000180546105c99061252a565b80601f01602080910402602001604051908101604052809291908181526020018280546105f59061252a565b80156106425780601f1061061757610100808354040283529160200191610642565b820191906000526020600020905b81548152906001019060200180831161062557829003601f168201915b5050505050908060010154908060020154908060030154908060040160009054906101000a900473ffffffffffffffffffffffffffffffffffffffff169080600501805461068f9061252a565b80601f01602080910402602001604051908101604052809291908181526020018280546106bb9061252a565b80156107085780601f106106dd57610100808354040283529160200191610708565b820191906000526020600020905b8154815290600101906020018083116106eb57829003601f168201915b5050505050905086565b606060011515600460003373ffffffffffffffffffffffffffffffffffffffff1673ffffffffffffffffffffffffffffffffffffffff16815260200190815260200160002060009054906101000a900460ff161515146107a7576040517f08c379a000000000000000000000000000000000000000000000000000000000815260040161079e906125cd565b60405180910390fd5b600073ffffffffffffffffffffffffffffffffffffffff168273ffffffffffffffffffffffffffffffffffffffff1603610816576040517f08c379a000000000000000000000000000000000000000000000000000000000815260040161080d90612639565b60405180910390fd5b60008054906101000a900473ffffffffffffffffffffffffffffffffffffffff1673ffffffffffffffffffffffffffffffffffffffff163373ffffffffffffffffffffffffffffffffffffffff16148061089b57508173ffffffffffffffffffffffffffffffffffffffff163373ffffffffffffffffffffffffffffffffffffffff16145b6108da576040517f08c379a00000000000000000000000000000000000000000000000000000000081526004016108d1906126cb565b60405180910390fd5b600360008373ffffffffffffffffffffffffffffffffffffffff1673ffffffffffffffffffffffffffffffffffffffff16815260200190815260200160002080546109249061252a565b80601f01602080910402602001604051908101604052809291908181526020018280546109509061252a565b801561099d5780601f106109725761010080835404028352916020019161099d565b820191906000526020600020905b81548152906001019060200180831161098057829003601f168201915b50505050509050919050565b60026020528060005260406000206000915054906101000a900460ff1681565b6000815111610a0d576040517f08c379a0000000000000000000000000000000000000000000000000000000008152600401610a0490612737565b60405180910390fd5b80600360003373ffffffffffffffffffffffffffffffffffffffff1673ffffffffffffffffffffffffffffffffffffffff1681526020019081526020016000209081610a599190612903565b506001600460003373ffffffffffffffffffffffffffffffffffffffff1673ffffffffffffffffffffffffffffffffffffffff16815260200190815260200160002060006101000a81548160ff02191690831515021790555080604051610ac09190612a11565b60405180910390203373ffffffffffffffffffffffffffffffffffffffff167fac35be65b927c19690056f54322574255afb94436fc8b4637810cfcc1fb3daae60405160405180910390a350565b6000815111610b52576040517f08c379a0000000000000000000000000000000000000000000000000000000008152600401610b4990612737565b60405180910390fd5b80600160003373ffffffffffffffffffffffffffffffffffffffff1673ffffffffffffffffffffffffffffffffffffffff1681526020019081526020016000209081610b9e9190612903565b506001600260003373ffffffffffffffffffffffffffffffffffffffff1673ffffffffffffffffffffffffffffffffffffffff16815260200190815260200160002060006101000a81548160ff02191690831515021790555080604051610c059190612a11565b60405180910390203373ffffffffffffffffffffffffffffffffffffffff167f48cac28ad4dc618e15f4c2dd5e97751182f166de97b25618318b2112aa951a2f60405160405180910390a350565b60066020528160005260406000208181548110610c6f57600080fd5b9060005260206000209060040201600091509150508060000160009054906101000a900473ffffffffffffffffffffffffffffffffffffffff1690806001018054610cb99061252a565b80601f0160208091040260200160405190810160405280929190818152602001828054610ce59061252a565b8015610d325780601f10610d0757610100808354040283529160200191610d32565b820191906000526020600020905b815481529060010190602001808311610d1557829003601f168201915b5050505050908060020154908060030154905084565b60008054906101000a900473ffffffffffffffffffffffffffffffffffffffff1681565b60016020528060005260406000206000915090508054610d8b9061252a565b80601f0160208091040260200160405190810160405280929190818152602001828054610db79061252a565b8015610e045780601f10610dd957610100808354040283529160200191610e04565b820191906000526020600020905b815481529060010190602001808311610de757829003601f168201915b505050505081565b606060011515600260003373ffffffffffffffffffffffffffffffffffffffff1673ffffffffffffffffffffffffffffffffffffffff16815260200190815260200160002060009054906101000a900460ff16151514610ea1576040517f08c379a0000000000000000000000000000000000000000000000000000000008152600401610e989061246f565b60405180910390fd5b600060075467ffffffffffffffff811115610ebf57610ebe611f05565b5b604051908082528060200260200182016040528015610ef857816020015b610ee5611c26565b815260200190600190039081610edd5790505b5090506000600190505b60075481116110fe57600560008281526020019081526020016000206040518060c0016040529081600082018054610f399061252a565b80601f0160208091040260200160405190810160405280929190818152602001828054610f659061252a565b8015610fb25780601f10610f8757610100808354040283529160200191610fb2565b820191906000526020600020905b815481529060010190602001808311610f9557829003601f168201915b505050505081526020016001820154815260200160028201548152602001600382015481526020016004820160009054906101000a900473ffffffffffffffffffffffffffffffffffffffff1673ffffffffffffffffffffffffffffffffffffffff1673ffffffffffffffffffffffffffffffffffffffff16815260200160058201805461103f9061252a565b80601f016020809104026020016040519081016040528092919081815260200182805461106b9061252a565b80156110b85780601f1061108d576101008083540402835291602001916110b8565b820191906000526020600020905b81548152906001019060200180831161109b57829003601f168201915b505050505081525050826001836110cf9190612a57565b815181106110e0576110df612a8b565b5b602002602001018190525080806110f690612aba565b915050610f02565b508091505090565b60011515600260003373ffffffffffffffffffffffffffffffffffffffff1673ffffffffffffffffffffffffffffffffffffffff16815260200190815260200160002060009054906101000a900460ff16151514611199576040517f08c379a00000000000000000000000000000000000000000000000000000000081526004016111909061246f565b60405180910390fd5b6007548311156111de576040517f08c379a00000000000000000000000000000000000000000000000000000000081526004016111d5906124db565b60405180910390fd5b60008211611221576040517f08c379a000000000000000000000000000000000000000000000000000000000815260040161121890612b74565b60405180910390fd5b806005600085815260200190815260200160002060020154101561127a576040517f08c379a000000000000000000000000000000000000000000000000000000000815260040161127190612be0565b60405180910390fd5b6005600084815260200190815260200160002060040160009054906101000a900473ffffffffffffffffffffffffffffffffffffffff1673ffffffffffffffffffffffffffffffffffffffff166108fc839081150290604051600060405180830381858888f193505050501580156112f6573d6000803e3d6000fd5b508160056000858152602001908152602001600020600201600082825461131d9190612a57565b925050819055506000600660003373ffffffffffffffffffffffffffffffffffffffff1673ffffffffffffffffffffffffffffffffffffffff16815260200190815260200160002090508060405180608001604052803373ffffffffffffffffffffffffffffffffffffffff1681526020016005600088815260200190815260200160002060000180546113b09061252a565b80601f01602080910402602001604051908101604052809291908181526020018280546113dc9061252a565b80156114295780601f106113fe57610100808354040283529160200191611429565b820191906000526020600020905b81548152906001019060200180831161140c57829003601f168201915b5050505050815260200186815260200184815250908060018154018082558091505060019003906000526020600020906004020160009091909190915060008201518160000160006101000a81548173ffffffffffffffffffffffffffffffffffffffff021916908373ffffffffffffffffffffffffffffffffffffffff16021790555060208201518160010190816114c29190612903565b50604082015181600201556060820151816003015550503373ffffffffffffffffffffffffffffffffffffffff16847f785f2865353ae960010300f584fc6c577b757a853af69a99c769df3c8232d3de60405160405180910390a350505050565b606060011515600260003373ffffffffffffffffffffffffffffffffffffffff1673ffffffffffffffffffffffffffffffffffffffff16815260200190815260200160002060009054906101000a900460ff161515146115b8576040517f08c379a00000000000000000000000000000000000000000000000000000000081526004016115af9061246f565b60405180910390fd5b600073ffffffffffffffffffffffffffffffffffffffff168273ffffffffffffffffffffffffffffffffffffffff1603611627576040517f08c379a000000000000000000000000000000000000000000000000000000000815260040161161e90612639565b60405180910390fd5b60008054906101000a900473ffffffffffffffffffffffffffffffffffffffff1673ffffffffffffffffffffffffffffffffffffffff163373ffffffffffffffffffffffffffffffffffffffff1614806116ac57508173ffffffffffffffffffffffffffffffffffffffff163373ffffffffffffffffffffffffffffffffffffffff16145b6116eb576040517f08c379a00000000000000000000000000000000000000000000000000000000081526004016116e290612c72565b60405180910390fd5b600160008373ffffffffffffffffffffffffffffffffffffffff1673ffffffffffffffffffffffffffffffffffffffff16815260200190815260200160002080546117359061252a565b80601f01602080910402602001604051908101604052809291908181526020018280546117619061252a565b80156117ae5780601f10611783576101008083540402835291602001916117ae565b820191906000526020600020905b81548152906001019060200180831161179157829003601f168201915b50505050509050919050565b60011515600460003373ffffffffffffffffffffffffffffffffffffffff1673ffffffffffffffffffffffffffffffffffffffff16815260200190815260200160002060009054906101000a900460ff1615151461184d576040517f08c379a0000000000000000000000000000000000000000000000000000000008152600401611844906125cd565b60405180910390fd5b6000845111611891576040517f08c379a000000000000000000000000000000000000000000000000000000000815260040161188890612cde565b60405180910390fd5b60008151116118d5576040517f08c379a00000000000000000000000000000000000000000000000000000000081526004016118cc90612d70565b60405180910390fd5b60008311611918576040517f08c379a000000000000000000000000000000000000000000000000000000000815260040161190f90612b74565b60405180910390fd5b600060646003858561192a9190612d90565b6119349190612d90565b61193e9190612e01565b905080341015611983576040517f08c379a000000000000000000000000000000000000000000000000000000000815260040161197a90612e7e565b60405180910390fd5b600081346119919190612a57565b905060008111156119e4573373ffffffffffffffffffffffffffffffffffffffff166108fc829081150290604051600060405180830381858888f193505050501580156119e2573d6000803e3d6000fd5b505b60008054906101000a900473ffffffffffffffffffffffffffffffffffffffff1673ffffffffffffffffffffffffffffffffffffffff166108fc839081150290604051600060405180830381858888f19350505050158015611a4a573d6000803e3d6000fd5b5060076000815480929190611a5e90612aba565b91905055506007547f748ff5cfd7b66bdd8e21581c2a864756fe7085378c0003183e579bfafba2832560405160405180910390a26040518060c001604052808781526020018681526020018681526020018581526020013373ffffffffffffffffffffffffffffffffffffffff168152602001848152506005600060075481526020019081526020016000206000820151816000019081611aff9190612903565b5060208201518160010155604082015181600201556060820151816003015560808201518160040160006101000a81548173ffffffffffffffffffffffffffffffffffffffff021916908373ffffffffffffffffffffffffffffffffffffffff16021790555060a0820151816005019081611b7a9190612903565b50905050505050505050565b60036020528060005260406000206000915090508054611ba59061252a565b80601f0160208091040260200160405190810160405280929190818152602001828054611bd19061252a565b8015611c1e5780601f10611bf357610100808354040283529160200191611c1e565b820191906000526020600020905b815481529060010190602001808311611c0157829003601f168201915b505050505081565b6040518060c0016040528060608152602001600081526020016000815260200160008152602001600073ffffffffffffffffffffffffffffffffffffffff168152602001606081525090565b6000604051905090565b600080fd5b600080fd5b6000819050919050565b611c9981611c86565b8114611ca457600080fd5b50565b600081359050611cb681611c90565b92915050565b600060208284031215611cd257611cd1611c7c565b5b6000611ce084828501611ca7565b91505092915050565b600081519050919050565b600082825260208201905092915050565b60005b83811015611d23578082015181840152602081019050611d08565b60008484015250505050565b6000601f19601f8301169050919050565b6000611d4b82611ce9565b611d558185611cf4565b9350611d65818560208601611d05565b611d6e81611d2f565b840191505092915050565b60006020820190508181036000830152611d938184611d40565b905092915050565b600073ffffffffffffffffffffffffffffffffffffffff82169050919050565b6000611dc682611d9b565b9050919050565b611dd681611dbb565b8114611de157600080fd5b50565b600081359050611df381611dcd565b92915050565b600060208284031215611e0f57611e0e611c7c565b5b6000611e1d84828501611de4565b91505092915050565b60008115159050919050565b611e3b81611e26565b82525050565b6000602082019050611e566000830184611e32565b92915050565b611e6581611c86565b82525050565b6000611e7682611d9b565b9050919050565b611e8681611e6b565b82525050565b600060c0820190508181036000830152611ea68189611d40565b9050611eb56020830188611e5c565b611ec26040830187611e5c565b611ecf6060830186611e5c565b611edc6080830185611e7d565b81810360a0830152611eee8184611d40565b9050979650505050505050565b600080fd5b600080fd5b7f4e487b7100000000000000000000000000000000000000000000000000000000600052604160045260246000fd5b611f3d82611d2f565b810181811067ffffffffffffffff82111715611f5c57611f5b611f05565b5b80604052505050565b6000611f6f611c72565b9050611f7b8282611f34565b919050565b600067ffffffffffffffff821115611f9b57611f9a611f05565b5b611fa482611d2f565b9050602081019050919050565b82818337600083830152505050565b6000611fd3611fce84611f80565b611f65565b905082815260208101848484011115611fef57611fee611f00565b5b611ffa848285611fb1565b509392505050565b600082601f83011261201757612016611efb565b5b8135612027848260208601611fc0565b91505092915050565b60006020828403121561204657612045611c7c565b5b600082013567ffffffffffffffff81111561206457612063611c81565b5b61207084828501612002565b91505092915050565b600080604083850312156120905761208f611c7c565b5b600061209e85828601611de4565b92505060206120af85828601611ca7565b9150509250929050565b6120c281611dbb565b82525050565b60006080820190506120dd60008301876120b9565b81810360208301526120ef8186611d40565b90506120fe6040830185611e5c565b61210b6060830184611e5c565b95945050505050565b60006020820190506121296000830184611e7d565b92915050565b600081519050919050565b600082825260208201905092915050565b6000819050602082019050919050565b600082825260208201905092915050565b600061217782611ce9565b612181818561215b565b9350612191818560208601611d05565b61219a81611d2f565b840191505092915050565b6121ae81611c86565b82525050565b6121bd81611e6b565b82525050565b600060c08301600083015184820360008601526121e0828261216c565b91505060208301516121f560208601826121a5565b50604083015161220860408601826121a5565b50606083015161221b60608601826121a5565b50608083015161222e60808601826121b4565b5060a083015184820360a0860152612246828261216c565b9150508091505092915050565b600061225f83836121c3565b905092915050565b6000602082019050919050565b600061227f8261212f565b612289818561213a565b93508360208202850161229b8561214b565b8060005b858110156122d757848403895281516122b88582612253565b94506122c383612267565b925060208a0199505060018101905061229f565b50829750879550505050505092915050565b600060208201905081810360008301526123038184612274565b905092915050565b60008060006060848603121561232457612323611c7c565b5b600061233286828701611ca7565b935050602061234386828701611ca7565b925050604061235486828701611ca7565b9150509250925092565b6000806000806080858703121561237857612377611c7c565b5b600085013567ffffffffffffffff81111561239657612395611c81565b5b6123a287828801612002565b94505060206123b387828801611ca7565b93505060406123c487828801611ca7565b925050606085013567ffffffffffffffff8111156123e5576123e4611c81565b5b6123f187828801612002565b91505092959194509250565b7f4f6e6c7920726567697374657265642075736572732063616e2063616c6c207460008201527f6869732066756e6374696f6e0000000000000000000000000000000000000000602082015250565b6000612459602c83611cf4565b9150612464826123fd565b604082019050919050565b600060208201905081810360008301526124888161244c565b9050919050565b7f4576656e7420646f6573206e6f74206578697374000000000000000000000000600082015250565b60006124c5601483611cf4565b91506124d08261248f565b602082019050919050565b600060208201905081810360008301526124f4816124b8565b9050919050565b7f4e487b7100000000000000000000000000000000000000000000000000000000600052602260045260246000fd5b6000600282049050600182168061254257607f821691505b602082108103612555576125546124fb565b5b50919050565b7f4f6e6c792072656769737465726564206f7267616e697a6572732063616e206360008201527f616c6c20746869732066756e6374696f6e000000000000000000000000000000602082015250565b60006125b7603183611cf4565b91506125c28261255b565b604082019050919050565b600060208201905081810360008301526125e6816125aa565b9050919050565b7f496e76616c696420616464726573730000000000000000000000000000000000600082015250565b6000612623600f83611cf4565b915061262e826125ed565b602082019050919050565b6000602082019050818103600083015261265281612616565b9050919050565b7f4f6e6c79206f776e6572206f72206f7267616e697a65722063616e2063616c6c60008201527f20746869732066756e6374696f6e000000000000000000000000000000000000602082015250565b60006126b5602e83611cf4565b91506126c082612659565b604082019050919050565b600060208201905081810360008301526126e4816126a8565b9050919050565b7f4349442063616e6e6f7420626520656d70747900000000000000000000000000600082015250565b6000612721601383611cf4565b915061272c826126eb565b602082019050919050565b6000602082019050818103600083015261275081612714565b9050919050565b60008190508160005260206000209050919050565b60006020601f8301049050919050565b600082821b905092915050565b6000600883026127b97fffffffffffffffffffffffffffffffffffffffffffffffffffffffffffffffff8261277c565b6127c3868361277c565b95508019841693508086168417925050509392505050565b6000819050919050565b60006128006127fb6127f684611c86565b6127db565b611c86565b9050919050565b6000819050919050565b61281a836127e5565b61282e61282682612807565b848454612789565b825550505050565b600090565b612843612836565b61284e818484612811565b505050565b5b818110156128725761286760008261283b565b600181019050612854565b5050565b601f8211156128b75761288881612757565b6128918461276c565b810160208510156128a0578190505b6128b46128ac8561276c565b830182612853565b50505b505050565b600082821c905092915050565b60006128da600019846008026128bc565b1980831691505092915050565b60006128f383836128c9565b9150826002028217905092915050565b61290c82611ce9565b67ffffffffffffffff81111561292557612924611f05565b5b61292f825461252a565b61293a828285612876565b600060209050601f83116001811461296d576000841561295b578287015190505b61296585826128e7565b8655506129cd565b601f19841661297b86612757565b60005b828110156129a35784890151825560018201915060208501945060208101905061297e565b868310156129c057848901516129bc601f8916826128c9565b8355505b6001600288020188555050505b505050505050565b600081905092915050565b60006129eb82611ce9565b6129f581856129d5565b9350612a05818560208601611d05565b80840191505092915050565b6000612a1d82846129e0565b915081905092915050565b7f4e487b7100000000000000000000000000000000000000000000000000000000600052601160045260246000fd5b6000612a6282611c86565b9150612a6d83611c86565b9250828203905081811115612a8557612a84612a28565b5b92915050565b7f4e487b7100000000000000000000000000000000000000000000000000000000600052603260045260246000fd5b6000612ac582611c86565b91507fffffffffffffffffffffffffffffffffffffffffffffffffffffffffffffffff8203612af757612af6612a28565b5b600182019050919050565b7f546f74616c207469636b6574732073686f756c6420626520677265617465722060008201527f7468616e20300000000000000000000000000000000000000000000000000000602082015250565b6000612b5e602683611cf4565b9150612b6982612b02565b604082019050919050565b60006020820190508181036000830152612b8d81612b51565b9050919050565b7f4e6f7420656e6f756768207469636b657473206c656674000000000000000000600082015250565b6000612bca601783611cf4565b9150612bd582612b94565b602082019050919050565b60006020820190508181036000830152612bf981612bbd565b9050919050565b7f4f6e6c79206f776e6572206f7220757365722063616e2063616c6c207468697360008201527f2066756e6374696f6e0000000000000000000000000000000000000000000000602082015250565b6000612c5c602983611cf4565b9150612c6782612c00565b604082019050919050565b60006020820190508181036000830152612c8b81612c4f565b9050919050565b7f4576656e74204349442073686f756c64206e6f7420626520656d707479000000600082015250565b6000612cc8601d83611cf4565b9150612cd382612c92565b602082019050919050565b60006020820190508181036000830152612cf781612cbb565b9050919050565b7f4576656e7420496d616765204349442073686f756c64206e6f7420626520656d60008201527f7074790000000000000000000000000000000000000000000000000000000000602082015250565b6000612d5a602383611cf4565b9150612d6582612cfe565b604082019050919050565b60006020820190508181036000830152612d8981612d4d565b9050919050565b6000612d9b82611c86565b9150612da683611c86565b9250828202612db481611c86565b91508282048414831517612dcb57612dca612a28565b5b5092915050565b7f4e487b7100000000000000000000000000000000000000000000000000000000600052601260045260246000fd5b6000612e0c82611c86565b9150612e1783611c86565b925082612e2757612e26612dd2565b5b828204905092915050565b7f4e6f7420656e6f7567682065746865722073656e740000000000000000000000600082015250565b6000612e68601583611cf4565b9150612e7382612e32565b602082019050919050565b60006020820190508181036000830152612e9781612e5b565b905091905056fea264697066735822122045808c20cf2311a4cbc1115f6124b5c435cc353afca1ed470da6ef8506cfbe6364736f6c63430008130033",
  "linkReferences": {},
  "deployedLinkReferences": {}
}