{
  "_format": "hh-sol-artifact-1",
  "contractName": "Tickets",
  "sourceName": "contracts/Tickets.sol",
  "abi": [
    {
      "inputs": [],
      "stateMutability": "nonpayable",
      "type": "constructor"
    },
    {
      "anonymous": false,
      "inputs": [
        {
          "indexed": false,
          "internalType": "uint256",
          "name": "eventId",
          "type": "uint256"
        },
        {
          "indexed": true,
          "internalType": "address",
          "name": "organizer",
          "type": "address"
        },
        {
          "indexed": false,
          "internalType": "string",
          "name": "eventCid",
          "type": "string"
        },
        {
          "indexed": false,
          "internalType": "uint256",
          "name": "creationTime",
          "type": "uint256"
        }
      ],
      "name": "EventCreated",
      "type": "event"
    },
    {
      "anonymous": false,
      "inputs": [
        {
          "indexed": true,
          "internalType": "address",
          "name": "organizerAddress",
          "type": "address"
        },
        {
          "indexed": false,
          "internalType": "string",
          "name": "CID",
          "type": "string"
        },
        {
          "indexed": false,
          "internalType": "uint256",
          "name": "registerTime",
          "type": "uint256"
        }
      ],
      "name": "OrganizerRegistered",
      "type": "event"
    },
    {
      "anonymous": false,
      "inputs": [
        {
          "indexed": false,
          "internalType": "uint256",
          "name": "eventId",
          "type": "uint256"
        },
        {
          "indexed": false,
          "internalType": "uint256",
          "name": "ticketsBought",
          "type": "uint256"
        },
        {
          "indexed": true,
          "internalType": "address",
          "name": "buyer",
          "type": "address"
        },
        {
          "indexed": false,
          "internalType": "uint256",
          "name": "purchaseTime",
          "type": "uint256"
        }
      ],
      "name": "TicketPurchased",
      "type": "event"
    },
    {
      "inputs": [
        {
          "internalType": "uint256",
          "name": "",
          "type": "uint256"
        }
      ],
      "name": "allEvents",
      "outputs": [
        {
          "internalType": "string",
          "name": "eventCID",
          "type": "string"
        },
        {
          "internalType": "uint256",
          "name": "totalTickets",
          "type": "uint256"
        },
        {
          "internalType": "uint256",
          "name": "remTickets",
          "type": "uint256"
        },
        {
          "internalType": "uint256",
          "name": "price",
          "type": "uint256"
        },
        {
          "internalType": "address payable",
          "name": "creator",
          "type": "address"
        }
      ],
      "stateMutability": "view",
      "type": "function"
    },
    {
      "inputs": [
        {
          "internalType": "uint256",
          "name": "",
          "type": "uint256"
        }
      ],
      "name": "allOrganizerCid",
      "outputs": [
        {
          "internalType": "string",
          "name": "",
          "type": "string"
        }
      ],
      "stateMutability": "view",
      "type": "function"
    },
    {
      "inputs": [
        {
          "internalType": "uint256",
          "name": "",
          "type": "uint256"
        }
      ],
      "name": "allOrganizers",
      "outputs": [
        {
          "internalType": "address",
          "name": "",
          "type": "address"
        }
      ],
      "stateMutability": "view",
      "type": "function"
    },
    {
      "inputs": [
        {
          "internalType": "uint256",
          "name": "",
          "type": "uint256"
        }
      ],
      "name": "allTicketHolders",
      "outputs": [
        {
          "internalType": "address",
          "name": "",
          "type": "address"
        }
      ],
      "stateMutability": "view",
      "type": "function"
    },
    {
      "inputs": [
        {
          "internalType": "uint256",
          "name": "_eventId",
          "type": "uint256"
        },
        {
          "internalType": "uint256",
          "name": "_totalTicketsToBuy",
          "type": "uint256"
        }
      ],
      "name": "buyTicket",
      "outputs": [],
      "stateMutability": "payable",
      "type": "function"
    },
    {
      "inputs": [
        {
          "internalType": "string",
          "name": "_eventCid",
          "type": "string"
        },
        {
          "internalType": "uint256",
          "name": "_totalTickets",
          "type": "uint256"
        },
        {
          "internalType": "uint256",
          "name": "_price",
          "type": "uint256"
        }
      ],
      "name": "createEvent",
      "outputs": [],
      "stateMutability": "payable",
      "type": "function"
    },
    {
      "inputs": [
        {
          "internalType": "uint256",
          "name": "",
          "type": "uint256"
        }
      ],
      "name": "events",
      "outputs": [
        {
          "internalType": "string",
          "name": "eventCID",
          "type": "string"
        },
        {
          "internalType": "uint256",
          "name": "totalTickets",
          "type": "uint256"
        },
        {
          "internalType": "uint256",
          "name": "remTickets",
          "type": "uint256"
        },
        {
          "internalType": "uint256",
          "name": "price",
          "type": "uint256"
        },
        {
          "internalType": "address payable",
          "name": "creator",
          "type": "address"
        }
      ],
      "stateMutability": "view",
      "type": "function"
    },
    {
      "inputs": [],
      "name": "getAllEvents",
      "outputs": [
        {
          "components": [
            {
              "internalType": "string",
              "name": "eventCID",
              "type": "string"
            },
            {
              "internalType": "uint256",
              "name": "totalTickets",
              "type": "uint256"
            },
            {
              "internalType": "uint256",
              "name": "remTickets",
              "type": "uint256"
            },
            {
              "internalType": "uint256",
              "name": "price",
              "type": "uint256"
            },
            {
              "internalType": "address payable",
              "name": "creator",
              "type": "address"
            }
          ],
          "internalType": "struct Tickets.Event[]",
          "name": "",
          "type": "tuple[]"
        }
      ],
      "stateMutability": "view",
      "type": "function"
    },
    {
      "inputs": [],
      "name": "getAllOrganizerCID",
      "outputs": [
        {
          "internalType": "string[]",
          "name": "",
          "type": "string[]"
        }
      ],
      "stateMutability": "view",
      "type": "function"
    },
    {
      "inputs": [],
      "name": "getAllOrganizers",
      "outputs": [
        {
          "internalType": "address[]",
          "name": "",
          "type": "address[]"
        }
      ],
      "stateMutability": "view",
      "type": "function"
    },
    {
      "inputs": [
        {
          "internalType": "address",
          "name": "_useraddress",
          "type": "address"
        }
      ],
      "name": "getTicket",
      "outputs": [
        {
          "components": [
            {
              "internalType": "address",
              "name": "userAddress",
              "type": "address"
            },
            {
              "internalType": "string",
              "name": "eventName",
              "type": "string"
            },
            {
              "internalType": "uint256",
              "name": "eventId",
              "type": "uint256"
            },
            {
              "internalType": "uint256",
              "name": "ticketsOwned",
              "type": "uint256"
            },
            {
              "internalType": "uint256",
              "name": "purchaseTime",
              "type": "uint256"
            },
            {
              "internalType": "uint256",
              "name": "price",
              "type": "uint256"
            }
          ],
          "internalType": "struct Tickets.TicketHolder[]",
          "name": "",
          "type": "tuple[]"
        }
      ],
      "stateMutability": "view",
      "type": "function"
    },
    {
      "inputs": [
        {
          "internalType": "address",
          "name": "_organizerAddress",
          "type": "address"
        }
      ],
      "name": "isOrganizers",
      "outputs": [
        {
          "internalType": "bool",
          "name": "",
          "type": "bool"
        }
      ],
      "stateMutability": "view",
      "type": "function"
    },
    {
      "inputs": [],
      "name": "isOwner",
      "outputs": [
        {
          "internalType": "bool",
          "name": "",
          "type": "bool"
        }
      ],
      "stateMutability": "view",
      "type": "function"
    },
    {
      "inputs": [
        {
          "internalType": "address",
          "name": "",
          "type": "address"
        }
      ],
      "name": "organizerCID",
      "outputs": [
        {
          "internalType": "string",
          "name": "",
          "type": "string"
        }
      ],
      "stateMutability": "view",
      "type": "function"
    },
    {
      "inputs": [
        {
          "internalType": "address",
          "name": "",
          "type": "address"
        }
      ],
      "name": "organizers",
      "outputs": [
        {
          "internalType": "bool",
          "name": "",
          "type": "bool"
        }
      ],
      "stateMutability": "view",
      "type": "function"
    },
    {
      "inputs": [],
      "name": "owner",
      "outputs": [
        {
          "internalType": "address payable",
          "name": "",
          "type": "address"
        }
      ],
      "stateMutability": "view",
      "type": "function"
    },
    {
      "inputs": [
        {
          "internalType": "string",
          "name": "_CID",
          "type": "string"
        }
      ],
      "name": "registerEventOrganizer",
      "outputs": [],
      "stateMutability": "nonpayable",
      "type": "function"
    },
    {
      "inputs": [],
      "name": "ticketHolderAddress",
      "outputs": [
        {
          "internalType": "address[]",
          "name": "",
          "type": "address[]"
        }
      ],
      "stateMutability": "view",
      "type": "function"
    },
    {
      "inputs": [
        {
          "internalType": "address",
          "name": "",
          "type": "address"
        },
        {
          "internalType": "uint256",
          "name": "",
          "type": "uint256"
        }
      ],
      "name": "ticketHolders",
      "outputs": [
        {
          "internalType": "address",
          "name": "userAddress",
          "type": "address"
        },
        {
          "internalType": "string",
          "name": "eventName",
          "type": "string"
        },
        {
          "internalType": "uint256",
          "name": "eventId",
          "type": "uint256"
        },
        {
          "internalType": "uint256",
          "name": "ticketsOwned",
          "type": "uint256"
        },
        {
          "internalType": "uint256",
          "name": "purchaseTime",
          "type": "uint256"
        },
        {
          "internalType": "uint256",
          "name": "price",
          "type": "uint256"
        }
      ],
      "stateMutability": "view",
      "type": "function"
    }
  ],
  "bytecode": "0x608060405234801561001057600080fd5b5033600460006101000a81548173ffffffffffffffffffffffffffffffffffffffff021916908373ffffffffffffffffffffffffffffffffffffffff160217905550613092806100616000396000f3fe6080604052600436106101145760003560e01c806363d3b019116100a05780638f32d59b116100645780638f32d59b146103ff5780639e9580f61461042a578063b19588a614610446578063c27a500d14610483578063fb894fa2146104ae57610114565b806363d3b019146103015780636e389f901461032a5780637b656dcc1461036757806382615569146103925780638da5cb5b146103d457610114565b80631e67f721116100e75780631e67f721146101ff578063298ec2081461022a5780633bec5cff146102465780633e81bca0146102875780634717dea9146102c457610114565b80630544c5b9146101195780630b791430146101565780630c8c9b45146101975780631ba2e62a146101c2575b600080fd5b34801561012557600080fd5b50610140600480360381019061013b9190611ba6565b6104eb565b60405161014d9190611bee565b60405180910390f35b34801561016257600080fd5b5061017d60048036038101906101789190611c3f565b61050b565b60405161018e959493929190611d2c565b60405180910390f35b3480156101a357600080fd5b506101ac6105e9565b6040516101b99190611e44565b60405180910390f35b3480156101ce57600080fd5b506101e960048036038101906101e49190611c3f565b610677565b6040516101f69190611e66565b60405180910390f35b34801561020b57600080fd5b50610214610723565b6040516102219190611e44565b60405180910390f35b610244600480360381019061023f9190611e88565b6107f8565b005b34801561025257600080fd5b5061026d60048036038101906102689190611c3f565b610d2a565b60405161027e959493929190611d2c565b60405180910390f35b34801561029357600080fd5b506102ae60048036038101906102a99190611c3f565b610e18565b6040516102bb9190611ed7565b60405180910390f35b3480156102d057600080fd5b506102eb60048036038101906102e69190611ba6565b610e57565b6040516102f89190612096565b60405180910390f35b34801561030d57600080fd5b50610328600480360381019061032391906121ed565b611005565b005b34801561033657600080fd5b50610351600480360381019061034c9190611ba6565b6111d9565b60405161035e9190611bee565b60405180910390f35b34801561037357600080fd5b5061037c61122f565b60405161038991906122f8565b60405180910390f35b34801561039e57600080fd5b506103b960048036038101906103b4919061231a565b611308565b6040516103cb9695949392919061235a565b60405180910390f35b3480156103e057600080fd5b506103e9611409565b6040516103f691906123c2565b60405180910390f35b34801561040b57600080fd5b5061041461142f565b6040516104219190611bee565b60405180910390f35b610444600480360381019061043f91906123dd565b611487565b005b34801561045257600080fd5b5061046d60048036038101906104689190611c3f565b6118f0565b60405161047a9190611ed7565b60405180910390f35b34801561048f57600080fd5b5061049861192f565b6040516104a59190612593565b60405180910390f35b3480156104ba57600080fd5b506104d560048036038101906104d09190611ba6565b611a94565b6040516104e29190611e66565b60405180910390f35b60036020528060005260406000206000915054906101000a900460ff1681565b600060205280600052604060002060009150905080600001805461052e906125e4565b80601f016020809104026020016040519081016040528092919081815260200182805461055a906125e4565b80156105a75780601f1061057c576101008083540402835291602001916105a7565b820191906000526020600020905b81548152906001019060200180831161058a57829003601f168201915b5050505050908060010154908060020154908060030154908060040160009054906101000a900473ffffffffffffffffffffffffffffffffffffffff16905085565b6060600880548060200260200160405190810160405280929190818152602001828054801561066d57602002820191906000526020600020905b8160009054906101000a900473ffffffffffffffffffffffffffffffffffffffff1673ffffffffffffffffffffffffffffffffffffffff1681526020019060010190808311610623575b5050505050905090565b6007818154811061068757600080fd5b9060005260206000200160009150905080546106a2906125e4565b80601f01602080910402602001604051908101604052809291908181526020018280546106ce906125e4565b801561071b5780601f106106f05761010080835404028352916020019161071b565b820191906000526020600020905b8154815290600101906020018083116106fe57829003601f168201915b505050505081565b606061072d61142f565b61076c576040517f08c379a000000000000000000000000000000000000000000000000000000000815260040161076390612687565b60405180910390fd5b60058054806020026020016040519081016040528092919081815260200182805480156107ee57602002820191906000526020600020905b8160009054906101000a900473ffffffffffffffffffffffffffffffffffffffff1673ffffffffffffffffffffffffffffffffffffffff16815260200190600101908083116107a4575b5050505050905090565b60095482111561083d576040517f08c379a0000000000000000000000000000000000000000000000000000000008152600401610834906126f3565b60405180910390fd5b80600080848152602001908152602001600020600201541015610895576040517f08c379a000000000000000000000000000000000000000000000000000000000815260040161088c9061275f565b60405180910390fd5b61089e336111d9565b156108de576040517f08c379a00000000000000000000000000000000000000000000000000000000081526004016108d5906127f1565b60405180910390fd5b600081600080858152602001908152602001600020600301546109019190612840565b905080341015610946576040517f08c379a000000000000000000000000000000000000000000000000000000000815260040161093d906128ce565b60405180910390fd5b6000813461095491906128ee565b905060008111156109a7573373ffffffffffffffffffffffffffffffffffffffff166108fc829081150290604051600060405180830381858888f193505050501580156109a5573d6000803e3d6000fd5b505b60008085815260200190815260200160002060040160009054906101000a900473ffffffffffffffffffffffffffffffffffffffff1673ffffffffffffffffffffffffffffffffffffffff166108fc839081150290604051600060405180830381858888f19350505050158015610a22573d6000803e3d6000fd5b50826000808681526020019081526020016000206002016000828254610a4891906128ee565b92505081905550600080858152602001908152602001600020600201546006600186610a7491906128ee565b81548110610a8557610a84612922565b5b9060005260206000209060050201600201819055506000600160003373ffffffffffffffffffffffffffffffffffffffff1673ffffffffffffffffffffffffffffffffffffffff1681526020019081526020016000209050806040518060c001604052803373ffffffffffffffffffffffffffffffffffffffff1681526020016000808981526020019081526020016000206000018054610b25906125e4565b80601f0160208091040260200160405190810160405280929190818152602001828054610b51906125e4565b8015610b9e5780601f10610b7357610100808354040283529160200191610b9e565b820191906000526020600020905b815481529060010190602001808311610b8157829003601f168201915b5050505050815260200187815260200186815260200142815260200185815250908060018154018082558091505060019003906000526020600020906006020160009091909190915060008201518160000160006101000a81548173ffffffffffffffffffffffffffffffffffffffff021916908373ffffffffffffffffffffffffffffffffffffffff1602179055506020820151816001019081610c439190612afd565b5060408201518160020155606082015181600301556080820151816004015560a0820151816005015550506008339080600181540180825580915050600190039060005260206000200160009091909190916101000a81548173ffffffffffffffffffffffffffffffffffffffff021916908373ffffffffffffffffffffffffffffffffffffffff1602179055503373ffffffffffffffffffffffffffffffffffffffff167fc3b7539e996dc1d1252af1e3c72474162b7a9c7cc7411ca8905732eaf6fff328868642604051610d1b93929190612bcf565b60405180910390a25050505050565b60068181548110610d3a57600080fd5b9060005260206000209060050201600091509050806000018054610d5d906125e4565b80601f0160208091040260200160405190810160405280929190818152602001828054610d89906125e4565b8015610dd65780601f10610dab57610100808354040283529160200191610dd6565b820191906000526020600020905b815481529060010190602001808311610db957829003601f168201915b5050505050908060010154908060020154908060030154908060040160009054906101000a900473ffffffffffffffffffffffffffffffffffffffff16905085565b60088181548110610e2857600080fd5b906000526020600020016000915054906101000a900473ffffffffffffffffffffffffffffffffffffffff1681565b6060600160008373ffffffffffffffffffffffffffffffffffffffff1673ffffffffffffffffffffffffffffffffffffffff168152602001908152602001600020805480602002602001604051908101604052809291908181526020016000905b82821015610ffa57838290600052602060002090600602016040518060c00160405290816000820160009054906101000a900473ffffffffffffffffffffffffffffffffffffffff1673ffffffffffffffffffffffffffffffffffffffff1673ffffffffffffffffffffffffffffffffffffffff168152602001600182018054610f41906125e4565b80601f0160208091040260200160405190810160405280929190818152602001828054610f6d906125e4565b8015610fba5780601f10610f8f57610100808354040283529160200191610fba565b820191906000526020600020905b815481529060010190602001808311610f9d57829003601f168201915b5050505050815260200160028201548152602001600382015481526020016004820154815260200160058201548152505081526020019060010190610eb8565b505050509050919050565b6000815111611049576040517f08c379a000000000000000000000000000000000000000000000000000000000815260040161104090612c52565b60405180910390fd5b80600260003373ffffffffffffffffffffffffffffffffffffffff1673ffffffffffffffffffffffffffffffffffffffff16815260200190815260200160002090816110959190612afd565b506001600360003373ffffffffffffffffffffffffffffffffffffffff1673ffffffffffffffffffffffffffffffffffffffff16815260200190815260200160002060006101000a81548160ff0219169083151502179055506005339080600181540180825580915050600190039060005260206000200160009091909190916101000a81548173ffffffffffffffffffffffffffffffffffffffff021916908373ffffffffffffffffffffffffffffffffffffffff1602179055506007819080600181540180825580915050600190039060005260206000200160009091909190915090816111859190612afd565b503373ffffffffffffffffffffffffffffffffffffffff167f3d5483a93df0921e07ba2b0050c4d0f5793795035f1db5af3face517df5e333b82426040516111ce929190612c72565b60405180910390a250565b6000600360008373ffffffffffffffffffffffffffffffffffffffff1673ffffffffffffffffffffffffffffffffffffffff16815260200190815260200160002060009054906101000a900460ff169050919050565b60606007805480602002602001604051908101604052809291908181526020016000905b828210156112ff578382906000526020600020018054611272906125e4565b80601f016020809104026020016040519081016040528092919081815260200182805461129e906125e4565b80156112eb5780601f106112c0576101008083540402835291602001916112eb565b820191906000526020600020905b8154815290600101906020018083116112ce57829003601f168201915b505050505081526020019060010190611253565b50505050905090565b6001602052816000526040600020818154811061132457600080fd5b9060005260206000209060060201600091509150508060000160009054906101000a900473ffffffffffffffffffffffffffffffffffffffff169080600101805461136e906125e4565b80601f016020809104026020016040519081016040528092919081815260200182805461139a906125e4565b80156113e75780601f106113bc576101008083540402835291602001916113e7565b820191906000526020600020905b8154815290600101906020018083116113ca57829003601f168201915b5050505050908060020154908060030154908060040154908060050154905086565b600460009054906101000a900473ffffffffffffffffffffffffffffffffffffffff1681565b6000600460009054906101000a900473ffffffffffffffffffffffffffffffffffffffff1673ffffffffffffffffffffffffffffffffffffffff163373ffffffffffffffffffffffffffffffffffffffff1614905090565b60008351116114cb576040517f08c379a00000000000000000000000000000000000000000000000000000000081526004016114c290612cee565b60405180910390fd5b6114d4336111d9565b611513576040517f08c379a000000000000000000000000000000000000000000000000000000000815260040161150a90612d5a565b60405180910390fd5b60008211611556576040517f08c379a000000000000000000000000000000000000000000000000000000000815260040161154d90612dec565b60405180910390fd5b61155e61142f565b1561159e576040517f08c379a000000000000000000000000000000000000000000000000000000000815260040161159590612e58565b60405180910390fd5b60006064600384846115b09190612840565b6115ba9190612840565b6115c49190612ea7565b905080341015611609576040517f08c379a0000000000000000000000000000000000000000000000000000000008152600401611600906128ce565b60405180910390fd5b600460009054906101000a900473ffffffffffffffffffffffffffffffffffffffff1673ffffffffffffffffffffffffffffffffffffffff166108fc829081150290604051600060405180830381858888f19350505050158015611671573d6000803e3d6000fd5b506000813461168091906128ee565b905060008111156116d3573373ffffffffffffffffffffffffffffffffffffffff166108fc829081150290604051600060405180830381858888f193505050501580156116d1573d6000803e3d6000fd5b505b600960008154809291906116e690612ed8565b91905055503373ffffffffffffffffffffffffffffffffffffffff167f56acb10c6ecae7e178ece5d22c2f0346efb606427ea6a15f96904d0ceec03d1d600954874260405161173793929190612f20565b60405180910390a26040518060a001604052808681526020018581526020018581526020018481526020013373ffffffffffffffffffffffffffffffffffffffff16815250600080600954815260200190815260200160002060008201518160000190816117a59190612afd565b5060208201518160010155604082015181600201556060820151816003015560808201518160040160006101000a81548173ffffffffffffffffffffffffffffffffffffffff021916908373ffffffffffffffffffffffffffffffffffffffff160217905550905050600660008060095481526020019081526020016000209080600181540180825580915050600190039060005260206000209060050201600090919091909150600082018160000190816118619190612f74565b506001820154816001015560028201548160020155600382015481600301556004820160009054906101000a900473ffffffffffffffffffffffffffffffffffffffff168160040160006101000a81548173ffffffffffffffffffffffffffffffffffffffff021916908373ffffffffffffffffffffffffffffffffffffffff16021790555050505050505050565b6005818154811061190057600080fd5b906000526020600020016000915054906101000a900473ffffffffffffffffffffffffffffffffffffffff1681565b60606006805480602002602001604051908101604052809291908181526020016000905b82821015611a8b57838290600052602060002090600502016040518060a0016040529081600082018054611986906125e4565b80601f01602080910402602001604051908101604052809291908181526020018280546119b2906125e4565b80156119ff5780601f106119d4576101008083540402835291602001916119ff565b820191906000526020600020905b8154815290600101906020018083116119e257829003601f168201915b505050505081526020016001820154815260200160028201548152602001600382015481526020016004820160009054906101000a900473ffffffffffffffffffffffffffffffffffffffff1673ffffffffffffffffffffffffffffffffffffffff1673ffffffffffffffffffffffffffffffffffffffff168152505081526020019060010190611953565b50505050905090565b60026020528060005260406000206000915090508054611ab3906125e4565b80601f0160208091040260200160405190810160405280929190818152602001828054611adf906125e4565b8015611b2c5780601f10611b0157610100808354040283529160200191611b2c565b820191906000526020600020905b815481529060010190602001808311611b0f57829003601f168201915b505050505081565b6000604051905090565b600080fd5b600080fd5b600073ffffffffffffffffffffffffffffffffffffffff82169050919050565b6000611b7382611b48565b9050919050565b611b8381611b68565b8114611b8e57600080fd5b50565b600081359050611ba081611b7a565b92915050565b600060208284031215611bbc57611bbb611b3e565b5b6000611bca84828501611b91565b91505092915050565b60008115159050919050565b611be881611bd3565b82525050565b6000602082019050611c036000830184611bdf565b92915050565b6000819050919050565b611c1c81611c09565b8114611c2757600080fd5b50565b600081359050611c3981611c13565b92915050565b600060208284031215611c5557611c54611b3e565b5b6000611c6384828501611c2a565b91505092915050565b600081519050919050565b600082825260208201905092915050565b60005b83811015611ca6578082015181840152602081019050611c8b565b60008484015250505050565b6000601f19601f8301169050919050565b6000611cce82611c6c565b611cd88185611c77565b9350611ce8818560208601611c88565b611cf181611cb2565b840191505092915050565b611d0581611c09565b82525050565b6000611d1682611b48565b9050919050565b611d2681611d0b565b82525050565b600060a0820190508181036000830152611d468188611cc3565b9050611d556020830187611cfc565b611d626040830186611cfc565b611d6f6060830185611cfc565b611d7c6080830184611d1d565b9695505050505050565b600081519050919050565b600082825260208201905092915050565b6000819050602082019050919050565b611dbb81611b68565b82525050565b6000611dcd8383611db2565b60208301905092915050565b6000602082019050919050565b6000611df182611d86565b611dfb8185611d91565b9350611e0683611da2565b8060005b83811015611e37578151611e1e8882611dc1565b9750611e2983611dd9565b925050600181019050611e0a565b5085935050505092915050565b60006020820190508181036000830152611e5e8184611de6565b905092915050565b60006020820190508181036000830152611e808184611cc3565b905092915050565b60008060408385031215611e9f57611e9e611b3e565b5b6000611ead85828601611c2a565b9250506020611ebe85828601611c2a565b9150509250929050565b611ed181611b68565b82525050565b6000602082019050611eec6000830184611ec8565b92915050565b600081519050919050565b600082825260208201905092915050565b6000819050602082019050919050565b600082825260208201905092915050565b6000611f3a82611c6c565b611f448185611f1e565b9350611f54818560208601611c88565b611f5d81611cb2565b840191505092915050565b611f7181611c09565b82525050565b600060c083016000830151611f8f6000860182611db2565b5060208301518482036020860152611fa78282611f2f565b9150506040830151611fbc6040860182611f68565b506060830151611fcf6060860182611f68565b506080830151611fe26080860182611f68565b5060a0830151611ff560a0860182611f68565b508091505092915050565b600061200c8383611f77565b905092915050565b6000602082019050919050565b600061202c82611ef2565b6120368185611efd565b93508360208202850161204885611f0e565b8060005b8581101561208457848403895281516120658582612000565b945061207083612014565b925060208a0199505060018101905061204c565b50829750879550505050505092915050565b600060208201905081810360008301526120b08184612021565b905092915050565b600080fd5b600080fd5b7f4e487b7100000000000000000000000000000000000000000000000000000000600052604160045260246000fd5b6120fa82611cb2565b810181811067ffffffffffffffff82111715612119576121186120c2565b5b80604052505050565b600061212c611b34565b905061213882826120f1565b919050565b600067ffffffffffffffff821115612158576121576120c2565b5b61216182611cb2565b9050602081019050919050565b82818337600083830152505050565b600061219061218b8461213d565b612122565b9050828152602081018484840111156121ac576121ab6120bd565b5b6121b784828561216e565b509392505050565b600082601f8301126121d4576121d36120b8565b5b81356121e484826020860161217d565b91505092915050565b60006020828403121561220357612202611b3e565b5b600082013567ffffffffffffffff81111561222157612220611b43565b5b61222d848285016121bf565b91505092915050565b600081519050919050565b600082825260208201905092915050565b6000819050602082019050919050565b600061226e8383611f2f565b905092915050565b6000602082019050919050565b600061228e82612236565b6122988185612241565b9350836020820285016122aa85612252565b8060005b858110156122e657848403895281516122c78582612262565b94506122d283612276565b925060208a019950506001810190506122ae565b50829750879550505050505092915050565b600060208201905081810360008301526123128184612283565b905092915050565b6000806040838503121561233157612330611b3e565b5b600061233f85828601611b91565b925050602061235085828601611c2a565b9150509250929050565b600060c08201905061236f6000830189611ec8565b81810360208301526123818188611cc3565b90506123906040830187611cfc565b61239d6060830186611cfc565b6123aa6080830185611cfc565b6123b760a0830184611cfc565b979650505050505050565b60006020820190506123d76000830184611d1d565b92915050565b6000806000606084860312156123f6576123f5611b3e565b5b600084013567ffffffffffffffff81111561241457612413611b43565b5b612420868287016121bf565b935050602061243186828701611c2a565b925050604061244286828701611c2a565b9150509250925092565b600081519050919050565b600082825260208201905092915050565b6000819050602082019050919050565b61248181611d0b565b82525050565b600060a08301600083015184820360008601526124a48282611f2f565b91505060208301516124b96020860182611f68565b5060408301516124cc6040860182611f68565b5060608301516124df6060860182611f68565b5060808301516124f26080860182612478565b508091505092915050565b60006125098383612487565b905092915050565b6000602082019050919050565b60006125298261244c565b6125338185612457565b93508360208202850161254585612468565b8060005b85811015612581578484038952815161256285826124fd565b945061256d83612511565b925060208a01995050600181019050612549565b50829750879550505050505092915050565b600060208201905081810360008301526125ad818461251e565b905092915050565b7f4e487b7100000000000000000000000000000000000000000000000000000000600052602260045260246000fd5b600060028204905060018216806125fc57607f821691505b60208210810361260f5761260e6125b5565b5b50919050565b7f4f6e6c79206f776e65722063616e207669657720616c6c206f7267616e697a6560008201527f7273000000000000000000000000000000000000000000000000000000000000602082015250565b6000612671602283611c77565b915061267c82612615565b604082019050919050565b600060208201905081810360008301526126a081612664565b9050919050565b7f4576656e7420646f6573206e6f74206578697374000000000000000000000000600082015250565b60006126dd601483611c77565b91506126e8826126a7565b602082019050919050565b6000602082019050818103600083015261270c816126d0565b9050919050565b7f4e6f7420656e6f756768207469636b657473206c656674000000000000000000600082015250565b6000612749601783611c77565b915061275482612713565b602082019050919050565b600060208201905081810360008301526127788161273c565b9050919050565b7f4f7267616e697a65722063616e6e6f7420627579207469636b65747320666f7260008201527f207468656972206f776e206576656e7400000000000000000000000000000000602082015250565b60006127db603083611c77565b91506127e68261277f565b604082019050919050565b6000602082019050818103600083015261280a816127ce565b9050919050565b7f4e487b7100000000000000000000000000000000000000000000000000000000600052601160045260246000fd5b600061284b82611c09565b915061285683611c09565b925082820261286481611c09565b9150828204841483151761287b5761287a612811565b5b5092915050565b7f4e6f7420656e6f7567682065746865722073656e740000000000000000000000600082015250565b60006128b8601583611c77565b91506128c382612882565b602082019050919050565b600060208201905081810360008301526128e7816128ab565b9050919050565b60006128f982611c09565b915061290483611c09565b925082820390508181111561291c5761291b612811565b5b92915050565b7f4e487b7100000000000000000000000000000000000000000000000000000000600052603260045260246000fd5b60008190508160005260206000209050919050565b60006020601f8301049050919050565b600082821b905092915050565b6000600883026129b37fffffffffffffffffffffffffffffffffffffffffffffffffffffffffffffffff82612976565b6129bd8683612976565b95508019841693508086168417925050509392505050565b6000819050919050565b60006129fa6129f56129f084611c09565b6129d5565b611c09565b9050919050565b6000819050919050565b612a14836129df565b612a28612a2082612a01565b848454612983565b825550505050565b600090565b612a3d612a30565b612a48818484612a0b565b505050565b5b81811015612a6c57612a61600082612a35565b600181019050612a4e565b5050565b601f821115612ab157612a8281612951565b612a8b84612966565b81016020851015612a9a578190505b612aae612aa685612966565b830182612a4d565b50505b505050565b600082821c905092915050565b6000612ad460001984600802612ab6565b1980831691505092915050565b6000612aed8383612ac3565b9150826002028217905092915050565b612b0682611c6c565b67ffffffffffffffff811115612b1f57612b1e6120c2565b5b612b2982546125e4565b612b34828285612a70565b600060209050601f831160018114612b675760008415612b55578287015190505b612b5f8582612ae1565b865550612bc7565b601f198416612b7586612951565b60005b82811015612b9d57848901518255600182019150602085019450602081019050612b78565b86831015612bba5784890151612bb6601f891682612ac3565b8355505b6001600288020188555050505b505050505050565b6000606082019050612be46000830186611cfc565b612bf16020830185611cfc565b612bfe6040830184611cfc565b949350505050565b7f4349442063616e6e6f7420626520656d70747900000000000000000000000000600082015250565b6000612c3c601383611c77565b9150612c4782612c06565b602082019050919050565b60006020820190508181036000830152612c6b81612c2f565b9050919050565b60006040820190508181036000830152612c8c8185611cc3565b9050612c9b6020830184611cfc565b9392505050565b7f4576656e74204349442073686f756c64206e6f7420626520656d707479000000600082015250565b6000612cd8601d83611c77565b9150612ce382612ca2565b602082019050919050565b60006020820190508181036000830152612d0781612ccb565b9050919050565b7f4f6e6c79206f7267616e697a65722063616e20637265617465206576656e7400600082015250565b6000612d44601f83611c77565b9150612d4f82612d0e565b602082019050919050565b60006020820190508181036000830152612d7381612d37565b9050919050565b7f546f74616c207469636b6574732073686f756c6420626520677265617465722060008201527f7468616e20300000000000000000000000000000000000000000000000000000602082015250565b6000612dd6602683611c77565b9150612de182612d7a565b604082019050919050565b60006020820190508181036000830152612e0581612dc9565b9050919050565b7f4f776e65722063616e6e6f7420637265617465206576656e7400000000000000600082015250565b6000612e42601983611c77565b9150612e4d82612e0c565b602082019050919050565b60006020820190508181036000830152612e7181612e35565b9050919050565b7f4e487b7100000000000000000000000000000000000000000000000000000000600052601260045260246000fd5b6000612eb282611c09565b9150612ebd83611c09565b925082612ecd57612ecc612e78565b5b828204905092915050565b6000612ee382611c09565b91507fffffffffffffffffffffffffffffffffffffffffffffffffffffffffffffffff8203612f1557612f14612811565b5b600182019050919050565b6000606082019050612f356000830186611cfc565b8181036020830152612f478185611cc3565b9050612f566040830184611cfc565b949350505050565b600081549050612f6d816125e4565b9050919050565b818103612f8257505061305a565b612f8b82612f5e565b67ffffffffffffffff811115612fa457612fa36120c2565b5b612fae82546125e4565b612fb9828285612a70565b6000601f831160018114612fe85760008415612fd6578287015490505b612fe08582612ae1565b865550613053565b601f198416612ff687612951565b965061300186612951565b60005b8281101561302957848901548255600182019150600185019450602081019050613004565b868310156130465784890154613042601f891682612ac3565b8355505b6001600288020188555050505b5050505050505b56fea264697066735822122097d50d4b6ccb7c38f63423393db281e478335a6d23d6d8365a097dc5c77d7f9d64736f6c63430008130033",
  "linkReferences": {},
  "deployedLinkReferences": {}
}