{
  "_format": "hh-sol-artifact-1",
  "contractName": "Tickets",
  "sourceName": "contracts/Tickets.sol",
  "abi": [
    {
      "inputs": [],
      "stateMutability": "nonpayable",
      "type": "constructor"
    },
    {
      "anonymous": false,
      "inputs": [
        {
          "indexed": false,
          "internalType": "uint256",
          "name": "eventId",
          "type": "uint256"
        },
        {
          "indexed": true,
          "internalType": "address",
          "name": "organizer",
          "type": "address"
        },
        {
          "indexed": false,
          "internalType": "string",
          "name": "eventCid",
          "type": "string"
        }
      ],
      "name": "EventCreated",
      "type": "event"
    },
    {
      "anonymous": false,
      "inputs": [
        {
          "indexed": true,
          "internalType": "address",
          "name": "organizerAddress",
          "type": "address"
        },
        {
          "indexed": false,
          "internalType": "string",
          "name": "CID",
          "type": "string"
        }
      ],
      "name": "OrganizerRegistered",
      "type": "event"
    },
    {
      "anonymous": false,
      "inputs": [
        {
          "indexed": false,
          "internalType": "uint256",
          "name": "eventId",
          "type": "uint256"
        },
        {
          "indexed": false,
          "internalType": "uint256",
          "name": "ticketsBought",
          "type": "uint256"
        },
        {
          "indexed": true,
          "internalType": "address",
          "name": "buyer",
          "type": "address"
        }
      ],
      "name": "TicketPurchased",
      "type": "event"
    },
    {
      "inputs": [
        {
          "internalType": "uint256",
          "name": "_eventId",
          "type": "uint256"
        },
        {
          "internalType": "uint256",
          "name": "_totalTicketsToBuy",
          "type": "uint256"
        }
      ],
      "name": "buyTicket",
      "outputs": [],
      "stateMutability": "payable",
      "type": "function"
    },
    {
      "inputs": [
        {
          "internalType": "string",
          "name": "_eventCid",
          "type": "string"
        },
        {
          "internalType": "uint256",
          "name": "_totalTickets",
          "type": "uint256"
        },
        {
          "internalType": "uint256",
          "name": "_price",
          "type": "uint256"
        }
      ],
      "name": "createEvent",
      "outputs": [],
      "stateMutability": "payable",
      "type": "function"
    },
    {
      "inputs": [
        {
          "internalType": "uint256",
          "name": "",
          "type": "uint256"
        }
      ],
      "name": "events",
      "outputs": [
        {
          "internalType": "string",
          "name": "eventCID",
          "type": "string"
        },
        {
          "internalType": "uint256",
          "name": "totalTickets",
          "type": "uint256"
        },
        {
          "internalType": "uint256",
          "name": "remTickets",
          "type": "uint256"
        },
        {
          "internalType": "uint256",
          "name": "price",
          "type": "uint256"
        },
        {
          "internalType": "address payable",
          "name": "creator",
          "type": "address"
        }
      ],
      "stateMutability": "view",
      "type": "function"
    },
    {
      "inputs": [
        {
          "internalType": "address",
          "name": "",
          "type": "address"
        },
        {
          "internalType": "uint256",
          "name": "",
          "type": "uint256"
        }
      ],
      "name": "eventsCreated",
      "outputs": [
        {
          "internalType": "uint256",
          "name": "",
          "type": "uint256"
        }
      ],
      "stateMutability": "view",
      "type": "function"
    },
    {
      "inputs": [],
      "name": "getAllEvents",
      "outputs": [
        {
          "components": [
            {
              "internalType": "string",
              "name": "eventCID",
              "type": "string"
            },
            {
              "internalType": "uint256",
              "name": "totalTickets",
              "type": "uint256"
            },
            {
              "internalType": "uint256",
              "name": "remTickets",
              "type": "uint256"
            },
            {
              "internalType": "uint256",
              "name": "price",
              "type": "uint256"
            },
            {
              "internalType": "address payable",
              "name": "creator",
              "type": "address"
            }
          ],
          "internalType": "struct Tickets.Event[]",
          "name": "",
          "type": "tuple[]"
        }
      ],
      "stateMutability": "view",
      "type": "function"
    },
    {
      "inputs": [
        {
          "internalType": "address",
          "name": "_organizerAddress",
          "type": "address"
        }
      ],
      "name": "isOrganizers",
      "outputs": [
        {
          "internalType": "bool",
          "name": "",
          "type": "bool"
        }
      ],
      "stateMutability": "view",
      "type": "function"
    },
    {
      "inputs": [],
      "name": "isOwner",
      "outputs": [
        {
          "internalType": "bool",
          "name": "",
          "type": "bool"
        }
      ],
      "stateMutability": "view",
      "type": "function"
    },
    {
      "inputs": [
        {
          "internalType": "address",
          "name": "",
          "type": "address"
        }
      ],
      "name": "organizerCID",
      "outputs": [
        {
          "internalType": "string",
          "name": "",
          "type": "string"
        }
      ],
      "stateMutability": "view",
      "type": "function"
    },
    {
      "inputs": [
        {
          "internalType": "address",
          "name": "",
          "type": "address"
        }
      ],
      "name": "organizers",
      "outputs": [
        {
          "internalType": "bool",
          "name": "",
          "type": "bool"
        }
      ],
      "stateMutability": "view",
      "type": "function"
    },
    {
      "inputs": [],
      "name": "owner",
      "outputs": [
        {
          "internalType": "address payable",
          "name": "",
          "type": "address"
        }
      ],
      "stateMutability": "view",
      "type": "function"
    },
    {
      "inputs": [
        {
          "internalType": "string",
          "name": "_CID",
          "type": "string"
        }
      ],
      "name": "registerEventOrganizer",
      "outputs": [],
      "stateMutability": "nonpayable",
      "type": "function"
    },
    {
      "inputs": [
        {
          "internalType": "address",
          "name": "",
          "type": "address"
        },
        {
          "internalType": "uint256",
          "name": "",
          "type": "uint256"
        }
      ],
      "name": "ticketHolders",
      "outputs": [
        {
          "internalType": "address",
          "name": "userAddress",
          "type": "address"
        },
        {
          "internalType": "string",
          "name": "eventName",
          "type": "string"
        },
        {
          "internalType": "uint256",
          "name": "eventId",
          "type": "uint256"
        },
        {
          "internalType": "uint256",
          "name": "ticketsOwned",
          "type": "uint256"
        }
      ],
      "stateMutability": "view",
      "type": "function"
    }
  ],
  "bytecode": "0x608060405234801561001057600080fd5b5033600560006101000a81548173ffffffffffffffffffffffffffffffffffffffff021916908373ffffffffffffffffffffffffffffffffffffffff1602179055506120b3806100616000396000f3fe6080604052600436106100a75760003560e01c8063826155691161006457806382615569146101e95780638da5cb5b146102295780638f32d59b146102545780639e9580f61461027f578063c27a500d1461029b578063fb894fa2146102c6576100a7565b80630544c5b9146100ac5780630b791430146100e9578063298ec2081461012a5780633aba8bd71461014657806363d3b019146101835780636e389f90146101ac575b600080fd5b3480156100b857600080fd5b506100d360048036038101906100ce91906111ba565b610303565b6040516100e09190611202565b60405180910390f35b3480156100f557600080fd5b50610110600480360381019061010b9190611253565b610323565b604051610121959493929190611340565b60405180910390f35b610144600480360381019061013f919061139a565b610401565b005b34801561015257600080fd5b5061016d600480360381019061016891906113da565b61081a565b60405161017a919061141a565b60405180910390f35b34801561018f57600080fd5b506101aa60048036038101906101a5919061156a565b61084b565b005b3480156101b857600080fd5b506101d360048036038101906101ce91906111ba565b610985565b6040516101e09190611202565b60405180910390f35b3480156101f557600080fd5b50610210600480360381019061020b91906113da565b6109db565b60405161022094939291906115c2565b60405180910390f35b34801561023557600080fd5b5061023e610ad0565b60405161024b919061160e565b60405180910390f35b34801561026057600080fd5b50610269610af6565b6040516102769190611202565b60405180910390f35b61029960048036038101906102949190611629565b610b4e565b005b3480156102a757600080fd5b506102b0610e92565b6040516102bd9190611838565b60405180910390f35b3480156102d257600080fd5b506102ed60048036038101906102e891906111ba565b611063565b6040516102fa919061185a565b60405180910390f35b60046020528060005260406000206000915054906101000a900460ff1681565b6000602052806000526040600020600091509050806000018054610346906118ab565b80601f0160208091040260200160405190810160405280929190818152602001828054610372906118ab565b80156103bf5780601f10610394576101008083540402835291602001916103bf565b820191906000526020600020905b8154815290600101906020018083116103a257829003601f168201915b5050505050908060010154908060020154908060030154908060040160009054906101000a900473ffffffffffffffffffffffffffffffffffffffff16905085565b600654821115610446576040517f08c379a000000000000000000000000000000000000000000000000000000000815260040161043d90611928565b60405180910390fd5b8060008084815260200190815260200160002060020154101561049e576040517f08c379a000000000000000000000000000000000000000000000000000000000815260040161049590611994565b60405180910390fd5b600081600080858152602001908152602001600020600301546104c191906119e3565b905080341015610506576040517f08c379a00000000000000000000000000000000000000000000000000000000081526004016104fd90611a71565b60405180910390fd5b600081346105149190611a91565b90506000811115610567573373ffffffffffffffffffffffffffffffffffffffff166108fc829081150290604051600060405180830381858888f19350505050158015610565573d6000803e3d6000fd5b505b60008085815260200190815260200160002060040160009054906101000a900473ffffffffffffffffffffffffffffffffffffffff1673ffffffffffffffffffffffffffffffffffffffff166108fc839081150290604051600060405180830381858888f193505050501580156105e2573d6000803e3d6000fd5b508260008086815260200190815260200160002060020160008282546106089190611a91565b925050819055506000600160003373ffffffffffffffffffffffffffffffffffffffff1673ffffffffffffffffffffffffffffffffffffffff16815260200190815260200160002090508060405180608001604052803373ffffffffffffffffffffffffffffffffffffffff168152602001600080898152602001908152602001600020600001805461069a906118ab565b80601f01602080910402602001604051908101604052809291908181526020018280546106c6906118ab565b80156107135780601f106106e857610100808354040283529160200191610713565b820191906000526020600020905b8154815290600101906020018083116106f657829003601f168201915b5050505050815260200187815260200186815250908060018154018082558091505060019003906000526020600020906004020160009091909190915060008201518160000160006101000a81548173ffffffffffffffffffffffffffffffffffffffff021916908373ffffffffffffffffffffffffffffffffffffffff16021790555060208201518160010190816107ac9190611c71565b50604082015181600201556060820151816003015550503373ffffffffffffffffffffffffffffffffffffffff167f94c5953e15f54d38b82a662bdd5739fc91af3a23d3ef7e67269dfaeee71a813c868660405161080b929190611d43565b60405180910390a25050505050565b6002602052816000526040600020818154811061083657600080fd5b90600052602060002001600091509150505481565b600081511161088f576040517f08c379a000000000000000000000000000000000000000000000000000000000815260040161088690611db8565b60405180910390fd5b80600360003373ffffffffffffffffffffffffffffffffffffffff1673ffffffffffffffffffffffffffffffffffffffff16815260200190815260200160002090816108db9190611c71565b506001600460003373ffffffffffffffffffffffffffffffffffffffff1673ffffffffffffffffffffffffffffffffffffffff16815260200190815260200160002060006101000a81548160ff0219169083151502179055503373ffffffffffffffffffffffffffffffffffffffff167fac35be65b927c19690056f54322574255afb94436fc8b4637810cfcc1fb3daae8260405161097a919061185a565b60405180910390a250565b6000600460008373ffffffffffffffffffffffffffffffffffffffff1673ffffffffffffffffffffffffffffffffffffffff16815260200190815260200160002060009054906101000a900460ff169050919050565b600160205281600052604060002081815481106109f757600080fd5b9060005260206000209060040201600091509150508060000160009054906101000a900473ffffffffffffffffffffffffffffffffffffffff1690806001018054610a41906118ab565b80601f0160208091040260200160405190810160405280929190818152602001828054610a6d906118ab565b8015610aba5780601f10610a8f57610100808354040283529160200191610aba565b820191906000526020600020905b815481529060010190602001808311610a9d57829003601f168201915b5050505050908060020154908060030154905084565b600560009054906101000a900473ffffffffffffffffffffffffffffffffffffffff1681565b6000600560009054906101000a900473ffffffffffffffffffffffffffffffffffffffff1673ffffffffffffffffffffffffffffffffffffffff163373ffffffffffffffffffffffffffffffffffffffff1614905090565b6000835111610b92576040517f08c379a0000000000000000000000000000000000000000000000000000000008152600401610b8990611e24565b60405180910390fd5b610b9b33610985565b610bda576040517f08c379a0000000000000000000000000000000000000000000000000000000008152600401610bd190611e90565b60405180910390fd5b60008211610c1d576040517f08c379a0000000000000000000000000000000000000000000000000000000008152600401610c1490611f22565b60405180910390fd5b6000606460038484610c2f91906119e3565b610c3991906119e3565b610c439190611f71565b905080341015610c88576040517f08c379a0000000000000000000000000000000000000000000000000000000008152600401610c7f90611a71565b60405180910390fd5b600560009054906101000a900473ffffffffffffffffffffffffffffffffffffffff1673ffffffffffffffffffffffffffffffffffffffff166108fc829081150290604051600060405180830381858888f19350505050158015610cf0573d6000803e3d6000fd5b5060008134610cff9190611a91565b90506000811115610d52573373ffffffffffffffffffffffffffffffffffffffff166108fc829081150290604051600060405180830381858888f19350505050158015610d50573d6000803e3d6000fd5b505b60066000815480929190610d6590611fa2565b91905055503373ffffffffffffffffffffffffffffffffffffffff167ffc695dea2478fb938a11068aeedddd7046a5fe655f136e30a325d353fe187a4560065487604051610db4929190611fea565b60405180910390a26040518060a001604052808681526020018581526020018581526020018481526020013373ffffffffffffffffffffffffffffffffffffffff1681525060008060065481526020019081526020016000206000820151816000019081610e229190611c71565b5060208201518160010155604082015181600201556060820151816003015560808201518160040160006101000a81548173ffffffffffffffffffffffffffffffffffffffff021916908373ffffffffffffffffffffffffffffffffffffffff1602179055509050505050505050565b6060600060065467ffffffffffffffff811115610eb257610eb161143f565b5b604051908082528060200260200182016040528015610eeb57816020015b610ed8611103565b815260200190600190039081610ed05790505b50905060005b60065481101561105b57600080600183610f0b919061201a565b81526020019081526020016000206040518060a0016040529081600082018054610f34906118ab565b80601f0160208091040260200160405190810160405280929190818152602001828054610f60906118ab565b8015610fad5780601f10610f8257610100808354040283529160200191610fad565b820191906000526020600020905b815481529060010190602001808311610f9057829003601f168201915b505050505081526020016001820154815260200160028201548152602001600382015481526020016004820160009054906101000a900473ffffffffffffffffffffffffffffffffffffffff1673ffffffffffffffffffffffffffffffffffffffff1673ffffffffffffffffffffffffffffffffffffffff168152505082828151811061103d5761103c61204e565b5b6020026020010181905250808061105390611fa2565b915050610ef1565b508091505090565b60036020528060005260406000206000915090508054611082906118ab565b80601f01602080910402602001604051908101604052809291908181526020018280546110ae906118ab565b80156110fb5780601f106110d0576101008083540402835291602001916110fb565b820191906000526020600020905b8154815290600101906020018083116110de57829003601f168201915b505050505081565b6040518060a0016040528060608152602001600081526020016000815260200160008152602001600073ffffffffffffffffffffffffffffffffffffffff1681525090565b6000604051905090565b600080fd5b600080fd5b600073ffffffffffffffffffffffffffffffffffffffff82169050919050565b60006111878261115c565b9050919050565b6111978161117c565b81146111a257600080fd5b50565b6000813590506111b48161118e565b92915050565b6000602082840312156111d0576111cf611152565b5b60006111de848285016111a5565b91505092915050565b60008115159050919050565b6111fc816111e7565b82525050565b600060208201905061121760008301846111f3565b92915050565b6000819050919050565b6112308161121d565b811461123b57600080fd5b50565b60008135905061124d81611227565b92915050565b60006020828403121561126957611268611152565b5b60006112778482850161123e565b91505092915050565b600081519050919050565b600082825260208201905092915050565b60005b838110156112ba57808201518184015260208101905061129f565b60008484015250505050565b6000601f19601f8301169050919050565b60006112e282611280565b6112ec818561128b565b93506112fc81856020860161129c565b611305816112c6565b840191505092915050565b6113198161121d565b82525050565b600061132a8261115c565b9050919050565b61133a8161131f565b82525050565b600060a082019050818103600083015261135a81886112d7565b90506113696020830187611310565b6113766040830186611310565b6113836060830185611310565b6113906080830184611331565b9695505050505050565b600080604083850312156113b1576113b0611152565b5b60006113bf8582860161123e565b92505060206113d08582860161123e565b9150509250929050565b600080604083850312156113f1576113f0611152565b5b60006113ff858286016111a5565b92505060206114108582860161123e565b9150509250929050565b600060208201905061142f6000830184611310565b92915050565b600080fd5b600080fd5b7f4e487b7100000000000000000000000000000000000000000000000000000000600052604160045260246000fd5b611477826112c6565b810181811067ffffffffffffffff821117156114965761149561143f565b5b80604052505050565b60006114a9611148565b90506114b5828261146e565b919050565b600067ffffffffffffffff8211156114d5576114d461143f565b5b6114de826112c6565b9050602081019050919050565b82818337600083830152505050565b600061150d611508846114ba565b61149f565b9050828152602081018484840111156115295761152861143a565b5b6115348482856114eb565b509392505050565b600082601f83011261155157611550611435565b5b81356115618482602086016114fa565b91505092915050565b6000602082840312156115805761157f611152565b5b600082013567ffffffffffffffff81111561159e5761159d611157565b5b6115aa8482850161153c565b91505092915050565b6115bc8161117c565b82525050565b60006080820190506115d760008301876115b3565b81810360208301526115e981866112d7565b90506115f86040830185611310565b6116056060830184611310565b95945050505050565b60006020820190506116236000830184611331565b92915050565b60008060006060848603121561164257611641611152565b5b600084013567ffffffffffffffff8111156116605761165f611157565b5b61166c8682870161153c565b935050602061167d8682870161123e565b925050604061168e8682870161123e565b9150509250925092565b600081519050919050565b600082825260208201905092915050565b6000819050602082019050919050565b600082825260208201905092915050565b60006116e082611280565b6116ea81856116c4565b93506116fa81856020860161129c565b611703816112c6565b840191505092915050565b6117178161121d565b82525050565b6117268161131f565b82525050565b600060a083016000830151848203600086015261174982826116d5565b915050602083015161175e602086018261170e565b506040830151611771604086018261170e565b506060830151611784606086018261170e565b506080830151611797608086018261171d565b508091505092915050565b60006117ae838361172c565b905092915050565b6000602082019050919050565b60006117ce82611698565b6117d881856116a3565b9350836020820285016117ea856116b4565b8060005b85811015611826578484038952815161180785826117a2565b9450611812836117b6565b925060208a019950506001810190506117ee565b50829750879550505050505092915050565b6000602082019050818103600083015261185281846117c3565b905092915050565b6000602082019050818103600083015261187481846112d7565b905092915050565b7f4e487b7100000000000000000000000000000000000000000000000000000000600052602260045260246000fd5b600060028204905060018216806118c357607f821691505b6020821081036118d6576118d561187c565b5b50919050565b7f4576656e7420646f6573206e6f74206578697374000000000000000000000000600082015250565b600061191260148361128b565b915061191d826118dc565b602082019050919050565b6000602082019050818103600083015261194181611905565b9050919050565b7f4e6f7420656e6f756768207469636b657473206c656674000000000000000000600082015250565b600061197e60178361128b565b915061198982611948565b602082019050919050565b600060208201905081810360008301526119ad81611971565b9050919050565b7f4e487b7100000000000000000000000000000000000000000000000000000000600052601160045260246000fd5b60006119ee8261121d565b91506119f98361121d565b9250828202611a078161121d565b91508282048414831517611a1e57611a1d6119b4565b5b5092915050565b7f4e6f7420656e6f7567682065746865722073656e740000000000000000000000600082015250565b6000611a5b60158361128b565b9150611a6682611a25565b602082019050919050565b60006020820190508181036000830152611a8a81611a4e565b9050919050565b6000611a9c8261121d565b9150611aa78361121d565b9250828203905081811115611abf57611abe6119b4565b5b92915050565b60008190508160005260206000209050919050565b60006020601f8301049050919050565b600082821b905092915050565b600060088302611b277fffffffffffffffffffffffffffffffffffffffffffffffffffffffffffffffff82611aea565b611b318683611aea565b95508019841693508086168417925050509392505050565b6000819050919050565b6000611b6e611b69611b648461121d565b611b49565b61121d565b9050919050565b6000819050919050565b611b8883611b53565b611b9c611b9482611b75565b848454611af7565b825550505050565b600090565b611bb1611ba4565b611bbc818484611b7f565b505050565b5b81811015611be057611bd5600082611ba9565b600181019050611bc2565b5050565b601f821115611c2557611bf681611ac5565b611bff84611ada565b81016020851015611c0e578190505b611c22611c1a85611ada565b830182611bc1565b50505b505050565b600082821c905092915050565b6000611c4860001984600802611c2a565b1980831691505092915050565b6000611c618383611c37565b9150826002028217905092915050565b611c7a82611280565b67ffffffffffffffff811115611c9357611c9261143f565b5b611c9d82546118ab565b611ca8828285611be4565b600060209050601f831160018114611cdb5760008415611cc9578287015190505b611cd38582611c55565b865550611d3b565b601f198416611ce986611ac5565b60005b82811015611d1157848901518255600182019150602085019450602081019050611cec565b86831015611d2e5784890151611d2a601f891682611c37565b8355505b6001600288020188555050505b505050505050565b6000604082019050611d586000830185611310565b611d656020830184611310565b9392505050565b7f4349442063616e6e6f7420626520656d70747900000000000000000000000000600082015250565b6000611da260138361128b565b9150611dad82611d6c565b602082019050919050565b60006020820190508181036000830152611dd181611d95565b9050919050565b7f4576656e74204349442073686f756c64206e6f7420626520656d707479000000600082015250565b6000611e0e601d8361128b565b9150611e1982611dd8565b602082019050919050565b60006020820190508181036000830152611e3d81611e01565b9050919050565b7f4f6e6c79206f7267616e697a65722063616e20637265617465206576656e7400600082015250565b6000611e7a601f8361128b565b9150611e8582611e44565b602082019050919050565b60006020820190508181036000830152611ea981611e6d565b9050919050565b7f546f74616c207469636b6574732073686f756c6420626520677265617465722060008201527f7468616e20300000000000000000000000000000000000000000000000000000602082015250565b6000611f0c60268361128b565b9150611f1782611eb0565b604082019050919050565b60006020820190508181036000830152611f3b81611eff565b9050919050565b7f4e487b7100000000000000000000000000000000000000000000000000000000600052601260045260246000fd5b6000611f7c8261121d565b9150611f878361121d565b925082611f9757611f96611f42565b5b828204905092915050565b6000611fad8261121d565b91507fffffffffffffffffffffffffffffffffffffffffffffffffffffffffffffffff8203611fdf57611fde6119b4565b5b600182019050919050565b6000604082019050611fff6000830185611310565b818103602083015261201181846112d7565b90509392505050565b60006120258261121d565b91506120308361121d565b9250828201905080821115612048576120476119b4565b5b92915050565b7f4e487b7100000000000000000000000000000000000000000000000000000000600052603260045260246000fdfea2646970667358221220f7dd564ee402bd92ebd5b7b6d5fd91a6638cb207e342202ece56b7fbe31d718064736f6c63430008130033",
  "linkReferences": {},
  "deployedLinkReferences": {}
}