{
  "_format": "hh-sol-artifact-1",
  "contractName": "Tickets",
  "sourceName": "contracts/Tickets.sol",
  "abi": [
    {
      "inputs": [],
      "stateMutability": "nonpayable",
      "type": "constructor"
    },
    {
      "anonymous": false,
      "inputs": [
        {
          "indexed": true,
          "internalType": "uint256",
          "name": "eventId",
          "type": "uint256"
        },
        {
          "indexed": true,
          "internalType": "address",
          "name": "organizer",
          "type": "address"
        }
      ],
      "name": "EventCreated",
      "type": "event"
    },
    {
      "anonymous": false,
      "inputs": [
        {
          "indexed": true,
          "internalType": "address",
          "name": "organizerAddress",
          "type": "address"
        },
        {
          "indexed": true,
          "internalType": "string",
          "name": "CID",
          "type": "string"
        }
      ],
      "name": "OrganizerRegistered",
      "type": "event"
    },
    {
      "anonymous": false,
      "inputs": [
        {
          "indexed": true,
          "internalType": "uint256",
          "name": "eventId",
          "type": "uint256"
        },
        {
          "indexed": true,
          "internalType": "uint256",
          "name": "ticketsBought",
          "type": "uint256"
        },
        {
          "indexed": true,
          "internalType": "address",
          "name": "buyer",
          "type": "address"
        }
      ],
      "name": "TicketPurchased",
      "type": "event"
    },
    {
      "inputs": [
        {
          "internalType": "uint256",
          "name": "_eventId",
          "type": "uint256"
        },
        {
          "internalType": "uint256",
          "name": "_totalTicketsToBuy",
          "type": "uint256"
        }
      ],
      "name": "buyTicket",
      "outputs": [],
      "stateMutability": "payable",
      "type": "function"
    },
    {
      "inputs": [
        {
          "internalType": "string",
          "name": "_eventCid",
          "type": "string"
        },
        {
          "internalType": "uint256",
          "name": "_totalTickets",
          "type": "uint256"
        },
        {
          "internalType": "uint256",
          "name": "_price",
          "type": "uint256"
        }
      ],
      "name": "createEvent",
      "outputs": [],
      "stateMutability": "payable",
      "type": "function"
    },
    {
      "inputs": [
        {
          "internalType": "uint256",
          "name": "",
          "type": "uint256"
        }
      ],
      "name": "events",
      "outputs": [
        {
          "internalType": "string",
          "name": "eventCID",
          "type": "string"
        },
        {
          "internalType": "uint256",
          "name": "totalTickets",
          "type": "uint256"
        },
        {
          "internalType": "uint256",
          "name": "remTickets",
          "type": "uint256"
        },
        {
          "internalType": "uint256",
          "name": "price",
          "type": "uint256"
        },
        {
          "internalType": "address payable",
          "name": "creator",
          "type": "address"
        }
      ],
      "stateMutability": "view",
      "type": "function"
    },
    {
      "inputs": [
        {
          "internalType": "address",
          "name": "",
          "type": "address"
        },
        {
          "internalType": "uint256",
          "name": "",
          "type": "uint256"
        }
      ],
      "name": "eventsCreated",
      "outputs": [
        {
          "internalType": "uint256",
          "name": "",
          "type": "uint256"
        }
      ],
      "stateMutability": "view",
      "type": "function"
    },
    {
      "inputs": [],
      "name": "getAllEvents",
      "outputs": [
        {
          "components": [
            {
              "internalType": "string",
              "name": "eventCID",
              "type": "string"
            },
            {
              "internalType": "uint256",
              "name": "totalTickets",
              "type": "uint256"
            },
            {
              "internalType": "uint256",
              "name": "remTickets",
              "type": "uint256"
            },
            {
              "internalType": "uint256",
              "name": "price",
              "type": "uint256"
            },
            {
              "internalType": "address payable",
              "name": "creator",
              "type": "address"
            }
          ],
          "internalType": "struct Tickets.Event[]",
          "name": "",
          "type": "tuple[]"
        }
      ],
      "stateMutability": "view",
      "type": "function"
    },
    {
      "inputs": [
        {
          "internalType": "address",
          "name": "_organizerAddress",
          "type": "address"
        }
      ],
      "name": "isOrganizers",
      "outputs": [
        {
          "internalType": "bool",
          "name": "",
          "type": "bool"
        }
      ],
      "stateMutability": "view",
      "type": "function"
    },
    {
      "inputs": [
        {
          "internalType": "address",
          "name": "",
          "type": "address"
        }
      ],
      "name": "organizerCID",
      "outputs": [
        {
          "internalType": "string",
          "name": "",
          "type": "string"
        }
      ],
      "stateMutability": "view",
      "type": "function"
    },
    {
      "inputs": [
        {
          "internalType": "address",
          "name": "",
          "type": "address"
        }
      ],
      "name": "organizers",
      "outputs": [
        {
          "internalType": "bool",
          "name": "",
          "type": "bool"
        }
      ],
      "stateMutability": "view",
      "type": "function"
    },
    {
      "inputs": [],
      "name": "owner",
      "outputs": [
        {
          "internalType": "address payable",
          "name": "",
          "type": "address"
        }
      ],
      "stateMutability": "view",
      "type": "function"
    },
    {
      "inputs": [
        {
          "internalType": "string",
          "name": "_CID",
          "type": "string"
        }
      ],
      "name": "registerEventOrganizer",
      "outputs": [],
      "stateMutability": "nonpayable",
      "type": "function"
    },
    {
      "inputs": [
        {
          "internalType": "address",
          "name": "",
          "type": "address"
        },
        {
          "internalType": "uint256",
          "name": "",
          "type": "uint256"
        }
      ],
      "name": "ticketHolders",
      "outputs": [
        {
          "internalType": "address",
          "name": "userAddress",
          "type": "address"
        },
        {
          "internalType": "string",
          "name": "eventName",
          "type": "string"
        },
        {
          "internalType": "uint256",
          "name": "eventId",
          "type": "uint256"
        },
        {
          "internalType": "uint256",
          "name": "ticketsOwned",
          "type": "uint256"
        }
      ],
      "stateMutability": "view",
      "type": "function"
    }
  ],
  "bytecode": "0x608060405234801561001057600080fd5b5033600560006101000a81548173ffffffffffffffffffffffffffffffffffffffff021916908373ffffffffffffffffffffffffffffffffffffffff160217905550611fe2806100616000396000f3fe60806040526004361061009c5760003560e01c80636e389f90116100645780636e389f90146101a157806382615569146101de5780638da5cb5b1461021e5780639e9580f614610249578063c27a500d14610265578063fb894fa2146102905761009c565b80630544c5b9146100a15780630b791430146100de578063298ec2081461011f5780633aba8bd71461013b57806363d3b01914610178575b600080fd5b3480156100ad57600080fd5b506100c860048036038101906100c39190611123565b6102cd565b6040516100d5919061116b565b60405180910390f35b3480156100ea57600080fd5b50610105600480360381019061010091906111bc565b6102ed565b6040516101169594939291906112a9565b60405180910390f35b61013960048036038101906101349190611303565b6103cb565b005b34801561014757600080fd5b50610162600480360381019061015d9190611343565b6107d9565b60405161016f9190611383565b60405180910390f35b34801561018457600080fd5b5061019f600480360381019061019a91906114d3565b61080a565b005b3480156101ad57600080fd5b506101c860048036038101906101c39190611123565b61094f565b6040516101d5919061116b565b60405180910390f35b3480156101ea57600080fd5b5061020560048036038101906102009190611343565b6109a5565b604051610215949392919061152b565b60405180910390f35b34801561022a57600080fd5b50610233610a9a565b6040516102409190611577565b60405180910390f35b610263600480360381019061025e9190611592565b610ac0565b005b34801561027157600080fd5b5061027a610df8565b60405161028791906117a1565b60405180910390f35b34801561029c57600080fd5b506102b760048036038101906102b29190611123565b610fcc565b6040516102c491906117c3565b60405180910390f35b60046020528060005260406000206000915054906101000a900460ff1681565b600060205280600052604060002060009150905080600001805461031090611814565b80601f016020809104026020016040519081016040528092919081815260200182805461033c90611814565b80156103895780601f1061035e57610100808354040283529160200191610389565b820191906000526020600020905b81548152906001019060200180831161036c57829003601f168201915b5050505050908060010154908060020154908060030154908060040160009054906101000a900473ffffffffffffffffffffffffffffffffffffffff16905085565b600654821115610410576040517f08c379a000000000000000000000000000000000000000000000000000000000815260040161040790611891565b60405180910390fd5b80600080848152602001908152602001600020600201541015610468576040517f08c379a000000000000000000000000000000000000000000000000000000000815260040161045f906118fd565b60405180910390fd5b6000816000808581526020019081526020016000206003015461048b919061194c565b9050803410156104d0576040517f08c379a00000000000000000000000000000000000000000000000000000000081526004016104c7906119da565b60405180910390fd5b600081346104de91906119fa565b90506000811115610531573373ffffffffffffffffffffffffffffffffffffffff166108fc829081150290604051600060405180830381858888f1935050505015801561052f573d6000803e3d6000fd5b505b60008085815260200190815260200160002060040160009054906101000a900473ffffffffffffffffffffffffffffffffffffffff1673ffffffffffffffffffffffffffffffffffffffff166108fc839081150290604051600060405180830381858888f193505050501580156105ac573d6000803e3d6000fd5b508260008086815260200190815260200160002060020160008282546105d291906119fa565b925050819055506000600160003373ffffffffffffffffffffffffffffffffffffffff1673ffffffffffffffffffffffffffffffffffffffff16815260200190815260200160002090508060405180608001604052803373ffffffffffffffffffffffffffffffffffffffff168152602001600080898152602001908152602001600020600001805461066490611814565b80601f016020809104026020016040519081016040528092919081815260200182805461069090611814565b80156106dd5780601f106106b2576101008083540402835291602001916106dd565b820191906000526020600020905b8154815290600101906020018083116106c057829003601f168201915b5050505050815260200187815260200186815250908060018154018082558091505060019003906000526020600020906004020160009091909190915060008201518160000160006101000a81548173ffffffffffffffffffffffffffffffffffffffff021916908373ffffffffffffffffffffffffffffffffffffffff16021790555060208201518160010190816107769190611bda565b50604082015181600201556060820151816003015550503373ffffffffffffffffffffffffffffffffffffffff1684867f94c5953e15f54d38b82a662bdd5739fc91af3a23d3ef7e67269dfaeee71a813c60405160405180910390a45050505050565b600260205281600052604060002081815481106107f557600080fd5b90600052602060002001600091509150505481565b600081511161084e576040517f08c379a000000000000000000000000000000000000000000000000000000000815260040161084590611cf8565b60405180910390fd5b80600360003373ffffffffffffffffffffffffffffffffffffffff1673ffffffffffffffffffffffffffffffffffffffff168152602001908152602001600020908161089a9190611bda565b506001600460003373ffffffffffffffffffffffffffffffffffffffff1673ffffffffffffffffffffffffffffffffffffffff16815260200190815260200160002060006101000a81548160ff021916908315150217905550806040516109019190611d54565b60405180910390203373ffffffffffffffffffffffffffffffffffffffff167fac35be65b927c19690056f54322574255afb94436fc8b4637810cfcc1fb3daae60405160405180910390a350565b6000600460008373ffffffffffffffffffffffffffffffffffffffff1673ffffffffffffffffffffffffffffffffffffffff16815260200190815260200160002060009054906101000a900460ff169050919050565b600160205281600052604060002081815481106109c157600080fd5b9060005260206000209060040201600091509150508060000160009054906101000a900473ffffffffffffffffffffffffffffffffffffffff1690806001018054610a0b90611814565b80601f0160208091040260200160405190810160405280929190818152602001828054610a3790611814565b8015610a845780601f10610a5957610100808354040283529160200191610a84565b820191906000526020600020905b815481529060010190602001808311610a6757829003601f168201915b5050505050908060020154908060030154905084565b600560009054906101000a900473ffffffffffffffffffffffffffffffffffffffff1681565b6000835111610b04576040517f08c379a0000000000000000000000000000000000000000000000000000000008152600401610afb90611db7565b60405180910390fd5b610b0d3361094f565b610b4c576040517f08c379a0000000000000000000000000000000000000000000000000000000008152600401610b4390611e23565b60405180910390fd5b60008211610b8f576040517f08c379a0000000000000000000000000000000000000000000000000000000008152600401610b8690611eb5565b60405180910390fd5b6000606460038484610ba1919061194c565b610bab919061194c565b610bb59190611f04565b905080341015610bfa576040517f08c379a0000000000000000000000000000000000000000000000000000000008152600401610bf1906119da565b60405180910390fd5b60008134610c0891906119fa565b90506000811115610c5b573373ffffffffffffffffffffffffffffffffffffffff166108fc829081150290604051600060405180830381858888f19350505050158015610c59573d6000803e3d6000fd5b505b600560009054906101000a900473ffffffffffffffffffffffffffffffffffffffff1673ffffffffffffffffffffffffffffffffffffffff166108fc839081150290604051600060405180830381858888f19350505050158015610cc3573d6000803e3d6000fd5b5060066000815480929190610cd790611f35565b91905055503373ffffffffffffffffffffffffffffffffffffffff166006547fe43349c008949cf6b65249356e6f918d4aaa0ca79f2b1166df4a4a98c9c16de260405160405180910390a36040518060a001604052808681526020018581526020018581526020018481526020013373ffffffffffffffffffffffffffffffffffffffff1681525060008060065481526020019081526020016000206000820151816000019081610d889190611bda565b5060208201518160010155604082015181600201556060820151816003015560808201518160040160006101000a81548173ffffffffffffffffffffffffffffffffffffffff021916908373ffffffffffffffffffffffffffffffffffffffff1602179055509050505050505050565b6060600060065467ffffffffffffffff811115610e1857610e176113a8565b5b604051908082528060200260200182016040528015610e5157816020015b610e3e61106c565b815260200190600190039081610e365790505b5090506000600190505b6006548111610fc4576000808281526020019081526020016000206040518060a0016040529081600082018054610e9190611814565b80601f0160208091040260200160405190810160405280929190818152602001828054610ebd90611814565b8015610f0a5780601f10610edf57610100808354040283529160200191610f0a565b820191906000526020600020905b815481529060010190602001808311610eed57829003601f168201915b505050505081526020016001820154815260200160028201548152602001600382015481526020016004820160009054906101000a900473ffffffffffffffffffffffffffffffffffffffff1673ffffffffffffffffffffffffffffffffffffffff1673ffffffffffffffffffffffffffffffffffffffff168152505082600183610f9591906119fa565b81518110610fa657610fa5611f7d565b5b60200260200101819052508080610fbc90611f35565b915050610e5b565b508091505090565b60036020528060005260406000206000915090508054610feb90611814565b80601f016020809104026020016040519081016040528092919081815260200182805461101790611814565b80156110645780601f1061103957610100808354040283529160200191611064565b820191906000526020600020905b81548152906001019060200180831161104757829003601f168201915b505050505081565b6040518060a0016040528060608152602001600081526020016000815260200160008152602001600073ffffffffffffffffffffffffffffffffffffffff1681525090565b6000604051905090565b600080fd5b600080fd5b600073ffffffffffffffffffffffffffffffffffffffff82169050919050565b60006110f0826110c5565b9050919050565b611100816110e5565b811461110b57600080fd5b50565b60008135905061111d816110f7565b92915050565b600060208284031215611139576111386110bb565b5b60006111478482850161110e565b91505092915050565b60008115159050919050565b61116581611150565b82525050565b6000602082019050611180600083018461115c565b92915050565b6000819050919050565b61119981611186565b81146111a457600080fd5b50565b6000813590506111b681611190565b92915050565b6000602082840312156111d2576111d16110bb565b5b60006111e0848285016111a7565b91505092915050565b600081519050919050565b600082825260208201905092915050565b60005b83811015611223578082015181840152602081019050611208565b60008484015250505050565b6000601f19601f8301169050919050565b600061124b826111e9565b61125581856111f4565b9350611265818560208601611205565b61126e8161122f565b840191505092915050565b61128281611186565b82525050565b6000611293826110c5565b9050919050565b6112a381611288565b82525050565b600060a08201905081810360008301526112c38188611240565b90506112d26020830187611279565b6112df6040830186611279565b6112ec6060830185611279565b6112f9608083018461129a565b9695505050505050565b6000806040838503121561131a576113196110bb565b5b6000611328858286016111a7565b9250506020611339858286016111a7565b9150509250929050565b6000806040838503121561135a576113596110bb565b5b60006113688582860161110e565b9250506020611379858286016111a7565b9150509250929050565b60006020820190506113986000830184611279565b92915050565b600080fd5b600080fd5b7f4e487b7100000000000000000000000000000000000000000000000000000000600052604160045260246000fd5b6113e08261122f565b810181811067ffffffffffffffff821117156113ff576113fe6113a8565b5b80604052505050565b60006114126110b1565b905061141e82826113d7565b919050565b600067ffffffffffffffff82111561143e5761143d6113a8565b5b6114478261122f565b9050602081019050919050565b82818337600083830152505050565b600061147661147184611423565b611408565b905082815260208101848484011115611492576114916113a3565b5b61149d848285611454565b509392505050565b600082601f8301126114ba576114b961139e565b5b81356114ca848260208601611463565b91505092915050565b6000602082840312156114e9576114e86110bb565b5b600082013567ffffffffffffffff811115611507576115066110c0565b5b611513848285016114a5565b91505092915050565b611525816110e5565b82525050565b6000608082019050611540600083018761151c565b81810360208301526115528186611240565b90506115616040830185611279565b61156e6060830184611279565b95945050505050565b600060208201905061158c600083018461129a565b92915050565b6000806000606084860312156115ab576115aa6110bb565b5b600084013567ffffffffffffffff8111156115c9576115c86110c0565b5b6115d5868287016114a5565b93505060206115e6868287016111a7565b92505060406115f7868287016111a7565b9150509250925092565b600081519050919050565b600082825260208201905092915050565b6000819050602082019050919050565b600082825260208201905092915050565b6000611649826111e9565b611653818561162d565b9350611663818560208601611205565b61166c8161122f565b840191505092915050565b61168081611186565b82525050565b61168f81611288565b82525050565b600060a08301600083015184820360008601526116b2828261163e565b91505060208301516116c76020860182611677565b5060408301516116da6040860182611677565b5060608301516116ed6060860182611677565b5060808301516117006080860182611686565b508091505092915050565b60006117178383611695565b905092915050565b6000602082019050919050565b600061173782611601565b611741818561160c565b9350836020820285016117538561161d565b8060005b8581101561178f5784840389528151611770858261170b565b945061177b8361171f565b925060208a01995050600181019050611757565b50829750879550505050505092915050565b600060208201905081810360008301526117bb818461172c565b905092915050565b600060208201905081810360008301526117dd8184611240565b905092915050565b7f4e487b7100000000000000000000000000000000000000000000000000000000600052602260045260246000fd5b6000600282049050600182168061182c57607f821691505b60208210810361183f5761183e6117e5565b5b50919050565b7f4576656e7420646f6573206e6f74206578697374000000000000000000000000600082015250565b600061187b6014836111f4565b915061188682611845565b602082019050919050565b600060208201905081810360008301526118aa8161186e565b9050919050565b7f4e6f7420656e6f756768207469636b657473206c656674000000000000000000600082015250565b60006118e76017836111f4565b91506118f2826118b1565b602082019050919050565b60006020820190508181036000830152611916816118da565b9050919050565b7f4e487b7100000000000000000000000000000000000000000000000000000000600052601160045260246000fd5b600061195782611186565b915061196283611186565b925082820261197081611186565b915082820484148315176119875761198661191d565b5b5092915050565b7f4e6f7420656e6f7567682065746865722073656e740000000000000000000000600082015250565b60006119c46015836111f4565b91506119cf8261198e565b602082019050919050565b600060208201905081810360008301526119f3816119b7565b9050919050565b6000611a0582611186565b9150611a1083611186565b9250828203905081811115611a2857611a2761191d565b5b92915050565b60008190508160005260206000209050919050565b60006020601f8301049050919050565b600082821b905092915050565b600060088302611a907fffffffffffffffffffffffffffffffffffffffffffffffffffffffffffffffff82611a53565b611a9a8683611a53565b95508019841693508086168417925050509392505050565b6000819050919050565b6000611ad7611ad2611acd84611186565b611ab2565b611186565b9050919050565b6000819050919050565b611af183611abc565b611b05611afd82611ade565b848454611a60565b825550505050565b600090565b611b1a611b0d565b611b25818484611ae8565b505050565b5b81811015611b4957611b3e600082611b12565b600181019050611b2b565b5050565b601f821115611b8e57611b5f81611a2e565b611b6884611a43565b81016020851015611b77578190505b611b8b611b8385611a43565b830182611b2a565b50505b505050565b600082821c905092915050565b6000611bb160001984600802611b93565b1980831691505092915050565b6000611bca8383611ba0565b9150826002028217905092915050565b611be3826111e9565b67ffffffffffffffff811115611bfc57611bfb6113a8565b5b611c068254611814565b611c11828285611b4d565b600060209050601f831160018114611c445760008415611c32578287015190505b611c3c8582611bbe565b865550611ca4565b601f198416611c5286611a2e565b60005b82811015611c7a57848901518255600182019150602085019450602081019050611c55565b86831015611c975784890151611c93601f891682611ba0565b8355505b6001600288020188555050505b505050505050565b7f4349442063616e6e6f7420626520656d70747900000000000000000000000000600082015250565b6000611ce26013836111f4565b9150611ced82611cac565b602082019050919050565b60006020820190508181036000830152611d1181611cd5565b9050919050565b600081905092915050565b6000611d2e826111e9565b611d388185611d18565b9350611d48818560208601611205565b80840191505092915050565b6000611d608284611d23565b915081905092915050565b7f4576656e74204349442073686f756c64206e6f7420626520656d707479000000600082015250565b6000611da1601d836111f4565b9150611dac82611d6b565b602082019050919050565b60006020820190508181036000830152611dd081611d94565b9050919050565b7f4f6e6c79206f7267616e697a65722063616e20637265617465206576656e7400600082015250565b6000611e0d601f836111f4565b9150611e1882611dd7565b602082019050919050565b60006020820190508181036000830152611e3c81611e00565b9050919050565b7f546f74616c207469636b6574732073686f756c6420626520677265617465722060008201527f7468616e20300000000000000000000000000000000000000000000000000000602082015250565b6000611e9f6026836111f4565b9150611eaa82611e43565b604082019050919050565b60006020820190508181036000830152611ece81611e92565b9050919050565b7f4e487b7100000000000000000000000000000000000000000000000000000000600052601260045260246000fd5b6000611f0f82611186565b9150611f1a83611186565b925082611f2a57611f29611ed5565b5b828204905092915050565b6000611f4082611186565b91507fffffffffffffffffffffffffffffffffffffffffffffffffffffffffffffffff8203611f7257611f7161191d565b5b600182019050919050565b7f4e487b7100000000000000000000000000000000000000000000000000000000600052603260045260246000fdfea264697066735822122006e0710bf07e48d6f5259accd05cbb1ee30b5b00350837e55c99a78e4f5780de64736f6c63430008130033",
  "linkReferences": {},
  "deployedLinkReferences": {}
}