{
  "_format": "hh-sol-artifact-1",
  "contractName": "Tickets",
  "sourceName": "contracts/Tickets.sol",
  "abi": [
    {
      "inputs": [],
      "stateMutability": "nonpayable",
      "type": "constructor"
    },
    {
      "anonymous": false,
      "inputs": [
        {
          "indexed": true,
          "internalType": "uint256",
          "name": "eventId",
          "type": "uint256"
        },
        {
          "indexed": true,
          "internalType": "address",
          "name": "organizer",
          "type": "address"
        }
      ],
      "name": "EventCreated",
      "type": "event"
    },
    {
      "anonymous": false,
      "inputs": [
        {
          "indexed": true,
          "internalType": "address",
          "name": "organizerAddress",
          "type": "address"
        },
        {
          "indexed": true,
          "internalType": "string",
          "name": "CID",
          "type": "string"
        }
      ],
      "name": "OrganizerRegistered",
      "type": "event"
    },
    {
      "anonymous": false,
      "inputs": [
        {
          "indexed": true,
          "internalType": "uint256",
          "name": "eventId",
          "type": "uint256"
        },
        {
          "indexed": true,
          "internalType": "uint256",
          "name": "ticketsBought",
          "type": "uint256"
        },
        {
          "indexed": true,
          "internalType": "address",
          "name": "buyer",
          "type": "address"
        }
      ],
      "name": "TicketPurchased",
      "type": "event"
    },
    {
      "inputs": [
        {
          "internalType": "uint256",
          "name": "_eventId",
          "type": "uint256"
        },
        {
          "internalType": "uint256",
          "name": "_totalTicketsToBuy",
          "type": "uint256"
        }
      ],
      "name": "buyTicket",
      "outputs": [],
      "stateMutability": "payable",
      "type": "function"
    },
    {
      "inputs": [
        {
          "internalType": "string",
          "name": "_eventCid",
          "type": "string"
        },
        {
          "internalType": "uint256",
          "name": "_totalTickets",
          "type": "uint256"
        },
        {
          "internalType": "uint256",
          "name": "_price",
          "type": "uint256"
        }
      ],
      "name": "createEvent",
      "outputs": [],
      "stateMutability": "payable",
      "type": "function"
    },
    {
      "inputs": [
        {
          "internalType": "uint256",
          "name": "",
          "type": "uint256"
        }
      ],
      "name": "events",
      "outputs": [
        {
          "internalType": "string",
          "name": "eventCID",
          "type": "string"
        },
        {
          "internalType": "uint256",
          "name": "totalTickets",
          "type": "uint256"
        },
        {
          "internalType": "uint256",
          "name": "remTickets",
          "type": "uint256"
        },
        {
          "internalType": "uint256",
          "name": "price",
          "type": "uint256"
        },
        {
          "internalType": "address payable",
          "name": "creator",
          "type": "address"
        }
      ],
      "stateMutability": "view",
      "type": "function"
    },
    {
      "inputs": [
        {
          "internalType": "address",
          "name": "",
          "type": "address"
        },
        {
          "internalType": "uint256",
          "name": "",
          "type": "uint256"
        }
      ],
      "name": "eventsCreated",
      "outputs": [
        {
          "internalType": "uint256",
          "name": "",
          "type": "uint256"
        }
      ],
      "stateMutability": "view",
      "type": "function"
    },
    {
      "inputs": [],
      "name": "getAllEvents",
      "outputs": [
        {
          "components": [
            {
              "internalType": "string",
              "name": "eventCID",
              "type": "string"
            },
            {
              "internalType": "uint256",
              "name": "totalTickets",
              "type": "uint256"
            },
            {
              "internalType": "uint256",
              "name": "remTickets",
              "type": "uint256"
            },
            {
              "internalType": "uint256",
              "name": "price",
              "type": "uint256"
            },
            {
              "internalType": "address payable",
              "name": "creator",
              "type": "address"
            }
          ],
          "internalType": "struct Tickets.Event[]",
          "name": "",
          "type": "tuple[]"
        }
      ],
      "stateMutability": "view",
      "type": "function"
    },
    {
      "inputs": [
        {
          "internalType": "address",
          "name": "_organizerAddress",
          "type": "address"
        }
      ],
      "name": "isOrganizers",
      "outputs": [
        {
          "internalType": "bool",
          "name": "",
          "type": "bool"
        }
      ],
      "stateMutability": "view",
      "type": "function"
    },
    {
      "inputs": [
        {
          "internalType": "address",
          "name": "",
          "type": "address"
        }
      ],
      "name": "organizerCID",
      "outputs": [
        {
          "internalType": "string",
          "name": "",
          "type": "string"
        }
      ],
      "stateMutability": "view",
      "type": "function"
    },
    {
      "inputs": [
        {
          "internalType": "address",
          "name": "",
          "type": "address"
        }
      ],
      "name": "organizers",
      "outputs": [
        {
          "internalType": "bool",
          "name": "",
          "type": "bool"
        }
      ],
      "stateMutability": "view",
      "type": "function"
    },
    {
      "inputs": [],
      "name": "owner",
      "outputs": [
        {
          "internalType": "address payable",
          "name": "",
          "type": "address"
        }
      ],
      "stateMutability": "view",
      "type": "function"
    },
    {
      "inputs": [
        {
          "internalType": "string",
          "name": "_CID",
          "type": "string"
        }
      ],
      "name": "registerEventOrganizer",
      "outputs": [],
      "stateMutability": "nonpayable",
      "type": "function"
    },
    {
      "inputs": [
        {
          "internalType": "address",
          "name": "",
          "type": "address"
        },
        {
          "internalType": "uint256",
          "name": "",
          "type": "uint256"
        }
      ],
      "name": "ticketHolders",
      "outputs": [
        {
          "internalType": "address",
          "name": "userAddress",
          "type": "address"
        },
        {
          "internalType": "string",
          "name": "eventName",
          "type": "string"
        },
        {
          "internalType": "uint256",
          "name": "eventId",
          "type": "uint256"
        },
        {
          "internalType": "uint256",
          "name": "ticketsOwned",
          "type": "uint256"
        }
      ],
      "stateMutability": "view",
      "type": "function"
    }
  ],
  "bytecode": "0x608060405234801561001057600080fd5b5033600560006101000a81548173ffffffffffffffffffffffffffffffffffffffff021916908373ffffffffffffffffffffffffffffffffffffffff160217905550612013806100616000396000f3fe60806040526004361061009c5760003560e01c80636e389f90116100645780636e389f90146101a157806382615569146101de5780638da5cb5b1461021e5780639e9580f614610249578063c27a500d14610265578063fb894fa2146102905761009c565b80630544c5b9146100a15780630b791430146100de578063298ec2081461011f5780633aba8bd71461013b57806363d3b01914610178575b600080fd5b3480156100ad57600080fd5b506100c860048036038101906100c39190611120565b6102cd565b6040516100d59190611168565b60405180910390f35b3480156100ea57600080fd5b50610105600480360381019061010091906111b9565b6102ed565b6040516101169594939291906112a6565b60405180910390f35b61013960048036038101906101349190611300565b6103cb565b005b34801561014757600080fd5b50610162600480360381019061015d9190611340565b6107d9565b60405161016f9190611380565b60405180910390f35b34801561018457600080fd5b5061019f600480360381019061019a91906114d0565b61080a565b005b3480156101ad57600080fd5b506101c860048036038101906101c39190611120565b61094f565b6040516101d59190611168565b60405180910390f35b3480156101ea57600080fd5b5061020560048036038101906102009190611340565b6109a5565b6040516102159493929190611528565b60405180910390f35b34801561022a57600080fd5b50610233610a9a565b6040516102409190611574565b60405180910390f35b610263600480360381019061025e919061158f565b610ac0565b005b34801561027157600080fd5b5061027a610df8565b604051610287919061179e565b60405180910390f35b34801561029c57600080fd5b506102b760048036038101906102b29190611120565b610fc9565b6040516102c491906117c0565b60405180910390f35b60046020528060005260406000206000915054906101000a900460ff1681565b600060205280600052604060002060009150905080600001805461031090611811565b80601f016020809104026020016040519081016040528092919081815260200182805461033c90611811565b80156103895780601f1061035e57610100808354040283529160200191610389565b820191906000526020600020905b81548152906001019060200180831161036c57829003601f168201915b5050505050908060010154908060020154908060030154908060040160009054906101000a900473ffffffffffffffffffffffffffffffffffffffff16905085565b600654821115610410576040517f08c379a00000000000000000000000000000000000000000000000000000000081526004016104079061188e565b60405180910390fd5b80600080848152602001908152602001600020600201541015610468576040517f08c379a000000000000000000000000000000000000000000000000000000000815260040161045f906118fa565b60405180910390fd5b6000816000808581526020019081526020016000206003015461048b9190611949565b9050803410156104d0576040517f08c379a00000000000000000000000000000000000000000000000000000000081526004016104c7906119d7565b60405180910390fd5b600081346104de91906119f7565b90506000811115610531573373ffffffffffffffffffffffffffffffffffffffff166108fc829081150290604051600060405180830381858888f1935050505015801561052f573d6000803e3d6000fd5b505b60008085815260200190815260200160002060040160009054906101000a900473ffffffffffffffffffffffffffffffffffffffff1673ffffffffffffffffffffffffffffffffffffffff166108fc839081150290604051600060405180830381858888f193505050501580156105ac573d6000803e3d6000fd5b508260008086815260200190815260200160002060020160008282546105d291906119f7565b925050819055506000600160003373ffffffffffffffffffffffffffffffffffffffff1673ffffffffffffffffffffffffffffffffffffffff16815260200190815260200160002090508060405180608001604052803373ffffffffffffffffffffffffffffffffffffffff168152602001600080898152602001908152602001600020600001805461066490611811565b80601f016020809104026020016040519081016040528092919081815260200182805461069090611811565b80156106dd5780601f106106b2576101008083540402835291602001916106dd565b820191906000526020600020905b8154815290600101906020018083116106c057829003601f168201915b5050505050815260200187815260200186815250908060018154018082558091505060019003906000526020600020906004020160009091909190915060008201518160000160006101000a81548173ffffffffffffffffffffffffffffffffffffffff021916908373ffffffffffffffffffffffffffffffffffffffff16021790555060208201518160010190816107769190611bd7565b50604082015181600201556060820151816003015550503373ffffffffffffffffffffffffffffffffffffffff1684867f94c5953e15f54d38b82a662bdd5739fc91af3a23d3ef7e67269dfaeee71a813c60405160405180910390a45050505050565b600260205281600052604060002081815481106107f557600080fd5b90600052602060002001600091509150505481565b600081511161084e576040517f08c379a000000000000000000000000000000000000000000000000000000000815260040161084590611cf5565b60405180910390fd5b80600360003373ffffffffffffffffffffffffffffffffffffffff1673ffffffffffffffffffffffffffffffffffffffff168152602001908152602001600020908161089a9190611bd7565b506001600460003373ffffffffffffffffffffffffffffffffffffffff1673ffffffffffffffffffffffffffffffffffffffff16815260200190815260200160002060006101000a81548160ff021916908315150217905550806040516109019190611d51565b60405180910390203373ffffffffffffffffffffffffffffffffffffffff167fac35be65b927c19690056f54322574255afb94436fc8b4637810cfcc1fb3daae60405160405180910390a350565b6000600460008373ffffffffffffffffffffffffffffffffffffffff1673ffffffffffffffffffffffffffffffffffffffff16815260200190815260200160002060009054906101000a900460ff169050919050565b600160205281600052604060002081815481106109c157600080fd5b9060005260206000209060040201600091509150508060000160009054906101000a900473ffffffffffffffffffffffffffffffffffffffff1690806001018054610a0b90611811565b80601f0160208091040260200160405190810160405280929190818152602001828054610a3790611811565b8015610a845780601f10610a5957610100808354040283529160200191610a84565b820191906000526020600020905b815481529060010190602001808311610a6757829003601f168201915b5050505050908060020154908060030154905084565b600560009054906101000a900473ffffffffffffffffffffffffffffffffffffffff1681565b6000835111610b04576040517f08c379a0000000000000000000000000000000000000000000000000000000008152600401610afb90611db4565b60405180910390fd5b610b0d3361094f565b610b4c576040517f08c379a0000000000000000000000000000000000000000000000000000000008152600401610b4390611e20565b60405180910390fd5b60008211610b8f576040517f08c379a0000000000000000000000000000000000000000000000000000000008152600401610b8690611eb2565b60405180910390fd5b6000606460038484610ba19190611949565b610bab9190611949565b610bb59190611f01565b905080341015610bfa576040517f08c379a0000000000000000000000000000000000000000000000000000000008152600401610bf1906119d7565b60405180910390fd5b600560009054906101000a900473ffffffffffffffffffffffffffffffffffffffff1673ffffffffffffffffffffffffffffffffffffffff166108fc829081150290604051600060405180830381858888f19350505050158015610c62573d6000803e3d6000fd5b5060008134610c7191906119f7565b90506000811115610cc4573373ffffffffffffffffffffffffffffffffffffffff166108fc829081150290604051600060405180830381858888f19350505050158015610cc2573d6000803e3d6000fd5b505b60066000815480929190610cd790611f32565b91905055503373ffffffffffffffffffffffffffffffffffffffff166006547fe43349c008949cf6b65249356e6f918d4aaa0ca79f2b1166df4a4a98c9c16de260405160405180910390a36040518060a001604052808681526020018581526020018581526020018481526020013373ffffffffffffffffffffffffffffffffffffffff1681525060008060065481526020019081526020016000206000820151816000019081610d889190611bd7565b5060208201518160010155604082015181600201556060820151816003015560808201518160040160006101000a81548173ffffffffffffffffffffffffffffffffffffffff021916908373ffffffffffffffffffffffffffffffffffffffff1602179055509050505050505050565b6060600060065467ffffffffffffffff811115610e1857610e176113a5565b5b604051908082528060200260200182016040528015610e5157816020015b610e3e611069565b815260200190600190039081610e365790505b50905060005b600654811015610fc157600080600183610e719190611f7a565b81526020019081526020016000206040518060a0016040529081600082018054610e9a90611811565b80601f0160208091040260200160405190810160405280929190818152602001828054610ec690611811565b8015610f135780601f10610ee857610100808354040283529160200191610f13565b820191906000526020600020905b815481529060010190602001808311610ef657829003601f168201915b505050505081526020016001820154815260200160028201548152602001600382015481526020016004820160009054906101000a900473ffffffffffffffffffffffffffffffffffffffff1673ffffffffffffffffffffffffffffffffffffffff1673ffffffffffffffffffffffffffffffffffffffff1681525050828281518110610fa357610fa2611fae565b5b60200260200101819052508080610fb990611f32565b915050610e57565b508091505090565b60036020528060005260406000206000915090508054610fe890611811565b80601f016020809104026020016040519081016040528092919081815260200182805461101490611811565b80156110615780601f1061103657610100808354040283529160200191611061565b820191906000526020600020905b81548152906001019060200180831161104457829003601f168201915b505050505081565b6040518060a0016040528060608152602001600081526020016000815260200160008152602001600073ffffffffffffffffffffffffffffffffffffffff1681525090565b6000604051905090565b600080fd5b600080fd5b600073ffffffffffffffffffffffffffffffffffffffff82169050919050565b60006110ed826110c2565b9050919050565b6110fd816110e2565b811461110857600080fd5b50565b60008135905061111a816110f4565b92915050565b600060208284031215611136576111356110b8565b5b60006111448482850161110b565b91505092915050565b60008115159050919050565b6111628161114d565b82525050565b600060208201905061117d6000830184611159565b92915050565b6000819050919050565b61119681611183565b81146111a157600080fd5b50565b6000813590506111b38161118d565b92915050565b6000602082840312156111cf576111ce6110b8565b5b60006111dd848285016111a4565b91505092915050565b600081519050919050565b600082825260208201905092915050565b60005b83811015611220578082015181840152602081019050611205565b60008484015250505050565b6000601f19601f8301169050919050565b6000611248826111e6565b61125281856111f1565b9350611262818560208601611202565b61126b8161122c565b840191505092915050565b61127f81611183565b82525050565b6000611290826110c2565b9050919050565b6112a081611285565b82525050565b600060a08201905081810360008301526112c0818861123d565b90506112cf6020830187611276565b6112dc6040830186611276565b6112e96060830185611276565b6112f66080830184611297565b9695505050505050565b60008060408385031215611317576113166110b8565b5b6000611325858286016111a4565b9250506020611336858286016111a4565b9150509250929050565b60008060408385031215611357576113566110b8565b5b60006113658582860161110b565b9250506020611376858286016111a4565b9150509250929050565b60006020820190506113956000830184611276565b92915050565b600080fd5b600080fd5b7f4e487b7100000000000000000000000000000000000000000000000000000000600052604160045260246000fd5b6113dd8261122c565b810181811067ffffffffffffffff821117156113fc576113fb6113a5565b5b80604052505050565b600061140f6110ae565b905061141b82826113d4565b919050565b600067ffffffffffffffff82111561143b5761143a6113a5565b5b6114448261122c565b9050602081019050919050565b82818337600083830152505050565b600061147361146e84611420565b611405565b90508281526020810184848401111561148f5761148e6113a0565b5b61149a848285611451565b509392505050565b600082601f8301126114b7576114b661139b565b5b81356114c7848260208601611460565b91505092915050565b6000602082840312156114e6576114e56110b8565b5b600082013567ffffffffffffffff811115611504576115036110bd565b5b611510848285016114a2565b91505092915050565b611522816110e2565b82525050565b600060808201905061153d6000830187611519565b818103602083015261154f818661123d565b905061155e6040830185611276565b61156b6060830184611276565b95945050505050565b60006020820190506115896000830184611297565b92915050565b6000806000606084860312156115a8576115a76110b8565b5b600084013567ffffffffffffffff8111156115c6576115c56110bd565b5b6115d2868287016114a2565b93505060206115e3868287016111a4565b92505060406115f4868287016111a4565b9150509250925092565b600081519050919050565b600082825260208201905092915050565b6000819050602082019050919050565b600082825260208201905092915050565b6000611646826111e6565b611650818561162a565b9350611660818560208601611202565b6116698161122c565b840191505092915050565b61167d81611183565b82525050565b61168c81611285565b82525050565b600060a08301600083015184820360008601526116af828261163b565b91505060208301516116c46020860182611674565b5060408301516116d76040860182611674565b5060608301516116ea6060860182611674565b5060808301516116fd6080860182611683565b508091505092915050565b60006117148383611692565b905092915050565b6000602082019050919050565b6000611734826115fe565b61173e8185611609565b9350836020820285016117508561161a565b8060005b8581101561178c578484038952815161176d8582611708565b94506117788361171c565b925060208a01995050600181019050611754565b50829750879550505050505092915050565b600060208201905081810360008301526117b88184611729565b905092915050565b600060208201905081810360008301526117da818461123d565b905092915050565b7f4e487b7100000000000000000000000000000000000000000000000000000000600052602260045260246000fd5b6000600282049050600182168061182957607f821691505b60208210810361183c5761183b6117e2565b5b50919050565b7f4576656e7420646f6573206e6f74206578697374000000000000000000000000600082015250565b60006118786014836111f1565b915061188382611842565b602082019050919050565b600060208201905081810360008301526118a78161186b565b9050919050565b7f4e6f7420656e6f756768207469636b657473206c656674000000000000000000600082015250565b60006118e46017836111f1565b91506118ef826118ae565b602082019050919050565b60006020820190508181036000830152611913816118d7565b9050919050565b7f4e487b7100000000000000000000000000000000000000000000000000000000600052601160045260246000fd5b600061195482611183565b915061195f83611183565b925082820261196d81611183565b915082820484148315176119845761198361191a565b5b5092915050565b7f4e6f7420656e6f7567682065746865722073656e740000000000000000000000600082015250565b60006119c16015836111f1565b91506119cc8261198b565b602082019050919050565b600060208201905081810360008301526119f0816119b4565b9050919050565b6000611a0282611183565b9150611a0d83611183565b9250828203905081811115611a2557611a2461191a565b5b92915050565b60008190508160005260206000209050919050565b60006020601f8301049050919050565b600082821b905092915050565b600060088302611a8d7fffffffffffffffffffffffffffffffffffffffffffffffffffffffffffffffff82611a50565b611a978683611a50565b95508019841693508086168417925050509392505050565b6000819050919050565b6000611ad4611acf611aca84611183565b611aaf565b611183565b9050919050565b6000819050919050565b611aee83611ab9565b611b02611afa82611adb565b848454611a5d565b825550505050565b600090565b611b17611b0a565b611b22818484611ae5565b505050565b5b81811015611b4657611b3b600082611b0f565b600181019050611b28565b5050565b601f821115611b8b57611b5c81611a2b565b611b6584611a40565b81016020851015611b74578190505b611b88611b8085611a40565b830182611b27565b50505b505050565b600082821c905092915050565b6000611bae60001984600802611b90565b1980831691505092915050565b6000611bc78383611b9d565b9150826002028217905092915050565b611be0826111e6565b67ffffffffffffffff811115611bf957611bf86113a5565b5b611c038254611811565b611c0e828285611b4a565b600060209050601f831160018114611c415760008415611c2f578287015190505b611c398582611bbb565b865550611ca1565b601f198416611c4f86611a2b565b60005b82811015611c7757848901518255600182019150602085019450602081019050611c52565b86831015611c945784890151611c90601f891682611b9d565b8355505b6001600288020188555050505b505050505050565b7f4349442063616e6e6f7420626520656d70747900000000000000000000000000600082015250565b6000611cdf6013836111f1565b9150611cea82611ca9565b602082019050919050565b60006020820190508181036000830152611d0e81611cd2565b9050919050565b600081905092915050565b6000611d2b826111e6565b611d358185611d15565b9350611d45818560208601611202565b80840191505092915050565b6000611d5d8284611d20565b915081905092915050565b7f4576656e74204349442073686f756c64206e6f7420626520656d707479000000600082015250565b6000611d9e601d836111f1565b9150611da982611d68565b602082019050919050565b60006020820190508181036000830152611dcd81611d91565b9050919050565b7f4f6e6c79206f7267616e697a65722063616e20637265617465206576656e7400600082015250565b6000611e0a601f836111f1565b9150611e1582611dd4565b602082019050919050565b60006020820190508181036000830152611e3981611dfd565b9050919050565b7f546f74616c207469636b6574732073686f756c6420626520677265617465722060008201527f7468616e20300000000000000000000000000000000000000000000000000000602082015250565b6000611e9c6026836111f1565b9150611ea782611e40565b604082019050919050565b60006020820190508181036000830152611ecb81611e8f565b9050919050565b7f4e487b7100000000000000000000000000000000000000000000000000000000600052601260045260246000fd5b6000611f0c82611183565b9150611f1783611183565b925082611f2757611f26611ed2565b5b828204905092915050565b6000611f3d82611183565b91507fffffffffffffffffffffffffffffffffffffffffffffffffffffffffffffffff8203611f6f57611f6e61191a565b5b600182019050919050565b6000611f8582611183565b9150611f9083611183565b9250828201905080821115611fa857611fa761191a565b5b92915050565b7f4e487b7100000000000000000000000000000000000000000000000000000000600052603260045260246000fdfea26469706673582212203b09b923d59b7dc185050d9e971034783e3d6e558d4df6af46d3825da1f3eb6864736f6c63430008130033",
  "linkReferences": {},
  "deployedLinkReferences": {}
}