{
  "_format": "hh-sol-artifact-1",
  "contractName": "Tickets",
  "sourceName": "contracts/Tickets.sol",
  "abi": [
    {
      "anonymous": false,
      "inputs": [
        {
          "indexed": true,
          "internalType": "uint256",
          "name": "eventId",
          "type": "uint256"
        },
        {
          "indexed": true,
          "internalType": "address",
          "name": "organizer",
          "type": "address"
        }
      ],
      "name": "EventCreated",
      "type": "event"
    },
    {
      "anonymous": false,
      "inputs": [
        {
          "indexed": true,
          "internalType": "address",
          "name": "organizerAddress",
          "type": "address"
        },
        {
          "indexed": true,
          "internalType": "string",
          "name": "CID",
          "type": "string"
        }
      ],
      "name": "OrganizerRegistered",
      "type": "event"
    },
    {
      "anonymous": false,
      "inputs": [
        {
          "indexed": true,
          "internalType": "uint256",
          "name": "eventId",
          "type": "uint256"
        },
        {
          "indexed": true,
          "internalType": "uint256",
          "name": "ticketsBought",
          "type": "uint256"
        },
        {
          "indexed": true,
          "internalType": "address",
          "name": "buyer",
          "type": "address"
        }
      ],
      "name": "TicketPurchased",
      "type": "event"
    },
    {
      "inputs": [
        {
          "internalType": "uint256",
          "name": "_eventId",
          "type": "uint256"
        },
        {
          "internalType": "uint256",
          "name": "_totalTicketsToBuy",
          "type": "uint256"
        }
      ],
      "name": "buyTicket",
      "outputs": [],
      "stateMutability": "payable",
      "type": "function"
    },
    {
      "inputs": [
        {
          "internalType": "string",
          "name": "_eventCid",
          "type": "string"
        },
        {
          "internalType": "uint256",
          "name": "_totalTickets",
          "type": "uint256"
        },
        {
          "internalType": "uint256",
          "name": "_price",
          "type": "uint256"
        }
      ],
      "name": "createEvent",
      "outputs": [],
      "stateMutability": "payable",
      "type": "function"
    },
    {
      "inputs": [
        {
          "internalType": "uint256",
          "name": "",
          "type": "uint256"
        }
      ],
      "name": "events",
      "outputs": [
        {
          "internalType": "string",
          "name": "eventCID",
          "type": "string"
        },
        {
          "internalType": "uint256",
          "name": "totalTickets",
          "type": "uint256"
        },
        {
          "internalType": "uint256",
          "name": "remTickets",
          "type": "uint256"
        },
        {
          "internalType": "uint256",
          "name": "price",
          "type": "uint256"
        },
        {
          "internalType": "address payable",
          "name": "creator",
          "type": "address"
        }
      ],
      "stateMutability": "view",
      "type": "function"
    },
    {
      "inputs": [
        {
          "internalType": "address",
          "name": "",
          "type": "address"
        },
        {
          "internalType": "uint256",
          "name": "",
          "type": "uint256"
        }
      ],
      "name": "eventsCreated",
      "outputs": [
        {
          "internalType": "uint256",
          "name": "",
          "type": "uint256"
        }
      ],
      "stateMutability": "view",
      "type": "function"
    },
    {
      "inputs": [],
      "name": "getAllEvents",
      "outputs": [
        {
          "components": [
            {
              "internalType": "string",
              "name": "eventCID",
              "type": "string"
            },
            {
              "internalType": "uint256",
              "name": "totalTickets",
              "type": "uint256"
            },
            {
              "internalType": "uint256",
              "name": "remTickets",
              "type": "uint256"
            },
            {
              "internalType": "uint256",
              "name": "price",
              "type": "uint256"
            },
            {
              "internalType": "address payable",
              "name": "creator",
              "type": "address"
            }
          ],
          "internalType": "struct Tickets.Event[]",
          "name": "",
          "type": "tuple[]"
        }
      ],
      "stateMutability": "view",
      "type": "function"
    },
    {
      "inputs": [
        {
          "internalType": "uint256",
          "name": "_eventId",
          "type": "uint256"
        }
      ],
      "name": "getIpfsCID",
      "outputs": [
        {
          "internalType": "string",
          "name": "",
          "type": "string"
        }
      ],
      "stateMutability": "view",
      "type": "function"
    },
    {
      "inputs": [
        {
          "internalType": "address",
          "name": "_organizerAddress",
          "type": "address"
        }
      ],
      "name": "getOrganizerCID",
      "outputs": [
        {
          "internalType": "string",
          "name": "",
          "type": "string"
        }
      ],
      "stateMutability": "view",
      "type": "function"
    },
    {
      "inputs": [
        {
          "internalType": "address",
          "name": "_organizerAddress",
          "type": "address"
        }
      ],
      "name": "isOrganizers",
      "outputs": [
        {
          "internalType": "bool",
          "name": "",
          "type": "bool"
        }
      ],
      "stateMutability": "view",
      "type": "function"
    },
    {
      "inputs": [
        {
          "internalType": "address",
          "name": "",
          "type": "address"
        }
      ],
      "name": "organizerCID",
      "outputs": [
        {
          "internalType": "string",
          "name": "",
          "type": "string"
        }
      ],
      "stateMutability": "view",
      "type": "function"
    },
    {
      "inputs": [
        {
          "internalType": "address",
          "name": "",
          "type": "address"
        }
      ],
      "name": "organizers",
      "outputs": [
        {
          "internalType": "bool",
          "name": "",
          "type": "bool"
        }
      ],
      "stateMutability": "view",
      "type": "function"
    },
    {
      "inputs": [],
      "name": "owner",
      "outputs": [
        {
          "internalType": "address payable",
          "name": "",
          "type": "address"
        }
      ],
      "stateMutability": "view",
      "type": "function"
    },
    {
      "inputs": [
        {
          "internalType": "string",
          "name": "_CID",
          "type": "string"
        }
      ],
      "name": "registerEventOrganizer",
      "outputs": [],
      "stateMutability": "nonpayable",
      "type": "function"
    },
    {
      "inputs": [
        {
          "internalType": "address",
          "name": "",
          "type": "address"
        },
        {
          "internalType": "uint256",
          "name": "",
          "type": "uint256"
        }
      ],
      "name": "ticketHolders",
      "outputs": [
        {
          "internalType": "address",
          "name": "userAddress",
          "type": "address"
        },
        {
          "internalType": "string",
          "name": "eventName",
          "type": "string"
        },
        {
          "internalType": "uint256",
          "name": "eventId",
          "type": "uint256"
        },
        {
          "internalType": "uint256",
          "name": "ticketsOwned",
          "type": "uint256"
        }
      ],
      "stateMutability": "view",
      "type": "function"
    }
  ],
  "bytecode": "0x608060405234801561001057600080fd5b50336000806101000a81548173ffffffffffffffffffffffffffffffffffffffff021916908373ffffffffffffffffffffffffffffffffffffffff160217905550612584806100606000396000f3fe6080604052600436106100c25760003560e01c806363d3b0191161007f5780638da5cb5b116100595780638da5cb5b146102be5780639e9580f6146102e9578063c27a500d14610305578063fb894fa214610330576100c2565b806363d3b019146102185780636e389f9014610241578063826155691461027e576100c2565b8063038a03c4146100c75780630544c5b9146101045780630b7914301461014157806320e2441314610182578063298ec208146101bf5780633aba8bd7146101db575b600080fd5b3480156100d357600080fd5b506100ee60048036038101906100e99190611579565b61036d565b6040516100fb9190611636565b60405180910390f35b34801561011057600080fd5b5061012b600480360381019061012691906116b6565b610466565b60405161013891906116fe565b60405180910390f35b34801561014d57600080fd5b5061016860048036038101906101639190611579565b610486565b604051610179959493929190611749565b60405180910390f35b34801561018e57600080fd5b506101a960048036038101906101a491906116b6565b610564565b6040516101b69190611636565b60405180910390f35b6101d960048036038101906101d491906117a3565b6107fb565b005b3480156101e757600080fd5b5061020260048036038101906101fd91906117e3565b610c0e565b60405161020f9190611823565b60405180910390f35b34801561022457600080fd5b5061023f600480360381019061023a9190611973565b610c3f565b005b34801561024d57600080fd5b50610268600480360381019061026391906116b6565b610d84565b60405161027591906116fe565b60405180910390f35b34801561028a57600080fd5b506102a560048036038101906102a091906117e3565b610dda565b6040516102b594939291906119cb565b60405180910390f35b3480156102ca57600080fd5b506102d3610ecf565b6040516102e09190611a17565b60405180910390f35b61030360048036038101906102fe9190611a32565b610ef3565b005b34801561031157600080fd5b5061031a611275565b6040516103279190611c41565b60405180910390f35b34801561033c57600080fd5b50610357600480360381019061035291906116b6565b61144a565b6040516103649190611636565b60405180910390f35b606060008211801561038157506006548211155b6103c0576040517f08c379a00000000000000000000000000000000000000000000000000000000081526004016103b790611caf565b60405180910390fd5b6003600083815260200190815260200160002060000180546103e190611cfe565b80601f016020809104026020016040519081016040528092919081815260200182805461040d90611cfe565b801561045a5780601f1061042f5761010080835404028352916020019161045a565b820191906000526020600020905b81548152906001019060200180831161043d57829003601f168201915b50505050509050919050565b60026020528060005260406000206000915054906101000a900460ff1681565b60036020528060005260406000206000915090508060000180546104a990611cfe565b80601f01602080910402602001604051908101604052809291908181526020018280546104d590611cfe565b80156105225780601f106104f757610100808354040283529160200191610522565b820191906000526020600020905b81548152906001019060200180831161050557829003601f168201915b5050505050908060010154908060020154908060030154908060040160009054906101000a900473ffffffffffffffffffffffffffffffffffffffff16905085565b606060011515600260003373ffffffffffffffffffffffffffffffffffffffff1673ffffffffffffffffffffffffffffffffffffffff16815260200190815260200160002060009054906101000a900460ff161515146105f9576040517f08c379a00000000000000000000000000000000000000000000000000000000081526004016105f090611da1565b60405180910390fd5b600073ffffffffffffffffffffffffffffffffffffffff168273ffffffffffffffffffffffffffffffffffffffff1603610668576040517f08c379a000000000000000000000000000000000000000000000000000000000815260040161065f90611e0d565b60405180910390fd5b60008054906101000a900473ffffffffffffffffffffffffffffffffffffffff1673ffffffffffffffffffffffffffffffffffffffff163373ffffffffffffffffffffffffffffffffffffffff1614806106ed57508173ffffffffffffffffffffffffffffffffffffffff163373ffffffffffffffffffffffffffffffffffffffff16145b61072c576040517f08c379a000000000000000000000000000000000000000000000000000000000815260040161072390611e9f565b60405180910390fd5b600160008373ffffffffffffffffffffffffffffffffffffffff1673ffffffffffffffffffffffffffffffffffffffff168152602001908152602001600020805461077690611cfe565b80601f01602080910402602001604051908101604052809291908181526020018280546107a290611cfe565b80156107ef5780601f106107c4576101008083540402835291602001916107ef565b820191906000526020600020905b8154815290600101906020018083116107d257829003601f168201915b50505050509050919050565b600654821115610840576040517f08c379a000000000000000000000000000000000000000000000000000000000815260040161083790611caf565b60405180910390fd5b8060036000848152602001908152602001600020600201541015610899576040517f08c379a000000000000000000000000000000000000000000000000000000000815260040161089090611f0b565b60405180910390fd5b60008160036000858152602001908152602001600020600301546108bd9190611f5a565b905080341015610902576040517f08c379a00000000000000000000000000000000000000000000000000000000081526004016108f990611fe8565b60405180910390fd5b600081346109109190612008565b90506000811115610963573373ffffffffffffffffffffffffffffffffffffffff166108fc829081150290604051600060405180830381858888f19350505050158015610961573d6000803e3d6000fd5b505b6003600085815260200190815260200160002060040160009054906101000a900473ffffffffffffffffffffffffffffffffffffffff1673ffffffffffffffffffffffffffffffffffffffff166108fc839081150290604051600060405180830381858888f193505050501580156109df573d6000803e3d6000fd5b5082600360008681526020019081526020016000206002016000828254610a069190612008565b925050819055506000600460003373ffffffffffffffffffffffffffffffffffffffff1673ffffffffffffffffffffffffffffffffffffffff16815260200190815260200160002090508060405180608001604052803373ffffffffffffffffffffffffffffffffffffffff168152602001600360008981526020019081526020016000206000018054610a9990611cfe565b80601f0160208091040260200160405190810160405280929190818152602001828054610ac590611cfe565b8015610b125780601f10610ae757610100808354040283529160200191610b12565b820191906000526020600020905b815481529060010190602001808311610af557829003601f168201915b5050505050815260200187815260200186815250908060018154018082558091505060019003906000526020600020906004020160009091909190915060008201518160000160006101000a81548173ffffffffffffffffffffffffffffffffffffffff021916908373ffffffffffffffffffffffffffffffffffffffff1602179055506020820151816001019081610bab91906121e8565b50604082015181600201556060820151816003015550503373ffffffffffffffffffffffffffffffffffffffff1684867f94c5953e15f54d38b82a662bdd5739fc91af3a23d3ef7e67269dfaeee71a813c60405160405180910390a45050505050565b60056020528160005260406000208181548110610c2a57600080fd5b90600052602060002001600091509150505481565b6000815111610c83576040517f08c379a0000000000000000000000000000000000000000000000000000000008152600401610c7a90612306565b60405180910390fd5b80600160003373ffffffffffffffffffffffffffffffffffffffff1673ffffffffffffffffffffffffffffffffffffffff1681526020019081526020016000209081610ccf91906121e8565b506001600260003373ffffffffffffffffffffffffffffffffffffffff1673ffffffffffffffffffffffffffffffffffffffff16815260200190815260200160002060006101000a81548160ff02191690831515021790555080604051610d369190612362565b60405180910390203373ffffffffffffffffffffffffffffffffffffffff167fac35be65b927c19690056f54322574255afb94436fc8b4637810cfcc1fb3daae60405160405180910390a350565b6000600260008373ffffffffffffffffffffffffffffffffffffffff1673ffffffffffffffffffffffffffffffffffffffff16815260200190815260200160002060009054906101000a900460ff169050919050565b60046020528160005260406000208181548110610df657600080fd5b9060005260206000209060040201600091509150508060000160009054906101000a900473ffffffffffffffffffffffffffffffffffffffff1690806001018054610e4090611cfe565b80601f0160208091040260200160405190810160405280929190818152602001828054610e6c90611cfe565b8015610eb95780601f10610e8e57610100808354040283529160200191610eb9565b820191906000526020600020905b815481529060010190602001808311610e9c57829003601f168201915b5050505050908060020154908060030154905084565b60008054906101000a900473ffffffffffffffffffffffffffffffffffffffff1681565b60011515600260003373ffffffffffffffffffffffffffffffffffffffff1673ffffffffffffffffffffffffffffffffffffffff16815260200190815260200160002060009054906101000a900460ff16151514610f86576040517f08c379a0000000000000000000000000000000000000000000000000000000008152600401610f7d90611da1565b60405180910390fd5b6000835111610fca576040517f08c379a0000000000000000000000000000000000000000000000000000000008152600401610fc1906123c5565b60405180910390fd5b6000821161100d576040517f08c379a000000000000000000000000000000000000000000000000000000000815260040161100490612457565b60405180910390fd5b600060646003848461101f9190611f5a565b6110299190611f5a565b61103391906124a6565b905080341015611078576040517f08c379a000000000000000000000000000000000000000000000000000000000815260040161106f90611fe8565b60405180910390fd5b600081346110869190612008565b905060008111156110d9573373ffffffffffffffffffffffffffffffffffffffff166108fc829081150290604051600060405180830381858888f193505050501580156110d7573d6000803e3d6000fd5b505b60008054906101000a900473ffffffffffffffffffffffffffffffffffffffff1673ffffffffffffffffffffffffffffffffffffffff166108fc839081150290604051600060405180830381858888f1935050505015801561113f573d6000803e3d6000fd5b5060066000815480929190611153906124d7565b91905055503373ffffffffffffffffffffffffffffffffffffffff166006547fe43349c008949cf6b65249356e6f918d4aaa0ca79f2b1166df4a4a98c9c16de260405160405180910390a36040518060a001604052808681526020018581526020018581526020018481526020013373ffffffffffffffffffffffffffffffffffffffff16815250600360006006548152602001908152602001600020600082015181600001908161120591906121e8565b5060208201518160010155604082015181600201556060820151816003015560808201518160040160006101000a81548173ffffffffffffffffffffffffffffffffffffffff021916908373ffffffffffffffffffffffffffffffffffffffff1602179055509050505050505050565b6060600060065467ffffffffffffffff81111561129557611294611848565b5b6040519080825280602002602001820160405280156112ce57816020015b6112bb6114ea565b8152602001906001900390816112b35790505b5090506000600190505b600654811161144257600360008281526020019081526020016000206040518060a001604052908160008201805461130f90611cfe565b80601f016020809104026020016040519081016040528092919081815260200182805461133b90611cfe565b80156113885780601f1061135d57610100808354040283529160200191611388565b820191906000526020600020905b81548152906001019060200180831161136b57829003601f168201915b505050505081526020016001820154815260200160028201548152602001600382015481526020016004820160009054906101000a900473ffffffffffffffffffffffffffffffffffffffff1673ffffffffffffffffffffffffffffffffffffffff1673ffffffffffffffffffffffffffffffffffffffff1681525050826001836114139190612008565b815181106114245761142361251f565b5b6020026020010181905250808061143a906124d7565b9150506112d8565b508091505090565b6001602052806000526040600020600091509050805461146990611cfe565b80601f016020809104026020016040519081016040528092919081815260200182805461149590611cfe565b80156114e25780601f106114b7576101008083540402835291602001916114e2565b820191906000526020600020905b8154815290600101906020018083116114c557829003601f168201915b505050505081565b6040518060a0016040528060608152602001600081526020016000815260200160008152602001600073ffffffffffffffffffffffffffffffffffffffff1681525090565b6000604051905090565b600080fd5b600080fd5b6000819050919050565b61155681611543565b811461156157600080fd5b50565b6000813590506115738161154d565b92915050565b60006020828403121561158f5761158e611539565b5b600061159d84828501611564565b91505092915050565b600081519050919050565b600082825260208201905092915050565b60005b838110156115e05780820151818401526020810190506115c5565b60008484015250505050565b6000601f19601f8301169050919050565b6000611608826115a6565b61161281856115b1565b93506116228185602086016115c2565b61162b816115ec565b840191505092915050565b6000602082019050818103600083015261165081846115fd565b905092915050565b600073ffffffffffffffffffffffffffffffffffffffff82169050919050565b600061168382611658565b9050919050565b61169381611678565b811461169e57600080fd5b50565b6000813590506116b08161168a565b92915050565b6000602082840312156116cc576116cb611539565b5b60006116da848285016116a1565b91505092915050565b60008115159050919050565b6116f8816116e3565b82525050565b600060208201905061171360008301846116ef565b92915050565b61172281611543565b82525050565b600061173382611658565b9050919050565b61174381611728565b82525050565b600060a082019050818103600083015261176381886115fd565b90506117726020830187611719565b61177f6040830186611719565b61178c6060830185611719565b611799608083018461173a565b9695505050505050565b600080604083850312156117ba576117b9611539565b5b60006117c885828601611564565b92505060206117d985828601611564565b9150509250929050565b600080604083850312156117fa576117f9611539565b5b6000611808858286016116a1565b925050602061181985828601611564565b9150509250929050565b60006020820190506118386000830184611719565b92915050565b600080fd5b600080fd5b7f4e487b7100000000000000000000000000000000000000000000000000000000600052604160045260246000fd5b611880826115ec565b810181811067ffffffffffffffff8211171561189f5761189e611848565b5b80604052505050565b60006118b261152f565b90506118be8282611877565b919050565b600067ffffffffffffffff8211156118de576118dd611848565b5b6118e7826115ec565b9050602081019050919050565b82818337600083830152505050565b6000611916611911846118c3565b6118a8565b90508281526020810184848401111561193257611931611843565b5b61193d8482856118f4565b509392505050565b600082601f83011261195a5761195961183e565b5b813561196a848260208601611903565b91505092915050565b60006020828403121561198957611988611539565b5b600082013567ffffffffffffffff8111156119a7576119a661153e565b5b6119b384828501611945565b91505092915050565b6119c581611678565b82525050565b60006080820190506119e060008301876119bc565b81810360208301526119f281866115fd565b9050611a016040830185611719565b611a0e6060830184611719565b95945050505050565b6000602082019050611a2c600083018461173a565b92915050565b600080600060608486031215611a4b57611a4a611539565b5b600084013567ffffffffffffffff811115611a6957611a6861153e565b5b611a7586828701611945565b9350506020611a8686828701611564565b9250506040611a9786828701611564565b9150509250925092565b600081519050919050565b600082825260208201905092915050565b6000819050602082019050919050565b600082825260208201905092915050565b6000611ae9826115a6565b611af38185611acd565b9350611b038185602086016115c2565b611b0c816115ec565b840191505092915050565b611b2081611543565b82525050565b611b2f81611728565b82525050565b600060a0830160008301518482036000860152611b528282611ade565b9150506020830151611b676020860182611b17565b506040830151611b7a6040860182611b17565b506060830151611b8d6060860182611b17565b506080830151611ba06080860182611b26565b508091505092915050565b6000611bb78383611b35565b905092915050565b6000602082019050919050565b6000611bd782611aa1565b611be18185611aac565b935083602082028501611bf385611abd565b8060005b85811015611c2f5784840389528151611c108582611bab565b9450611c1b83611bbf565b925060208a01995050600181019050611bf7565b50829750879550505050505092915050565b60006020820190508181036000830152611c5b8184611bcc565b905092915050565b7f4576656e7420646f6573206e6f74206578697374000000000000000000000000600082015250565b6000611c996014836115b1565b9150611ca482611c63565b602082019050919050565b60006020820190508181036000830152611cc881611c8c565b9050919050565b7f4e487b7100000000000000000000000000000000000000000000000000000000600052602260045260246000fd5b60006002820490506001821680611d1657607f821691505b602082108103611d2957611d28611ccf565b5b50919050565b7f4f6e6c792072656769737465726564206f7267616e697a6572732063616e206360008201527f616c6c20746869732066756e6374696f6e000000000000000000000000000000602082015250565b6000611d8b6031836115b1565b9150611d9682611d2f565b604082019050919050565b60006020820190508181036000830152611dba81611d7e565b9050919050565b7f496e76616c696420616464726573730000000000000000000000000000000000600082015250565b6000611df7600f836115b1565b9150611e0282611dc1565b602082019050919050565b60006020820190508181036000830152611e2681611dea565b9050919050565b7f4f6e6c79206f776e6572206f72206f7267616e697a65722063616e2063616c6c60008201527f20746869732066756e6374696f6e000000000000000000000000000000000000602082015250565b6000611e89602e836115b1565b9150611e9482611e2d565b604082019050919050565b60006020820190508181036000830152611eb881611e7c565b9050919050565b7f4e6f7420656e6f756768207469636b657473206c656674000000000000000000600082015250565b6000611ef56017836115b1565b9150611f0082611ebf565b602082019050919050565b60006020820190508181036000830152611f2481611ee8565b9050919050565b7f4e487b7100000000000000000000000000000000000000000000000000000000600052601160045260246000fd5b6000611f6582611543565b9150611f7083611543565b9250828202611f7e81611543565b91508282048414831517611f9557611f94611f2b565b5b5092915050565b7f4e6f7420656e6f7567682065746865722073656e740000000000000000000000600082015250565b6000611fd26015836115b1565b9150611fdd82611f9c565b602082019050919050565b6000602082019050818103600083015261200181611fc5565b9050919050565b600061201382611543565b915061201e83611543565b925082820390508181111561203657612035611f2b565b5b92915050565b60008190508160005260206000209050919050565b60006020601f8301049050919050565b600082821b905092915050565b60006008830261209e7fffffffffffffffffffffffffffffffffffffffffffffffffffffffffffffffff82612061565b6120a88683612061565b95508019841693508086168417925050509392505050565b6000819050919050565b60006120e56120e06120db84611543565b6120c0565b611543565b9050919050565b6000819050919050565b6120ff836120ca565b61211361210b826120ec565b84845461206e565b825550505050565b600090565b61212861211b565b6121338184846120f6565b505050565b5b818110156121575761214c600082612120565b600181019050612139565b5050565b601f82111561219c5761216d8161203c565b61217684612051565b81016020851015612185578190505b61219961219185612051565b830182612138565b50505b505050565b600082821c905092915050565b60006121bf600019846008026121a1565b1980831691505092915050565b60006121d883836121ae565b9150826002028217905092915050565b6121f1826115a6565b67ffffffffffffffff81111561220a57612209611848565b5b6122148254611cfe565b61221f82828561215b565b600060209050601f8311600181146122525760008415612240578287015190505b61224a85826121cc565b8655506122b2565b601f1984166122608661203c565b60005b8281101561228857848901518255600182019150602085019450602081019050612263565b868310156122a557848901516122a1601f8916826121ae565b8355505b6001600288020188555050505b505050505050565b7f4349442063616e6e6f7420626520656d70747900000000000000000000000000600082015250565b60006122f06013836115b1565b91506122fb826122ba565b602082019050919050565b6000602082019050818103600083015261231f816122e3565b9050919050565b600081905092915050565b600061233c826115a6565b6123468185612326565b93506123568185602086016115c2565b80840191505092915050565b600061236e8284612331565b915081905092915050565b7f4576656e74204349442073686f756c64206e6f7420626520656d707479000000600082015250565b60006123af601d836115b1565b91506123ba82612379565b602082019050919050565b600060208201905081810360008301526123de816123a2565b9050919050565b7f546f74616c207469636b6574732073686f756c6420626520677265617465722060008201527f7468616e20300000000000000000000000000000000000000000000000000000602082015250565b60006124416026836115b1565b915061244c826123e5565b604082019050919050565b6000602082019050818103600083015261247081612434565b9050919050565b7f4e487b7100000000000000000000000000000000000000000000000000000000600052601260045260246000fd5b60006124b182611543565b91506124bc83611543565b9250826124cc576124cb612477565b5b828204905092915050565b60006124e282611543565b91507fffffffffffffffffffffffffffffffffffffffffffffffffffffffffffffffff820361251457612513611f2b565b5b600182019050919050565b7f4e487b7100000000000000000000000000000000000000000000000000000000600052603260045260246000fdfea26469706673582212202412aa51170a1e945ebeddac1420840822a369ffbb7ec0409eae30ad470e859464736f6c63430008130033",
  "linkReferences": {},
  "deployedLinkReferences": {}
}