{
  "_format": "hh-sol-artifact-1",
  "contractName": "Tickets",
  "sourceName": "contracts/Tickets.sol",
  "abi": [
    {
      "inputs": [],
      "stateMutability": "nonpayable",
      "type": "constructor"
    },
    {
      "anonymous": false,
      "inputs": [
        {
          "indexed": false,
          "internalType": "uint256",
          "name": "eventId",
          "type": "uint256"
        },
        {
          "indexed": true,
          "internalType": "address",
          "name": "organizer",
          "type": "address"
        },
        {
          "indexed": false,
          "internalType": "string",
          "name": "eventCid",
          "type": "string"
        },
        {
          "indexed": false,
          "internalType": "uint256",
          "name": "creationTime",
          "type": "uint256"
        }
      ],
      "name": "EventCreated",
      "type": "event"
    },
    {
      "anonymous": false,
      "inputs": [
        {
          "indexed": true,
          "internalType": "address",
          "name": "organizerAddress",
          "type": "address"
        },
        {
          "indexed": false,
          "internalType": "string",
          "name": "CID",
          "type": "string"
        },
        {
          "indexed": false,
          "internalType": "uint256",
          "name": "registerTime",
          "type": "uint256"
        }
      ],
      "name": "OrganizerRegistered",
      "type": "event"
    },
    {
      "anonymous": false,
      "inputs": [
        {
          "indexed": false,
          "internalType": "uint256",
          "name": "eventId",
          "type": "uint256"
        },
        {
          "indexed": false,
          "internalType": "uint256",
          "name": "ticketsBought",
          "type": "uint256"
        },
        {
          "indexed": true,
          "internalType": "address",
          "name": "buyer",
          "type": "address"
        },
        {
          "indexed": false,
          "internalType": "uint256",
          "name": "purchaseTime",
          "type": "uint256"
        }
      ],
      "name": "TicketPurchased",
      "type": "event"
    },
    {
      "inputs": [
        {
          "internalType": "uint256",
          "name": "",
          "type": "uint256"
        }
      ],
      "name": "allEvents",
      "outputs": [
        {
          "internalType": "string",
          "name": "eventCID",
          "type": "string"
        },
        {
          "internalType": "uint256",
          "name": "totalTickets",
          "type": "uint256"
        },
        {
          "internalType": "uint256",
          "name": "remTickets",
          "type": "uint256"
        },
        {
          "internalType": "uint256",
          "name": "price",
          "type": "uint256"
        },
        {
          "internalType": "address payable",
          "name": "creator",
          "type": "address"
        }
      ],
      "stateMutability": "view",
      "type": "function"
    },
    {
      "inputs": [
        {
          "internalType": "uint256",
          "name": "",
          "type": "uint256"
        }
      ],
      "name": "allOrganizerCid",
      "outputs": [
        {
          "internalType": "string",
          "name": "",
          "type": "string"
        }
      ],
      "stateMutability": "view",
      "type": "function"
    },
    {
      "inputs": [
        {
          "internalType": "uint256",
          "name": "",
          "type": "uint256"
        }
      ],
      "name": "allOrganizers",
      "outputs": [
        {
          "internalType": "address",
          "name": "",
          "type": "address"
        }
      ],
      "stateMutability": "view",
      "type": "function"
    },
    {
      "inputs": [
        {
          "internalType": "uint256",
          "name": "_eventId",
          "type": "uint256"
        },
        {
          "internalType": "uint256",
          "name": "_totalTicketsToBuy",
          "type": "uint256"
        }
      ],
      "name": "buyTicket",
      "outputs": [],
      "stateMutability": "payable",
      "type": "function"
    },
    {
      "inputs": [
        {
          "internalType": "string",
          "name": "_eventCid",
          "type": "string"
        },
        {
          "internalType": "uint256",
          "name": "_totalTickets",
          "type": "uint256"
        },
        {
          "internalType": "uint256",
          "name": "_price",
          "type": "uint256"
        }
      ],
      "name": "createEvent",
      "outputs": [],
      "stateMutability": "payable",
      "type": "function"
    },
    {
      "inputs": [
        {
          "internalType": "uint256",
          "name": "",
          "type": "uint256"
        }
      ],
      "name": "events",
      "outputs": [
        {
          "internalType": "string",
          "name": "eventCID",
          "type": "string"
        },
        {
          "internalType": "uint256",
          "name": "totalTickets",
          "type": "uint256"
        },
        {
          "internalType": "uint256",
          "name": "remTickets",
          "type": "uint256"
        },
        {
          "internalType": "uint256",
          "name": "price",
          "type": "uint256"
        },
        {
          "internalType": "address payable",
          "name": "creator",
          "type": "address"
        }
      ],
      "stateMutability": "view",
      "type": "function"
    },
    {
      "inputs": [
        {
          "internalType": "address",
          "name": "",
          "type": "address"
        },
        {
          "internalType": "uint256",
          "name": "",
          "type": "uint256"
        }
      ],
      "name": "eventsCreated",
      "outputs": [
        {
          "internalType": "uint256",
          "name": "",
          "type": "uint256"
        }
      ],
      "stateMutability": "view",
      "type": "function"
    },
    {
      "inputs": [],
      "name": "getAllEvents",
      "outputs": [
        {
          "components": [
            {
              "internalType": "string",
              "name": "eventCID",
              "type": "string"
            },
            {
              "internalType": "uint256",
              "name": "totalTickets",
              "type": "uint256"
            },
            {
              "internalType": "uint256",
              "name": "remTickets",
              "type": "uint256"
            },
            {
              "internalType": "uint256",
              "name": "price",
              "type": "uint256"
            },
            {
              "internalType": "address payable",
              "name": "creator",
              "type": "address"
            }
          ],
          "internalType": "struct Tickets.Event[]",
          "name": "",
          "type": "tuple[]"
        }
      ],
      "stateMutability": "view",
      "type": "function"
    },
    {
      "inputs": [],
      "name": "getAllOrganizerCID",
      "outputs": [
        {
          "internalType": "string[]",
          "name": "",
          "type": "string[]"
        }
      ],
      "stateMutability": "view",
      "type": "function"
    },
    {
      "inputs": [],
      "name": "getAllOrganizers",
      "outputs": [
        {
          "internalType": "address[]",
          "name": "",
          "type": "address[]"
        }
      ],
      "stateMutability": "view",
      "type": "function"
    },
    {
      "inputs": [
        {
          "internalType": "address",
          "name": "_userAddress",
          "type": "address"
        }
      ],
      "name": "getTicket",
      "outputs": [
        {
          "components": [
            {
              "internalType": "address",
              "name": "userAddress",
              "type": "address"
            },
            {
              "internalType": "string",
              "name": "eventName",
              "type": "string"
            },
            {
              "internalType": "uint256",
              "name": "eventId",
              "type": "uint256"
            },
            {
              "internalType": "uint256",
              "name": "ticketsOwned",
              "type": "uint256"
            }
          ],
          "internalType": "struct Tickets.TicketHolder[]",
          "name": "",
          "type": "tuple[]"
        }
      ],
      "stateMutability": "view",
      "type": "function"
    },
    {
      "inputs": [
        {
          "internalType": "address",
          "name": "_organizerAddress",
          "type": "address"
        }
      ],
      "name": "isOrganizers",
      "outputs": [
        {
          "internalType": "bool",
          "name": "",
          "type": "bool"
        }
      ],
      "stateMutability": "view",
      "type": "function"
    },
    {
      "inputs": [],
      "name": "isOwner",
      "outputs": [
        {
          "internalType": "bool",
          "name": "",
          "type": "bool"
        }
      ],
      "stateMutability": "view",
      "type": "function"
    },
    {
      "inputs": [
        {
          "internalType": "address",
          "name": "",
          "type": "address"
        }
      ],
      "name": "organizerCID",
      "outputs": [
        {
          "internalType": "string",
          "name": "",
          "type": "string"
        }
      ],
      "stateMutability": "view",
      "type": "function"
    },
    {
      "inputs": [
        {
          "internalType": "address",
          "name": "",
          "type": "address"
        }
      ],
      "name": "organizers",
      "outputs": [
        {
          "internalType": "bool",
          "name": "",
          "type": "bool"
        }
      ],
      "stateMutability": "view",
      "type": "function"
    },
    {
      "inputs": [],
      "name": "owner",
      "outputs": [
        {
          "internalType": "address payable",
          "name": "",
          "type": "address"
        }
      ],
      "stateMutability": "view",
      "type": "function"
    },
    {
      "inputs": [
        {
          "internalType": "string",
          "name": "_CID",
          "type": "string"
        }
      ],
      "name": "registerEventOrganizer",
      "outputs": [],
      "stateMutability": "nonpayable",
      "type": "function"
    },
    {
      "inputs": [
        {
          "internalType": "address",
          "name": "",
          "type": "address"
        },
        {
          "internalType": "uint256",
          "name": "",
          "type": "uint256"
        }
      ],
      "name": "ticketHolders",
      "outputs": [
        {
          "internalType": "address",
          "name": "userAddress",
          "type": "address"
        },
        {
          "internalType": "string",
          "name": "eventName",
          "type": "string"
        },
        {
          "internalType": "uint256",
          "name": "eventId",
          "type": "uint256"
        },
        {
          "internalType": "uint256",
          "name": "ticketsOwned",
          "type": "uint256"
        }
      ],
      "stateMutability": "view",
      "type": "function"
    }
  ],
  "bytecode": "0x608060405234801561001057600080fd5b5033600560006101000a81548173ffffffffffffffffffffffffffffffffffffffff021916908373ffffffffffffffffffffffffffffffffffffffff160217905550612e7a806100616000396000f3fe6080604052600436106101095760003560e01c80636e389f90116100955780638f32d59b116100645780638f32d59b146103c75780639e9580f6146103f2578063b19588a61461040e578063c27a500d1461044b578063fb894fa21461047657610109565b80636e389f90146102f45780637b656dcc14610331578063826155691461035c5780638da5cb5b1461039c57610109565b8063298ec208116100dc578063298ec208146101f45780633aba8bd7146102105780633bec5cff1461024d5780634717dea91461028e57806363d3b019146102cb57610109565b80630544c5b91461010e5780630b7914301461014b5780631ba2e62a1461018c5780631e67f721146101c9575b600080fd5b34801561011a57600080fd5b50610135600480360381019061013091906119e4565b6104b3565b6040516101429190611a2c565b60405180910390f35b34801561015757600080fd5b50610172600480360381019061016d9190611a7d565b6104d3565b604051610183959493929190611b6a565b60405180910390f35b34801561019857600080fd5b506101b360048036038101906101ae9190611a7d565b6105b1565b6040516101c09190611bc4565b60405180910390f35b3480156101d557600080fd5b506101de61065d565b6040516101eb9190611ca4565b60405180910390f35b61020e60048036038101906102099190611cc6565b610732565b005b34801561021c57600080fd5b5061023760048036038101906102329190611d06565b610b96565b6040516102449190611d46565b60405180910390f35b34801561025957600080fd5b50610274600480360381019061026f9190611a7d565b610bc7565b604051610285959493929190611b6a565b60405180910390f35b34801561029a57600080fd5b506102b560048036038101906102b091906119e4565b610cb5565b6040516102c29190611edf565b60405180910390f35b3480156102d757600080fd5b506102f260048036038101906102ed9190612036565b610e4f565b005b34801561030057600080fd5b5061031b600480360381019061031691906119e4565b611023565b6040516103289190611a2c565b60405180910390f35b34801561033d57600080fd5b50610346611079565b6040516103539190612141565b60405180910390f35b34801561036857600080fd5b50610383600480360381019061037e9190611d06565b611152565b6040516103939493929190612172565b60405180910390f35b3480156103a857600080fd5b506103b1611247565b6040516103be91906121be565b60405180910390f35b3480156103d357600080fd5b506103dc61126d565b6040516103e99190611a2c565b60405180910390f35b61040c600480360381019061040791906121d9565b6112c5565b005b34801561041a57600080fd5b5061043560048036038101906104309190611a7d565b61172e565b6040516104429190612248565b60405180910390f35b34801561045757600080fd5b5061046061176d565b60405161046d91906123aa565b60405180910390f35b34801561048257600080fd5b5061049d600480360381019061049891906119e4565b6118d2565b6040516104aa9190611bc4565b60405180910390f35b60046020528060005260406000206000915054906101000a900460ff1681565b60006020528060005260406000206000915090508060000180546104f6906123fb565b80601f0160208091040260200160405190810160405280929190818152602001828054610522906123fb565b801561056f5780601f106105445761010080835404028352916020019161056f565b820191906000526020600020905b81548152906001019060200180831161055257829003601f168201915b5050505050908060010154908060020154908060030154908060040160009054906101000a900473ffffffffffffffffffffffffffffffffffffffff16905085565b600881815481106105c157600080fd5b9060005260206000200160009150905080546105dc906123fb565b80601f0160208091040260200160405190810160405280929190818152602001828054610608906123fb565b80156106555780601f1061062a57610100808354040283529160200191610655565b820191906000526020600020905b81548152906001019060200180831161063857829003601f168201915b505050505081565b606061066761126d565b6106a6576040517f08c379a000000000000000000000000000000000000000000000000000000000815260040161069d9061249e565b60405180910390fd5b600680548060200260200160405190810160405280929190818152602001828054801561072857602002820191906000526020600020905b8160009054906101000a900473ffffffffffffffffffffffffffffffffffffffff1673ffffffffffffffffffffffffffffffffffffffff16815260200190600101908083116106de575b5050505050905090565b600954821115610777576040517f08c379a000000000000000000000000000000000000000000000000000000000815260040161076e9061250a565b60405180910390fd5b806000808481526020019081526020016000206002015410156107cf576040517f08c379a00000000000000000000000000000000000000000000000000000000081526004016107c690612576565b60405180910390fd5b6107d833611023565b15610818576040517f08c379a000000000000000000000000000000000000000000000000000000000815260040161080f90612608565b60405180910390fd5b6000816000808581526020019081526020016000206003015461083b9190612657565b905080341015610880576040517f08c379a0000000000000000000000000000000000000000000000000000000008152600401610877906126e5565b60405180910390fd5b6000813461088e9190612705565b905060008111156108e1573373ffffffffffffffffffffffffffffffffffffffff166108fc829081150290604051600060405180830381858888f193505050501580156108df573d6000803e3d6000fd5b505b60008085815260200190815260200160002060040160009054906101000a900473ffffffffffffffffffffffffffffffffffffffff1673ffffffffffffffffffffffffffffffffffffffff166108fc839081150290604051600060405180830381858888f1935050505015801561095c573d6000803e3d6000fd5b508260008086815260200190815260200160002060020160008282546109829190612705565b925050819055506000600160003373ffffffffffffffffffffffffffffffffffffffff1673ffffffffffffffffffffffffffffffffffffffff16815260200190815260200160002090508060405180608001604052803373ffffffffffffffffffffffffffffffffffffffff1681526020016000808981526020019081526020016000206000018054610a14906123fb565b80601f0160208091040260200160405190810160405280929190818152602001828054610a40906123fb565b8015610a8d5780601f10610a6257610100808354040283529160200191610a8d565b820191906000526020600020905b815481529060010190602001808311610a7057829003601f168201915b5050505050815260200187815260200186815250908060018154018082558091505060019003906000526020600020906004020160009091909190915060008201518160000160006101000a81548173ffffffffffffffffffffffffffffffffffffffff021916908373ffffffffffffffffffffffffffffffffffffffff1602179055506020820151816001019081610b2691906128e5565b50604082015181600201556060820151816003015550503373ffffffffffffffffffffffffffffffffffffffff167fc3b7539e996dc1d1252af1e3c72474162b7a9c7cc7411ca8905732eaf6fff328868642604051610b87939291906129b7565b60405180910390a25050505050565b60026020528160005260406000208181548110610bb257600080fd5b90600052602060002001600091509150505481565b60078181548110610bd757600080fd5b9060005260206000209060050201600091509050806000018054610bfa906123fb565b80601f0160208091040260200160405190810160405280929190818152602001828054610c26906123fb565b8015610c735780601f10610c4857610100808354040283529160200191610c73565b820191906000526020600020905b815481529060010190602001808311610c5657829003601f168201915b5050505050908060010154908060020154908060030154908060040160009054906101000a900473ffffffffffffffffffffffffffffffffffffffff16905085565b6060600160008373ffffffffffffffffffffffffffffffffffffffff1673ffffffffffffffffffffffffffffffffffffffff168152602001908152602001600020805480602002602001604051908101604052809291908181526020016000905b82821015610e4457838290600052602060002090600402016040518060800160405290816000820160009054906101000a900473ffffffffffffffffffffffffffffffffffffffff1673ffffffffffffffffffffffffffffffffffffffff1673ffffffffffffffffffffffffffffffffffffffff168152602001600182018054610d9f906123fb565b80601f0160208091040260200160405190810160405280929190818152602001828054610dcb906123fb565b8015610e185780601f10610ded57610100808354040283529160200191610e18565b820191906000526020600020905b815481529060010190602001808311610dfb57829003601f168201915b505050505081526020016002820154815260200160038201548152505081526020019060010190610d16565b505050509050919050565b6000815111610e93576040517f08c379a0000000000000000000000000000000000000000000000000000000008152600401610e8a90612a3a565b60405180910390fd5b80600360003373ffffffffffffffffffffffffffffffffffffffff1673ffffffffffffffffffffffffffffffffffffffff1681526020019081526020016000209081610edf91906128e5565b506001600460003373ffffffffffffffffffffffffffffffffffffffff1673ffffffffffffffffffffffffffffffffffffffff16815260200190815260200160002060006101000a81548160ff0219169083151502179055506006339080600181540180825580915050600190039060005260206000200160009091909190916101000a81548173ffffffffffffffffffffffffffffffffffffffff021916908373ffffffffffffffffffffffffffffffffffffffff160217905550600881908060018154018082558091505060019003906000526020600020016000909190919091509081610fcf91906128e5565b503373ffffffffffffffffffffffffffffffffffffffff167f3d5483a93df0921e07ba2b0050c4d0f5793795035f1db5af3face517df5e333b8242604051611018929190612a5a565b60405180910390a250565b6000600460008373ffffffffffffffffffffffffffffffffffffffff1673ffffffffffffffffffffffffffffffffffffffff16815260200190815260200160002060009054906101000a900460ff169050919050565b60606008805480602002602001604051908101604052809291908181526020016000905b828210156111495783829060005260206000200180546110bc906123fb565b80601f01602080910402602001604051908101604052809291908181526020018280546110e8906123fb565b80156111355780601f1061110a57610100808354040283529160200191611135565b820191906000526020600020905b81548152906001019060200180831161111857829003601f168201915b50505050508152602001906001019061109d565b50505050905090565b6001602052816000526040600020818154811061116e57600080fd5b9060005260206000209060040201600091509150508060000160009054906101000a900473ffffffffffffffffffffffffffffffffffffffff16908060010180546111b8906123fb565b80601f01602080910402602001604051908101604052809291908181526020018280546111e4906123fb565b80156112315780601f1061120657610100808354040283529160200191611231565b820191906000526020600020905b81548152906001019060200180831161121457829003601f168201915b5050505050908060020154908060030154905084565b600560009054906101000a900473ffffffffffffffffffffffffffffffffffffffff1681565b6000600560009054906101000a900473ffffffffffffffffffffffffffffffffffffffff1673ffffffffffffffffffffffffffffffffffffffff163373ffffffffffffffffffffffffffffffffffffffff1614905090565b6000835111611309576040517f08c379a000000000000000000000000000000000000000000000000000000000815260040161130090612ad6565b60405180910390fd5b61131233611023565b611351576040517f08c379a000000000000000000000000000000000000000000000000000000000815260040161134890612b42565b60405180910390fd5b60008211611394576040517f08c379a000000000000000000000000000000000000000000000000000000000815260040161138b90612bd4565b60405180910390fd5b61139c61126d565b156113dc576040517f08c379a00000000000000000000000000000000000000000000000000000000081526004016113d390612c40565b60405180910390fd5b60006064600384846113ee9190612657565b6113f89190612657565b6114029190612c8f565b905080341015611447576040517f08c379a000000000000000000000000000000000000000000000000000000000815260040161143e906126e5565b60405180910390fd5b600560009054906101000a900473ffffffffffffffffffffffffffffffffffffffff1673ffffffffffffffffffffffffffffffffffffffff166108fc829081150290604051600060405180830381858888f193505050501580156114af573d6000803e3d6000fd5b50600081346114be9190612705565b90506000811115611511573373ffffffffffffffffffffffffffffffffffffffff166108fc829081150290604051600060405180830381858888f1935050505015801561150f573d6000803e3d6000fd5b505b6009600081548092919061152490612cc0565b91905055503373ffffffffffffffffffffffffffffffffffffffff167f56acb10c6ecae7e178ece5d22c2f0346efb606427ea6a15f96904d0ceec03d1d600954874260405161157593929190612d08565b60405180910390a26040518060a001604052808681526020018581526020018581526020018481526020013373ffffffffffffffffffffffffffffffffffffffff16815250600080600954815260200190815260200160002060008201518160000190816115e391906128e5565b5060208201518160010155604082015181600201556060820151816003015560808201518160040160006101000a81548173ffffffffffffffffffffffffffffffffffffffff021916908373ffffffffffffffffffffffffffffffffffffffff1602179055509050506007600080600954815260200190815260200160002090806001815401808255809150506001900390600052602060002090600502016000909190919091506000820181600001908161169f9190612d5c565b506001820154816001015560028201548160020155600382015481600301556004820160009054906101000a900473ffffffffffffffffffffffffffffffffffffffff168160040160006101000a81548173ffffffffffffffffffffffffffffffffffffffff021916908373ffffffffffffffffffffffffffffffffffffffff16021790555050505050505050565b6006818154811061173e57600080fd5b906000526020600020016000915054906101000a900473ffffffffffffffffffffffffffffffffffffffff1681565b60606007805480602002602001604051908101604052809291908181526020016000905b828210156118c957838290600052602060002090600502016040518060a00160405290816000820180546117c4906123fb565b80601f01602080910402602001604051908101604052809291908181526020018280546117f0906123fb565b801561183d5780601f106118125761010080835404028352916020019161183d565b820191906000526020600020905b81548152906001019060200180831161182057829003601f168201915b505050505081526020016001820154815260200160028201548152602001600382015481526020016004820160009054906101000a900473ffffffffffffffffffffffffffffffffffffffff1673ffffffffffffffffffffffffffffffffffffffff1673ffffffffffffffffffffffffffffffffffffffff168152505081526020019060010190611791565b50505050905090565b600360205280600052604060002060009150905080546118f1906123fb565b80601f016020809104026020016040519081016040528092919081815260200182805461191d906123fb565b801561196a5780601f1061193f5761010080835404028352916020019161196a565b820191906000526020600020905b81548152906001019060200180831161194d57829003601f168201915b505050505081565b6000604051905090565b600080fd5b600080fd5b600073ffffffffffffffffffffffffffffffffffffffff82169050919050565b60006119b182611986565b9050919050565b6119c1816119a6565b81146119cc57600080fd5b50565b6000813590506119de816119b8565b92915050565b6000602082840312156119fa576119f961197c565b5b6000611a08848285016119cf565b91505092915050565b60008115159050919050565b611a2681611a11565b82525050565b6000602082019050611a416000830184611a1d565b92915050565b6000819050919050565b611a5a81611a47565b8114611a6557600080fd5b50565b600081359050611a7781611a51565b92915050565b600060208284031215611a9357611a9261197c565b5b6000611aa184828501611a68565b91505092915050565b600081519050919050565b600082825260208201905092915050565b60005b83811015611ae4578082015181840152602081019050611ac9565b60008484015250505050565b6000601f19601f8301169050919050565b6000611b0c82611aaa565b611b168185611ab5565b9350611b26818560208601611ac6565b611b2f81611af0565b840191505092915050565b611b4381611a47565b82525050565b6000611b5482611986565b9050919050565b611b6481611b49565b82525050565b600060a0820190508181036000830152611b848188611b01565b9050611b936020830187611b3a565b611ba06040830186611b3a565b611bad6060830185611b3a565b611bba6080830184611b5b565b9695505050505050565b60006020820190508181036000830152611bde8184611b01565b905092915050565b600081519050919050565b600082825260208201905092915050565b6000819050602082019050919050565b611c1b816119a6565b82525050565b6000611c2d8383611c12565b60208301905092915050565b6000602082019050919050565b6000611c5182611be6565b611c5b8185611bf1565b9350611c6683611c02565b8060005b83811015611c97578151611c7e8882611c21565b9750611c8983611c39565b925050600181019050611c6a565b5085935050505092915050565b60006020820190508181036000830152611cbe8184611c46565b905092915050565b60008060408385031215611cdd57611cdc61197c565b5b6000611ceb85828601611a68565b9250506020611cfc85828601611a68565b9150509250929050565b60008060408385031215611d1d57611d1c61197c565b5b6000611d2b858286016119cf565b9250506020611d3c85828601611a68565b9150509250929050565b6000602082019050611d5b6000830184611b3a565b92915050565b600081519050919050565b600082825260208201905092915050565b6000819050602082019050919050565b600082825260208201905092915050565b6000611da982611aaa565b611db38185611d8d565b9350611dc3818560208601611ac6565b611dcc81611af0565b840191505092915050565b611de081611a47565b82525050565b6000608083016000830151611dfe6000860182611c12565b5060208301518482036020860152611e168282611d9e565b9150506040830151611e2b6040860182611dd7565b506060830151611e3e6060860182611dd7565b508091505092915050565b6000611e558383611de6565b905092915050565b6000602082019050919050565b6000611e7582611d61565b611e7f8185611d6c565b935083602082028501611e9185611d7d565b8060005b85811015611ecd5784840389528151611eae8582611e49565b9450611eb983611e5d565b925060208a01995050600181019050611e95565b50829750879550505050505092915050565b60006020820190508181036000830152611ef98184611e6a565b905092915050565b600080fd5b600080fd5b7f4e487b7100000000000000000000000000000000000000000000000000000000600052604160045260246000fd5b611f4382611af0565b810181811067ffffffffffffffff82111715611f6257611f61611f0b565b5b80604052505050565b6000611f75611972565b9050611f818282611f3a565b919050565b600067ffffffffffffffff821115611fa157611fa0611f0b565b5b611faa82611af0565b9050602081019050919050565b82818337600083830152505050565b6000611fd9611fd484611f86565b611f6b565b905082815260208101848484011115611ff557611ff4611f06565b5b612000848285611fb7565b509392505050565b600082601f83011261201d5761201c611f01565b5b813561202d848260208601611fc6565b91505092915050565b60006020828403121561204c5761204b61197c565b5b600082013567ffffffffffffffff81111561206a57612069611981565b5b61207684828501612008565b91505092915050565b600081519050919050565b600082825260208201905092915050565b6000819050602082019050919050565b60006120b78383611d9e565b905092915050565b6000602082019050919050565b60006120d78261207f565b6120e1818561208a565b9350836020820285016120f38561209b565b8060005b8581101561212f578484038952815161211085826120ab565b945061211b836120bf565b925060208a019950506001810190506120f7565b50829750879550505050505092915050565b6000602082019050818103600083015261215b81846120cc565b905092915050565b61216c816119a6565b82525050565b60006080820190506121876000830187612163565b81810360208301526121998186611b01565b90506121a86040830185611b3a565b6121b56060830184611b3a565b95945050505050565b60006020820190506121d36000830184611b5b565b92915050565b6000806000606084860312156121f2576121f161197c565b5b600084013567ffffffffffffffff8111156122105761220f611981565b5b61221c86828701612008565b935050602061222d86828701611a68565b925050604061223e86828701611a68565b9150509250925092565b600060208201905061225d6000830184612163565b92915050565b600081519050919050565b600082825260208201905092915050565b6000819050602082019050919050565b61229881611b49565b82525050565b600060a08301600083015184820360008601526122bb8282611d9e565b91505060208301516122d06020860182611dd7565b5060408301516122e36040860182611dd7565b5060608301516122f66060860182611dd7565b506080830151612309608086018261228f565b508091505092915050565b6000612320838361229e565b905092915050565b6000602082019050919050565b600061234082612263565b61234a818561226e565b93508360208202850161235c8561227f565b8060005b8581101561239857848403895281516123798582612314565b945061238483612328565b925060208a01995050600181019050612360565b50829750879550505050505092915050565b600060208201905081810360008301526123c48184612335565b905092915050565b7f4e487b7100000000000000000000000000000000000000000000000000000000600052602260045260246000fd5b6000600282049050600182168061241357607f821691505b602082108103612426576124256123cc565b5b50919050565b7f4f6e6c79206f776e65722063616e207669657720616c6c206f7267616e697a6560008201527f7273000000000000000000000000000000000000000000000000000000000000602082015250565b6000612488602283611ab5565b91506124938261242c565b604082019050919050565b600060208201905081810360008301526124b78161247b565b9050919050565b7f4576656e7420646f6573206e6f74206578697374000000000000000000000000600082015250565b60006124f4601483611ab5565b91506124ff826124be565b602082019050919050565b60006020820190508181036000830152612523816124e7565b9050919050565b7f4e6f7420656e6f756768207469636b657473206c656674000000000000000000600082015250565b6000612560601783611ab5565b915061256b8261252a565b602082019050919050565b6000602082019050818103600083015261258f81612553565b9050919050565b7f4f7267616e697a65722063616e6e6f7420627579207469636b65747320666f7260008201527f207468656972206f776e206576656e7400000000000000000000000000000000602082015250565b60006125f2603083611ab5565b91506125fd82612596565b604082019050919050565b60006020820190508181036000830152612621816125e5565b9050919050565b7f4e487b7100000000000000000000000000000000000000000000000000000000600052601160045260246000fd5b600061266282611a47565b915061266d83611a47565b925082820261267b81611a47565b9150828204841483151761269257612691612628565b5b5092915050565b7f4e6f7420656e6f7567682065746865722073656e740000000000000000000000600082015250565b60006126cf601583611ab5565b91506126da82612699565b602082019050919050565b600060208201905081810360008301526126fe816126c2565b9050919050565b600061271082611a47565b915061271b83611a47565b925082820390508181111561273357612732612628565b5b92915050565b60008190508160005260206000209050919050565b60006020601f8301049050919050565b600082821b905092915050565b60006008830261279b7fffffffffffffffffffffffffffffffffffffffffffffffffffffffffffffffff8261275e565b6127a5868361275e565b95508019841693508086168417925050509392505050565b6000819050919050565b60006127e26127dd6127d884611a47565b6127bd565b611a47565b9050919050565b6000819050919050565b6127fc836127c7565b612810612808826127e9565b84845461276b565b825550505050565b600090565b612825612818565b6128308184846127f3565b505050565b5b818110156128545761284960008261281d565b600181019050612836565b5050565b601f8211156128995761286a81612739565b6128738461274e565b81016020851015612882578190505b61289661288e8561274e565b830182612835565b50505b505050565b600082821c905092915050565b60006128bc6000198460080261289e565b1980831691505092915050565b60006128d583836128ab565b9150826002028217905092915050565b6128ee82611aaa565b67ffffffffffffffff81111561290757612906611f0b565b5b61291182546123fb565b61291c828285612858565b600060209050601f83116001811461294f576000841561293d578287015190505b61294785826128c9565b8655506129af565b601f19841661295d86612739565b60005b8281101561298557848901518255600182019150602085019450602081019050612960565b868310156129a2578489015161299e601f8916826128ab565b8355505b6001600288020188555050505b505050505050565b60006060820190506129cc6000830186611b3a565b6129d96020830185611b3a565b6129e66040830184611b3a565b949350505050565b7f4349442063616e6e6f7420626520656d70747900000000000000000000000000600082015250565b6000612a24601383611ab5565b9150612a2f826129ee565b602082019050919050565b60006020820190508181036000830152612a5381612a17565b9050919050565b60006040820190508181036000830152612a748185611b01565b9050612a836020830184611b3a565b9392505050565b7f4576656e74204349442073686f756c64206e6f7420626520656d707479000000600082015250565b6000612ac0601d83611ab5565b9150612acb82612a8a565b602082019050919050565b60006020820190508181036000830152612aef81612ab3565b9050919050565b7f4f6e6c79206f7267616e697a65722063616e20637265617465206576656e7400600082015250565b6000612b2c601f83611ab5565b9150612b3782612af6565b602082019050919050565b60006020820190508181036000830152612b5b81612b1f565b9050919050565b7f546f74616c207469636b6574732073686f756c6420626520677265617465722060008201527f7468616e20300000000000000000000000000000000000000000000000000000602082015250565b6000612bbe602683611ab5565b9150612bc982612b62565b604082019050919050565b60006020820190508181036000830152612bed81612bb1565b9050919050565b7f4f776e65722063616e6e6f7420637265617465206576656e7400000000000000600082015250565b6000612c2a601983611ab5565b9150612c3582612bf4565b602082019050919050565b60006020820190508181036000830152612c5981612c1d565b9050919050565b7f4e487b7100000000000000000000000000000000000000000000000000000000600052601260045260246000fd5b6000612c9a82611a47565b9150612ca583611a47565b925082612cb557612cb4612c60565b5b828204905092915050565b6000612ccb82611a47565b91507fffffffffffffffffffffffffffffffffffffffffffffffffffffffffffffffff8203612cfd57612cfc612628565b5b600182019050919050565b6000606082019050612d1d6000830186611b3a565b8181036020830152612d2f8185611b01565b9050612d3e6040830184611b3a565b949350505050565b600081549050612d55816123fb565b9050919050565b818103612d6a575050612e42565b612d7382612d46565b67ffffffffffffffff811115612d8c57612d8b611f0b565b5b612d9682546123fb565b612da1828285612858565b6000601f831160018114612dd05760008415612dbe578287015490505b612dc885826128c9565b865550612e3b565b601f198416612dde87612739565b9650612de986612739565b60005b82811015612e1157848901548255600182019150600185019450602081019050612dec565b86831015612e2e5784890154612e2a601f8916826128ab565b8355505b6001600288020188555050505b5050505050505b56fea26469706673582212200b66ef59f04592ddd4fe28aa2c79ce10d8db48315c757313287631fc78bfe52464736f6c63430008130033",
  "linkReferences": {},
  "deployedLinkReferences": {}
}