{
  "_format": "hh-sol-artifact-1",
  "contractName": "Tickets",
  "sourceName": "contracts/Tickets.sol",
  "abi": [
    {
      "inputs": [],
      "stateMutability": "nonpayable",
      "type": "constructor"
    },
    {
      "anonymous": false,
      "inputs": [
        {
          "indexed": false,
          "internalType": "uint256",
          "name": "eventId",
          "type": "uint256"
        },
        {
          "indexed": true,
          "internalType": "address",
          "name": "organizer",
          "type": "address"
        },
        {
          "indexed": false,
          "internalType": "string",
          "name": "eventCid",
          "type": "string"
        },
        {
          "indexed": false,
          "internalType": "uint256",
          "name": "creationTime",
          "type": "uint256"
        }
      ],
      "name": "EventCreated",
      "type": "event"
    },
    {
      "anonymous": false,
      "inputs": [
        {
          "indexed": true,
          "internalType": "address",
          "name": "organizerAddress",
          "type": "address"
        },
        {
          "indexed": false,
          "internalType": "string",
          "name": "CID",
          "type": "string"
        },
        {
          "indexed": false,
          "internalType": "uint256",
          "name": "registerTime",
          "type": "uint256"
        }
      ],
      "name": "OrganizerRegistered",
      "type": "event"
    },
    {
      "anonymous": false,
      "inputs": [
        {
          "indexed": false,
          "internalType": "uint256",
          "name": "eventId",
          "type": "uint256"
        },
        {
          "indexed": false,
          "internalType": "uint256",
          "name": "ticketsBought",
          "type": "uint256"
        },
        {
          "indexed": true,
          "internalType": "address",
          "name": "buyer",
          "type": "address"
        },
        {
          "indexed": false,
          "internalType": "uint256",
          "name": "purchaseTime",
          "type": "uint256"
        }
      ],
      "name": "TicketPurchased",
      "type": "event"
    },
    {
      "inputs": [
        {
          "internalType": "uint256",
          "name": "",
          "type": "uint256"
        }
      ],
      "name": "allOrganizers",
      "outputs": [
        {
          "internalType": "address",
          "name": "",
          "type": "address"
        }
      ],
      "stateMutability": "view",
      "type": "function"
    },
    {
      "inputs": [
        {
          "internalType": "uint256",
          "name": "_eventId",
          "type": "uint256"
        },
        {
          "internalType": "uint256",
          "name": "_totalTicketsToBuy",
          "type": "uint256"
        }
      ],
      "name": "buyTicket",
      "outputs": [],
      "stateMutability": "payable",
      "type": "function"
    },
    {
      "inputs": [
        {
          "internalType": "string",
          "name": "_eventCid",
          "type": "string"
        },
        {
          "internalType": "uint256",
          "name": "_totalTickets",
          "type": "uint256"
        },
        {
          "internalType": "uint256",
          "name": "_price",
          "type": "uint256"
        }
      ],
      "name": "createEvent",
      "outputs": [],
      "stateMutability": "payable",
      "type": "function"
    },
    {
      "inputs": [
        {
          "internalType": "uint256",
          "name": "",
          "type": "uint256"
        }
      ],
      "name": "events",
      "outputs": [
        {
          "internalType": "string",
          "name": "eventCID",
          "type": "string"
        },
        {
          "internalType": "uint256",
          "name": "totalTickets",
          "type": "uint256"
        },
        {
          "internalType": "uint256",
          "name": "remTickets",
          "type": "uint256"
        },
        {
          "internalType": "uint256",
          "name": "price",
          "type": "uint256"
        },
        {
          "internalType": "address payable",
          "name": "creator",
          "type": "address"
        }
      ],
      "stateMutability": "view",
      "type": "function"
    },
    {
      "inputs": [
        {
          "internalType": "address",
          "name": "",
          "type": "address"
        },
        {
          "internalType": "uint256",
          "name": "",
          "type": "uint256"
        }
      ],
      "name": "eventsCreated",
      "outputs": [
        {
          "internalType": "uint256",
          "name": "",
          "type": "uint256"
        }
      ],
      "stateMutability": "view",
      "type": "function"
    },
    {
      "inputs": [],
      "name": "getAllEvents",
      "outputs": [
        {
          "components": [
            {
              "internalType": "string",
              "name": "eventCID",
              "type": "string"
            },
            {
              "internalType": "uint256",
              "name": "totalTickets",
              "type": "uint256"
            },
            {
              "internalType": "uint256",
              "name": "remTickets",
              "type": "uint256"
            },
            {
              "internalType": "uint256",
              "name": "price",
              "type": "uint256"
            },
            {
              "internalType": "address payable",
              "name": "creator",
              "type": "address"
            }
          ],
          "internalType": "struct Tickets.Event[]",
          "name": "",
          "type": "tuple[]"
        }
      ],
      "stateMutability": "view",
      "type": "function"
    },
    {
      "inputs": [],
      "name": "getAllOrganizers",
      "outputs": [
        {
          "internalType": "address[]",
          "name": "",
          "type": "address[]"
        }
      ],
      "stateMutability": "view",
      "type": "function"
    },
    {
      "inputs": [
        {
          "internalType": "address",
          "name": "_organizerAddress",
          "type": "address"
        }
      ],
      "name": "isOrganizers",
      "outputs": [
        {
          "internalType": "bool",
          "name": "",
          "type": "bool"
        }
      ],
      "stateMutability": "view",
      "type": "function"
    },
    {
      "inputs": [],
      "name": "isOwner",
      "outputs": [
        {
          "internalType": "bool",
          "name": "",
          "type": "bool"
        }
      ],
      "stateMutability": "view",
      "type": "function"
    },
    {
      "inputs": [
        {
          "internalType": "address",
          "name": "",
          "type": "address"
        }
      ],
      "name": "organizerCID",
      "outputs": [
        {
          "internalType": "string",
          "name": "",
          "type": "string"
        }
      ],
      "stateMutability": "view",
      "type": "function"
    },
    {
      "inputs": [
        {
          "internalType": "address",
          "name": "",
          "type": "address"
        }
      ],
      "name": "organizers",
      "outputs": [
        {
          "internalType": "bool",
          "name": "",
          "type": "bool"
        }
      ],
      "stateMutability": "view",
      "type": "function"
    },
    {
      "inputs": [],
      "name": "owner",
      "outputs": [
        {
          "internalType": "address payable",
          "name": "",
          "type": "address"
        }
      ],
      "stateMutability": "view",
      "type": "function"
    },
    {
      "inputs": [
        {
          "internalType": "string",
          "name": "_CID",
          "type": "string"
        }
      ],
      "name": "registerEventOrganizer",
      "outputs": [],
      "stateMutability": "nonpayable",
      "type": "function"
    },
    {
      "inputs": [
        {
          "internalType": "address",
          "name": "",
          "type": "address"
        },
        {
          "internalType": "uint256",
          "name": "",
          "type": "uint256"
        }
      ],
      "name": "ticketHolders",
      "outputs": [
        {
          "internalType": "address",
          "name": "userAddress",
          "type": "address"
        },
        {
          "internalType": "string",
          "name": "eventName",
          "type": "string"
        },
        {
          "internalType": "uint256",
          "name": "eventId",
          "type": "uint256"
        },
        {
          "internalType": "uint256",
          "name": "ticketsOwned",
          "type": "uint256"
        }
      ],
      "stateMutability": "view",
      "type": "function"
    }
  ],
  "bytecode": "0x608060405234801561001057600080fd5b5033600560006101000a81548173ffffffffffffffffffffffffffffffffffffffff021916908373ffffffffffffffffffffffffffffffffffffffff160217905550612636806100616000396000f3fe6080604052600436106100dd5760003560e01c8063826155691161007f5780639e9580f6116100595780639e9580f6146102e0578063b19588a6146102fc578063c27a500d14610339578063fb894fa214610364576100dd565b8063826155691461024a5780638da5cb5b1461028a5780638f32d59b146102b5576100dd565b8063298ec208116100bb578063298ec2081461018b5780633aba8bd7146101a757806363d3b019146101e45780636e389f901461020d576100dd565b80630544c5b9146100e25780630b7914301461011f5780631e67f72114610160575b600080fd5b3480156100ee57600080fd5b5061010960048036038101906101049190611466565b6103a1565b60405161011691906114ae565b60405180910390f35b34801561012b57600080fd5b50610146600480360381019061014191906114ff565b6103c1565b6040516101579594939291906115ec565b60405180910390f35b34801561016c57600080fd5b5061017561049f565b6040516101829190611704565b60405180910390f35b6101a560048036038101906101a09190611726565b610574565b005b3480156101b357600080fd5b506101ce60048036038101906101c99190611766565b6109d8565b6040516101db91906117a6565b60405180910390f35b3480156101f057600080fd5b5061020b600480360381019061020691906118f6565b610a09565b005b34801561021957600080fd5b50610234600480360381019061022f9190611466565b610ba8565b60405161024191906114ae565b60405180910390f35b34801561025657600080fd5b50610271600480360381019061026c9190611766565b610bfe565b604051610281949392919061194e565b60405180910390f35b34801561029657600080fd5b5061029f610cf3565b6040516102ac919061199a565b60405180910390f35b3480156102c157600080fd5b506102ca610d19565b6040516102d791906114ae565b60405180910390f35b6102fa60048036038101906102f591906119b5565b610d71565b005b34801561030857600080fd5b50610323600480360381019061031e91906114ff565b6110ff565b6040516103309190611a24565b60405180910390f35b34801561034557600080fd5b5061034e61113e565b60405161035b9190611bdf565b60405180910390f35b34801561037057600080fd5b5061038b60048036038101906103869190611466565b61130f565b6040516103989190611c01565b60405180910390f35b60046020528060005260406000206000915054906101000a900460ff1681565b60006020528060005260406000206000915090508060000180546103e490611c52565b80601f016020809104026020016040519081016040528092919081815260200182805461041090611c52565b801561045d5780601f106104325761010080835404028352916020019161045d565b820191906000526020600020905b81548152906001019060200180831161044057829003601f168201915b5050505050908060010154908060020154908060030154908060040160009054906101000a900473ffffffffffffffffffffffffffffffffffffffff16905085565b60606104a9610d19565b6104e8576040517f08c379a00000000000000000000000000000000000000000000000000000000081526004016104df90611cf5565b60405180910390fd5b600680548060200260200160405190810160405280929190818152602001828054801561056a57602002820191906000526020600020905b8160009054906101000a900473ffffffffffffffffffffffffffffffffffffffff1673ffffffffffffffffffffffffffffffffffffffff1681526020019060010190808311610520575b5050505050905090565b6007548211156105b9576040517f08c379a00000000000000000000000000000000000000000000000000000000081526004016105b090611d61565b60405180910390fd5b80600080848152602001908152602001600020600201541015610611576040517f08c379a000000000000000000000000000000000000000000000000000000000815260040161060890611dcd565b60405180910390fd5b61061a33610ba8565b1561065a576040517f08c379a000000000000000000000000000000000000000000000000000000000815260040161065190611e5f565b60405180910390fd5b6000816000808581526020019081526020016000206003015461067d9190611eae565b9050803410156106c2576040517f08c379a00000000000000000000000000000000000000000000000000000000081526004016106b990611f3c565b60405180910390fd5b600081346106d09190611f5c565b90506000811115610723573373ffffffffffffffffffffffffffffffffffffffff166108fc829081150290604051600060405180830381858888f19350505050158015610721573d6000803e3d6000fd5b505b60008085815260200190815260200160002060040160009054906101000a900473ffffffffffffffffffffffffffffffffffffffff1673ffffffffffffffffffffffffffffffffffffffff166108fc839081150290604051600060405180830381858888f1935050505015801561079e573d6000803e3d6000fd5b508260008086815260200190815260200160002060020160008282546107c49190611f5c565b925050819055506000600160003373ffffffffffffffffffffffffffffffffffffffff1673ffffffffffffffffffffffffffffffffffffffff16815260200190815260200160002090508060405180608001604052803373ffffffffffffffffffffffffffffffffffffffff168152602001600080898152602001908152602001600020600001805461085690611c52565b80601f016020809104026020016040519081016040528092919081815260200182805461088290611c52565b80156108cf5780601f106108a4576101008083540402835291602001916108cf565b820191906000526020600020905b8154815290600101906020018083116108b257829003601f168201915b5050505050815260200187815260200186815250908060018154018082558091505060019003906000526020600020906004020160009091909190915060008201518160000160006101000a81548173ffffffffffffffffffffffffffffffffffffffff021916908373ffffffffffffffffffffffffffffffffffffffff1602179055506020820151816001019081610968919061213c565b50604082015181600201556060820151816003015550503373ffffffffffffffffffffffffffffffffffffffff167fc3b7539e996dc1d1252af1e3c72474162b7a9c7cc7411ca8905732eaf6fff3288686426040516109c99392919061220e565b60405180910390a25050505050565b600260205281600052604060002081815481106109f457600080fd5b90600052602060002001600091509150505481565b6000815111610a4d576040517f08c379a0000000000000000000000000000000000000000000000000000000008152600401610a4490612291565b60405180910390fd5b80600360003373ffffffffffffffffffffffffffffffffffffffff1673ffffffffffffffffffffffffffffffffffffffff1681526020019081526020016000209081610a99919061213c565b506001600460003373ffffffffffffffffffffffffffffffffffffffff1673ffffffffffffffffffffffffffffffffffffffff16815260200190815260200160002060006101000a81548160ff0219169083151502179055506006339080600181540180825580915050600190039060005260206000200160009091909190916101000a81548173ffffffffffffffffffffffffffffffffffffffff021916908373ffffffffffffffffffffffffffffffffffffffff1602179055503373ffffffffffffffffffffffffffffffffffffffff167f3d5483a93df0921e07ba2b0050c4d0f5793795035f1db5af3face517df5e333b8242604051610b9d9291906122b1565b60405180910390a250565b6000600460008373ffffffffffffffffffffffffffffffffffffffff1673ffffffffffffffffffffffffffffffffffffffff16815260200190815260200160002060009054906101000a900460ff169050919050565b60016020528160005260406000208181548110610c1a57600080fd5b9060005260206000209060040201600091509150508060000160009054906101000a900473ffffffffffffffffffffffffffffffffffffffff1690806001018054610c6490611c52565b80601f0160208091040260200160405190810160405280929190818152602001828054610c9090611c52565b8015610cdd5780601f10610cb257610100808354040283529160200191610cdd565b820191906000526020600020905b815481529060010190602001808311610cc057829003601f168201915b5050505050908060020154908060030154905084565b600560009054906101000a900473ffffffffffffffffffffffffffffffffffffffff1681565b6000600560009054906101000a900473ffffffffffffffffffffffffffffffffffffffff1673ffffffffffffffffffffffffffffffffffffffff163373ffffffffffffffffffffffffffffffffffffffff1614905090565b6000835111610db5576040517f08c379a0000000000000000000000000000000000000000000000000000000008152600401610dac9061232d565b60405180910390fd5b610dbe33610ba8565b610dfd576040517f08c379a0000000000000000000000000000000000000000000000000000000008152600401610df490612399565b60405180910390fd5b60008211610e40576040517f08c379a0000000000000000000000000000000000000000000000000000000008152600401610e379061242b565b60405180910390fd5b610e48610d19565b15610e88576040517f08c379a0000000000000000000000000000000000000000000000000000000008152600401610e7f90612497565b60405180910390fd5b6000606460038484610e9a9190611eae565b610ea49190611eae565b610eae91906124e6565b905080341015610ef3576040517f08c379a0000000000000000000000000000000000000000000000000000000008152600401610eea90611f3c565b60405180910390fd5b600560009054906101000a900473ffffffffffffffffffffffffffffffffffffffff1673ffffffffffffffffffffffffffffffffffffffff166108fc829081150290604051600060405180830381858888f19350505050158015610f5b573d6000803e3d6000fd5b5060008134610f6a9190611f5c565b90506000811115610fbd573373ffffffffffffffffffffffffffffffffffffffff166108fc829081150290604051600060405180830381858888f19350505050158015610fbb573d6000803e3d6000fd5b505b60076000815480929190610fd090612517565b91905055503373ffffffffffffffffffffffffffffffffffffffff167f56acb10c6ecae7e178ece5d22c2f0346efb606427ea6a15f96904d0ceec03d1d60075487426040516110219392919061255f565b60405180910390a26040518060a001604052808681526020018581526020018581526020018481526020013373ffffffffffffffffffffffffffffffffffffffff168152506000806007548152602001908152602001600020600082015181600001908161108f919061213c565b5060208201518160010155604082015181600201556060820151816003015560808201518160040160006101000a81548173ffffffffffffffffffffffffffffffffffffffff021916908373ffffffffffffffffffffffffffffffffffffffff1602179055509050505050505050565b6006818154811061110f57600080fd5b906000526020600020016000915054906101000a900473ffffffffffffffffffffffffffffffffffffffff1681565b6060600060075467ffffffffffffffff81111561115e5761115d6117cb565b5b60405190808252806020026020018201604052801561119757816020015b6111846113af565b81526020019060019003908161117c5790505b50905060005b600754811015611307576000806001836111b7919061259d565b81526020019081526020016000206040518060a00160405290816000820180546111e090611c52565b80601f016020809104026020016040519081016040528092919081815260200182805461120c90611c52565b80156112595780601f1061122e57610100808354040283529160200191611259565b820191906000526020600020905b81548152906001019060200180831161123c57829003601f168201915b505050505081526020016001820154815260200160028201548152602001600382015481526020016004820160009054906101000a900473ffffffffffffffffffffffffffffffffffffffff1673ffffffffffffffffffffffffffffffffffffffff1673ffffffffffffffffffffffffffffffffffffffff16815250508282815181106112e9576112e86125d1565b5b602002602001018190525080806112ff90612517565b91505061119d565b508091505090565b6003602052806000526040600020600091509050805461132e90611c52565b80601f016020809104026020016040519081016040528092919081815260200182805461135a90611c52565b80156113a75780601f1061137c576101008083540402835291602001916113a7565b820191906000526020600020905b81548152906001019060200180831161138a57829003601f168201915b505050505081565b6040518060a0016040528060608152602001600081526020016000815260200160008152602001600073ffffffffffffffffffffffffffffffffffffffff1681525090565b6000604051905090565b600080fd5b600080fd5b600073ffffffffffffffffffffffffffffffffffffffff82169050919050565b600061143382611408565b9050919050565b61144381611428565b811461144e57600080fd5b50565b6000813590506114608161143a565b92915050565b60006020828403121561147c5761147b6113fe565b5b600061148a84828501611451565b91505092915050565b60008115159050919050565b6114a881611493565b82525050565b60006020820190506114c3600083018461149f565b92915050565b6000819050919050565b6114dc816114c9565b81146114e757600080fd5b50565b6000813590506114f9816114d3565b92915050565b600060208284031215611515576115146113fe565b5b6000611523848285016114ea565b91505092915050565b600081519050919050565b600082825260208201905092915050565b60005b8381101561156657808201518184015260208101905061154b565b60008484015250505050565b6000601f19601f8301169050919050565b600061158e8261152c565b6115988185611537565b93506115a8818560208601611548565b6115b181611572565b840191505092915050565b6115c5816114c9565b82525050565b60006115d682611408565b9050919050565b6115e6816115cb565b82525050565b600060a08201905081810360008301526116068188611583565b905061161560208301876115bc565b61162260408301866115bc565b61162f60608301856115bc565b61163c60808301846115dd565b9695505050505050565b600081519050919050565b600082825260208201905092915050565b6000819050602082019050919050565b61167b81611428565b82525050565b600061168d8383611672565b60208301905092915050565b6000602082019050919050565b60006116b182611646565b6116bb8185611651565b93506116c683611662565b8060005b838110156116f75781516116de8882611681565b97506116e983611699565b9250506001810190506116ca565b5085935050505092915050565b6000602082019050818103600083015261171e81846116a6565b905092915050565b6000806040838503121561173d5761173c6113fe565b5b600061174b858286016114ea565b925050602061175c858286016114ea565b9150509250929050565b6000806040838503121561177d5761177c6113fe565b5b600061178b85828601611451565b925050602061179c858286016114ea565b9150509250929050565b60006020820190506117bb60008301846115bc565b92915050565b600080fd5b600080fd5b7f4e487b7100000000000000000000000000000000000000000000000000000000600052604160045260246000fd5b61180382611572565b810181811067ffffffffffffffff82111715611822576118216117cb565b5b80604052505050565b60006118356113f4565b905061184182826117fa565b919050565b600067ffffffffffffffff821115611861576118606117cb565b5b61186a82611572565b9050602081019050919050565b82818337600083830152505050565b600061189961189484611846565b61182b565b9050828152602081018484840111156118b5576118b46117c6565b5b6118c0848285611877565b509392505050565b600082601f8301126118dd576118dc6117c1565b5b81356118ed848260208601611886565b91505092915050565b60006020828403121561190c5761190b6113fe565b5b600082013567ffffffffffffffff81111561192a57611929611403565b5b611936848285016118c8565b91505092915050565b61194881611428565b82525050565b6000608082019050611963600083018761193f565b81810360208301526119758186611583565b905061198460408301856115bc565b61199160608301846115bc565b95945050505050565b60006020820190506119af60008301846115dd565b92915050565b6000806000606084860312156119ce576119cd6113fe565b5b600084013567ffffffffffffffff8111156119ec576119eb611403565b5b6119f8868287016118c8565b9350506020611a09868287016114ea565b9250506040611a1a868287016114ea565b9150509250925092565b6000602082019050611a39600083018461193f565b92915050565b600081519050919050565b600082825260208201905092915050565b6000819050602082019050919050565b600082825260208201905092915050565b6000611a878261152c565b611a918185611a6b565b9350611aa1818560208601611548565b611aaa81611572565b840191505092915050565b611abe816114c9565b82525050565b611acd816115cb565b82525050565b600060a0830160008301518482036000860152611af08282611a7c565b9150506020830151611b056020860182611ab5565b506040830151611b186040860182611ab5565b506060830151611b2b6060860182611ab5565b506080830151611b3e6080860182611ac4565b508091505092915050565b6000611b558383611ad3565b905092915050565b6000602082019050919050565b6000611b7582611a3f565b611b7f8185611a4a565b935083602082028501611b9185611a5b565b8060005b85811015611bcd5784840389528151611bae8582611b49565b9450611bb983611b5d565b925060208a01995050600181019050611b95565b50829750879550505050505092915050565b60006020820190508181036000830152611bf98184611b6a565b905092915050565b60006020820190508181036000830152611c1b8184611583565b905092915050565b7f4e487b7100000000000000000000000000000000000000000000000000000000600052602260045260246000fd5b60006002820490506001821680611c6a57607f821691505b602082108103611c7d57611c7c611c23565b5b50919050565b7f4f6e6c79206f776e65722063616e207669657720616c6c206f7267616e697a6560008201527f7273000000000000000000000000000000000000000000000000000000000000602082015250565b6000611cdf602283611537565b9150611cea82611c83565b604082019050919050565b60006020820190508181036000830152611d0e81611cd2565b9050919050565b7f4576656e7420646f6573206e6f74206578697374000000000000000000000000600082015250565b6000611d4b601483611537565b9150611d5682611d15565b602082019050919050565b60006020820190508181036000830152611d7a81611d3e565b9050919050565b7f4e6f7420656e6f756768207469636b657473206c656674000000000000000000600082015250565b6000611db7601783611537565b9150611dc282611d81565b602082019050919050565b60006020820190508181036000830152611de681611daa565b9050919050565b7f4f7267616e697a65722063616e6e6f7420627579207469636b65747320666f7260008201527f207468656972206f776e206576656e7400000000000000000000000000000000602082015250565b6000611e49603083611537565b9150611e5482611ded565b604082019050919050565b60006020820190508181036000830152611e7881611e3c565b9050919050565b7f4e487b7100000000000000000000000000000000000000000000000000000000600052601160045260246000fd5b6000611eb9826114c9565b9150611ec4836114c9565b9250828202611ed2816114c9565b91508282048414831517611ee957611ee8611e7f565b5b5092915050565b7f4e6f7420656e6f7567682065746865722073656e740000000000000000000000600082015250565b6000611f26601583611537565b9150611f3182611ef0565b602082019050919050565b60006020820190508181036000830152611f5581611f19565b9050919050565b6000611f67826114c9565b9150611f72836114c9565b9250828203905081811115611f8a57611f89611e7f565b5b92915050565b60008190508160005260206000209050919050565b60006020601f8301049050919050565b600082821b905092915050565b600060088302611ff27fffffffffffffffffffffffffffffffffffffffffffffffffffffffffffffffff82611fb5565b611ffc8683611fb5565b95508019841693508086168417925050509392505050565b6000819050919050565b600061203961203461202f846114c9565b612014565b6114c9565b9050919050565b6000819050919050565b6120538361201e565b61206761205f82612040565b848454611fc2565b825550505050565b600090565b61207c61206f565b61208781848461204a565b505050565b5b818110156120ab576120a0600082612074565b60018101905061208d565b5050565b601f8211156120f0576120c181611f90565b6120ca84611fa5565b810160208510156120d9578190505b6120ed6120e585611fa5565b83018261208c565b50505b505050565b600082821c905092915050565b6000612113600019846008026120f5565b1980831691505092915050565b600061212c8383612102565b9150826002028217905092915050565b6121458261152c565b67ffffffffffffffff81111561215e5761215d6117cb565b5b6121688254611c52565b6121738282856120af565b600060209050601f8311600181146121a65760008415612194578287015190505b61219e8582612120565b865550612206565b601f1984166121b486611f90565b60005b828110156121dc578489015182556001820191506020850194506020810190506121b7565b868310156121f957848901516121f5601f891682612102565b8355505b6001600288020188555050505b505050505050565b600060608201905061222360008301866115bc565b61223060208301856115bc565b61223d60408301846115bc565b949350505050565b7f4349442063616e6e6f7420626520656d70747900000000000000000000000000600082015250565b600061227b601383611537565b915061228682612245565b602082019050919050565b600060208201905081810360008301526122aa8161226e565b9050919050565b600060408201905081810360008301526122cb8185611583565b90506122da60208301846115bc565b9392505050565b7f4576656e74204349442073686f756c64206e6f7420626520656d707479000000600082015250565b6000612317601d83611537565b9150612322826122e1565b602082019050919050565b600060208201905081810360008301526123468161230a565b9050919050565b7f4f6e6c79206f7267616e697a65722063616e20637265617465206576656e7400600082015250565b6000612383601f83611537565b915061238e8261234d565b602082019050919050565b600060208201905081810360008301526123b281612376565b9050919050565b7f546f74616c207469636b6574732073686f756c6420626520677265617465722060008201527f7468616e20300000000000000000000000000000000000000000000000000000602082015250565b6000612415602683611537565b9150612420826123b9565b604082019050919050565b6000602082019050818103600083015261244481612408565b9050919050565b7f4f776e65722063616e6e6f7420637265617465206576656e7400000000000000600082015250565b6000612481601983611537565b915061248c8261244b565b602082019050919050565b600060208201905081810360008301526124b081612474565b9050919050565b7f4e487b7100000000000000000000000000000000000000000000000000000000600052601260045260246000fd5b60006124f1826114c9565b91506124fc836114c9565b92508261250c5761250b6124b7565b5b828204905092915050565b6000612522826114c9565b91507fffffffffffffffffffffffffffffffffffffffffffffffffffffffffffffffff820361255457612553611e7f565b5b600182019050919050565b600060608201905061257460008301866115bc565b81810360208301526125868185611583565b905061259560408301846115bc565b949350505050565b60006125a8826114c9565b91506125b3836114c9565b92508282019050808211156125cb576125ca611e7f565b5b92915050565b7f4e487b7100000000000000000000000000000000000000000000000000000000600052603260045260246000fdfea264697066735822122062ade5c09f4ff8008ce5bb9fa0f2b94e6e1c51db01f3e967366fc666492be86a64736f6c63430008130033",
  "linkReferences": {},
  "deployedLinkReferences": {}
}