{
  "_format": "hh-sol-artifact-1",
  "contractName": "Tickets",
  "sourceName": "contracts/Tickets.sol",
  "abi": [
    {
      "inputs": [],
      "stateMutability": "nonpayable",
      "type": "constructor"
    },
    {
      "anonymous": false,
      "inputs": [
        {
          "indexed": false,
          "internalType": "uint256",
          "name": "eventId",
          "type": "uint256"
        },
        {
          "indexed": true,
          "internalType": "address",
          "name": "organizer",
          "type": "address"
        },
        {
          "indexed": false,
          "internalType": "string",
          "name": "eventCid",
          "type": "string"
        },
        {
          "indexed": false,
          "internalType": "uint256",
          "name": "creationTime",
          "type": "uint256"
        }
      ],
      "name": "EventCreated",
      "type": "event"
    },
    {
      "anonymous": false,
      "inputs": [
        {
          "indexed": true,
          "internalType": "address",
          "name": "organizerAddress",
          "type": "address"
        },
        {
          "indexed": false,
          "internalType": "string",
          "name": "CID",
          "type": "string"
        },
        {
          "indexed": false,
          "internalType": "uint256",
          "name": "registerTime",
          "type": "uint256"
        }
      ],
      "name": "OrganizerRegistered",
      "type": "event"
    },
    {
      "anonymous": false,
      "inputs": [
        {
          "indexed": false,
          "internalType": "uint256",
          "name": "eventId",
          "type": "uint256"
        },
        {
          "indexed": false,
          "internalType": "uint256",
          "name": "ticketsBought",
          "type": "uint256"
        },
        {
          "indexed": true,
          "internalType": "address",
          "name": "buyer",
          "type": "address"
        },
        {
          "indexed": false,
          "internalType": "uint256",
          "name": "purchaseTime",
          "type": "uint256"
        }
      ],
      "name": "TicketPurchased",
      "type": "event"
    },
    {
      "inputs": [
        {
          "internalType": "uint256",
          "name": "",
          "type": "uint256"
        }
      ],
      "name": "allEvents",
      "outputs": [
        {
          "internalType": "string",
          "name": "eventCID",
          "type": "string"
        },
        {
          "internalType": "uint256",
          "name": "totalTickets",
          "type": "uint256"
        },
        {
          "internalType": "uint256",
          "name": "remTickets",
          "type": "uint256"
        },
        {
          "internalType": "uint256",
          "name": "price",
          "type": "uint256"
        },
        {
          "internalType": "address payable",
          "name": "creator",
          "type": "address"
        }
      ],
      "stateMutability": "view",
      "type": "function"
    },
    {
      "inputs": [
        {
          "internalType": "uint256",
          "name": "",
          "type": "uint256"
        }
      ],
      "name": "allOrganizerCid",
      "outputs": [
        {
          "internalType": "string",
          "name": "",
          "type": "string"
        }
      ],
      "stateMutability": "view",
      "type": "function"
    },
    {
      "inputs": [
        {
          "internalType": "uint256",
          "name": "",
          "type": "uint256"
        }
      ],
      "name": "allOrganizers",
      "outputs": [
        {
          "internalType": "address",
          "name": "",
          "type": "address"
        }
      ],
      "stateMutability": "view",
      "type": "function"
    },
    {
      "inputs": [
        {
          "internalType": "uint256",
          "name": "",
          "type": "uint256"
        }
      ],
      "name": "allTicketHolders",
      "outputs": [
        {
          "internalType": "address",
          "name": "",
          "type": "address"
        }
      ],
      "stateMutability": "view",
      "type": "function"
    },
    {
      "inputs": [
        {
          "internalType": "uint256",
          "name": "_eventId",
          "type": "uint256"
        },
        {
          "internalType": "uint256",
          "name": "_totalTicketsToBuy",
          "type": "uint256"
        }
      ],
      "name": "buyTicket",
      "outputs": [],
      "stateMutability": "payable",
      "type": "function"
    },
    {
      "inputs": [
        {
          "internalType": "string",
          "name": "_eventCid",
          "type": "string"
        },
        {
          "internalType": "uint256",
          "name": "_totalTickets",
          "type": "uint256"
        },
        {
          "internalType": "uint256",
          "name": "_price",
          "type": "uint256"
        }
      ],
      "name": "createEvent",
      "outputs": [],
      "stateMutability": "payable",
      "type": "function"
    },
    {
      "inputs": [
        {
          "internalType": "uint256",
          "name": "",
          "type": "uint256"
        }
      ],
      "name": "events",
      "outputs": [
        {
          "internalType": "string",
          "name": "eventCID",
          "type": "string"
        },
        {
          "internalType": "uint256",
          "name": "totalTickets",
          "type": "uint256"
        },
        {
          "internalType": "uint256",
          "name": "remTickets",
          "type": "uint256"
        },
        {
          "internalType": "uint256",
          "name": "price",
          "type": "uint256"
        },
        {
          "internalType": "address payable",
          "name": "creator",
          "type": "address"
        }
      ],
      "stateMutability": "view",
      "type": "function"
    },
    {
      "inputs": [],
      "name": "getAllEvents",
      "outputs": [
        {
          "components": [
            {
              "internalType": "string",
              "name": "eventCID",
              "type": "string"
            },
            {
              "internalType": "uint256",
              "name": "totalTickets",
              "type": "uint256"
            },
            {
              "internalType": "uint256",
              "name": "remTickets",
              "type": "uint256"
            },
            {
              "internalType": "uint256",
              "name": "price",
              "type": "uint256"
            },
            {
              "internalType": "address payable",
              "name": "creator",
              "type": "address"
            }
          ],
          "internalType": "struct Tickets.Event[]",
          "name": "",
          "type": "tuple[]"
        }
      ],
      "stateMutability": "view",
      "type": "function"
    },
    {
      "inputs": [],
      "name": "getAllOrganizerCID",
      "outputs": [
        {
          "internalType": "string[]",
          "name": "",
          "type": "string[]"
        }
      ],
      "stateMutability": "view",
      "type": "function"
    },
    {
      "inputs": [],
      "name": "getAllOrganizers",
      "outputs": [
        {
          "internalType": "address[]",
          "name": "",
          "type": "address[]"
        }
      ],
      "stateMutability": "view",
      "type": "function"
    },
    {
      "inputs": [
        {
          "internalType": "address",
          "name": "_useraddress",
          "type": "address"
        }
      ],
      "name": "getTicket",
      "outputs": [
        {
          "components": [
            {
              "internalType": "address",
              "name": "userAddress",
              "type": "address"
            },
            {
              "internalType": "string",
              "name": "eventName",
              "type": "string"
            },
            {
              "internalType": "uint256",
              "name": "eventId",
              "type": "uint256"
            },
            {
              "internalType": "uint256",
              "name": "ticketsOwned",
              "type": "uint256"
            }
          ],
          "internalType": "struct Tickets.TicketHolder[]",
          "name": "",
          "type": "tuple[]"
        }
      ],
      "stateMutability": "view",
      "type": "function"
    },
    {
      "inputs": [
        {
          "internalType": "address",
          "name": "_organizerAddress",
          "type": "address"
        }
      ],
      "name": "isOrganizers",
      "outputs": [
        {
          "internalType": "bool",
          "name": "",
          "type": "bool"
        }
      ],
      "stateMutability": "view",
      "type": "function"
    },
    {
      "inputs": [],
      "name": "isOwner",
      "outputs": [
        {
          "internalType": "bool",
          "name": "",
          "type": "bool"
        }
      ],
      "stateMutability": "view",
      "type": "function"
    },
    {
      "inputs": [
        {
          "internalType": "address",
          "name": "",
          "type": "address"
        }
      ],
      "name": "organizerCID",
      "outputs": [
        {
          "internalType": "string",
          "name": "",
          "type": "string"
        }
      ],
      "stateMutability": "view",
      "type": "function"
    },
    {
      "inputs": [
        {
          "internalType": "address",
          "name": "",
          "type": "address"
        }
      ],
      "name": "organizers",
      "outputs": [
        {
          "internalType": "bool",
          "name": "",
          "type": "bool"
        }
      ],
      "stateMutability": "view",
      "type": "function"
    },
    {
      "inputs": [],
      "name": "owner",
      "outputs": [
        {
          "internalType": "address payable",
          "name": "",
          "type": "address"
        }
      ],
      "stateMutability": "view",
      "type": "function"
    },
    {
      "inputs": [
        {
          "internalType": "string",
          "name": "_CID",
          "type": "string"
        }
      ],
      "name": "registerEventOrganizer",
      "outputs": [],
      "stateMutability": "nonpayable",
      "type": "function"
    },
    {
      "inputs": [],
      "name": "ticketHolderAddress",
      "outputs": [
        {
          "internalType": "address[]",
          "name": "",
          "type": "address[]"
        }
      ],
      "stateMutability": "view",
      "type": "function"
    },
    {
      "inputs": [
        {
          "internalType": "address",
          "name": "",
          "type": "address"
        },
        {
          "internalType": "uint256",
          "name": "",
          "type": "uint256"
        }
      ],
      "name": "ticketHolders",
      "outputs": [
        {
          "internalType": "address",
          "name": "userAddress",
          "type": "address"
        },
        {
          "internalType": "string",
          "name": "eventName",
          "type": "string"
        },
        {
          "internalType": "uint256",
          "name": "eventId",
          "type": "uint256"
        },
        {
          "internalType": "uint256",
          "name": "ticketsOwned",
          "type": "uint256"
        }
      ],
      "stateMutability": "view",
      "type": "function"
    }
  ],
  "bytecode": "0x608060405234801561001057600080fd5b5033600460006101000a81548173ffffffffffffffffffffffffffffffffffffffff021916908373ffffffffffffffffffffffffffffffffffffffff16021790555061300e806100616000396000f3fe6080604052600436106101145760003560e01c806363d3b019116100a05780638f32d59b116100645780638f32d59b146103fd5780639e9580f614610428578063b19588a614610444578063c27a500d14610481578063fb894fa2146104ac57610114565b806363d3b019146103015780636e389f901461032a5780637b656dcc1461036757806382615569146103925780638da5cb5b146103d257610114565b80631e67f721116100e75780631e67f721146101ff578063298ec2081461022a5780633bec5cff146102465780633e81bca0146102875780634717dea9146102c457610114565b80630544c5b9146101195780630b791430146101565780630c8c9b45146101975780631ba2e62a146101c2575b600080fd5b34801561012557600080fd5b50610140600480360381019061013b9190611b64565b6104e9565b60405161014d9190611bac565b60405180910390f35b34801561016257600080fd5b5061017d60048036038101906101789190611bfd565b610509565b60405161018e959493929190611cea565b60405180910390f35b3480156101a357600080fd5b506101ac6105e7565b6040516101b99190611e02565b60405180910390f35b3480156101ce57600080fd5b506101e960048036038101906101e49190611bfd565b610675565b6040516101f69190611e24565b60405180910390f35b34801561020b57600080fd5b50610214610721565b6040516102219190611e02565b60405180910390f35b610244600480360381019061023f9190611e46565b6107f6565b005b34801561025257600080fd5b5061026d60048036038101906102689190611bfd565b610d08565b60405161027e959493929190611cea565b60405180910390f35b34801561029357600080fd5b506102ae60048036038101906102a99190611bfd565b610df6565b6040516102bb9190611e95565b60405180910390f35b3480156102d057600080fd5b506102eb60048036038101906102e69190611b64565b610e35565b6040516102f8919061202e565b60405180910390f35b34801561030d57600080fd5b5061032860048036038101906103239190612185565b610fcf565b005b34801561033657600080fd5b50610351600480360381019061034c9190611b64565b6111a3565b60405161035e9190611bac565b60405180910390f35b34801561037357600080fd5b5061037c6111f9565b6040516103899190612290565b60405180910390f35b34801561039e57600080fd5b506103b960048036038101906103b491906122b2565b6112d2565b6040516103c994939291906122f2565b60405180910390f35b3480156103de57600080fd5b506103e76113c7565b6040516103f4919061233e565b60405180910390f35b34801561040957600080fd5b506104126113ed565b60405161041f9190611bac565b60405180910390f35b610442600480360381019061043d9190612359565b611445565b005b34801561045057600080fd5b5061046b60048036038101906104669190611bfd565b6118ae565b6040516104789190611e95565b60405180910390f35b34801561048d57600080fd5b506104966118ed565b6040516104a3919061250f565b60405180910390f35b3480156104b857600080fd5b506104d360048036038101906104ce9190611b64565b611a52565b6040516104e09190611e24565b60405180910390f35b60036020528060005260406000206000915054906101000a900460ff1681565b600060205280600052604060002060009150905080600001805461052c90612560565b80601f016020809104026020016040519081016040528092919081815260200182805461055890612560565b80156105a55780601f1061057a576101008083540402835291602001916105a5565b820191906000526020600020905b81548152906001019060200180831161058857829003601f168201915b5050505050908060010154908060020154908060030154908060040160009054906101000a900473ffffffffffffffffffffffffffffffffffffffff16905085565b6060600880548060200260200160405190810160405280929190818152602001828054801561066b57602002820191906000526020600020905b8160009054906101000a900473ffffffffffffffffffffffffffffffffffffffff1673ffffffffffffffffffffffffffffffffffffffff1681526020019060010190808311610621575b5050505050905090565b6007818154811061068557600080fd5b9060005260206000200160009150905080546106a090612560565b80601f01602080910402602001604051908101604052809291908181526020018280546106cc90612560565b80156107195780601f106106ee57610100808354040283529160200191610719565b820191906000526020600020905b8154815290600101906020018083116106fc57829003601f168201915b505050505081565b606061072b6113ed565b61076a576040517f08c379a000000000000000000000000000000000000000000000000000000000815260040161076190612603565b60405180910390fd5b60058054806020026020016040519081016040528092919081815260200182805480156107ec57602002820191906000526020600020905b8160009054906101000a900473ffffffffffffffffffffffffffffffffffffffff1673ffffffffffffffffffffffffffffffffffffffff16815260200190600101908083116107a2575b5050505050905090565b60095482111561083b576040517f08c379a00000000000000000000000000000000000000000000000000000000081526004016108329061266f565b60405180910390fd5b80600080848152602001908152602001600020600201541015610893576040517f08c379a000000000000000000000000000000000000000000000000000000000815260040161088a906126db565b60405180910390fd5b61089c336111a3565b156108dc576040517f08c379a00000000000000000000000000000000000000000000000000000000081526004016108d39061276d565b60405180910390fd5b600081600080858152602001908152602001600020600301546108ff91906127bc565b905080341015610944576040517f08c379a000000000000000000000000000000000000000000000000000000000815260040161093b9061284a565b60405180910390fd5b60008134610952919061286a565b905060008111156109a5573373ffffffffffffffffffffffffffffffffffffffff166108fc829081150290604051600060405180830381858888f193505050501580156109a3573d6000803e3d6000fd5b505b60008085815260200190815260200160002060040160009054906101000a900473ffffffffffffffffffffffffffffffffffffffff1673ffffffffffffffffffffffffffffffffffffffff166108fc839081150290604051600060405180830381858888f19350505050158015610a20573d6000803e3d6000fd5b50826000808681526020019081526020016000206002016000828254610a46919061286a565b92505081905550600080858152602001908152602001600020600201546006600186610a72919061286a565b81548110610a8357610a8261289e565b5b9060005260206000209060050201600201819055506000600160003373ffffffffffffffffffffffffffffffffffffffff1673ffffffffffffffffffffffffffffffffffffffff16815260200190815260200160002090508060405180608001604052803373ffffffffffffffffffffffffffffffffffffffff1681526020016000808981526020019081526020016000206000018054610b2390612560565b80601f0160208091040260200160405190810160405280929190818152602001828054610b4f90612560565b8015610b9c5780601f10610b7157610100808354040283529160200191610b9c565b820191906000526020600020905b815481529060010190602001808311610b7f57829003601f168201915b5050505050815260200187815260200186815250908060018154018082558091505060019003906000526020600020906004020160009091909190915060008201518160000160006101000a81548173ffffffffffffffffffffffffffffffffffffffff021916908373ffffffffffffffffffffffffffffffffffffffff1602179055506020820151816001019081610c359190612a79565b50604082015181600201556060820151816003015550506008339080600181540180825580915050600190039060005260206000200160009091909190916101000a81548173ffffffffffffffffffffffffffffffffffffffff021916908373ffffffffffffffffffffffffffffffffffffffff1602179055503373ffffffffffffffffffffffffffffffffffffffff167fc3b7539e996dc1d1252af1e3c72474162b7a9c7cc7411ca8905732eaf6fff328868642604051610cf993929190612b4b565b60405180910390a25050505050565b60068181548110610d1857600080fd5b9060005260206000209060050201600091509050806000018054610d3b90612560565b80601f0160208091040260200160405190810160405280929190818152602001828054610d6790612560565b8015610db45780601f10610d8957610100808354040283529160200191610db4565b820191906000526020600020905b815481529060010190602001808311610d9757829003601f168201915b5050505050908060010154908060020154908060030154908060040160009054906101000a900473ffffffffffffffffffffffffffffffffffffffff16905085565b60088181548110610e0657600080fd5b906000526020600020016000915054906101000a900473ffffffffffffffffffffffffffffffffffffffff1681565b6060600160008373ffffffffffffffffffffffffffffffffffffffff1673ffffffffffffffffffffffffffffffffffffffff168152602001908152602001600020805480602002602001604051908101604052809291908181526020016000905b82821015610fc457838290600052602060002090600402016040518060800160405290816000820160009054906101000a900473ffffffffffffffffffffffffffffffffffffffff1673ffffffffffffffffffffffffffffffffffffffff1673ffffffffffffffffffffffffffffffffffffffff168152602001600182018054610f1f90612560565b80601f0160208091040260200160405190810160405280929190818152602001828054610f4b90612560565b8015610f985780601f10610f6d57610100808354040283529160200191610f98565b820191906000526020600020905b815481529060010190602001808311610f7b57829003601f168201915b505050505081526020016002820154815260200160038201548152505081526020019060010190610e96565b505050509050919050565b6000815111611013576040517f08c379a000000000000000000000000000000000000000000000000000000000815260040161100a90612bce565b60405180910390fd5b80600260003373ffffffffffffffffffffffffffffffffffffffff1673ffffffffffffffffffffffffffffffffffffffff168152602001908152602001600020908161105f9190612a79565b506001600360003373ffffffffffffffffffffffffffffffffffffffff1673ffffffffffffffffffffffffffffffffffffffff16815260200190815260200160002060006101000a81548160ff0219169083151502179055506005339080600181540180825580915050600190039060005260206000200160009091909190916101000a81548173ffffffffffffffffffffffffffffffffffffffff021916908373ffffffffffffffffffffffffffffffffffffffff16021790555060078190806001815401808255809150506001900390600052602060002001600090919091909150908161114f9190612a79565b503373ffffffffffffffffffffffffffffffffffffffff167f3d5483a93df0921e07ba2b0050c4d0f5793795035f1db5af3face517df5e333b8242604051611198929190612bee565b60405180910390a250565b6000600360008373ffffffffffffffffffffffffffffffffffffffff1673ffffffffffffffffffffffffffffffffffffffff16815260200190815260200160002060009054906101000a900460ff169050919050565b60606007805480602002602001604051908101604052809291908181526020016000905b828210156112c957838290600052602060002001805461123c90612560565b80601f016020809104026020016040519081016040528092919081815260200182805461126890612560565b80156112b55780601f1061128a576101008083540402835291602001916112b5565b820191906000526020600020905b81548152906001019060200180831161129857829003601f168201915b50505050508152602001906001019061121d565b50505050905090565b600160205281600052604060002081815481106112ee57600080fd5b9060005260206000209060040201600091509150508060000160009054906101000a900473ffffffffffffffffffffffffffffffffffffffff169080600101805461133890612560565b80601f016020809104026020016040519081016040528092919081815260200182805461136490612560565b80156113b15780601f10611386576101008083540402835291602001916113b1565b820191906000526020600020905b81548152906001019060200180831161139457829003601f168201915b5050505050908060020154908060030154905084565b600460009054906101000a900473ffffffffffffffffffffffffffffffffffffffff1681565b6000600460009054906101000a900473ffffffffffffffffffffffffffffffffffffffff1673ffffffffffffffffffffffffffffffffffffffff163373ffffffffffffffffffffffffffffffffffffffff1614905090565b6000835111611489576040517f08c379a000000000000000000000000000000000000000000000000000000000815260040161148090612c6a565b60405180910390fd5b611492336111a3565b6114d1576040517f08c379a00000000000000000000000000000000000000000000000000000000081526004016114c890612cd6565b60405180910390fd5b60008211611514576040517f08c379a000000000000000000000000000000000000000000000000000000000815260040161150b90612d68565b60405180910390fd5b61151c6113ed565b1561155c576040517f08c379a000000000000000000000000000000000000000000000000000000000815260040161155390612dd4565b60405180910390fd5b600060646003848461156e91906127bc565b61157891906127bc565b6115829190612e23565b9050803410156115c7576040517f08c379a00000000000000000000000000000000000000000000000000000000081526004016115be9061284a565b60405180910390fd5b600460009054906101000a900473ffffffffffffffffffffffffffffffffffffffff1673ffffffffffffffffffffffffffffffffffffffff166108fc829081150290604051600060405180830381858888f1935050505015801561162f573d6000803e3d6000fd5b506000813461163e919061286a565b90506000811115611691573373ffffffffffffffffffffffffffffffffffffffff166108fc829081150290604051600060405180830381858888f1935050505015801561168f573d6000803e3d6000fd5b505b600960008154809291906116a490612e54565b91905055503373ffffffffffffffffffffffffffffffffffffffff167f56acb10c6ecae7e178ece5d22c2f0346efb606427ea6a15f96904d0ceec03d1d60095487426040516116f593929190612e9c565b60405180910390a26040518060a001604052808681526020018581526020018581526020018481526020013373ffffffffffffffffffffffffffffffffffffffff16815250600080600954815260200190815260200160002060008201518160000190816117639190612a79565b5060208201518160010155604082015181600201556060820151816003015560808201518160040160006101000a81548173ffffffffffffffffffffffffffffffffffffffff021916908373ffffffffffffffffffffffffffffffffffffffff1602179055509050506006600080600954815260200190815260200160002090806001815401808255809150506001900390600052602060002090600502016000909190919091506000820181600001908161181f9190612ef0565b506001820154816001015560028201548160020155600382015481600301556004820160009054906101000a900473ffffffffffffffffffffffffffffffffffffffff168160040160006101000a81548173ffffffffffffffffffffffffffffffffffffffff021916908373ffffffffffffffffffffffffffffffffffffffff16021790555050505050505050565b600581815481106118be57600080fd5b906000526020600020016000915054906101000a900473ffffffffffffffffffffffffffffffffffffffff1681565b60606006805480602002602001604051908101604052809291908181526020016000905b82821015611a4957838290600052602060002090600502016040518060a001604052908160008201805461194490612560565b80601f016020809104026020016040519081016040528092919081815260200182805461197090612560565b80156119bd5780601f10611992576101008083540402835291602001916119bd565b820191906000526020600020905b8154815290600101906020018083116119a057829003601f168201915b505050505081526020016001820154815260200160028201548152602001600382015481526020016004820160009054906101000a900473ffffffffffffffffffffffffffffffffffffffff1673ffffffffffffffffffffffffffffffffffffffff1673ffffffffffffffffffffffffffffffffffffffff168152505081526020019060010190611911565b50505050905090565b60026020528060005260406000206000915090508054611a7190612560565b80601f0160208091040260200160405190810160405280929190818152602001828054611a9d90612560565b8015611aea5780601f10611abf57610100808354040283529160200191611aea565b820191906000526020600020905b815481529060010190602001808311611acd57829003601f168201915b505050505081565b6000604051905090565b600080fd5b600080fd5b600073ffffffffffffffffffffffffffffffffffffffff82169050919050565b6000611b3182611b06565b9050919050565b611b4181611b26565b8114611b4c57600080fd5b50565b600081359050611b5e81611b38565b92915050565b600060208284031215611b7a57611b79611afc565b5b6000611b8884828501611b4f565b91505092915050565b60008115159050919050565b611ba681611b91565b82525050565b6000602082019050611bc16000830184611b9d565b92915050565b6000819050919050565b611bda81611bc7565b8114611be557600080fd5b50565b600081359050611bf781611bd1565b92915050565b600060208284031215611c1357611c12611afc565b5b6000611c2184828501611be8565b91505092915050565b600081519050919050565b600082825260208201905092915050565b60005b83811015611c64578082015181840152602081019050611c49565b60008484015250505050565b6000601f19601f8301169050919050565b6000611c8c82611c2a565b611c968185611c35565b9350611ca6818560208601611c46565b611caf81611c70565b840191505092915050565b611cc381611bc7565b82525050565b6000611cd482611b06565b9050919050565b611ce481611cc9565b82525050565b600060a0820190508181036000830152611d048188611c81565b9050611d136020830187611cba565b611d206040830186611cba565b611d2d6060830185611cba565b611d3a6080830184611cdb565b9695505050505050565b600081519050919050565b600082825260208201905092915050565b6000819050602082019050919050565b611d7981611b26565b82525050565b6000611d8b8383611d70565b60208301905092915050565b6000602082019050919050565b6000611daf82611d44565b611db98185611d4f565b9350611dc483611d60565b8060005b83811015611df5578151611ddc8882611d7f565b9750611de783611d97565b925050600181019050611dc8565b5085935050505092915050565b60006020820190508181036000830152611e1c8184611da4565b905092915050565b60006020820190508181036000830152611e3e8184611c81565b905092915050565b60008060408385031215611e5d57611e5c611afc565b5b6000611e6b85828601611be8565b9250506020611e7c85828601611be8565b9150509250929050565b611e8f81611b26565b82525050565b6000602082019050611eaa6000830184611e86565b92915050565b600081519050919050565b600082825260208201905092915050565b6000819050602082019050919050565b600082825260208201905092915050565b6000611ef882611c2a565b611f028185611edc565b9350611f12818560208601611c46565b611f1b81611c70565b840191505092915050565b611f2f81611bc7565b82525050565b6000608083016000830151611f4d6000860182611d70565b5060208301518482036020860152611f658282611eed565b9150506040830151611f7a6040860182611f26565b506060830151611f8d6060860182611f26565b508091505092915050565b6000611fa48383611f35565b905092915050565b6000602082019050919050565b6000611fc482611eb0565b611fce8185611ebb565b935083602082028501611fe085611ecc565b8060005b8581101561201c5784840389528151611ffd8582611f98565b945061200883611fac565b925060208a01995050600181019050611fe4565b50829750879550505050505092915050565b600060208201905081810360008301526120488184611fb9565b905092915050565b600080fd5b600080fd5b7f4e487b7100000000000000000000000000000000000000000000000000000000600052604160045260246000fd5b61209282611c70565b810181811067ffffffffffffffff821117156120b1576120b061205a565b5b80604052505050565b60006120c4611af2565b90506120d08282612089565b919050565b600067ffffffffffffffff8211156120f0576120ef61205a565b5b6120f982611c70565b9050602081019050919050565b82818337600083830152505050565b6000612128612123846120d5565b6120ba565b90508281526020810184848401111561214457612143612055565b5b61214f848285612106565b509392505050565b600082601f83011261216c5761216b612050565b5b813561217c848260208601612115565b91505092915050565b60006020828403121561219b5761219a611afc565b5b600082013567ffffffffffffffff8111156121b9576121b8611b01565b5b6121c584828501612157565b91505092915050565b600081519050919050565b600082825260208201905092915050565b6000819050602082019050919050565b60006122068383611eed565b905092915050565b6000602082019050919050565b6000612226826121ce565b61223081856121d9565b935083602082028501612242856121ea565b8060005b8581101561227e578484038952815161225f85826121fa565b945061226a8361220e565b925060208a01995050600181019050612246565b50829750879550505050505092915050565b600060208201905081810360008301526122aa818461221b565b905092915050565b600080604083850312156122c9576122c8611afc565b5b60006122d785828601611b4f565b92505060206122e885828601611be8565b9150509250929050565b60006080820190506123076000830187611e86565b81810360208301526123198186611c81565b90506123286040830185611cba565b6123356060830184611cba565b95945050505050565b60006020820190506123536000830184611cdb565b92915050565b60008060006060848603121561237257612371611afc565b5b600084013567ffffffffffffffff8111156123905761238f611b01565b5b61239c86828701612157565b93505060206123ad86828701611be8565b92505060406123be86828701611be8565b9150509250925092565b600081519050919050565b600082825260208201905092915050565b6000819050602082019050919050565b6123fd81611cc9565b82525050565b600060a08301600083015184820360008601526124208282611eed565b91505060208301516124356020860182611f26565b5060408301516124486040860182611f26565b50606083015161245b6060860182611f26565b50608083015161246e60808601826123f4565b508091505092915050565b60006124858383612403565b905092915050565b6000602082019050919050565b60006124a5826123c8565b6124af81856123d3565b9350836020820285016124c1856123e4565b8060005b858110156124fd57848403895281516124de8582612479565b94506124e98361248d565b925060208a019950506001810190506124c5565b50829750879550505050505092915050565b60006020820190508181036000830152612529818461249a565b905092915050565b7f4e487b7100000000000000000000000000000000000000000000000000000000600052602260045260246000fd5b6000600282049050600182168061257857607f821691505b60208210810361258b5761258a612531565b5b50919050565b7f4f6e6c79206f776e65722063616e207669657720616c6c206f7267616e697a6560008201527f7273000000000000000000000000000000000000000000000000000000000000602082015250565b60006125ed602283611c35565b91506125f882612591565b604082019050919050565b6000602082019050818103600083015261261c816125e0565b9050919050565b7f4576656e7420646f6573206e6f74206578697374000000000000000000000000600082015250565b6000612659601483611c35565b915061266482612623565b602082019050919050565b600060208201905081810360008301526126888161264c565b9050919050565b7f4e6f7420656e6f756768207469636b657473206c656674000000000000000000600082015250565b60006126c5601783611c35565b91506126d08261268f565b602082019050919050565b600060208201905081810360008301526126f4816126b8565b9050919050565b7f4f7267616e697a65722063616e6e6f7420627579207469636b65747320666f7260008201527f207468656972206f776e206576656e7400000000000000000000000000000000602082015250565b6000612757603083611c35565b9150612762826126fb565b604082019050919050565b600060208201905081810360008301526127868161274a565b9050919050565b7f4e487b7100000000000000000000000000000000000000000000000000000000600052601160045260246000fd5b60006127c782611bc7565b91506127d283611bc7565b92508282026127e081611bc7565b915082820484148315176127f7576127f661278d565b5b5092915050565b7f4e6f7420656e6f7567682065746865722073656e740000000000000000000000600082015250565b6000612834601583611c35565b915061283f826127fe565b602082019050919050565b6000602082019050818103600083015261286381612827565b9050919050565b600061287582611bc7565b915061288083611bc7565b92508282039050818111156128985761289761278d565b5b92915050565b7f4e487b7100000000000000000000000000000000000000000000000000000000600052603260045260246000fd5b60008190508160005260206000209050919050565b60006020601f8301049050919050565b600082821b905092915050565b60006008830261292f7fffffffffffffffffffffffffffffffffffffffffffffffffffffffffffffffff826128f2565b61293986836128f2565b95508019841693508086168417925050509392505050565b6000819050919050565b600061297661297161296c84611bc7565b612951565b611bc7565b9050919050565b6000819050919050565b6129908361295b565b6129a461299c8261297d565b8484546128ff565b825550505050565b600090565b6129b96129ac565b6129c4818484612987565b505050565b5b818110156129e8576129dd6000826129b1565b6001810190506129ca565b5050565b601f821115612a2d576129fe816128cd565b612a07846128e2565b81016020851015612a16578190505b612a2a612a22856128e2565b8301826129c9565b50505b505050565b600082821c905092915050565b6000612a5060001984600802612a32565b1980831691505092915050565b6000612a698383612a3f565b9150826002028217905092915050565b612a8282611c2a565b67ffffffffffffffff811115612a9b57612a9a61205a565b5b612aa58254612560565b612ab08282856129ec565b600060209050601f831160018114612ae35760008415612ad1578287015190505b612adb8582612a5d565b865550612b43565b601f198416612af1866128cd565b60005b82811015612b1957848901518255600182019150602085019450602081019050612af4565b86831015612b365784890151612b32601f891682612a3f565b8355505b6001600288020188555050505b505050505050565b6000606082019050612b606000830186611cba565b612b6d6020830185611cba565b612b7a6040830184611cba565b949350505050565b7f4349442063616e6e6f7420626520656d70747900000000000000000000000000600082015250565b6000612bb8601383611c35565b9150612bc382612b82565b602082019050919050565b60006020820190508181036000830152612be781612bab565b9050919050565b60006040820190508181036000830152612c088185611c81565b9050612c176020830184611cba565b9392505050565b7f4576656e74204349442073686f756c64206e6f7420626520656d707479000000600082015250565b6000612c54601d83611c35565b9150612c5f82612c1e565b602082019050919050565b60006020820190508181036000830152612c8381612c47565b9050919050565b7f4f6e6c79206f7267616e697a65722063616e20637265617465206576656e7400600082015250565b6000612cc0601f83611c35565b9150612ccb82612c8a565b602082019050919050565b60006020820190508181036000830152612cef81612cb3565b9050919050565b7f546f74616c207469636b6574732073686f756c6420626520677265617465722060008201527f7468616e20300000000000000000000000000000000000000000000000000000602082015250565b6000612d52602683611c35565b9150612d5d82612cf6565b604082019050919050565b60006020820190508181036000830152612d8181612d45565b9050919050565b7f4f776e65722063616e6e6f7420637265617465206576656e7400000000000000600082015250565b6000612dbe601983611c35565b9150612dc982612d88565b602082019050919050565b60006020820190508181036000830152612ded81612db1565b9050919050565b7f4e487b7100000000000000000000000000000000000000000000000000000000600052601260045260246000fd5b6000612e2e82611bc7565b9150612e3983611bc7565b925082612e4957612e48612df4565b5b828204905092915050565b6000612e5f82611bc7565b91507fffffffffffffffffffffffffffffffffffffffffffffffffffffffffffffffff8203612e9157612e9061278d565b5b600182019050919050565b6000606082019050612eb16000830186611cba565b8181036020830152612ec38185611c81565b9050612ed26040830184611cba565b949350505050565b600081549050612ee981612560565b9050919050565b818103612efe575050612fd6565b612f0782612eda565b67ffffffffffffffff811115612f2057612f1f61205a565b5b612f2a8254612560565b612f358282856129ec565b6000601f831160018114612f645760008415612f52578287015490505b612f5c8582612a5d565b865550612fcf565b601f198416612f72876128cd565b9650612f7d866128cd565b60005b82811015612fa557848901548255600182019150600185019450602081019050612f80565b86831015612fc25784890154612fbe601f891682612a3f565b8355505b6001600288020188555050505b5050505050505b56fea264697066735822122094b21320d73e3d8fab8204ae7e82b163b41415dd8c2aad945699d87d8b2b7cad64736f6c63430008130033",
  "linkReferences": {},
  "deployedLinkReferences": {}
}