{
  "_format": "hh-sol-artifact-1",
  "contractName": "Tickets",
  "sourceName": "contracts/Tickets.sol",
  "abi": [
    {
      "inputs": [],
      "stateMutability": "nonpayable",
      "type": "constructor"
    },
    {
      "anonymous": false,
      "inputs": [
        {
          "indexed": false,
          "internalType": "uint256",
          "name": "eventId",
          "type": "uint256"
        },
        {
          "indexed": true,
          "internalType": "address",
          "name": "organizer",
          "type": "address"
        },
        {
          "indexed": false,
          "internalType": "string",
          "name": "eventCid",
          "type": "string"
        },
        {
          "indexed": false,
          "internalType": "uint256",
          "name": "creationTime",
          "type": "uint256"
        }
      ],
      "name": "EventCreated",
      "type": "event"
    },
    {
      "anonymous": false,
      "inputs": [
        {
          "indexed": true,
          "internalType": "address",
          "name": "organizerAddress",
          "type": "address"
        },
        {
          "indexed": false,
          "internalType": "string",
          "name": "CID",
          "type": "string"
        },
        {
          "indexed": false,
          "internalType": "uint256",
          "name": "registerTime",
          "type": "uint256"
        }
      ],
      "name": "OrganizerRegistered",
      "type": "event"
    },
    {
      "anonymous": false,
      "inputs": [
        {
          "indexed": false,
          "internalType": "uint256",
          "name": "eventId",
          "type": "uint256"
        },
        {
          "indexed": false,
          "internalType": "uint256",
          "name": "ticketsBought",
          "type": "uint256"
        },
        {
          "indexed": true,
          "internalType": "address",
          "name": "buyer",
          "type": "address"
        },
        {
          "indexed": false,
          "internalType": "uint256",
          "name": "purchaseTime",
          "type": "uint256"
        }
      ],
      "name": "TicketPurchased",
      "type": "event"
    },
    {
      "inputs": [
        {
          "internalType": "uint256",
          "name": "",
          "type": "uint256"
        }
      ],
      "name": "allEvents",
      "outputs": [
        {
          "internalType": "string",
          "name": "eventCID",
          "type": "string"
        },
        {
          "internalType": "uint256",
          "name": "totalTickets",
          "type": "uint256"
        },
        {
          "internalType": "uint256",
          "name": "remTickets",
          "type": "uint256"
        },
        {
          "internalType": "uint256",
          "name": "price",
          "type": "uint256"
        },
        {
          "internalType": "address payable",
          "name": "creator",
          "type": "address"
        }
      ],
      "stateMutability": "view",
      "type": "function"
    },
    {
      "inputs": [
        {
          "internalType": "uint256",
          "name": "",
          "type": "uint256"
        }
      ],
      "name": "allOrganizerCid",
      "outputs": [
        {
          "internalType": "string",
          "name": "",
          "type": "string"
        }
      ],
      "stateMutability": "view",
      "type": "function"
    },
    {
      "inputs": [
        {
          "internalType": "uint256",
          "name": "",
          "type": "uint256"
        }
      ],
      "name": "allOrganizers",
      "outputs": [
        {
          "internalType": "address",
          "name": "",
          "type": "address"
        }
      ],
      "stateMutability": "view",
      "type": "function"
    },
    {
      "inputs": [
        {
          "internalType": "uint256",
          "name": "_eventId",
          "type": "uint256"
        },
        {
          "internalType": "uint256",
          "name": "_totalTicketsToBuy",
          "type": "uint256"
        }
      ],
      "name": "buyTicket",
      "outputs": [],
      "stateMutability": "payable",
      "type": "function"
    },
    {
      "inputs": [
        {
          "internalType": "string",
          "name": "_eventCid",
          "type": "string"
        },
        {
          "internalType": "uint256",
          "name": "_totalTickets",
          "type": "uint256"
        },
        {
          "internalType": "uint256",
          "name": "_price",
          "type": "uint256"
        }
      ],
      "name": "createEvent",
      "outputs": [],
      "stateMutability": "payable",
      "type": "function"
    },
    {
      "inputs": [
        {
          "internalType": "uint256",
          "name": "",
          "type": "uint256"
        }
      ],
      "name": "events",
      "outputs": [
        {
          "internalType": "string",
          "name": "eventCID",
          "type": "string"
        },
        {
          "internalType": "uint256",
          "name": "totalTickets",
          "type": "uint256"
        },
        {
          "internalType": "uint256",
          "name": "remTickets",
          "type": "uint256"
        },
        {
          "internalType": "uint256",
          "name": "price",
          "type": "uint256"
        },
        {
          "internalType": "address payable",
          "name": "creator",
          "type": "address"
        }
      ],
      "stateMutability": "view",
      "type": "function"
    },
    {
      "inputs": [
        {
          "internalType": "address",
          "name": "",
          "type": "address"
        },
        {
          "internalType": "uint256",
          "name": "",
          "type": "uint256"
        }
      ],
      "name": "eventsCreated",
      "outputs": [
        {
          "internalType": "uint256",
          "name": "",
          "type": "uint256"
        }
      ],
      "stateMutability": "view",
      "type": "function"
    },
    {
      "inputs": [],
      "name": "getAllEvents",
      "outputs": [
        {
          "components": [
            {
              "internalType": "string",
              "name": "eventCID",
              "type": "string"
            },
            {
              "internalType": "uint256",
              "name": "totalTickets",
              "type": "uint256"
            },
            {
              "internalType": "uint256",
              "name": "remTickets",
              "type": "uint256"
            },
            {
              "internalType": "uint256",
              "name": "price",
              "type": "uint256"
            },
            {
              "internalType": "address payable",
              "name": "creator",
              "type": "address"
            }
          ],
          "internalType": "struct Tickets.Event[]",
          "name": "",
          "type": "tuple[]"
        }
      ],
      "stateMutability": "view",
      "type": "function"
    },
    {
      "inputs": [],
      "name": "getAllOrganizerCID",
      "outputs": [
        {
          "internalType": "string[]",
          "name": "",
          "type": "string[]"
        }
      ],
      "stateMutability": "view",
      "type": "function"
    },
    {
      "inputs": [],
      "name": "getAllOrganizers",
      "outputs": [
        {
          "internalType": "address[]",
          "name": "",
          "type": "address[]"
        }
      ],
      "stateMutability": "view",
      "type": "function"
    },
    {
      "inputs": [
        {
          "internalType": "address",
          "name": "_userAddress",
          "type": "address"
        }
      ],
      "name": "getTicket",
      "outputs": [
        {
          "components": [
            {
              "internalType": "address",
              "name": "userAddress",
              "type": "address"
            },
            {
              "internalType": "string",
              "name": "eventName",
              "type": "string"
            },
            {
              "internalType": "uint256",
              "name": "eventId",
              "type": "uint256"
            },
            {
              "internalType": "uint256",
              "name": "ticketsOwned",
              "type": "uint256"
            }
          ],
          "internalType": "struct Tickets.TicketHolder[]",
          "name": "",
          "type": "tuple[]"
        }
      ],
      "stateMutability": "view",
      "type": "function"
    },
    {
      "inputs": [
        {
          "internalType": "address",
          "name": "_organizerAddress",
          "type": "address"
        }
      ],
      "name": "isOrganizers",
      "outputs": [
        {
          "internalType": "bool",
          "name": "",
          "type": "bool"
        }
      ],
      "stateMutability": "view",
      "type": "function"
    },
    {
      "inputs": [],
      "name": "isOwner",
      "outputs": [
        {
          "internalType": "bool",
          "name": "",
          "type": "bool"
        }
      ],
      "stateMutability": "view",
      "type": "function"
    },
    {
      "inputs": [
        {
          "internalType": "address",
          "name": "",
          "type": "address"
        }
      ],
      "name": "organizerCID",
      "outputs": [
        {
          "internalType": "string",
          "name": "",
          "type": "string"
        }
      ],
      "stateMutability": "view",
      "type": "function"
    },
    {
      "inputs": [
        {
          "internalType": "address",
          "name": "",
          "type": "address"
        }
      ],
      "name": "organizers",
      "outputs": [
        {
          "internalType": "bool",
          "name": "",
          "type": "bool"
        }
      ],
      "stateMutability": "view",
      "type": "function"
    },
    {
      "inputs": [],
      "name": "owner",
      "outputs": [
        {
          "internalType": "address payable",
          "name": "",
          "type": "address"
        }
      ],
      "stateMutability": "view",
      "type": "function"
    },
    {
      "inputs": [
        {
          "internalType": "string",
          "name": "_CID",
          "type": "string"
        }
      ],
      "name": "registerEventOrganizer",
      "outputs": [],
      "stateMutability": "nonpayable",
      "type": "function"
    },
    {
      "inputs": [
        {
          "internalType": "address",
          "name": "",
          "type": "address"
        },
        {
          "internalType": "uint256",
          "name": "",
          "type": "uint256"
        }
      ],
      "name": "ticketHolders",
      "outputs": [
        {
          "internalType": "address",
          "name": "userAddress",
          "type": "address"
        },
        {
          "internalType": "string",
          "name": "eventName",
          "type": "string"
        },
        {
          "internalType": "uint256",
          "name": "eventId",
          "type": "uint256"
        },
        {
          "internalType": "uint256",
          "name": "ticketsOwned",
          "type": "uint256"
        }
      ],
      "stateMutability": "view",
      "type": "function"
    }
  ],
  "bytecode": "0x608060405234801561001057600080fd5b5033600560006101000a81548173ffffffffffffffffffffffffffffffffffffffff021916908373ffffffffffffffffffffffffffffffffffffffff160217905550612ef4806100616000396000f3fe6080604052600436106101095760003560e01c80636e389f90116100955780638f32d59b116100645780638f32d59b146103c75780639e9580f6146103f2578063b19588a61461040e578063c27a500d1461044b578063fb894fa21461047657610109565b80636e389f90146102f45780637b656dcc14610331578063826155691461035c5780638da5cb5b1461039c57610109565b8063298ec208116100dc578063298ec208146101f45780633aba8bd7146102105780633bec5cff1461024d5780634717dea91461028e57806363d3b019146102cb57610109565b80630544c5b91461010e5780630b7914301461014b5780631ba2e62a1461018c5780631e67f721146101c9575b600080fd5b34801561011a57600080fd5b5061013560048036038101906101309190611a2f565b6104b3565b6040516101429190611a77565b60405180910390f35b34801561015757600080fd5b50610172600480360381019061016d9190611ac8565b6104d3565b604051610183959493929190611bb5565b60405180910390f35b34801561019857600080fd5b506101b360048036038101906101ae9190611ac8565b6105b1565b6040516101c09190611c0f565b60405180910390f35b3480156101d557600080fd5b506101de61065d565b6040516101eb9190611cef565b60405180910390f35b61020e60048036038101906102099190611d11565b610732565b005b34801561021c57600080fd5b5061023760048036038101906102329190611d51565b610be1565b6040516102449190611d91565b60405180910390f35b34801561025957600080fd5b50610274600480360381019061026f9190611ac8565b610c12565b604051610285959493929190611bb5565b60405180910390f35b34801561029a57600080fd5b506102b560048036038101906102b09190611a2f565b610d00565b6040516102c29190611f2a565b60405180910390f35b3480156102d757600080fd5b506102f260048036038101906102ed9190612081565b610e9a565b005b34801561030057600080fd5b5061031b60048036038101906103169190611a2f565b61106e565b6040516103289190611a77565b60405180910390f35b34801561033d57600080fd5b506103466110c4565b604051610353919061218c565b60405180910390f35b34801561036857600080fd5b50610383600480360381019061037e9190611d51565b61119d565b60405161039394939291906121bd565b60405180910390f35b3480156103a857600080fd5b506103b1611292565b6040516103be9190612209565b60405180910390f35b3480156103d357600080fd5b506103dc6112b8565b6040516103e99190611a77565b60405180910390f35b61040c60048036038101906104079190612224565b611310565b005b34801561041a57600080fd5b5061043560048036038101906104309190611ac8565b611779565b6040516104429190612293565b60405180910390f35b34801561045757600080fd5b506104606117b8565b60405161046d91906123f5565b60405180910390f35b34801561048257600080fd5b5061049d60048036038101906104989190611a2f565b61191d565b6040516104aa9190611c0f565b60405180910390f35b60046020528060005260406000206000915054906101000a900460ff1681565b60006020528060005260406000206000915090508060000180546104f690612446565b80601f016020809104026020016040519081016040528092919081815260200182805461052290612446565b801561056f5780601f106105445761010080835404028352916020019161056f565b820191906000526020600020905b81548152906001019060200180831161055257829003601f168201915b5050505050908060010154908060020154908060030154908060040160009054906101000a900473ffffffffffffffffffffffffffffffffffffffff16905085565b600881815481106105c157600080fd5b9060005260206000200160009150905080546105dc90612446565b80601f016020809104026020016040519081016040528092919081815260200182805461060890612446565b80156106555780601f1061062a57610100808354040283529160200191610655565b820191906000526020600020905b81548152906001019060200180831161063857829003601f168201915b505050505081565b60606106676112b8565b6106a6576040517f08c379a000000000000000000000000000000000000000000000000000000000815260040161069d906124e9565b60405180910390fd5b600680548060200260200160405190810160405280929190818152602001828054801561072857602002820191906000526020600020905b8160009054906101000a900473ffffffffffffffffffffffffffffffffffffffff1673ffffffffffffffffffffffffffffffffffffffff16815260200190600101908083116106de575b5050505050905090565b600954821115610777576040517f08c379a000000000000000000000000000000000000000000000000000000000815260040161076e90612555565b60405180910390fd5b806000808481526020019081526020016000206002015410156107cf576040517f08c379a00000000000000000000000000000000000000000000000000000000081526004016107c6906125c1565b60405180910390fd5b6107d83361106e565b15610818576040517f08c379a000000000000000000000000000000000000000000000000000000000815260040161080f90612653565b60405180910390fd5b6000816000808581526020019081526020016000206003015461083b91906126a2565b905080341015610880576040517f08c379a000000000000000000000000000000000000000000000000000000000815260040161087790612730565b60405180910390fd5b6000813461088e9190612750565b905060008111156108e1573373ffffffffffffffffffffffffffffffffffffffff166108fc829081150290604051600060405180830381858888f193505050501580156108df573d6000803e3d6000fd5b505b60008085815260200190815260200160002060040160009054906101000a900473ffffffffffffffffffffffffffffffffffffffff1673ffffffffffffffffffffffffffffffffffffffff166108fc839081150290604051600060405180830381858888f1935050505015801561095c573d6000803e3d6000fd5b508260008086815260200190815260200160002060020160008282546109829190612750565b925050819055506000808581526020019081526020016000206002015460076001866109ae9190612750565b815481106109bf576109be612784565b5b9060005260206000209060050201600201819055506000600160003373ffffffffffffffffffffffffffffffffffffffff1673ffffffffffffffffffffffffffffffffffffffff16815260200190815260200160002090508060405180608001604052803373ffffffffffffffffffffffffffffffffffffffff1681526020016000808981526020019081526020016000206000018054610a5f90612446565b80601f0160208091040260200160405190810160405280929190818152602001828054610a8b90612446565b8015610ad85780601f10610aad57610100808354040283529160200191610ad8565b820191906000526020600020905b815481529060010190602001808311610abb57829003601f168201915b5050505050815260200187815260200186815250908060018154018082558091505060019003906000526020600020906004020160009091909190915060008201518160000160006101000a81548173ffffffffffffffffffffffffffffffffffffffff021916908373ffffffffffffffffffffffffffffffffffffffff1602179055506020820151816001019081610b71919061295f565b50604082015181600201556060820151816003015550503373ffffffffffffffffffffffffffffffffffffffff167fc3b7539e996dc1d1252af1e3c72474162b7a9c7cc7411ca8905732eaf6fff328868642604051610bd293929190612a31565b60405180910390a25050505050565b60026020528160005260406000208181548110610bfd57600080fd5b90600052602060002001600091509150505481565b60078181548110610c2257600080fd5b9060005260206000209060050201600091509050806000018054610c4590612446565b80601f0160208091040260200160405190810160405280929190818152602001828054610c7190612446565b8015610cbe5780601f10610c9357610100808354040283529160200191610cbe565b820191906000526020600020905b815481529060010190602001808311610ca157829003601f168201915b5050505050908060010154908060020154908060030154908060040160009054906101000a900473ffffffffffffffffffffffffffffffffffffffff16905085565b6060600160008373ffffffffffffffffffffffffffffffffffffffff1673ffffffffffffffffffffffffffffffffffffffff168152602001908152602001600020805480602002602001604051908101604052809291908181526020016000905b82821015610e8f57838290600052602060002090600402016040518060800160405290816000820160009054906101000a900473ffffffffffffffffffffffffffffffffffffffff1673ffffffffffffffffffffffffffffffffffffffff1673ffffffffffffffffffffffffffffffffffffffff168152602001600182018054610dea90612446565b80601f0160208091040260200160405190810160405280929190818152602001828054610e1690612446565b8015610e635780601f10610e3857610100808354040283529160200191610e63565b820191906000526020600020905b815481529060010190602001808311610e4657829003601f168201915b505050505081526020016002820154815260200160038201548152505081526020019060010190610d61565b505050509050919050565b6000815111610ede576040517f08c379a0000000000000000000000000000000000000000000000000000000008152600401610ed590612ab4565b60405180910390fd5b80600360003373ffffffffffffffffffffffffffffffffffffffff1673ffffffffffffffffffffffffffffffffffffffff1681526020019081526020016000209081610f2a919061295f565b506001600460003373ffffffffffffffffffffffffffffffffffffffff1673ffffffffffffffffffffffffffffffffffffffff16815260200190815260200160002060006101000a81548160ff0219169083151502179055506006339080600181540180825580915050600190039060005260206000200160009091909190916101000a81548173ffffffffffffffffffffffffffffffffffffffff021916908373ffffffffffffffffffffffffffffffffffffffff16021790555060088190806001815401808255809150506001900390600052602060002001600090919091909150908161101a919061295f565b503373ffffffffffffffffffffffffffffffffffffffff167f3d5483a93df0921e07ba2b0050c4d0f5793795035f1db5af3face517df5e333b8242604051611063929190612ad4565b60405180910390a250565b6000600460008373ffffffffffffffffffffffffffffffffffffffff1673ffffffffffffffffffffffffffffffffffffffff16815260200190815260200160002060009054906101000a900460ff169050919050565b60606008805480602002602001604051908101604052809291908181526020016000905b8282101561119457838290600052602060002001805461110790612446565b80601f016020809104026020016040519081016040528092919081815260200182805461113390612446565b80156111805780601f1061115557610100808354040283529160200191611180565b820191906000526020600020905b81548152906001019060200180831161116357829003601f168201915b5050505050815260200190600101906110e8565b50505050905090565b600160205281600052604060002081815481106111b957600080fd5b9060005260206000209060040201600091509150508060000160009054906101000a900473ffffffffffffffffffffffffffffffffffffffff169080600101805461120390612446565b80601f016020809104026020016040519081016040528092919081815260200182805461122f90612446565b801561127c5780601f106112515761010080835404028352916020019161127c565b820191906000526020600020905b81548152906001019060200180831161125f57829003601f168201915b5050505050908060020154908060030154905084565b600560009054906101000a900473ffffffffffffffffffffffffffffffffffffffff1681565b6000600560009054906101000a900473ffffffffffffffffffffffffffffffffffffffff1673ffffffffffffffffffffffffffffffffffffffff163373ffffffffffffffffffffffffffffffffffffffff1614905090565b6000835111611354576040517f08c379a000000000000000000000000000000000000000000000000000000000815260040161134b90612b50565b60405180910390fd5b61135d3361106e565b61139c576040517f08c379a000000000000000000000000000000000000000000000000000000000815260040161139390612bbc565b60405180910390fd5b600082116113df576040517f08c379a00000000000000000000000000000000000000000000000000000000081526004016113d690612c4e565b60405180910390fd5b6113e76112b8565b15611427576040517f08c379a000000000000000000000000000000000000000000000000000000000815260040161141e90612cba565b60405180910390fd5b600060646003848461143991906126a2565b61144391906126a2565b61144d9190612d09565b905080341015611492576040517f08c379a000000000000000000000000000000000000000000000000000000000815260040161148990612730565b60405180910390fd5b600560009054906101000a900473ffffffffffffffffffffffffffffffffffffffff1673ffffffffffffffffffffffffffffffffffffffff166108fc829081150290604051600060405180830381858888f193505050501580156114fa573d6000803e3d6000fd5b50600081346115099190612750565b9050600081111561155c573373ffffffffffffffffffffffffffffffffffffffff166108fc829081150290604051600060405180830381858888f1935050505015801561155a573d6000803e3d6000fd5b505b6009600081548092919061156f90612d3a565b91905055503373ffffffffffffffffffffffffffffffffffffffff167f56acb10c6ecae7e178ece5d22c2f0346efb606427ea6a15f96904d0ceec03d1d60095487426040516115c093929190612d82565b60405180910390a26040518060a001604052808681526020018581526020018581526020018481526020013373ffffffffffffffffffffffffffffffffffffffff168152506000806009548152602001908152602001600020600082015181600001908161162e919061295f565b5060208201518160010155604082015181600201556060820151816003015560808201518160040160006101000a81548173ffffffffffffffffffffffffffffffffffffffff021916908373ffffffffffffffffffffffffffffffffffffffff160217905550905050600760008060095481526020019081526020016000209080600181540180825580915050600190039060005260206000209060050201600090919091909150600082018160000190816116ea9190612dd6565b506001820154816001015560028201548160020155600382015481600301556004820160009054906101000a900473ffffffffffffffffffffffffffffffffffffffff168160040160006101000a81548173ffffffffffffffffffffffffffffffffffffffff021916908373ffffffffffffffffffffffffffffffffffffffff16021790555050505050505050565b6006818154811061178957600080fd5b906000526020600020016000915054906101000a900473ffffffffffffffffffffffffffffffffffffffff1681565b60606007805480602002602001604051908101604052809291908181526020016000905b8282101561191457838290600052602060002090600502016040518060a001604052908160008201805461180f90612446565b80601f016020809104026020016040519081016040528092919081815260200182805461183b90612446565b80156118885780601f1061185d57610100808354040283529160200191611888565b820191906000526020600020905b81548152906001019060200180831161186b57829003601f168201915b505050505081526020016001820154815260200160028201548152602001600382015481526020016004820160009054906101000a900473ffffffffffffffffffffffffffffffffffffffff1673ffffffffffffffffffffffffffffffffffffffff1673ffffffffffffffffffffffffffffffffffffffff1681525050815260200190600101906117dc565b50505050905090565b6003602052806000526040600020600091509050805461193c90612446565b80601f016020809104026020016040519081016040528092919081815260200182805461196890612446565b80156119b55780601f1061198a576101008083540402835291602001916119b5565b820191906000526020600020905b81548152906001019060200180831161199857829003601f168201915b505050505081565b6000604051905090565b600080fd5b600080fd5b600073ffffffffffffffffffffffffffffffffffffffff82169050919050565b60006119fc826119d1565b9050919050565b611a0c816119f1565b8114611a1757600080fd5b50565b600081359050611a2981611a03565b92915050565b600060208284031215611a4557611a446119c7565b5b6000611a5384828501611a1a565b91505092915050565b60008115159050919050565b611a7181611a5c565b82525050565b6000602082019050611a8c6000830184611a68565b92915050565b6000819050919050565b611aa581611a92565b8114611ab057600080fd5b50565b600081359050611ac281611a9c565b92915050565b600060208284031215611ade57611add6119c7565b5b6000611aec84828501611ab3565b91505092915050565b600081519050919050565b600082825260208201905092915050565b60005b83811015611b2f578082015181840152602081019050611b14565b60008484015250505050565b6000601f19601f8301169050919050565b6000611b5782611af5565b611b618185611b00565b9350611b71818560208601611b11565b611b7a81611b3b565b840191505092915050565b611b8e81611a92565b82525050565b6000611b9f826119d1565b9050919050565b611baf81611b94565b82525050565b600060a0820190508181036000830152611bcf8188611b4c565b9050611bde6020830187611b85565b611beb6040830186611b85565b611bf86060830185611b85565b611c056080830184611ba6565b9695505050505050565b60006020820190508181036000830152611c298184611b4c565b905092915050565b600081519050919050565b600082825260208201905092915050565b6000819050602082019050919050565b611c66816119f1565b82525050565b6000611c788383611c5d565b60208301905092915050565b6000602082019050919050565b6000611c9c82611c31565b611ca68185611c3c565b9350611cb183611c4d565b8060005b83811015611ce2578151611cc98882611c6c565b9750611cd483611c84565b925050600181019050611cb5565b5085935050505092915050565b60006020820190508181036000830152611d098184611c91565b905092915050565b60008060408385031215611d2857611d276119c7565b5b6000611d3685828601611ab3565b9250506020611d4785828601611ab3565b9150509250929050565b60008060408385031215611d6857611d676119c7565b5b6000611d7685828601611a1a565b9250506020611d8785828601611ab3565b9150509250929050565b6000602082019050611da66000830184611b85565b92915050565b600081519050919050565b600082825260208201905092915050565b6000819050602082019050919050565b600082825260208201905092915050565b6000611df482611af5565b611dfe8185611dd8565b9350611e0e818560208601611b11565b611e1781611b3b565b840191505092915050565b611e2b81611a92565b82525050565b6000608083016000830151611e496000860182611c5d565b5060208301518482036020860152611e618282611de9565b9150506040830151611e766040860182611e22565b506060830151611e896060860182611e22565b508091505092915050565b6000611ea08383611e31565b905092915050565b6000602082019050919050565b6000611ec082611dac565b611eca8185611db7565b935083602082028501611edc85611dc8565b8060005b85811015611f185784840389528151611ef98582611e94565b9450611f0483611ea8565b925060208a01995050600181019050611ee0565b50829750879550505050505092915050565b60006020820190508181036000830152611f448184611eb5565b905092915050565b600080fd5b600080fd5b7f4e487b7100000000000000000000000000000000000000000000000000000000600052604160045260246000fd5b611f8e82611b3b565b810181811067ffffffffffffffff82111715611fad57611fac611f56565b5b80604052505050565b6000611fc06119bd565b9050611fcc8282611f85565b919050565b600067ffffffffffffffff821115611fec57611feb611f56565b5b611ff582611b3b565b9050602081019050919050565b82818337600083830152505050565b600061202461201f84611fd1565b611fb6565b9050828152602081018484840111156120405761203f611f51565b5b61204b848285612002565b509392505050565b600082601f83011261206857612067611f4c565b5b8135612078848260208601612011565b91505092915050565b600060208284031215612097576120966119c7565b5b600082013567ffffffffffffffff8111156120b5576120b46119cc565b5b6120c184828501612053565b91505092915050565b600081519050919050565b600082825260208201905092915050565b6000819050602082019050919050565b60006121028383611de9565b905092915050565b6000602082019050919050565b6000612122826120ca565b61212c81856120d5565b93508360208202850161213e856120e6565b8060005b8581101561217a578484038952815161215b85826120f6565b94506121668361210a565b925060208a01995050600181019050612142565b50829750879550505050505092915050565b600060208201905081810360008301526121a68184612117565b905092915050565b6121b7816119f1565b82525050565b60006080820190506121d260008301876121ae565b81810360208301526121e48186611b4c565b90506121f36040830185611b85565b6122006060830184611b85565b95945050505050565b600060208201905061221e6000830184611ba6565b92915050565b60008060006060848603121561223d5761223c6119c7565b5b600084013567ffffffffffffffff81111561225b5761225a6119cc565b5b61226786828701612053565b935050602061227886828701611ab3565b925050604061228986828701611ab3565b9150509250925092565b60006020820190506122a860008301846121ae565b92915050565b600081519050919050565b600082825260208201905092915050565b6000819050602082019050919050565b6122e381611b94565b82525050565b600060a08301600083015184820360008601526123068282611de9565b915050602083015161231b6020860182611e22565b50604083015161232e6040860182611e22565b5060608301516123416060860182611e22565b50608083015161235460808601826122da565b508091505092915050565b600061236b83836122e9565b905092915050565b6000602082019050919050565b600061238b826122ae565b61239581856122b9565b9350836020820285016123a7856122ca565b8060005b858110156123e357848403895281516123c4858261235f565b94506123cf83612373565b925060208a019950506001810190506123ab565b50829750879550505050505092915050565b6000602082019050818103600083015261240f8184612380565b905092915050565b7f4e487b7100000000000000000000000000000000000000000000000000000000600052602260045260246000fd5b6000600282049050600182168061245e57607f821691505b60208210810361247157612470612417565b5b50919050565b7f4f6e6c79206f776e65722063616e207669657720616c6c206f7267616e697a6560008201527f7273000000000000000000000000000000000000000000000000000000000000602082015250565b60006124d3602283611b00565b91506124de82612477565b604082019050919050565b60006020820190508181036000830152612502816124c6565b9050919050565b7f4576656e7420646f6573206e6f74206578697374000000000000000000000000600082015250565b600061253f601483611b00565b915061254a82612509565b602082019050919050565b6000602082019050818103600083015261256e81612532565b9050919050565b7f4e6f7420656e6f756768207469636b657473206c656674000000000000000000600082015250565b60006125ab601783611b00565b91506125b682612575565b602082019050919050565b600060208201905081810360008301526125da8161259e565b9050919050565b7f4f7267616e697a65722063616e6e6f7420627579207469636b65747320666f7260008201527f207468656972206f776e206576656e7400000000000000000000000000000000602082015250565b600061263d603083611b00565b9150612648826125e1565b604082019050919050565b6000602082019050818103600083015261266c81612630565b9050919050565b7f4e487b7100000000000000000000000000000000000000000000000000000000600052601160045260246000fd5b60006126ad82611a92565b91506126b883611a92565b92508282026126c681611a92565b915082820484148315176126dd576126dc612673565b5b5092915050565b7f4e6f7420656e6f7567682065746865722073656e740000000000000000000000600082015250565b600061271a601583611b00565b9150612725826126e4565b602082019050919050565b600060208201905081810360008301526127498161270d565b9050919050565b600061275b82611a92565b915061276683611a92565b925082820390508181111561277e5761277d612673565b5b92915050565b7f4e487b7100000000000000000000000000000000000000000000000000000000600052603260045260246000fd5b60008190508160005260206000209050919050565b60006020601f8301049050919050565b600082821b905092915050565b6000600883026128157fffffffffffffffffffffffffffffffffffffffffffffffffffffffffffffffff826127d8565b61281f86836127d8565b95508019841693508086168417925050509392505050565b6000819050919050565b600061285c61285761285284611a92565b612837565b611a92565b9050919050565b6000819050919050565b61287683612841565b61288a61288282612863565b8484546127e5565b825550505050565b600090565b61289f612892565b6128aa81848461286d565b505050565b5b818110156128ce576128c3600082612897565b6001810190506128b0565b5050565b601f821115612913576128e4816127b3565b6128ed846127c8565b810160208510156128fc578190505b612910612908856127c8565b8301826128af565b50505b505050565b600082821c905092915050565b600061293660001984600802612918565b1980831691505092915050565b600061294f8383612925565b9150826002028217905092915050565b61296882611af5565b67ffffffffffffffff81111561298157612980611f56565b5b61298b8254612446565b6129968282856128d2565b600060209050601f8311600181146129c957600084156129b7578287015190505b6129c18582612943565b865550612a29565b601f1984166129d7866127b3565b60005b828110156129ff578489015182556001820191506020850194506020810190506129da565b86831015612a1c5784890151612a18601f891682612925565b8355505b6001600288020188555050505b505050505050565b6000606082019050612a466000830186611b85565b612a536020830185611b85565b612a606040830184611b85565b949350505050565b7f4349442063616e6e6f7420626520656d70747900000000000000000000000000600082015250565b6000612a9e601383611b00565b9150612aa982612a68565b602082019050919050565b60006020820190508181036000830152612acd81612a91565b9050919050565b60006040820190508181036000830152612aee8185611b4c565b9050612afd6020830184611b85565b9392505050565b7f4576656e74204349442073686f756c64206e6f7420626520656d707479000000600082015250565b6000612b3a601d83611b00565b9150612b4582612b04565b602082019050919050565b60006020820190508181036000830152612b6981612b2d565b9050919050565b7f4f6e6c79206f7267616e697a65722063616e20637265617465206576656e7400600082015250565b6000612ba6601f83611b00565b9150612bb182612b70565b602082019050919050565b60006020820190508181036000830152612bd581612b99565b9050919050565b7f546f74616c207469636b6574732073686f756c6420626520677265617465722060008201527f7468616e20300000000000000000000000000000000000000000000000000000602082015250565b6000612c38602683611b00565b9150612c4382612bdc565b604082019050919050565b60006020820190508181036000830152612c6781612c2b565b9050919050565b7f4f776e65722063616e6e6f7420637265617465206576656e7400000000000000600082015250565b6000612ca4601983611b00565b9150612caf82612c6e565b602082019050919050565b60006020820190508181036000830152612cd381612c97565b9050919050565b7f4e487b7100000000000000000000000000000000000000000000000000000000600052601260045260246000fd5b6000612d1482611a92565b9150612d1f83611a92565b925082612d2f57612d2e612cda565b5b828204905092915050565b6000612d4582611a92565b91507fffffffffffffffffffffffffffffffffffffffffffffffffffffffffffffffff8203612d7757612d76612673565b5b600182019050919050565b6000606082019050612d976000830186611b85565b8181036020830152612da98185611b4c565b9050612db86040830184611b85565b949350505050565b600081549050612dcf81612446565b9050919050565b818103612de4575050612ebc565b612ded82612dc0565b67ffffffffffffffff811115612e0657612e05611f56565b5b612e108254612446565b612e1b8282856128d2565b6000601f831160018114612e4a5760008415612e38578287015490505b612e428582612943565b865550612eb5565b601f198416612e58876127b3565b9650612e63866127b3565b60005b82811015612e8b57848901548255600182019150600185019450602081019050612e66565b86831015612ea85784890154612ea4601f891682612925565b8355505b6001600288020188555050505b5050505050505b56fea2646970667358221220344fdd82f7834d616d8ddf14983b1ae996fca53f997bc06f69c748f61acd50ee64736f6c63430008130033",
  "linkReferences": {},
  "deployedLinkReferences": {}
}