{
  "_format": "hh-sol-artifact-1",
  "contractName": "Tickets",
  "sourceName": "contracts/Tickets.sol",
  "abi": [
    {
      "anonymous": false,
      "inputs": [
        {
          "indexed": true,
          "internalType": "uint256",
          "name": "eventId",
          "type": "uint256"
        }
      ],
      "name": "EventCreated",
      "type": "event"
    },
    {
      "anonymous": false,
      "inputs": [
        {
          "indexed": true,
          "internalType": "address",
          "name": "organizerAddress",
          "type": "address"
        },
        {
          "indexed": true,
          "internalType": "string",
          "name": "CID",
          "type": "string"
        }
      ],
      "name": "OrganizerRegistered",
      "type": "event"
    },
    {
      "anonymous": false,
      "inputs": [
        {
          "indexed": true,
          "internalType": "uint256",
          "name": "eventId",
          "type": "uint256"
        },
        {
          "indexed": true,
          "internalType": "address",
          "name": "buyer",
          "type": "address"
        }
      ],
      "name": "TicketPurchased",
      "type": "event"
    },
    {
      "anonymous": false,
      "inputs": [
        {
          "indexed": true,
          "internalType": "address",
          "name": "userAddress",
          "type": "address"
        },
        {
          "indexed": true,
          "internalType": "string",
          "name": "CID",
          "type": "string"
        }
      ],
      "name": "UserRegistered",
      "type": "event"
    },
    {
      "inputs": [
        {
          "internalType": "uint256",
          "name": "_eventId",
          "type": "uint256"
        },
        {
          "internalType": "uint256",
          "name": "_totalAmount",
          "type": "uint256"
        },
        {
          "internalType": "uint256",
          "name": "_totalTickets",
          "type": "uint256"
        }
      ],
      "name": "buyTicket",
      "outputs": [],
      "stateMutability": "payable",
      "type": "function"
    },
    {
      "inputs": [
        {
          "internalType": "string",
          "name": "_eventCid",
          "type": "string"
        },
        {
          "internalType": "uint256",
          "name": "_totalTickets",
          "type": "uint256"
        },
        {
          "internalType": "uint256",
          "name": "_price",
          "type": "uint256"
        },
        {
          "internalType": "string",
          "name": "_eventImageCid",
          "type": "string"
        }
      ],
      "name": "createEvent",
      "outputs": [],
      "stateMutability": "payable",
      "type": "function"
    },
    {
      "inputs": [
        {
          "internalType": "uint256",
          "name": "",
          "type": "uint256"
        }
      ],
      "name": "events",
      "outputs": [
        {
          "internalType": "string",
          "name": "eventCID",
          "type": "string"
        },
        {
          "internalType": "uint256",
          "name": "totalTickets",
          "type": "uint256"
        },
        {
          "internalType": "uint256",
          "name": "remTickets",
          "type": "uint256"
        },
        {
          "internalType": "uint256",
          "name": "price",
          "type": "uint256"
        },
        {
          "internalType": "address payable",
          "name": "creator",
          "type": "address"
        },
        {
          "internalType": "string",
          "name": "eventImageCID",
          "type": "string"
        }
      ],
      "stateMutability": "view",
      "type": "function"
    },
    {
      "inputs": [],
      "name": "getAllEvents",
      "outputs": [
        {
          "components": [
            {
              "internalType": "string",
              "name": "eventCID",
              "type": "string"
            },
            {
              "internalType": "uint256",
              "name": "totalTickets",
              "type": "uint256"
            },
            {
              "internalType": "uint256",
              "name": "remTickets",
              "type": "uint256"
            },
            {
              "internalType": "uint256",
              "name": "price",
              "type": "uint256"
            },
            {
              "internalType": "address payable",
              "name": "creator",
              "type": "address"
            },
            {
              "internalType": "string",
              "name": "eventImageCID",
              "type": "string"
            }
          ],
          "internalType": "struct Tickets.Event[]",
          "name": "",
          "type": "tuple[]"
        }
      ],
      "stateMutability": "view",
      "type": "function"
    },
    {
      "inputs": [
        {
          "internalType": "uint256",
          "name": "_eventId",
          "type": "uint256"
        }
      ],
      "name": "getIpfsCID",
      "outputs": [
        {
          "internalType": "string",
          "name": "",
          "type": "string"
        }
      ],
      "stateMutability": "view",
      "type": "function"
    },
    {
      "inputs": [
        {
          "internalType": "address",
          "name": "_organizerAddress",
          "type": "address"
        }
      ],
      "name": "getOrganizerCID",
      "outputs": [
        {
          "internalType": "string",
          "name": "",
          "type": "string"
        }
      ],
      "stateMutability": "view",
      "type": "function"
    },
    {
      "inputs": [
        {
          "internalType": "address",
          "name": "_userAddress",
          "type": "address"
        }
      ],
      "name": "getUserCID",
      "outputs": [
        {
          "internalType": "string",
          "name": "",
          "type": "string"
        }
      ],
      "stateMutability": "view",
      "type": "function"
    },
    {
      "inputs": [
        {
          "internalType": "address",
          "name": "_organizerAddress",
          "type": "address"
        }
      ],
      "name": "isOrganizers",
      "outputs": [
        {
          "internalType": "bool",
          "name": "",
          "type": "bool"
        }
      ],
      "stateMutability": "view",
      "type": "function"
    },
    {
      "inputs": [
        {
          "internalType": "address",
          "name": "_UserAddress",
          "type": "address"
        }
      ],
      "name": "isRegisteredUser",
      "outputs": [
        {
          "internalType": "bool",
          "name": "",
          "type": "bool"
        }
      ],
      "stateMutability": "view",
      "type": "function"
    },
    {
      "inputs": [
        {
          "internalType": "address",
          "name": "",
          "type": "address"
        }
      ],
      "name": "isUsers",
      "outputs": [
        {
          "internalType": "bool",
          "name": "",
          "type": "bool"
        }
      ],
      "stateMutability": "view",
      "type": "function"
    },
    {
      "inputs": [
        {
          "internalType": "address",
          "name": "",
          "type": "address"
        }
      ],
      "name": "organizerCID",
      "outputs": [
        {
          "internalType": "string",
          "name": "",
          "type": "string"
        }
      ],
      "stateMutability": "view",
      "type": "function"
    },
    {
      "inputs": [
        {
          "internalType": "address",
          "name": "",
          "type": "address"
        }
      ],
      "name": "organizers",
      "outputs": [
        {
          "internalType": "bool",
          "name": "",
          "type": "bool"
        }
      ],
      "stateMutability": "view",
      "type": "function"
    },
    {
      "inputs": [],
      "name": "owner",
      "outputs": [
        {
          "internalType": "address payable",
          "name": "",
          "type": "address"
        }
      ],
      "stateMutability": "view",
      "type": "function"
    },
    {
      "inputs": [
        {
          "internalType": "string",
          "name": "_CID",
          "type": "string"
        }
      ],
      "name": "registerEventOrganizer",
      "outputs": [],
      "stateMutability": "nonpayable",
      "type": "function"
    },
    {
      "inputs": [
        {
          "internalType": "string",
          "name": "_CID",
          "type": "string"
        }
      ],
      "name": "registerUser",
      "outputs": [],
      "stateMutability": "nonpayable",
      "type": "function"
    },
    {
      "inputs": [
        {
          "internalType": "address",
          "name": "",
          "type": "address"
        },
        {
          "internalType": "uint256",
          "name": "",
          "type": "uint256"
        }
      ],
      "name": "ticketHolders",
      "outputs": [
        {
          "internalType": "address",
          "name": "userAddress",
          "type": "address"
        },
        {
          "internalType": "string",
          "name": "eventName",
          "type": "string"
        },
        {
          "internalType": "uint256",
          "name": "eventId",
          "type": "uint256"
        },
        {
          "internalType": "uint256",
          "name": "ticketsOwned",
          "type": "uint256"
        }
      ],
      "stateMutability": "view",
      "type": "function"
    },
    {
      "inputs": [
        {
          "internalType": "address",
          "name": "",
          "type": "address"
        }
      ],
      "name": "userCID",
      "outputs": [
        {
          "internalType": "string",
          "name": "",
          "type": "string"
        }
      ],
      "stateMutability": "view",
      "type": "function"
    }
  ],
  "bytecode": "0x608060405234801561001057600080fd5b50336000806101000a81548173ffffffffffffffffffffffffffffffffffffffff021916908373ffffffffffffffffffffffffffffffffffffffff160217905550612f68806100606000396000f3fe6080604052600436106100fe5760003560e01c8063704f1b9411610095578063c27a500d11610064578063c27a500d146103ad578063c4c6710d146103d8578063e4d7c830146103f4578063f3ef0d8814610431578063fb894fa21461044d576100fe565b8063704f1b94146102dc57806382615569146103055780638da5cb5b14610345578063a5240e4914610370576100fe565b806320e24413116100d157806320e24413146101fc578063296c0c071461023957806363d3b019146102765780636e389f901461029f576100fe565b8063038a03c4146101035780630544c5b9146101405780630b7914301461017d5780631f5bdf5d146101bf575b600080fd5b34801561010f57600080fd5b5061012a60048036038101906101259190611d50565b61048a565b6040516101379190611e0d565b60405180910390f35b34801561014c57600080fd5b5061016760048036038101906101629190611e8d565b61060f565b6040516101749190611ed5565b60405180910390f35b34801561018957600080fd5b506101a4600480360381019061019f9190611d50565b61062f565b6040516101b696959493929190611f20565b60405180910390f35b3480156101cb57600080fd5b506101e660048036038101906101e19190611e8d565b61079b565b6040516101f39190611ed5565b60405180910390f35b34801561020857600080fd5b50610223600480360381019061021e9190611e8d565b6107f1565b6040516102309190611e0d565b60405180910390f35b34801561024557600080fd5b50610260600480360381019061025b9190611e8d565b610a88565b60405161026d9190611ed5565b60405180910390f35b34801561028257600080fd5b5061029d600480360381019061029891906120c4565b610aa8565b005b3480156102ab57600080fd5b506102c660048036038101906102c19190611e8d565b610bed565b6040516102d39190611ed5565b60405180910390f35b3480156102e857600080fd5b5061030360048036038101906102fe91906120c4565b610c43565b005b34801561031157600080fd5b5061032c6004803603810190610327919061210d565b610d88565b60405161033c949392919061215c565b60405180910390f35b34801561035157600080fd5b5061035a610e7d565b60405161036791906121a8565b60405180910390f35b34801561037c57600080fd5b5061039760048036038101906103929190611e8d565b610ea1565b6040516103a49190611e0d565b60405180910390f35b3480156103b957600080fd5b506103c2610f41565b6040516103cf919061237d565b60405180910390f35b6103f260048036038101906103ed919061239f565b611234565b005b34801561040057600080fd5b5061041b60048036038101906104169190611e8d565b61164a565b6040516104289190611e0d565b60405180910390f35b61044b600480360381019061044691906123f2565b61184e565b005b34801561045957600080fd5b50610474600480360381019061046f9190611e8d565b611c1a565b6040516104819190611e0d565b60405180910390f35b6060600260003373ffffffffffffffffffffffffffffffffffffffff1673ffffffffffffffffffffffffffffffffffffffff16815260200190815260200160002060009054906101000a900460ff16610518576040517f08c379a000000000000000000000000000000000000000000000000000000000815260040161050f90612503565b60405180910390fd5b60008211801561052a57506007548211155b610569576040517f08c379a00000000000000000000000000000000000000000000000000000000081526004016105609061256f565b60405180910390fd5b60056000838152602001908152602001600020600001805461058a906125be565b80601f01602080910402602001604051908101604052809291908181526020018280546105b6906125be565b80156106035780601f106105d857610100808354040283529160200191610603565b820191906000526020600020905b8154815290600101906020018083116105e657829003601f168201915b50505050509050919050565b60046020528060005260406000206000915054906101000a900460ff1681565b6005602052806000526040600020600091509050806000018054610652906125be565b80601f016020809104026020016040519081016040528092919081815260200182805461067e906125be565b80156106cb5780601f106106a0576101008083540402835291602001916106cb565b820191906000526020600020905b8154815290600101906020018083116106ae57829003601f168201915b5050505050908060010154908060020154908060030154908060040160009054906101000a900473ffffffffffffffffffffffffffffffffffffffff1690806005018054610718906125be565b80601f0160208091040260200160405190810160405280929190818152602001828054610744906125be565b80156107915780601f1061076657610100808354040283529160200191610791565b820191906000526020600020905b81548152906001019060200180831161077457829003601f168201915b5050505050905086565b6000600260008373ffffffffffffffffffffffffffffffffffffffff1673ffffffffffffffffffffffffffffffffffffffff16815260200190815260200160002060009054906101000a900460ff169050919050565b606060011515600460003373ffffffffffffffffffffffffffffffffffffffff1673ffffffffffffffffffffffffffffffffffffffff16815260200190815260200160002060009054906101000a900460ff16151514610886576040517f08c379a000000000000000000000000000000000000000000000000000000000815260040161087d90612661565b60405180910390fd5b600073ffffffffffffffffffffffffffffffffffffffff168273ffffffffffffffffffffffffffffffffffffffff16036108f5576040517f08c379a00000000000000000000000000000000000000000000000000000000081526004016108ec906126cd565b60405180910390fd5b60008054906101000a900473ffffffffffffffffffffffffffffffffffffffff1673ffffffffffffffffffffffffffffffffffffffff163373ffffffffffffffffffffffffffffffffffffffff16148061097a57508173ffffffffffffffffffffffffffffffffffffffff163373ffffffffffffffffffffffffffffffffffffffff16145b6109b9576040517f08c379a00000000000000000000000000000000000000000000000000000000081526004016109b09061275f565b60405180910390fd5b600360008373ffffffffffffffffffffffffffffffffffffffff1673ffffffffffffffffffffffffffffffffffffffff1681526020019081526020016000208054610a03906125be565b80601f0160208091040260200160405190810160405280929190818152602001828054610a2f906125be565b8015610a7c5780601f10610a5157610100808354040283529160200191610a7c565b820191906000526020600020905b815481529060010190602001808311610a5f57829003601f168201915b50505050509050919050565b60026020528060005260406000206000915054906101000a900460ff1681565b6000815111610aec576040517f08c379a0000000000000000000000000000000000000000000000000000000008152600401610ae3906127cb565b60405180910390fd5b80600360003373ffffffffffffffffffffffffffffffffffffffff1673ffffffffffffffffffffffffffffffffffffffff1681526020019081526020016000209081610b389190612997565b506001600460003373ffffffffffffffffffffffffffffffffffffffff1673ffffffffffffffffffffffffffffffffffffffff16815260200190815260200160002060006101000a81548160ff02191690831515021790555080604051610b9f9190612aa5565b60405180910390203373ffffffffffffffffffffffffffffffffffffffff167fac35be65b927c19690056f54322574255afb94436fc8b4637810cfcc1fb3daae60405160405180910390a350565b6000600460008373ffffffffffffffffffffffffffffffffffffffff1673ffffffffffffffffffffffffffffffffffffffff16815260200190815260200160002060009054906101000a900460ff169050919050565b6000815111610c87576040517f08c379a0000000000000000000000000000000000000000000000000000000008152600401610c7e906127cb565b60405180910390fd5b80600160003373ffffffffffffffffffffffffffffffffffffffff1673ffffffffffffffffffffffffffffffffffffffff1681526020019081526020016000209081610cd39190612997565b506001600260003373ffffffffffffffffffffffffffffffffffffffff1673ffffffffffffffffffffffffffffffffffffffff16815260200190815260200160002060006101000a81548160ff02191690831515021790555080604051610d3a9190612aa5565b60405180910390203373ffffffffffffffffffffffffffffffffffffffff167f48cac28ad4dc618e15f4c2dd5e97751182f166de97b25618318b2112aa951a2f60405160405180910390a350565b60066020528160005260406000208181548110610da457600080fd5b9060005260206000209060040201600091509150508060000160009054906101000a900473ffffffffffffffffffffffffffffffffffffffff1690806001018054610dee906125be565b80601f0160208091040260200160405190810160405280929190818152602001828054610e1a906125be565b8015610e675780601f10610e3c57610100808354040283529160200191610e67565b820191906000526020600020905b815481529060010190602001808311610e4a57829003601f168201915b5050505050908060020154908060030154905084565b60008054906101000a900473ffffffffffffffffffffffffffffffffffffffff1681565b60016020528060005260406000206000915090508054610ec0906125be565b80601f0160208091040260200160405190810160405280929190818152602001828054610eec906125be565b8015610f395780601f10610f0e57610100808354040283529160200191610f39565b820191906000526020600020905b815481529060010190602001808311610f1c57829003601f168201915b505050505081565b6060600260003373ffffffffffffffffffffffffffffffffffffffff1673ffffffffffffffffffffffffffffffffffffffff16815260200190815260200160002060009054906101000a900460ff16610fcf576040517f08c379a0000000000000000000000000000000000000000000000000000000008152600401610fc690612503565b60405180910390fd5b600060075467ffffffffffffffff811115610fed57610fec611f99565b5b60405190808252806020026020018201604052801561102657816020015b611013611cba565b81526020019060019003908161100b5790505b5090506000600190505b600754811161122c57600560008281526020019081526020016000206040518060c0016040529081600082018054611067906125be565b80601f0160208091040260200160405190810160405280929190818152602001828054611093906125be565b80156110e05780601f106110b5576101008083540402835291602001916110e0565b820191906000526020600020905b8154815290600101906020018083116110c357829003601f168201915b505050505081526020016001820154815260200160028201548152602001600382015481526020016004820160009054906101000a900473ffffffffffffffffffffffffffffffffffffffff1673ffffffffffffffffffffffffffffffffffffffff1673ffffffffffffffffffffffffffffffffffffffff16815260200160058201805461116d906125be565b80601f0160208091040260200160405190810160405280929190818152602001828054611199906125be565b80156111e65780601f106111bb576101008083540402835291602001916111e6565b820191906000526020600020905b8154815290600101906020018083116111c957829003601f168201915b505050505081525050826001836111fd9190612aeb565b8151811061120e5761120d612b1f565b5b6020026020010181905250808061122490612b4e565b915050611030565b508091505090565b600260003373ffffffffffffffffffffffffffffffffffffffff1673ffffffffffffffffffffffffffffffffffffffff16815260200190815260200160002060009054906101000a900460ff166112c0576040517f08c379a00000000000000000000000000000000000000000000000000000000081526004016112b790612503565b60405180910390fd5b600754831115611305576040517f08c379a00000000000000000000000000000000000000000000000000000000081526004016112fc9061256f565b60405180910390fd5b60008211611348576040517f08c379a000000000000000000000000000000000000000000000000000000000815260040161133f90612c08565b60405180910390fd5b80600560008581526020019081526020016000206002015410156113a1576040517f08c379a000000000000000000000000000000000000000000000000000000000815260040161139890612c74565b60405180910390fd5b6005600084815260200190815260200160002060040160009054906101000a900473ffffffffffffffffffffffffffffffffffffffff1673ffffffffffffffffffffffffffffffffffffffff166108fc839081150290604051600060405180830381858888f1935050505015801561141d573d6000803e3d6000fd5b50816005600085815260200190815260200160002060020160008282546114449190612aeb565b925050819055506000600660003373ffffffffffffffffffffffffffffffffffffffff1673ffffffffffffffffffffffffffffffffffffffff16815260200190815260200160002090508060405180608001604052803373ffffffffffffffffffffffffffffffffffffffff1681526020016005600088815260200190815260200160002060000180546114d7906125be565b80601f0160208091040260200160405190810160405280929190818152602001828054611503906125be565b80156115505780601f1061152557610100808354040283529160200191611550565b820191906000526020600020905b81548152906001019060200180831161153357829003601f168201915b5050505050815260200186815260200184815250908060018154018082558091505060019003906000526020600020906004020160009091909190915060008201518160000160006101000a81548173ffffffffffffffffffffffffffffffffffffffff021916908373ffffffffffffffffffffffffffffffffffffffff16021790555060208201518160010190816115e99190612997565b50604082015181600201556060820151816003015550503373ffffffffffffffffffffffffffffffffffffffff16847f785f2865353ae960010300f584fc6c577b757a853af69a99c769df3c8232d3de60405160405180910390a350505050565b6060600073ffffffffffffffffffffffffffffffffffffffff168273ffffffffffffffffffffffffffffffffffffffff16036116bb576040517f08c379a00000000000000000000000000000000000000000000000000000000081526004016116b2906126cd565b60405180910390fd5b60008054906101000a900473ffffffffffffffffffffffffffffffffffffffff1673ffffffffffffffffffffffffffffffffffffffff163373ffffffffffffffffffffffffffffffffffffffff16148061174057508173ffffffffffffffffffffffffffffffffffffffff163373ffffffffffffffffffffffffffffffffffffffff16145b61177f576040517f08c379a000000000000000000000000000000000000000000000000000000000815260040161177690612d06565b60405180910390fd5b600160008373ffffffffffffffffffffffffffffffffffffffff1673ffffffffffffffffffffffffffffffffffffffff16815260200190815260200160002080546117c9906125be565b80601f01602080910402602001604051908101604052809291908181526020018280546117f5906125be565b80156118425780601f1061181757610100808354040283529160200191611842565b820191906000526020600020905b81548152906001019060200180831161182557829003601f168201915b50505050509050919050565b60011515600460003373ffffffffffffffffffffffffffffffffffffffff1673ffffffffffffffffffffffffffffffffffffffff16815260200190815260200160002060009054906101000a900460ff161515146118e1576040517f08c379a00000000000000000000000000000000000000000000000000000000081526004016118d890612661565b60405180910390fd5b6000845111611925576040517f08c379a000000000000000000000000000000000000000000000000000000000815260040161191c90612d72565b60405180910390fd5b6000815111611969576040517f08c379a000000000000000000000000000000000000000000000000000000000815260040161196090612e04565b60405180910390fd5b600083116119ac576040517f08c379a00000000000000000000000000000000000000000000000000000000081526004016119a390612c08565b60405180910390fd5b60006064600385856119be9190612e24565b6119c89190612e24565b6119d29190612e95565b905080341015611a17576040517f08c379a0000000000000000000000000000000000000000000000000000000008152600401611a0e90612f12565b60405180910390fd5b60008134611a259190612aeb565b90506000811115611a78573373ffffffffffffffffffffffffffffffffffffffff166108fc829081150290604051600060405180830381858888f19350505050158015611a76573d6000803e3d6000fd5b505b60008054906101000a900473ffffffffffffffffffffffffffffffffffffffff1673ffffffffffffffffffffffffffffffffffffffff166108fc839081150290604051600060405180830381858888f19350505050158015611ade573d6000803e3d6000fd5b5060076000815480929190611af290612b4e565b91905055506007547f748ff5cfd7b66bdd8e21581c2a864756fe7085378c0003183e579bfafba2832560405160405180910390a26040518060c001604052808781526020018681526020018681526020018581526020013373ffffffffffffffffffffffffffffffffffffffff168152602001848152506005600060075481526020019081526020016000206000820151816000019081611b939190612997565b5060208201518160010155604082015181600201556060820151816003015560808201518160040160006101000a81548173ffffffffffffffffffffffffffffffffffffffff021916908373ffffffffffffffffffffffffffffffffffffffff16021790555060a0820151816005019081611c0e9190612997565b50905050505050505050565b60036020528060005260406000206000915090508054611c39906125be565b80601f0160208091040260200160405190810160405280929190818152602001828054611c65906125be565b8015611cb25780601f10611c8757610100808354040283529160200191611cb2565b820191906000526020600020905b815481529060010190602001808311611c9557829003601f168201915b505050505081565b6040518060c0016040528060608152602001600081526020016000815260200160008152602001600073ffffffffffffffffffffffffffffffffffffffff168152602001606081525090565b6000604051905090565b600080fd5b600080fd5b6000819050919050565b611d2d81611d1a565b8114611d3857600080fd5b50565b600081359050611d4a81611d24565b92915050565b600060208284031215611d6657611d65611d10565b5b6000611d7484828501611d3b565b91505092915050565b600081519050919050565b600082825260208201905092915050565b60005b83811015611db7578082015181840152602081019050611d9c565b60008484015250505050565b6000601f19601f8301169050919050565b6000611ddf82611d7d565b611de98185611d88565b9350611df9818560208601611d99565b611e0281611dc3565b840191505092915050565b60006020820190508181036000830152611e278184611dd4565b905092915050565b600073ffffffffffffffffffffffffffffffffffffffff82169050919050565b6000611e5a82611e2f565b9050919050565b611e6a81611e4f565b8114611e7557600080fd5b50565b600081359050611e8781611e61565b92915050565b600060208284031215611ea357611ea2611d10565b5b6000611eb184828501611e78565b91505092915050565b60008115159050919050565b611ecf81611eba565b82525050565b6000602082019050611eea6000830184611ec6565b92915050565b611ef981611d1a565b82525050565b6000611f0a82611e2f565b9050919050565b611f1a81611eff565b82525050565b600060c0820190508181036000830152611f3a8189611dd4565b9050611f496020830188611ef0565b611f566040830187611ef0565b611f636060830186611ef0565b611f706080830185611f11565b81810360a0830152611f828184611dd4565b9050979650505050505050565b600080fd5b600080fd5b7f4e487b7100000000000000000000000000000000000000000000000000000000600052604160045260246000fd5b611fd182611dc3565b810181811067ffffffffffffffff82111715611ff057611fef611f99565b5b80604052505050565b6000612003611d06565b905061200f8282611fc8565b919050565b600067ffffffffffffffff82111561202f5761202e611f99565b5b61203882611dc3565b9050602081019050919050565b82818337600083830152505050565b600061206761206284612014565b611ff9565b90508281526020810184848401111561208357612082611f94565b5b61208e848285612045565b509392505050565b600082601f8301126120ab576120aa611f8f565b5b81356120bb848260208601612054565b91505092915050565b6000602082840312156120da576120d9611d10565b5b600082013567ffffffffffffffff8111156120f8576120f7611d15565b5b61210484828501612096565b91505092915050565b6000806040838503121561212457612123611d10565b5b600061213285828601611e78565b925050602061214385828601611d3b565b9150509250929050565b61215681611e4f565b82525050565b6000608082019050612171600083018761214d565b81810360208301526121838186611dd4565b90506121926040830185611ef0565b61219f6060830184611ef0565b95945050505050565b60006020820190506121bd6000830184611f11565b92915050565b600081519050919050565b600082825260208201905092915050565b6000819050602082019050919050565b600082825260208201905092915050565b600061220b82611d7d565b61221581856121ef565b9350612225818560208601611d99565b61222e81611dc3565b840191505092915050565b61224281611d1a565b82525050565b61225181611eff565b82525050565b600060c08301600083015184820360008601526122748282612200565b91505060208301516122896020860182612239565b50604083015161229c6040860182612239565b5060608301516122af6060860182612239565b5060808301516122c26080860182612248565b5060a083015184820360a08601526122da8282612200565b9150508091505092915050565b60006122f38383612257565b905092915050565b6000602082019050919050565b6000612313826121c3565b61231d81856121ce565b93508360208202850161232f856121df565b8060005b8581101561236b578484038952815161234c85826122e7565b9450612357836122fb565b925060208a01995050600181019050612333565b50829750879550505050505092915050565b600060208201905081810360008301526123978184612308565b905092915050565b6000806000606084860312156123b8576123b7611d10565b5b60006123c686828701611d3b565b93505060206123d786828701611d3b565b92505060406123e886828701611d3b565b9150509250925092565b6000806000806080858703121561240c5761240b611d10565b5b600085013567ffffffffffffffff81111561242a57612429611d15565b5b61243687828801612096565b945050602061244787828801611d3b565b935050604061245887828801611d3b565b925050606085013567ffffffffffffffff81111561247957612478611d15565b5b61248587828801612096565b91505092959194509250565b7f4f6e6c7920726567697374657265642075736572732063616e2063616c6c207460008201527f6869732066756e6374696f6e0000000000000000000000000000000000000000602082015250565b60006124ed602c83611d88565b91506124f882612491565b604082019050919050565b6000602082019050818103600083015261251c816124e0565b9050919050565b7f4576656e7420646f6573206e6f74206578697374000000000000000000000000600082015250565b6000612559601483611d88565b915061256482612523565b602082019050919050565b600060208201905081810360008301526125888161254c565b9050919050565b7f4e487b7100000000000000000000000000000000000000000000000000000000600052602260045260246000fd5b600060028204905060018216806125d657607f821691505b6020821081036125e9576125e861258f565b5b50919050565b7f4f6e6c792072656769737465726564206f7267616e697a6572732063616e206360008201527f616c6c20746869732066756e6374696f6e000000000000000000000000000000602082015250565b600061264b603183611d88565b9150612656826125ef565b604082019050919050565b6000602082019050818103600083015261267a8161263e565b9050919050565b7f496e76616c696420616464726573730000000000000000000000000000000000600082015250565b60006126b7600f83611d88565b91506126c282612681565b602082019050919050565b600060208201905081810360008301526126e6816126aa565b9050919050565b7f4f6e6c79206f776e6572206f72206f7267616e697a65722063616e2063616c6c60008201527f20746869732066756e6374696f6e000000000000000000000000000000000000602082015250565b6000612749602e83611d88565b9150612754826126ed565b604082019050919050565b600060208201905081810360008301526127788161273c565b9050919050565b7f4349442063616e6e6f7420626520656d70747900000000000000000000000000600082015250565b60006127b5601383611d88565b91506127c08261277f565b602082019050919050565b600060208201905081810360008301526127e4816127a8565b9050919050565b60008190508160005260206000209050919050565b60006020601f8301049050919050565b600082821b905092915050565b60006008830261284d7fffffffffffffffffffffffffffffffffffffffffffffffffffffffffffffffff82612810565b6128578683612810565b95508019841693508086168417925050509392505050565b6000819050919050565b600061289461288f61288a84611d1a565b61286f565b611d1a565b9050919050565b6000819050919050565b6128ae83612879565b6128c26128ba8261289b565b84845461281d565b825550505050565b600090565b6128d76128ca565b6128e28184846128a5565b505050565b5b81811015612906576128fb6000826128cf565b6001810190506128e8565b5050565b601f82111561294b5761291c816127eb565b61292584612800565b81016020851015612934578190505b61294861294085612800565b8301826128e7565b50505b505050565b600082821c905092915050565b600061296e60001984600802612950565b1980831691505092915050565b6000612987838361295d565b9150826002028217905092915050565b6129a082611d7d565b67ffffffffffffffff8111156129b9576129b8611f99565b5b6129c382546125be565b6129ce82828561290a565b600060209050601f831160018114612a0157600084156129ef578287015190505b6129f9858261297b565b865550612a61565b601f198416612a0f866127eb565b60005b82811015612a3757848901518255600182019150602085019450602081019050612a12565b86831015612a545784890151612a50601f89168261295d565b8355505b6001600288020188555050505b505050505050565b600081905092915050565b6000612a7f82611d7d565b612a898185612a69565b9350612a99818560208601611d99565b80840191505092915050565b6000612ab18284612a74565b915081905092915050565b7f4e487b7100000000000000000000000000000000000000000000000000000000600052601160045260246000fd5b6000612af682611d1a565b9150612b0183611d1a565b9250828203905081811115612b1957612b18612abc565b5b92915050565b7f4e487b7100000000000000000000000000000000000000000000000000000000600052603260045260246000fd5b6000612b5982611d1a565b91507fffffffffffffffffffffffffffffffffffffffffffffffffffffffffffffffff8203612b8b57612b8a612abc565b5b600182019050919050565b7f546f74616c207469636b6574732073686f756c6420626520677265617465722060008201527f7468616e20300000000000000000000000000000000000000000000000000000602082015250565b6000612bf2602683611d88565b9150612bfd82612b96565b604082019050919050565b60006020820190508181036000830152612c2181612be5565b9050919050565b7f4e6f7420656e6f756768207469636b657473206c656674000000000000000000600082015250565b6000612c5e601783611d88565b9150612c6982612c28565b602082019050919050565b60006020820190508181036000830152612c8d81612c51565b9050919050565b7f4f6e6c79206f776e6572206f7220757365722063616e2063616c6c207468697360008201527f2066756e6374696f6e0000000000000000000000000000000000000000000000602082015250565b6000612cf0602983611d88565b9150612cfb82612c94565b604082019050919050565b60006020820190508181036000830152612d1f81612ce3565b9050919050565b7f4576656e74204349442073686f756c64206e6f7420626520656d707479000000600082015250565b6000612d5c601d83611d88565b9150612d6782612d26565b602082019050919050565b60006020820190508181036000830152612d8b81612d4f565b9050919050565b7f4576656e7420496d616765204349442073686f756c64206e6f7420626520656d60008201527f7074790000000000000000000000000000000000000000000000000000000000602082015250565b6000612dee602383611d88565b9150612df982612d92565b604082019050919050565b60006020820190508181036000830152612e1d81612de1565b9050919050565b6000612e2f82611d1a565b9150612e3a83611d1a565b9250828202612e4881611d1a565b91508282048414831517612e5f57612e5e612abc565b5b5092915050565b7f4e487b7100000000000000000000000000000000000000000000000000000000600052601260045260246000fd5b6000612ea082611d1a565b9150612eab83611d1a565b925082612ebb57612eba612e66565b5b828204905092915050565b7f4e6f7420656e6f7567682065746865722073656e740000000000000000000000600082015250565b6000612efc601583611d88565b9150612f0782612ec6565b602082019050919050565b60006020820190508181036000830152612f2b81612eef565b905091905056fea2646970667358221220004793aac8475ce1b8bd88d4c30078cf63d8973d75ff626fa2da33cb4d9f432164736f6c63430008130033",
  "linkReferences": {},
  "deployedLinkReferences": {}
}