{
  "_format": "hh-sol-artifact-1",
  "contractName": "Tickets",
  "sourceName": "contracts/Tickets.sol",
  "abi": [
    {
      "inputs": [],
      "stateMutability": "nonpayable",
      "type": "constructor"
    },
    {
      "anonymous": false,
      "inputs": [
        {
          "indexed": false,
          "internalType": "uint256",
          "name": "eventId",
          "type": "uint256"
        },
        {
          "indexed": true,
          "internalType": "address",
          "name": "organizer",
          "type": "address"
        },
        {
          "indexed": false,
          "internalType": "string",
          "name": "eventCid",
          "type": "string"
        },
        {
          "indexed": false,
          "internalType": "uint256",
          "name": "creationTime",
          "type": "uint256"
        }
      ],
      "name": "EventCreated",
      "type": "event"
    },
    {
      "anonymous": false,
      "inputs": [
        {
          "indexed": true,
          "internalType": "address",
          "name": "organizerAddress",
          "type": "address"
        },
        {
          "indexed": false,
          "internalType": "string",
          "name": "CID",
          "type": "string"
        },
        {
          "indexed": false,
          "internalType": "uint256",
          "name": "registerTime",
          "type": "uint256"
        }
      ],
      "name": "OrganizerRegistered",
      "type": "event"
    },
    {
      "anonymous": false,
      "inputs": [
        {
          "indexed": false,
          "internalType": "uint256",
          "name": "eventId",
          "type": "uint256"
        },
        {
          "indexed": false,
          "internalType": "uint256",
          "name": "ticketsBought",
          "type": "uint256"
        },
        {
          "indexed": true,
          "internalType": "address",
          "name": "buyer",
          "type": "address"
        },
        {
          "indexed": false,
          "internalType": "uint256",
          "name": "purchaseTime",
          "type": "uint256"
        }
      ],
      "name": "TicketPurchased",
      "type": "event"
    },
    {
      "inputs": [
        {
          "internalType": "uint256",
          "name": "",
          "type": "uint256"
        }
      ],
      "name": "allEvents",
      "outputs": [
        {
          "internalType": "string",
          "name": "eventCID",
          "type": "string"
        },
        {
          "internalType": "uint256",
          "name": "totalTickets",
          "type": "uint256"
        },
        {
          "internalType": "uint256",
          "name": "remTickets",
          "type": "uint256"
        },
        {
          "internalType": "uint256",
          "name": "price",
          "type": "uint256"
        },
        {
          "internalType": "address payable",
          "name": "creator",
          "type": "address"
        }
      ],
      "stateMutability": "view",
      "type": "function"
    },
    {
      "inputs": [
        {
          "internalType": "uint256",
          "name": "",
          "type": "uint256"
        }
      ],
      "name": "allOrganizerCid",
      "outputs": [
        {
          "internalType": "string",
          "name": "",
          "type": "string"
        }
      ],
      "stateMutability": "view",
      "type": "function"
    },
    {
      "inputs": [
        {
          "internalType": "uint256",
          "name": "",
          "type": "uint256"
        }
      ],
      "name": "allOrganizers",
      "outputs": [
        {
          "internalType": "address",
          "name": "",
          "type": "address"
        }
      ],
      "stateMutability": "view",
      "type": "function"
    },
    {
      "inputs": [
        {
          "internalType": "uint256",
          "name": "_eventId",
          "type": "uint256"
        },
        {
          "internalType": "uint256",
          "name": "_totalTicketsToBuy",
          "type": "uint256"
        }
      ],
      "name": "buyTicket",
      "outputs": [],
      "stateMutability": "payable",
      "type": "function"
    },
    {
      "inputs": [
        {
          "internalType": "string",
          "name": "_eventCid",
          "type": "string"
        },
        {
          "internalType": "uint256",
          "name": "_totalTickets",
          "type": "uint256"
        },
        {
          "internalType": "uint256",
          "name": "_price",
          "type": "uint256"
        }
      ],
      "name": "createEvent",
      "outputs": [],
      "stateMutability": "payable",
      "type": "function"
    },
    {
      "inputs": [
        {
          "internalType": "uint256",
          "name": "",
          "type": "uint256"
        }
      ],
      "name": "events",
      "outputs": [
        {
          "internalType": "string",
          "name": "eventCID",
          "type": "string"
        },
        {
          "internalType": "uint256",
          "name": "totalTickets",
          "type": "uint256"
        },
        {
          "internalType": "uint256",
          "name": "remTickets",
          "type": "uint256"
        },
        {
          "internalType": "uint256",
          "name": "price",
          "type": "uint256"
        },
        {
          "internalType": "address payable",
          "name": "creator",
          "type": "address"
        }
      ],
      "stateMutability": "view",
      "type": "function"
    },
    {
      "inputs": [],
      "name": "getAllEvents",
      "outputs": [
        {
          "components": [
            {
              "internalType": "string",
              "name": "eventCID",
              "type": "string"
            },
            {
              "internalType": "uint256",
              "name": "totalTickets",
              "type": "uint256"
            },
            {
              "internalType": "uint256",
              "name": "remTickets",
              "type": "uint256"
            },
            {
              "internalType": "uint256",
              "name": "price",
              "type": "uint256"
            },
            {
              "internalType": "address payable",
              "name": "creator",
              "type": "address"
            }
          ],
          "internalType": "struct Tickets.Event[]",
          "name": "",
          "type": "tuple[]"
        }
      ],
      "stateMutability": "view",
      "type": "function"
    },
    {
      "inputs": [],
      "name": "getAllOrganizerCID",
      "outputs": [
        {
          "internalType": "string[]",
          "name": "",
          "type": "string[]"
        }
      ],
      "stateMutability": "view",
      "type": "function"
    },
    {
      "inputs": [],
      "name": "getAllOrganizers",
      "outputs": [
        {
          "internalType": "address[]",
          "name": "",
          "type": "address[]"
        }
      ],
      "stateMutability": "view",
      "type": "function"
    },
    {
      "inputs": [],
      "name": "getTicket",
      "outputs": [
        {
          "components": [
            {
              "internalType": "address",
              "name": "userAddress",
              "type": "address"
            },
            {
              "internalType": "string",
              "name": "eventName",
              "type": "string"
            },
            {
              "internalType": "uint256",
              "name": "eventId",
              "type": "uint256"
            },
            {
              "internalType": "uint256",
              "name": "ticketsOwned",
              "type": "uint256"
            }
          ],
          "internalType": "struct Tickets.TicketHolder[]",
          "name": "",
          "type": "tuple[]"
        }
      ],
      "stateMutability": "view",
      "type": "function"
    },
    {
      "inputs": [
        {
          "internalType": "address",
          "name": "_organizerAddress",
          "type": "address"
        }
      ],
      "name": "isOrganizers",
      "outputs": [
        {
          "internalType": "bool",
          "name": "",
          "type": "bool"
        }
      ],
      "stateMutability": "view",
      "type": "function"
    },
    {
      "inputs": [],
      "name": "isOwner",
      "outputs": [
        {
          "internalType": "bool",
          "name": "",
          "type": "bool"
        }
      ],
      "stateMutability": "view",
      "type": "function"
    },
    {
      "inputs": [
        {
          "internalType": "address",
          "name": "",
          "type": "address"
        }
      ],
      "name": "organizerCID",
      "outputs": [
        {
          "internalType": "string",
          "name": "",
          "type": "string"
        }
      ],
      "stateMutability": "view",
      "type": "function"
    },
    {
      "inputs": [
        {
          "internalType": "address",
          "name": "",
          "type": "address"
        }
      ],
      "name": "organizers",
      "outputs": [
        {
          "internalType": "bool",
          "name": "",
          "type": "bool"
        }
      ],
      "stateMutability": "view",
      "type": "function"
    },
    {
      "inputs": [],
      "name": "owner",
      "outputs": [
        {
          "internalType": "address payable",
          "name": "",
          "type": "address"
        }
      ],
      "stateMutability": "view",
      "type": "function"
    },
    {
      "inputs": [
        {
          "internalType": "string",
          "name": "_CID",
          "type": "string"
        }
      ],
      "name": "registerEventOrganizer",
      "outputs": [],
      "stateMutability": "nonpayable",
      "type": "function"
    },
    {
      "inputs": [
        {
          "internalType": "address",
          "name": "",
          "type": "address"
        },
        {
          "internalType": "uint256",
          "name": "",
          "type": "uint256"
        }
      ],
      "name": "ticketHolders",
      "outputs": [
        {
          "internalType": "address",
          "name": "userAddress",
          "type": "address"
        },
        {
          "internalType": "string",
          "name": "eventName",
          "type": "string"
        },
        {
          "internalType": "uint256",
          "name": "eventId",
          "type": "uint256"
        },
        {
          "internalType": "uint256",
          "name": "ticketsOwned",
          "type": "uint256"
        }
      ],
      "stateMutability": "view",
      "type": "function"
    }
  ],
  "bytecode": "0x608060405234801561001057600080fd5b5033600460006101000a81548173ffffffffffffffffffffffffffffffffffffffff021916908373ffffffffffffffffffffffffffffffffffffffff160217905550612e4c806100616000396000f3fe6080604052600436106100fe5760003560e01c80637b656dcc116100955780639e9580f6116100645780639e9580f61461036d578063b19588a614610389578063c002c4d6146103c6578063c27a500d146103f1578063fb894fa21461041c576100fe565b80637b656dcc146102ac57806382615569146102d75780638da5cb5b146103175780638f32d59b14610342576100fe565b8063298ec208116100d1578063298ec208146101e95780633bec5cff1461020557806363d3b019146102465780636e389f901461026f576100fe565b80630544c5b9146101035780630b791430146101405780631ba2e62a146101815780631e67f721146101be575b600080fd5b34801561010f57600080fd5b5061012a600480360381019061012591906119a2565b610459565b60405161013791906119ea565b60405180910390f35b34801561014c57600080fd5b5061016760048036038101906101629190611a3b565b610479565b604051610178959493929190611b28565b60405180910390f35b34801561018d57600080fd5b506101a860048036038101906101a39190611a3b565b610557565b6040516101b59190611b82565b60405180910390f35b3480156101ca57600080fd5b506101d3610603565b6040516101e09190611c62565b60405180910390f35b61020360048036038101906101fe9190611c84565b6106d8565b005b34801561021157600080fd5b5061022c60048036038101906102279190611a3b565b610b87565b60405161023d959493929190611b28565b60405180910390f35b34801561025257600080fd5b5061026d60048036038101906102689190611df9565b610c75565b005b34801561027b57600080fd5b50610296600480360381019061029191906119a2565b610e49565b6040516102a391906119ea565b60405180910390f35b3480156102b857600080fd5b506102c1610e9f565b6040516102ce9190611f4e565b60405180910390f35b3480156102e357600080fd5b506102fe60048036038101906102f99190611f70565b610f78565b60405161030e9493929190611fbf565b60405180910390f35b34801561032357600080fd5b5061032c61106d565b604051610339919061200b565b60405180910390f35b34801561034e57600080fd5b50610357611093565b60405161036491906119ea565b60405180910390f35b61038760048036038101906103829190612026565b6110eb565b005b34801561039557600080fd5b506103b060048036038101906103ab9190611a3b565b611554565b6040516103bd9190612095565b60405180910390f35b3480156103d257600080fd5b506103db611593565b6040516103e891906121e4565b60405180910390f35b3480156103fd57600080fd5b5061040661172b565b604051610413919061234d565b60405180910390f35b34801561042857600080fd5b50610443600480360381019061043e91906119a2565b611890565b6040516104509190611b82565b60405180910390f35b60036020528060005260406000206000915054906101000a900460ff1681565b600060205280600052604060002060009150905080600001805461049c9061239e565b80601f01602080910402602001604051908101604052809291908181526020018280546104c89061239e565b80156105155780601f106104ea57610100808354040283529160200191610515565b820191906000526020600020905b8154815290600101906020018083116104f857829003601f168201915b5050505050908060010154908060020154908060030154908060040160009054906101000a900473ffffffffffffffffffffffffffffffffffffffff16905085565b6007818154811061056757600080fd5b9060005260206000200160009150905080546105829061239e565b80601f01602080910402602001604051908101604052809291908181526020018280546105ae9061239e565b80156105fb5780601f106105d0576101008083540402835291602001916105fb565b820191906000526020600020905b8154815290600101906020018083116105de57829003601f168201915b505050505081565b606061060d611093565b61064c576040517f08c379a000000000000000000000000000000000000000000000000000000000815260040161064390612441565b60405180910390fd5b60058054806020026020016040519081016040528092919081815260200182805480156106ce57602002820191906000526020600020905b8160009054906101000a900473ffffffffffffffffffffffffffffffffffffffff1673ffffffffffffffffffffffffffffffffffffffff1681526020019060010190808311610684575b5050505050905090565b60085482111561071d576040517f08c379a0000000000000000000000000000000000000000000000000000000008152600401610714906124ad565b60405180910390fd5b80600080848152602001908152602001600020600201541015610775576040517f08c379a000000000000000000000000000000000000000000000000000000000815260040161076c90612519565b60405180910390fd5b61077e33610e49565b156107be576040517f08c379a00000000000000000000000000000000000000000000000000000000081526004016107b5906125ab565b60405180910390fd5b600081600080858152602001908152602001600020600301546107e191906125fa565b905080341015610826576040517f08c379a000000000000000000000000000000000000000000000000000000000815260040161081d90612688565b60405180910390fd5b6000813461083491906126a8565b90506000811115610887573373ffffffffffffffffffffffffffffffffffffffff166108fc829081150290604051600060405180830381858888f19350505050158015610885573d6000803e3d6000fd5b505b60008085815260200190815260200160002060040160009054906101000a900473ffffffffffffffffffffffffffffffffffffffff1673ffffffffffffffffffffffffffffffffffffffff166108fc839081150290604051600060405180830381858888f19350505050158015610902573d6000803e3d6000fd5b5082600080868152602001908152602001600020600201600082825461092891906126a8565b9250508190555060008085815260200190815260200160002060020154600660018661095491906126a8565b81548110610965576109646126dc565b5b9060005260206000209060050201600201819055506000600160003373ffffffffffffffffffffffffffffffffffffffff1673ffffffffffffffffffffffffffffffffffffffff16815260200190815260200160002090508060405180608001604052803373ffffffffffffffffffffffffffffffffffffffff1681526020016000808981526020019081526020016000206000018054610a059061239e565b80601f0160208091040260200160405190810160405280929190818152602001828054610a319061239e565b8015610a7e5780601f10610a5357610100808354040283529160200191610a7e565b820191906000526020600020905b815481529060010190602001808311610a6157829003601f168201915b5050505050815260200187815260200186815250908060018154018082558091505060019003906000526020600020906004020160009091909190915060008201518160000160006101000a81548173ffffffffffffffffffffffffffffffffffffffff021916908373ffffffffffffffffffffffffffffffffffffffff1602179055506020820151816001019081610b1791906128b7565b50604082015181600201556060820151816003015550503373ffffffffffffffffffffffffffffffffffffffff167fc3b7539e996dc1d1252af1e3c72474162b7a9c7cc7411ca8905732eaf6fff328868642604051610b7893929190612989565b60405180910390a25050505050565b60068181548110610b9757600080fd5b9060005260206000209060050201600091509050806000018054610bba9061239e565b80601f0160208091040260200160405190810160405280929190818152602001828054610be69061239e565b8015610c335780601f10610c0857610100808354040283529160200191610c33565b820191906000526020600020905b815481529060010190602001808311610c1657829003601f168201915b5050505050908060010154908060020154908060030154908060040160009054906101000a900473ffffffffffffffffffffffffffffffffffffffff16905085565b6000815111610cb9576040517f08c379a0000000000000000000000000000000000000000000000000000000008152600401610cb090612a0c565b60405180910390fd5b80600260003373ffffffffffffffffffffffffffffffffffffffff1673ffffffffffffffffffffffffffffffffffffffff1681526020019081526020016000209081610d0591906128b7565b506001600360003373ffffffffffffffffffffffffffffffffffffffff1673ffffffffffffffffffffffffffffffffffffffff16815260200190815260200160002060006101000a81548160ff0219169083151502179055506005339080600181540180825580915050600190039060005260206000200160009091909190916101000a81548173ffffffffffffffffffffffffffffffffffffffff021916908373ffffffffffffffffffffffffffffffffffffffff160217905550600781908060018154018082558091505060019003906000526020600020016000909190919091509081610df591906128b7565b503373ffffffffffffffffffffffffffffffffffffffff167f3d5483a93df0921e07ba2b0050c4d0f5793795035f1db5af3face517df5e333b8242604051610e3e929190612a2c565b60405180910390a250565b6000600360008373ffffffffffffffffffffffffffffffffffffffff1673ffffffffffffffffffffffffffffffffffffffff16815260200190815260200160002060009054906101000a900460ff169050919050565b60606007805480602002602001604051908101604052809291908181526020016000905b82821015610f6f578382906000526020600020018054610ee29061239e565b80601f0160208091040260200160405190810160405280929190818152602001828054610f0e9061239e565b8015610f5b5780601f10610f3057610100808354040283529160200191610f5b565b820191906000526020600020905b815481529060010190602001808311610f3e57829003601f168201915b505050505081526020019060010190610ec3565b50505050905090565b60016020528160005260406000208181548110610f9457600080fd5b9060005260206000209060040201600091509150508060000160009054906101000a900473ffffffffffffffffffffffffffffffffffffffff1690806001018054610fde9061239e565b80601f016020809104026020016040519081016040528092919081815260200182805461100a9061239e565b80156110575780601f1061102c57610100808354040283529160200191611057565b820191906000526020600020905b81548152906001019060200180831161103a57829003601f168201915b5050505050908060020154908060030154905084565b600460009054906101000a900473ffffffffffffffffffffffffffffffffffffffff1681565b6000600460009054906101000a900473ffffffffffffffffffffffffffffffffffffffff1673ffffffffffffffffffffffffffffffffffffffff163373ffffffffffffffffffffffffffffffffffffffff1614905090565b600083511161112f576040517f08c379a000000000000000000000000000000000000000000000000000000000815260040161112690612aa8565b60405180910390fd5b61113833610e49565b611177576040517f08c379a000000000000000000000000000000000000000000000000000000000815260040161116e90612b14565b60405180910390fd5b600082116111ba576040517f08c379a00000000000000000000000000000000000000000000000000000000081526004016111b190612ba6565b60405180910390fd5b6111c2611093565b15611202576040517f08c379a00000000000000000000000000000000000000000000000000000000081526004016111f990612c12565b60405180910390fd5b600060646003848461121491906125fa565b61121e91906125fa565b6112289190612c61565b90508034101561126d576040517f08c379a000000000000000000000000000000000000000000000000000000000815260040161126490612688565b60405180910390fd5b600460009054906101000a900473ffffffffffffffffffffffffffffffffffffffff1673ffffffffffffffffffffffffffffffffffffffff166108fc829081150290604051600060405180830381858888f193505050501580156112d5573d6000803e3d6000fd5b50600081346112e491906126a8565b90506000811115611337573373ffffffffffffffffffffffffffffffffffffffff166108fc829081150290604051600060405180830381858888f19350505050158015611335573d6000803e3d6000fd5b505b6008600081548092919061134a90612c92565b91905055503373ffffffffffffffffffffffffffffffffffffffff167f56acb10c6ecae7e178ece5d22c2f0346efb606427ea6a15f96904d0ceec03d1d600854874260405161139b93929190612cda565b60405180910390a26040518060a001604052808681526020018581526020018581526020018481526020013373ffffffffffffffffffffffffffffffffffffffff168152506000806008548152602001908152602001600020600082015181600001908161140991906128b7565b5060208201518160010155604082015181600201556060820151816003015560808201518160040160006101000a81548173ffffffffffffffffffffffffffffffffffffffff021916908373ffffffffffffffffffffffffffffffffffffffff160217905550905050600660008060085481526020019081526020016000209080600181540180825580915050600190039060005260206000209060050201600090919091909150600082018160000190816114c59190612d2e565b506001820154816001015560028201548160020155600382015481600301556004820160009054906101000a900473ffffffffffffffffffffffffffffffffffffffff168160040160006101000a81548173ffffffffffffffffffffffffffffffffffffffff021916908373ffffffffffffffffffffffffffffffffffffffff16021790555050505050505050565b6005818154811061156457600080fd5b906000526020600020016000915054906101000a900473ffffffffffffffffffffffffffffffffffffffff1681565b6060600160003373ffffffffffffffffffffffffffffffffffffffff1673ffffffffffffffffffffffffffffffffffffffff168152602001908152602001600020805480602002602001604051908101604052809291908181526020016000905b8282101561172257838290600052602060002090600402016040518060800160405290816000820160009054906101000a900473ffffffffffffffffffffffffffffffffffffffff1673ffffffffffffffffffffffffffffffffffffffff1673ffffffffffffffffffffffffffffffffffffffff16815260200160018201805461167d9061239e565b80601f01602080910402602001604051908101604052809291908181526020018280546116a99061239e565b80156116f65780601f106116cb576101008083540402835291602001916116f6565b820191906000526020600020905b8154815290600101906020018083116116d957829003601f168201915b5050505050815260200160028201548152602001600382015481525050815260200190600101906115f4565b50505050905090565b60606006805480602002602001604051908101604052809291908181526020016000905b8282101561188757838290600052602060002090600502016040518060a00160405290816000820180546117829061239e565b80601f01602080910402602001604051908101604052809291908181526020018280546117ae9061239e565b80156117fb5780601f106117d0576101008083540402835291602001916117fb565b820191906000526020600020905b8154815290600101906020018083116117de57829003601f168201915b505050505081526020016001820154815260200160028201548152602001600382015481526020016004820160009054906101000a900473ffffffffffffffffffffffffffffffffffffffff1673ffffffffffffffffffffffffffffffffffffffff1673ffffffffffffffffffffffffffffffffffffffff16815250508152602001906001019061174f565b50505050905090565b600260205280600052604060002060009150905080546118af9061239e565b80601f01602080910402602001604051908101604052809291908181526020018280546118db9061239e565b80156119285780601f106118fd57610100808354040283529160200191611928565b820191906000526020600020905b81548152906001019060200180831161190b57829003601f168201915b505050505081565b6000604051905090565b600080fd5b600080fd5b600073ffffffffffffffffffffffffffffffffffffffff82169050919050565b600061196f82611944565b9050919050565b61197f81611964565b811461198a57600080fd5b50565b60008135905061199c81611976565b92915050565b6000602082840312156119b8576119b761193a565b5b60006119c68482850161198d565b91505092915050565b60008115159050919050565b6119e4816119cf565b82525050565b60006020820190506119ff60008301846119db565b92915050565b6000819050919050565b611a1881611a05565b8114611a2357600080fd5b50565b600081359050611a3581611a0f565b92915050565b600060208284031215611a5157611a5061193a565b5b6000611a5f84828501611a26565b91505092915050565b600081519050919050565b600082825260208201905092915050565b60005b83811015611aa2578082015181840152602081019050611a87565b60008484015250505050565b6000601f19601f8301169050919050565b6000611aca82611a68565b611ad48185611a73565b9350611ae4818560208601611a84565b611aed81611aae565b840191505092915050565b611b0181611a05565b82525050565b6000611b1282611944565b9050919050565b611b2281611b07565b82525050565b600060a0820190508181036000830152611b428188611abf565b9050611b516020830187611af8565b611b5e6040830186611af8565b611b6b6060830185611af8565b611b786080830184611b19565b9695505050505050565b60006020820190508181036000830152611b9c8184611abf565b905092915050565b600081519050919050565b600082825260208201905092915050565b6000819050602082019050919050565b611bd981611964565b82525050565b6000611beb8383611bd0565b60208301905092915050565b6000602082019050919050565b6000611c0f82611ba4565b611c198185611baf565b9350611c2483611bc0565b8060005b83811015611c55578151611c3c8882611bdf565b9750611c4783611bf7565b925050600181019050611c28565b5085935050505092915050565b60006020820190508181036000830152611c7c8184611c04565b905092915050565b60008060408385031215611c9b57611c9a61193a565b5b6000611ca985828601611a26565b9250506020611cba85828601611a26565b9150509250929050565b600080fd5b600080fd5b7f4e487b7100000000000000000000000000000000000000000000000000000000600052604160045260246000fd5b611d0682611aae565b810181811067ffffffffffffffff82111715611d2557611d24611cce565b5b80604052505050565b6000611d38611930565b9050611d448282611cfd565b919050565b600067ffffffffffffffff821115611d6457611d63611cce565b5b611d6d82611aae565b9050602081019050919050565b82818337600083830152505050565b6000611d9c611d9784611d49565b611d2e565b905082815260208101848484011115611db857611db7611cc9565b5b611dc3848285611d7a565b509392505050565b600082601f830112611de057611ddf611cc4565b5b8135611df0848260208601611d89565b91505092915050565b600060208284031215611e0f57611e0e61193a565b5b600082013567ffffffffffffffff811115611e2d57611e2c61193f565b5b611e3984828501611dcb565b91505092915050565b600081519050919050565b600082825260208201905092915050565b6000819050602082019050919050565b600082825260208201905092915050565b6000611e8a82611a68565b611e948185611e6e565b9350611ea4818560208601611a84565b611ead81611aae565b840191505092915050565b6000611ec48383611e7f565b905092915050565b6000602082019050919050565b6000611ee482611e42565b611eee8185611e4d565b935083602082028501611f0085611e5e565b8060005b85811015611f3c5784840389528151611f1d8582611eb8565b9450611f2883611ecc565b925060208a01995050600181019050611f04565b50829750879550505050505092915050565b60006020820190508181036000830152611f688184611ed9565b905092915050565b60008060408385031215611f8757611f8661193a565b5b6000611f958582860161198d565b9250506020611fa685828601611a26565b9150509250929050565b611fb981611964565b82525050565b6000608082019050611fd46000830187611fb0565b8181036020830152611fe68186611abf565b9050611ff56040830185611af8565b6120026060830184611af8565b95945050505050565b60006020820190506120206000830184611b19565b92915050565b60008060006060848603121561203f5761203e61193a565b5b600084013567ffffffffffffffff81111561205d5761205c61193f565b5b61206986828701611dcb565b935050602061207a86828701611a26565b925050604061208b86828701611a26565b9150509250925092565b60006020820190506120aa6000830184611fb0565b92915050565b600081519050919050565b600082825260208201905092915050565b6000819050602082019050919050565b6120e581611a05565b82525050565b60006080830160008301516121036000860182611bd0565b506020830151848203602086015261211b8282611e7f565b915050604083015161213060408601826120dc565b50606083015161214360608601826120dc565b508091505092915050565b600061215a83836120eb565b905092915050565b6000602082019050919050565b600061217a826120b0565b61218481856120bb565b935083602082028501612196856120cc565b8060005b858110156121d257848403895281516121b3858261214e565b94506121be83612162565b925060208a0199505060018101905061219a565b50829750879550505050505092915050565b600060208201905081810360008301526121fe818461216f565b905092915050565b600081519050919050565b600082825260208201905092915050565b6000819050602082019050919050565b61223b81611b07565b82525050565b600060a083016000830151848203600086015261225e8282611e7f565b915050602083015161227360208601826120dc565b50604083015161228660408601826120dc565b50606083015161229960608601826120dc565b5060808301516122ac6080860182612232565b508091505092915050565b60006122c38383612241565b905092915050565b6000602082019050919050565b60006122e382612206565b6122ed8185612211565b9350836020820285016122ff85612222565b8060005b8581101561233b578484038952815161231c85826122b7565b9450612327836122cb565b925060208a01995050600181019050612303565b50829750879550505050505092915050565b6000602082019050818103600083015261236781846122d8565b905092915050565b7f4e487b7100000000000000000000000000000000000000000000000000000000600052602260045260246000fd5b600060028204905060018216806123b657607f821691505b6020821081036123c9576123c861236f565b5b50919050565b7f4f6e6c79206f776e65722063616e207669657720616c6c206f7267616e697a6560008201527f7273000000000000000000000000000000000000000000000000000000000000602082015250565b600061242b602283611a73565b9150612436826123cf565b604082019050919050565b6000602082019050818103600083015261245a8161241e565b9050919050565b7f4576656e7420646f6573206e6f74206578697374000000000000000000000000600082015250565b6000612497601483611a73565b91506124a282612461565b602082019050919050565b600060208201905081810360008301526124c68161248a565b9050919050565b7f4e6f7420656e6f756768207469636b657473206c656674000000000000000000600082015250565b6000612503601783611a73565b915061250e826124cd565b602082019050919050565b60006020820190508181036000830152612532816124f6565b9050919050565b7f4f7267616e697a65722063616e6e6f7420627579207469636b65747320666f7260008201527f207468656972206f776e206576656e7400000000000000000000000000000000602082015250565b6000612595603083611a73565b91506125a082612539565b604082019050919050565b600060208201905081810360008301526125c481612588565b9050919050565b7f4e487b7100000000000000000000000000000000000000000000000000000000600052601160045260246000fd5b600061260582611a05565b915061261083611a05565b925082820261261e81611a05565b91508282048414831517612635576126346125cb565b5b5092915050565b7f4e6f7420656e6f7567682065746865722073656e740000000000000000000000600082015250565b6000612672601583611a73565b915061267d8261263c565b602082019050919050565b600060208201905081810360008301526126a181612665565b9050919050565b60006126b382611a05565b91506126be83611a05565b92508282039050818111156126d6576126d56125cb565b5b92915050565b7f4e487b7100000000000000000000000000000000000000000000000000000000600052603260045260246000fd5b60008190508160005260206000209050919050565b60006020601f8301049050919050565b600082821b905092915050565b60006008830261276d7fffffffffffffffffffffffffffffffffffffffffffffffffffffffffffffffff82612730565b6127778683612730565b95508019841693508086168417925050509392505050565b6000819050919050565b60006127b46127af6127aa84611a05565b61278f565b611a05565b9050919050565b6000819050919050565b6127ce83612799565b6127e26127da826127bb565b84845461273d565b825550505050565b600090565b6127f76127ea565b6128028184846127c5565b505050565b5b818110156128265761281b6000826127ef565b600181019050612808565b5050565b601f82111561286b5761283c8161270b565b61284584612720565b81016020851015612854578190505b61286861286085612720565b830182612807565b50505b505050565b600082821c905092915050565b600061288e60001984600802612870565b1980831691505092915050565b60006128a7838361287d565b9150826002028217905092915050565b6128c082611a68565b67ffffffffffffffff8111156128d9576128d8611cce565b5b6128e3825461239e565b6128ee82828561282a565b600060209050601f831160018114612921576000841561290f578287015190505b612919858261289b565b865550612981565b601f19841661292f8661270b565b60005b8281101561295757848901518255600182019150602085019450602081019050612932565b868310156129745784890151612970601f89168261287d565b8355505b6001600288020188555050505b505050505050565b600060608201905061299e6000830186611af8565b6129ab6020830185611af8565b6129b86040830184611af8565b949350505050565b7f4349442063616e6e6f7420626520656d70747900000000000000000000000000600082015250565b60006129f6601383611a73565b9150612a01826129c0565b602082019050919050565b60006020820190508181036000830152612a25816129e9565b9050919050565b60006040820190508181036000830152612a468185611abf565b9050612a556020830184611af8565b9392505050565b7f4576656e74204349442073686f756c64206e6f7420626520656d707479000000600082015250565b6000612a92601d83611a73565b9150612a9d82612a5c565b602082019050919050565b60006020820190508181036000830152612ac181612a85565b9050919050565b7f4f6e6c79206f7267616e697a65722063616e20637265617465206576656e7400600082015250565b6000612afe601f83611a73565b9150612b0982612ac8565b602082019050919050565b60006020820190508181036000830152612b2d81612af1565b9050919050565b7f546f74616c207469636b6574732073686f756c6420626520677265617465722060008201527f7468616e20300000000000000000000000000000000000000000000000000000602082015250565b6000612b90602683611a73565b9150612b9b82612b34565b604082019050919050565b60006020820190508181036000830152612bbf81612b83565b9050919050565b7f4f776e65722063616e6e6f7420637265617465206576656e7400000000000000600082015250565b6000612bfc601983611a73565b9150612c0782612bc6565b602082019050919050565b60006020820190508181036000830152612c2b81612bef565b9050919050565b7f4e487b7100000000000000000000000000000000000000000000000000000000600052601260045260246000fd5b6000612c6c82611a05565b9150612c7783611a05565b925082612c8757612c86612c32565b5b828204905092915050565b6000612c9d82611a05565b91507fffffffffffffffffffffffffffffffffffffffffffffffffffffffffffffffff8203612ccf57612cce6125cb565b5b600182019050919050565b6000606082019050612cef6000830186611af8565b8181036020830152612d018185611abf565b9050612d106040830184611af8565b949350505050565b600081549050612d278161239e565b9050919050565b818103612d3c575050612e14565b612d4582612d18565b67ffffffffffffffff811115612d5e57612d5d611cce565b5b612d68825461239e565b612d7382828561282a565b6000601f831160018114612da25760008415612d90578287015490505b612d9a858261289b565b865550612e0d565b601f198416612db08761270b565b9650612dbb8661270b565b60005b82811015612de357848901548255600182019150600185019450602081019050612dbe565b86831015612e005784890154612dfc601f89168261287d565b8355505b6001600288020188555050505b5050505050505b56fea2646970667358221220cc6fdbe81511d8eb310ad93339f456c51aec1bd3d4441e6b4d334c222c7f8a4e64736f6c63430008130033",
  "linkReferences": {},
  "deployedLinkReferences": {}
}