{
  "_format": "hh-sol-artifact-1",
  "contractName": "Tickets",
  "sourceName": "contracts/Tickets.sol",
  "abi": [
    {
      "anonymous": false,
      "inputs": [
        {
          "indexed": true,
          "internalType": "uint256",
          "name": "eventId",
          "type": "uint256"
        }
      ],
      "name": "EventCreated",
      "type": "event"
    },
    {
      "anonymous": false,
      "inputs": [
        {
          "indexed": true,
          "internalType": "address",
          "name": "organizerAddress",
          "type": "address"
        },
        {
          "indexed": true,
          "internalType": "string",
          "name": "CID",
          "type": "string"
        }
      ],
      "name": "OrganizerRegistered",
      "type": "event"
    },
    {
      "anonymous": false,
      "inputs": [
        {
          "indexed": true,
          "internalType": "uint256",
          "name": "eventId",
          "type": "uint256"
        },
        {
          "indexed": true,
          "internalType": "uint256",
          "name": "ticketsBought",
          "type": "uint256"
        },
        {
          "indexed": true,
          "internalType": "address",
          "name": "buyer",
          "type": "address"
        }
      ],
      "name": "TicketPurchased",
      "type": "event"
    },
    {
      "anonymous": false,
      "inputs": [
        {
          "indexed": true,
          "internalType": "address",
          "name": "userAddress",
          "type": "address"
        },
        {
          "indexed": true,
          "internalType": "string",
          "name": "CID",
          "type": "string"
        }
      ],
      "name": "UserRegistered",
      "type": "event"
    },
    {
      "inputs": [
        {
          "internalType": "uint256",
          "name": "_eventId",
          "type": "uint256"
        },
        {
          "internalType": "uint256",
          "name": "_totalTicketsToBuy",
          "type": "uint256"
        }
      ],
      "name": "buyTicket",
      "outputs": [],
      "stateMutability": "payable",
      "type": "function"
    },
    {
      "inputs": [
        {
          "internalType": "string",
          "name": "_eventCid",
          "type": "string"
        },
        {
          "internalType": "uint256",
          "name": "_totalTickets",
          "type": "uint256"
        },
        {
          "internalType": "uint256",
          "name": "_price",
          "type": "uint256"
        },
        {
          "internalType": "string",
          "name": "_eventImageCid",
          "type": "string"
        }
      ],
      "name": "createEvent",
      "outputs": [],
      "stateMutability": "payable",
      "type": "function"
    },
    {
      "inputs": [
        {
          "internalType": "uint256",
          "name": "",
          "type": "uint256"
        }
      ],
      "name": "events",
      "outputs": [
        {
          "internalType": "string",
          "name": "eventCID",
          "type": "string"
        },
        {
          "internalType": "uint256",
          "name": "totalTickets",
          "type": "uint256"
        },
        {
          "internalType": "uint256",
          "name": "remTickets",
          "type": "uint256"
        },
        {
          "internalType": "uint256",
          "name": "price",
          "type": "uint256"
        },
        {
          "internalType": "address payable",
          "name": "creator",
          "type": "address"
        },
        {
          "internalType": "string",
          "name": "eventImageCID",
          "type": "string"
        }
      ],
      "stateMutability": "view",
      "type": "function"
    },
    {
      "inputs": [],
      "name": "getAllEvents",
      "outputs": [
        {
          "components": [
            {
              "internalType": "string",
              "name": "eventCID",
              "type": "string"
            },
            {
              "internalType": "uint256",
              "name": "totalTickets",
              "type": "uint256"
            },
            {
              "internalType": "uint256",
              "name": "remTickets",
              "type": "uint256"
            },
            {
              "internalType": "uint256",
              "name": "price",
              "type": "uint256"
            },
            {
              "internalType": "address payable",
              "name": "creator",
              "type": "address"
            },
            {
              "internalType": "string",
              "name": "eventImageCID",
              "type": "string"
            }
          ],
          "internalType": "struct Tickets.Event[]",
          "name": "",
          "type": "tuple[]"
        }
      ],
      "stateMutability": "view",
      "type": "function"
    },
    {
      "inputs": [
        {
          "internalType": "uint256",
          "name": "_eventId",
          "type": "uint256"
        }
      ],
      "name": "getIpfsCID",
      "outputs": [
        {
          "internalType": "string",
          "name": "",
          "type": "string"
        }
      ],
      "stateMutability": "view",
      "type": "function"
    },
    {
      "inputs": [
        {
          "internalType": "address",
          "name": "_organizerAddress",
          "type": "address"
        }
      ],
      "name": "getOrganizerCID",
      "outputs": [
        {
          "internalType": "string",
          "name": "",
          "type": "string"
        }
      ],
      "stateMutability": "view",
      "type": "function"
    },
    {
      "inputs": [
        {
          "internalType": "address",
          "name": "_userAddress",
          "type": "address"
        }
      ],
      "name": "getUserCID",
      "outputs": [
        {
          "internalType": "string",
          "name": "",
          "type": "string"
        }
      ],
      "stateMutability": "view",
      "type": "function"
    },
    {
      "inputs": [
        {
          "internalType": "address",
          "name": "",
          "type": "address"
        }
      ],
      "name": "isUsers",
      "outputs": [
        {
          "internalType": "bool",
          "name": "",
          "type": "bool"
        }
      ],
      "stateMutability": "view",
      "type": "function"
    },
    {
      "inputs": [
        {
          "internalType": "address",
          "name": "",
          "type": "address"
        }
      ],
      "name": "organizerCID",
      "outputs": [
        {
          "internalType": "string",
          "name": "",
          "type": "string"
        }
      ],
      "stateMutability": "view",
      "type": "function"
    },
    {
      "inputs": [
        {
          "internalType": "address",
          "name": "",
          "type": "address"
        }
      ],
      "name": "organizers",
      "outputs": [
        {
          "internalType": "bool",
          "name": "",
          "type": "bool"
        }
      ],
      "stateMutability": "view",
      "type": "function"
    },
    {
      "inputs": [],
      "name": "owner",
      "outputs": [
        {
          "internalType": "address payable",
          "name": "",
          "type": "address"
        }
      ],
      "stateMutability": "view",
      "type": "function"
    },
    {
      "inputs": [
        {
          "internalType": "string",
          "name": "_CID",
          "type": "string"
        }
      ],
      "name": "registerEventOrganizer",
      "outputs": [],
      "stateMutability": "nonpayable",
      "type": "function"
    },
    {
      "inputs": [
        {
          "internalType": "string",
          "name": "_CID",
          "type": "string"
        }
      ],
      "name": "registerUser",
      "outputs": [],
      "stateMutability": "nonpayable",
      "type": "function"
    },
    {
      "inputs": [
        {
          "internalType": "address",
          "name": "",
          "type": "address"
        },
        {
          "internalType": "uint256",
          "name": "",
          "type": "uint256"
        }
      ],
      "name": "ticketHolders",
      "outputs": [
        {
          "internalType": "address",
          "name": "userAddress",
          "type": "address"
        },
        {
          "internalType": "string",
          "name": "eventName",
          "type": "string"
        },
        {
          "internalType": "uint256",
          "name": "eventId",
          "type": "uint256"
        },
        {
          "internalType": "uint256",
          "name": "ticketsOwned",
          "type": "uint256"
        }
      ],
      "stateMutability": "view",
      "type": "function"
    },
    {
      "inputs": [
        {
          "internalType": "address",
          "name": "",
          "type": "address"
        }
      ],
      "name": "userCID",
      "outputs": [
        {
          "internalType": "string",
          "name": "",
          "type": "string"
        }
      ],
      "stateMutability": "view",
      "type": "function"
    }
  ],
  "bytecode": "0x608060405234801561001057600080fd5b50336000806101000a81548173ffffffffffffffffffffffffffffffffffffffff021916908373ffffffffffffffffffffffffffffffffffffffff160217905550612f8d806100606000396000f3fe6080604052600436106100e85760003560e01c8063704f1b941161008a578063c27a500d11610059578063c27a500d14610339578063e4d7c83014610364578063f3ef0d88146103a1578063fb894fa2146103bd576100e8565b8063704f1b941461026857806382615569146102915780638da5cb5b146102d1578063a5240e49146102fc576100e8565b806320e24413116100c657806320e24413146101a9578063296c0c07146101e6578063298ec2081461022357806363d3b0191461023f576100e8565b8063038a03c4146100ed5780630544c5b91461012a5780630b79143014610167575b600080fd5b3480156100f957600080fd5b50610114600480360381019061010f9190611d88565b6103fa565b6040516101219190611e45565b60405180910390f35b34801561013657600080fd5b50610151600480360381019061014c9190611ec5565b610586565b60405161015e9190611f0d565b60405180910390f35b34801561017357600080fd5b5061018e60048036038101906101899190611d88565b6105a6565b6040516101a096959493929190611f58565b60405180910390f35b3480156101b557600080fd5b506101d060048036038101906101cb9190611ec5565b610712565b6040516101dd9190611e45565b60405180910390f35b3480156101f257600080fd5b5061020d60048036038101906102089190611ec5565b6109a9565b60405161021a9190611f0d565b60405180910390f35b61023d60048036038101906102389190611fc7565b6109c9565b005b34801561024b57600080fd5b506102666004803603810190610261919061213c565b610eb2565b005b34801561027457600080fd5b5061028f600480360381019061028a919061213c565b61108a565b005b34801561029d57600080fd5b506102b860048036038101906102b39190612185565b6111cf565b6040516102c894939291906121d4565b60405180910390f35b3480156102dd57600080fd5b506102e66112c4565b6040516102f39190612220565b60405180910390f35b34801561030857600080fd5b50610323600480360381019061031e9190611ec5565b6112e8565b6040516103309190611e45565b60405180910390f35b34801561034557600080fd5b5061034e611388565b60405161035b91906123f5565b60405180910390f35b34801561037057600080fd5b5061038b60048036038101906103869190611ec5565b611682565b6040516103989190611e45565b60405180910390f35b6103bb60048036038101906103b69190612417565b611886565b005b3480156103c957600080fd5b506103e460048036038101906103df9190611ec5565b611c52565b6040516103f19190611e45565b60405180910390f35b606060011515600260003373ffffffffffffffffffffffffffffffffffffffff1673ffffffffffffffffffffffffffffffffffffffff16815260200190815260200160002060009054906101000a900460ff1615151461048f576040517f08c379a000000000000000000000000000000000000000000000000000000000815260040161048690612528565b60405180910390fd5b6000821180156104a157506007548211155b6104e0576040517f08c379a00000000000000000000000000000000000000000000000000000000081526004016104d790612594565b60405180910390fd5b600560008381526020019081526020016000206000018054610501906125e3565b80601f016020809104026020016040519081016040528092919081815260200182805461052d906125e3565b801561057a5780601f1061054f5761010080835404028352916020019161057a565b820191906000526020600020905b81548152906001019060200180831161055d57829003601f168201915b50505050509050919050565b60046020528060005260406000206000915054906101000a900460ff1681565b60056020528060005260406000206000915090508060000180546105c9906125e3565b80601f01602080910402602001604051908101604052809291908181526020018280546105f5906125e3565b80156106425780601f1061061757610100808354040283529160200191610642565b820191906000526020600020905b81548152906001019060200180831161062557829003601f168201915b5050505050908060010154908060020154908060030154908060040160009054906101000a900473ffffffffffffffffffffffffffffffffffffffff169080600501805461068f906125e3565b80601f01602080910402602001604051908101604052809291908181526020018280546106bb906125e3565b80156107085780601f106106dd57610100808354040283529160200191610708565b820191906000526020600020905b8154815290600101906020018083116106eb57829003601f168201915b5050505050905086565b606060011515600460003373ffffffffffffffffffffffffffffffffffffffff1673ffffffffffffffffffffffffffffffffffffffff16815260200190815260200160002060009054906101000a900460ff161515146107a7576040517f08c379a000000000000000000000000000000000000000000000000000000000815260040161079e90612686565b60405180910390fd5b600073ffffffffffffffffffffffffffffffffffffffff168273ffffffffffffffffffffffffffffffffffffffff1603610816576040517f08c379a000000000000000000000000000000000000000000000000000000000815260040161080d906126f2565b60405180910390fd5b60008054906101000a900473ffffffffffffffffffffffffffffffffffffffff1673ffffffffffffffffffffffffffffffffffffffff163373ffffffffffffffffffffffffffffffffffffffff16148061089b57508173ffffffffffffffffffffffffffffffffffffffff163373ffffffffffffffffffffffffffffffffffffffff16145b6108da576040517f08c379a00000000000000000000000000000000000000000000000000000000081526004016108d190612784565b60405180910390fd5b600360008373ffffffffffffffffffffffffffffffffffffffff1673ffffffffffffffffffffffffffffffffffffffff1681526020019081526020016000208054610924906125e3565b80601f0160208091040260200160405190810160405280929190818152602001828054610950906125e3565b801561099d5780601f106109725761010080835404028352916020019161099d565b820191906000526020600020905b81548152906001019060200180831161098057829003601f168201915b50505050509050919050565b60026020528060005260406000206000915054906101000a900460ff1681565b60011515600260003373ffffffffffffffffffffffffffffffffffffffff1673ffffffffffffffffffffffffffffffffffffffff16815260200190815260200160002060009054906101000a900460ff16151514610a5c576040517f08c379a0000000000000000000000000000000000000000000000000000000008152600401610a5390612528565b60405180910390fd5b600754821115610aa1576040517f08c379a0000000000000000000000000000000000000000000000000000000008152600401610a9890612594565b60405180910390fd5b60008111610ae4576040517f08c379a0000000000000000000000000000000000000000000000000000000008152600401610adb90612816565b60405180910390fd5b8060056000848152602001908152602001600020600201541015610b3d576040517f08c379a0000000000000000000000000000000000000000000000000000000008152600401610b3490612882565b60405180910390fd5b6000816005600085815260200190815260200160002060030154610b6191906128d1565b905080341015610ba6576040517f08c379a0000000000000000000000000000000000000000000000000000000008152600401610b9d9061295f565b60405180910390fd5b60008134610bb4919061297f565b90506000811115610c07573373ffffffffffffffffffffffffffffffffffffffff166108fc829081150290604051600060405180830381858888f19350505050158015610c05573d6000803e3d6000fd5b505b82600560008681526020019081526020016000206002016000828254610c2d919061297f565b925050819055506005600085815260200190815260200160002060040160009054906101000a900473ffffffffffffffffffffffffffffffffffffffff1673ffffffffffffffffffffffffffffffffffffffff166108fc839081150290604051600060405180830381858888f19350505050158015610cb0573d6000803e3d6000fd5b506000600660003373ffffffffffffffffffffffffffffffffffffffff1673ffffffffffffffffffffffffffffffffffffffff16815260200190815260200160002090508060405180608001604052803373ffffffffffffffffffffffffffffffffffffffff168152602001600560008981526020019081526020016000206000018054610d3d906125e3565b80601f0160208091040260200160405190810160405280929190818152602001828054610d69906125e3565b8015610db65780601f10610d8b57610100808354040283529160200191610db6565b820191906000526020600020905b815481529060010190602001808311610d9957829003601f168201915b5050505050815260200187815260200186815250908060018154018082558091505060019003906000526020600020906004020160009091909190915060008201518160000160006101000a81548173ffffffffffffffffffffffffffffffffffffffff021916908373ffffffffffffffffffffffffffffffffffffffff1602179055506020820151816001019081610e4f9190612b5f565b50604082015181600201556060820151816003015550503373ffffffffffffffffffffffffffffffffffffffff1684867f94c5953e15f54d38b82a662bdd5739fc91af3a23d3ef7e67269dfaeee71a813c60405160405180910390a45050505050565b60011515600260003373ffffffffffffffffffffffffffffffffffffffff1673ffffffffffffffffffffffffffffffffffffffff16815260200190815260200160002060009054906101000a900460ff16151514610f45576040517f08c379a0000000000000000000000000000000000000000000000000000000008152600401610f3c90612528565b60405180910390fd5b6000815111610f89576040517f08c379a0000000000000000000000000000000000000000000000000000000008152600401610f8090612c7d565b60405180910390fd5b80600360003373ffffffffffffffffffffffffffffffffffffffff1673ffffffffffffffffffffffffffffffffffffffff1681526020019081526020016000209081610fd59190612b5f565b506001600460003373ffffffffffffffffffffffffffffffffffffffff1673ffffffffffffffffffffffffffffffffffffffff16815260200190815260200160002060006101000a81548160ff0219169083151502179055508060405161103c9190612cd9565b60405180910390203373ffffffffffffffffffffffffffffffffffffffff167fac35be65b927c19690056f54322574255afb94436fc8b4637810cfcc1fb3daae60405160405180910390a350565b60008151116110ce576040517f08c379a00000000000000000000000000000000000000000000000000000000081526004016110c590612c7d565b60405180910390fd5b80600160003373ffffffffffffffffffffffffffffffffffffffff1673ffffffffffffffffffffffffffffffffffffffff168152602001908152602001600020908161111a9190612b5f565b506001600260003373ffffffffffffffffffffffffffffffffffffffff1673ffffffffffffffffffffffffffffffffffffffff16815260200190815260200160002060006101000a81548160ff021916908315150217905550806040516111819190612cd9565b60405180910390203373ffffffffffffffffffffffffffffffffffffffff167f48cac28ad4dc618e15f4c2dd5e97751182f166de97b25618318b2112aa951a2f60405160405180910390a350565b600660205281600052604060002081815481106111eb57600080fd5b9060005260206000209060040201600091509150508060000160009054906101000a900473ffffffffffffffffffffffffffffffffffffffff1690806001018054611235906125e3565b80601f0160208091040260200160405190810160405280929190818152602001828054611261906125e3565b80156112ae5780601f10611283576101008083540402835291602001916112ae565b820191906000526020600020905b81548152906001019060200180831161129157829003601f168201915b5050505050908060020154908060030154905084565b60008054906101000a900473ffffffffffffffffffffffffffffffffffffffff1681565b60016020528060005260406000206000915090508054611307906125e3565b80601f0160208091040260200160405190810160405280929190818152602001828054611333906125e3565b80156113805780601f1061135557610100808354040283529160200191611380565b820191906000526020600020905b81548152906001019060200180831161136357829003601f168201915b505050505081565b606060011515600260003373ffffffffffffffffffffffffffffffffffffffff1673ffffffffffffffffffffffffffffffffffffffff16815260200190815260200160002060009054906101000a900460ff1615151461141d576040517f08c379a000000000000000000000000000000000000000000000000000000000815260040161141490612528565b60405180910390fd5b600060075467ffffffffffffffff81111561143b5761143a612011565b5b60405190808252806020026020018201604052801561147457816020015b611461611cf2565b8152602001906001900390816114595790505b5090506000600190505b600754811161167a57600560008281526020019081526020016000206040518060c00160405290816000820180546114b5906125e3565b80601f01602080910402602001604051908101604052809291908181526020018280546114e1906125e3565b801561152e5780601f106115035761010080835404028352916020019161152e565b820191906000526020600020905b81548152906001019060200180831161151157829003601f168201915b505050505081526020016001820154815260200160028201548152602001600382015481526020016004820160009054906101000a900473ffffffffffffffffffffffffffffffffffffffff1673ffffffffffffffffffffffffffffffffffffffff1673ffffffffffffffffffffffffffffffffffffffff1681526020016005820180546115bb906125e3565b80601f01602080910402602001604051908101604052809291908181526020018280546115e7906125e3565b80156116345780601f1061160957610100808354040283529160200191611634565b820191906000526020600020905b81548152906001019060200180831161161757829003601f168201915b5050505050815250508260018361164b919061297f565b8151811061165c5761165b612cf0565b5b6020026020010181905250808061167290612d1f565b91505061147e565b508091505090565b6060600073ffffffffffffffffffffffffffffffffffffffff168273ffffffffffffffffffffffffffffffffffffffff16036116f3576040517f08c379a00000000000000000000000000000000000000000000000000000000081526004016116ea906126f2565b60405180910390fd5b60008054906101000a900473ffffffffffffffffffffffffffffffffffffffff1673ffffffffffffffffffffffffffffffffffffffff163373ffffffffffffffffffffffffffffffffffffffff16148061177857508173ffffffffffffffffffffffffffffffffffffffff163373ffffffffffffffffffffffffffffffffffffffff16145b6117b7576040517f08c379a00000000000000000000000000000000000000000000000000000000081526004016117ae90612dd9565b60405180910390fd5b600160008373ffffffffffffffffffffffffffffffffffffffff1673ffffffffffffffffffffffffffffffffffffffff1681526020019081526020016000208054611801906125e3565b80601f016020809104026020016040519081016040528092919081815260200182805461182d906125e3565b801561187a5780601f1061184f5761010080835404028352916020019161187a565b820191906000526020600020905b81548152906001019060200180831161185d57829003601f168201915b50505050509050919050565b60011515600460003373ffffffffffffffffffffffffffffffffffffffff1673ffffffffffffffffffffffffffffffffffffffff16815260200190815260200160002060009054906101000a900460ff16151514611919576040517f08c379a000000000000000000000000000000000000000000000000000000000815260040161191090612686565b60405180910390fd5b600084511161195d576040517f08c379a000000000000000000000000000000000000000000000000000000000815260040161195490612e45565b60405180910390fd5b60008151116119a1576040517f08c379a000000000000000000000000000000000000000000000000000000000815260040161199890612ed7565b60405180910390fd5b600083116119e4576040517f08c379a00000000000000000000000000000000000000000000000000000000081526004016119db90612816565b60405180910390fd5b60006064600385856119f691906128d1565b611a0091906128d1565b611a0a9190612f26565b905080341015611a4f576040517f08c379a0000000000000000000000000000000000000000000000000000000008152600401611a469061295f565b60405180910390fd5b60008134611a5d919061297f565b90506000811115611ab0573373ffffffffffffffffffffffffffffffffffffffff166108fc829081150290604051600060405180830381858888f19350505050158015611aae573d6000803e3d6000fd5b505b60008054906101000a900473ffffffffffffffffffffffffffffffffffffffff1673ffffffffffffffffffffffffffffffffffffffff166108fc839081150290604051600060405180830381858888f19350505050158015611b16573d6000803e3d6000fd5b5060076000815480929190611b2a90612d1f565b91905055506007547f748ff5cfd7b66bdd8e21581c2a864756fe7085378c0003183e579bfafba2832560405160405180910390a26040518060c001604052808781526020018681526020018681526020018581526020013373ffffffffffffffffffffffffffffffffffffffff168152602001848152506005600060075481526020019081526020016000206000820151816000019081611bcb9190612b5f565b5060208201518160010155604082015181600201556060820151816003015560808201518160040160006101000a81548173ffffffffffffffffffffffffffffffffffffffff021916908373ffffffffffffffffffffffffffffffffffffffff16021790555060a0820151816005019081611c469190612b5f565b50905050505050505050565b60036020528060005260406000206000915090508054611c71906125e3565b80601f0160208091040260200160405190810160405280929190818152602001828054611c9d906125e3565b8015611cea5780601f10611cbf57610100808354040283529160200191611cea565b820191906000526020600020905b815481529060010190602001808311611ccd57829003601f168201915b505050505081565b6040518060c0016040528060608152602001600081526020016000815260200160008152602001600073ffffffffffffffffffffffffffffffffffffffff168152602001606081525090565b6000604051905090565b600080fd5b600080fd5b6000819050919050565b611d6581611d52565b8114611d7057600080fd5b50565b600081359050611d8281611d5c565b92915050565b600060208284031215611d9e57611d9d611d48565b5b6000611dac84828501611d73565b91505092915050565b600081519050919050565b600082825260208201905092915050565b60005b83811015611def578082015181840152602081019050611dd4565b60008484015250505050565b6000601f19601f8301169050919050565b6000611e1782611db5565b611e218185611dc0565b9350611e31818560208601611dd1565b611e3a81611dfb565b840191505092915050565b60006020820190508181036000830152611e5f8184611e0c565b905092915050565b600073ffffffffffffffffffffffffffffffffffffffff82169050919050565b6000611e9282611e67565b9050919050565b611ea281611e87565b8114611ead57600080fd5b50565b600081359050611ebf81611e99565b92915050565b600060208284031215611edb57611eda611d48565b5b6000611ee984828501611eb0565b91505092915050565b60008115159050919050565b611f0781611ef2565b82525050565b6000602082019050611f226000830184611efe565b92915050565b611f3181611d52565b82525050565b6000611f4282611e67565b9050919050565b611f5281611f37565b82525050565b600060c0820190508181036000830152611f728189611e0c565b9050611f816020830188611f28565b611f8e6040830187611f28565b611f9b6060830186611f28565b611fa86080830185611f49565b81810360a0830152611fba8184611e0c565b9050979650505050505050565b60008060408385031215611fde57611fdd611d48565b5b6000611fec85828601611d73565b9250506020611ffd85828601611d73565b9150509250929050565b600080fd5b600080fd5b7f4e487b7100000000000000000000000000000000000000000000000000000000600052604160045260246000fd5b61204982611dfb565b810181811067ffffffffffffffff8211171561206857612067612011565b5b80604052505050565b600061207b611d3e565b90506120878282612040565b919050565b600067ffffffffffffffff8211156120a7576120a6612011565b5b6120b082611dfb565b9050602081019050919050565b82818337600083830152505050565b60006120df6120da8461208c565b612071565b9050828152602081018484840111156120fb576120fa61200c565b5b6121068482856120bd565b509392505050565b600082601f83011261212357612122612007565b5b81356121338482602086016120cc565b91505092915050565b60006020828403121561215257612151611d48565b5b600082013567ffffffffffffffff8111156121705761216f611d4d565b5b61217c8482850161210e565b91505092915050565b6000806040838503121561219c5761219b611d48565b5b60006121aa85828601611eb0565b92505060206121bb85828601611d73565b9150509250929050565b6121ce81611e87565b82525050565b60006080820190506121e960008301876121c5565b81810360208301526121fb8186611e0c565b905061220a6040830185611f28565b6122176060830184611f28565b95945050505050565b60006020820190506122356000830184611f49565b92915050565b600081519050919050565b600082825260208201905092915050565b6000819050602082019050919050565b600082825260208201905092915050565b600061228382611db5565b61228d8185612267565b935061229d818560208601611dd1565b6122a681611dfb565b840191505092915050565b6122ba81611d52565b82525050565b6122c981611f37565b82525050565b600060c08301600083015184820360008601526122ec8282612278565b915050602083015161230160208601826122b1565b50604083015161231460408601826122b1565b50606083015161232760608601826122b1565b50608083015161233a60808601826122c0565b5060a083015184820360a08601526123528282612278565b9150508091505092915050565b600061236b83836122cf565b905092915050565b6000602082019050919050565b600061238b8261223b565b6123958185612246565b9350836020820285016123a785612257565b8060005b858110156123e357848403895281516123c4858261235f565b94506123cf83612373565b925060208a019950506001810190506123ab565b50829750879550505050505092915050565b6000602082019050818103600083015261240f8184612380565b905092915050565b6000806000806080858703121561243157612430611d48565b5b600085013567ffffffffffffffff81111561244f5761244e611d4d565b5b61245b8782880161210e565b945050602061246c87828801611d73565b935050604061247d87828801611d73565b925050606085013567ffffffffffffffff81111561249e5761249d611d4d565b5b6124aa8782880161210e565b91505092959194509250565b7f4f6e6c7920726567697374657265642075736572732063616e2063616c6c207460008201527f6869732066756e6374696f6e0000000000000000000000000000000000000000602082015250565b6000612512602c83611dc0565b915061251d826124b6565b604082019050919050565b6000602082019050818103600083015261254181612505565b9050919050565b7f4576656e7420646f6573206e6f74206578697374000000000000000000000000600082015250565b600061257e601483611dc0565b915061258982612548565b602082019050919050565b600060208201905081810360008301526125ad81612571565b9050919050565b7f4e487b7100000000000000000000000000000000000000000000000000000000600052602260045260246000fd5b600060028204905060018216806125fb57607f821691505b60208210810361260e5761260d6125b4565b5b50919050565b7f4f6e6c792072656769737465726564206f7267616e697a6572732063616e206360008201527f616c6c20746869732066756e6374696f6e000000000000000000000000000000602082015250565b6000612670603183611dc0565b915061267b82612614565b604082019050919050565b6000602082019050818103600083015261269f81612663565b9050919050565b7f496e76616c696420616464726573730000000000000000000000000000000000600082015250565b60006126dc600f83611dc0565b91506126e7826126a6565b602082019050919050565b6000602082019050818103600083015261270b816126cf565b9050919050565b7f4f6e6c79206f776e6572206f72206f7267616e697a65722063616e2063616c6c60008201527f20746869732066756e6374696f6e000000000000000000000000000000000000602082015250565b600061276e602e83611dc0565b915061277982612712565b604082019050919050565b6000602082019050818103600083015261279d81612761565b9050919050565b7f546f74616c207469636b6574732073686f756c6420626520677265617465722060008201527f7468616e20300000000000000000000000000000000000000000000000000000602082015250565b6000612800602683611dc0565b915061280b826127a4565b604082019050919050565b6000602082019050818103600083015261282f816127f3565b9050919050565b7f4e6f7420656e6f756768207469636b65747320617661696c61626c6500000000600082015250565b600061286c601c83611dc0565b915061287782612836565b602082019050919050565b6000602082019050818103600083015261289b8161285f565b9050919050565b7f4e487b7100000000000000000000000000000000000000000000000000000000600052601160045260246000fd5b60006128dc82611d52565b91506128e783611d52565b92508282026128f581611d52565b9150828204841483151761290c5761290b6128a2565b5b5092915050565b7f4e6f7420656e6f7567682065746865722073656e740000000000000000000000600082015250565b6000612949601583611dc0565b915061295482612913565b602082019050919050565b600060208201905081810360008301526129788161293c565b9050919050565b600061298a82611d52565b915061299583611d52565b92508282039050818111156129ad576129ac6128a2565b5b92915050565b60008190508160005260206000209050919050565b60006020601f8301049050919050565b600082821b905092915050565b600060088302612a157fffffffffffffffffffffffffffffffffffffffffffffffffffffffffffffffff826129d8565b612a1f86836129d8565b95508019841693508086168417925050509392505050565b6000819050919050565b6000612a5c612a57612a5284611d52565b612a37565b611d52565b9050919050565b6000819050919050565b612a7683612a41565b612a8a612a8282612a63565b8484546129e5565b825550505050565b600090565b612a9f612a92565b612aaa818484612a6d565b505050565b5b81811015612ace57612ac3600082612a97565b600181019050612ab0565b5050565b601f821115612b1357612ae4816129b3565b612aed846129c8565b81016020851015612afc578190505b612b10612b08856129c8565b830182612aaf565b50505b505050565b600082821c905092915050565b6000612b3660001984600802612b18565b1980831691505092915050565b6000612b4f8383612b25565b9150826002028217905092915050565b612b6882611db5565b67ffffffffffffffff811115612b8157612b80612011565b5b612b8b82546125e3565b612b96828285612ad2565b600060209050601f831160018114612bc95760008415612bb7578287015190505b612bc18582612b43565b865550612c29565b601f198416612bd7866129b3565b60005b82811015612bff57848901518255600182019150602085019450602081019050612bda565b86831015612c1c5784890151612c18601f891682612b25565b8355505b6001600288020188555050505b505050505050565b7f4349442063616e6e6f7420626520656d70747900000000000000000000000000600082015250565b6000612c67601383611dc0565b9150612c7282612c31565b602082019050919050565b60006020820190508181036000830152612c9681612c5a565b9050919050565b600081905092915050565b6000612cb382611db5565b612cbd8185612c9d565b9350612ccd818560208601611dd1565b80840191505092915050565b6000612ce58284612ca8565b915081905092915050565b7f4e487b7100000000000000000000000000000000000000000000000000000000600052603260045260246000fd5b6000612d2a82611d52565b91507fffffffffffffffffffffffffffffffffffffffffffffffffffffffffffffffff8203612d5c57612d5b6128a2565b5b600182019050919050565b7f4f6e6c79206f776e6572206f7220757365722063616e2063616c6c207468697360008201527f2066756e6374696f6e0000000000000000000000000000000000000000000000602082015250565b6000612dc3602983611dc0565b9150612dce82612d67565b604082019050919050565b60006020820190508181036000830152612df281612db6565b9050919050565b7f4576656e74204349442073686f756c64206e6f7420626520656d707479000000600082015250565b6000612e2f601d83611dc0565b9150612e3a82612df9565b602082019050919050565b60006020820190508181036000830152612e5e81612e22565b9050919050565b7f4576656e7420496d616765204349442073686f756c64206e6f7420626520656d60008201527f7074790000000000000000000000000000000000000000000000000000000000602082015250565b6000612ec1602383611dc0565b9150612ecc82612e65565b604082019050919050565b60006020820190508181036000830152612ef081612eb4565b9050919050565b7f4e487b7100000000000000000000000000000000000000000000000000000000600052601260045260246000fd5b6000612f3182611d52565b9150612f3c83611d52565b925082612f4c57612f4b612ef7565b5b82820490509291505056fea264697066735822122034e2b71992e991b25cf57f120c154cf7d9e97fba2f1267c6482fa467667f05b164736f6c63430008130033",
  "linkReferences": {},
  "deployedLinkReferences": {}
}