{
  "_format": "hh-sol-artifact-1",
  "contractName": "Tickets",
  "sourceName": "contracts/Tickets.sol",
  "abi": [
    {
      "anonymous": false,
      "inputs": [
        {
          "indexed": true,
          "internalType": "uint256",
          "name": "eventId",
          "type": "uint256"
        }
      ],
      "name": "EventCreated",
      "type": "event"
    },
    {
      "anonymous": false,
      "inputs": [
        {
          "indexed": true,
          "internalType": "address",
          "name": "organizerAddress",
          "type": "address"
        },
        {
          "indexed": true,
          "internalType": "string",
          "name": "CID",
          "type": "string"
        }
      ],
      "name": "OrganizerRegistered",
      "type": "event"
    },
    {
      "anonymous": false,
      "inputs": [
        {
          "indexed": true,
          "internalType": "uint256",
          "name": "eventId",
          "type": "uint256"
        },
        {
          "indexed": true,
          "internalType": "uint256",
          "name": "ticketsBought",
          "type": "uint256"
        },
        {
          "indexed": true,
          "internalType": "address",
          "name": "buyer",
          "type": "address"
        }
      ],
      "name": "TicketPurchased",
      "type": "event"
    },
    {
      "anonymous": false,
      "inputs": [
        {
          "indexed": true,
          "internalType": "address",
          "name": "userAddress",
          "type": "address"
        },
        {
          "indexed": true,
          "internalType": "string",
          "name": "CID",
          "type": "string"
        }
      ],
      "name": "UserRegistered",
      "type": "event"
    },
    {
      "inputs": [
        {
          "internalType": "uint256",
          "name": "_eventId",
          "type": "uint256"
        },
        {
          "internalType": "uint256",
          "name": "_totalTicketsToBuy",
          "type": "uint256"
        }
      ],
      "name": "buyTicket",
      "outputs": [],
      "stateMutability": "payable",
      "type": "function"
    },
    {
      "inputs": [
        {
          "internalType": "string",
          "name": "_eventCid",
          "type": "string"
        },
        {
          "internalType": "uint256",
          "name": "_totalTickets",
          "type": "uint256"
        },
        {
          "internalType": "uint256",
          "name": "_price",
          "type": "uint256"
        }
      ],
      "name": "createEvent",
      "outputs": [],
      "stateMutability": "payable",
      "type": "function"
    },
    {
      "inputs": [
        {
          "internalType": "uint256",
          "name": "",
          "type": "uint256"
        }
      ],
      "name": "events",
      "outputs": [
        {
          "internalType": "string",
          "name": "eventCID",
          "type": "string"
        },
        {
          "internalType": "uint256",
          "name": "totalTickets",
          "type": "uint256"
        },
        {
          "internalType": "uint256",
          "name": "remTickets",
          "type": "uint256"
        },
        {
          "internalType": "uint256",
          "name": "price",
          "type": "uint256"
        },
        {
          "internalType": "address payable",
          "name": "creator",
          "type": "address"
        }
      ],
      "stateMutability": "view",
      "type": "function"
    },
    {
      "inputs": [],
      "name": "getAllEvents",
      "outputs": [
        {
          "components": [
            {
              "internalType": "string",
              "name": "eventCID",
              "type": "string"
            },
            {
              "internalType": "uint256",
              "name": "totalTickets",
              "type": "uint256"
            },
            {
              "internalType": "uint256",
              "name": "remTickets",
              "type": "uint256"
            },
            {
              "internalType": "uint256",
              "name": "price",
              "type": "uint256"
            },
            {
              "internalType": "address payable",
              "name": "creator",
              "type": "address"
            }
          ],
          "internalType": "struct Tickets.Event[]",
          "name": "",
          "type": "tuple[]"
        }
      ],
      "stateMutability": "view",
      "type": "function"
    },
    {
      "inputs": [
        {
          "internalType": "uint256",
          "name": "_eventId",
          "type": "uint256"
        }
      ],
      "name": "getIpfsCID",
      "outputs": [
        {
          "internalType": "string",
          "name": "",
          "type": "string"
        }
      ],
      "stateMutability": "view",
      "type": "function"
    },
    {
      "inputs": [
        {
          "internalType": "address",
          "name": "_organizerAddress",
          "type": "address"
        }
      ],
      "name": "getOrganizerCID",
      "outputs": [
        {
          "internalType": "string",
          "name": "",
          "type": "string"
        }
      ],
      "stateMutability": "view",
      "type": "function"
    },
    {
      "inputs": [
        {
          "internalType": "address",
          "name": "_userAddress",
          "type": "address"
        }
      ],
      "name": "getUserCID",
      "outputs": [
        {
          "internalType": "string",
          "name": "",
          "type": "string"
        }
      ],
      "stateMutability": "view",
      "type": "function"
    },
    {
      "inputs": [
        {
          "internalType": "address",
          "name": "",
          "type": "address"
        }
      ],
      "name": "isUsers",
      "outputs": [
        {
          "internalType": "bool",
          "name": "",
          "type": "bool"
        }
      ],
      "stateMutability": "view",
      "type": "function"
    },
    {
      "inputs": [
        {
          "internalType": "address",
          "name": "",
          "type": "address"
        }
      ],
      "name": "organizerCID",
      "outputs": [
        {
          "internalType": "string",
          "name": "",
          "type": "string"
        }
      ],
      "stateMutability": "view",
      "type": "function"
    },
    {
      "inputs": [
        {
          "internalType": "address",
          "name": "",
          "type": "address"
        }
      ],
      "name": "organizers",
      "outputs": [
        {
          "internalType": "bool",
          "name": "",
          "type": "bool"
        }
      ],
      "stateMutability": "view",
      "type": "function"
    },
    {
      "inputs": [],
      "name": "owner",
      "outputs": [
        {
          "internalType": "address payable",
          "name": "",
          "type": "address"
        }
      ],
      "stateMutability": "view",
      "type": "function"
    },
    {
      "inputs": [
        {
          "internalType": "string",
          "name": "_CID",
          "type": "string"
        }
      ],
      "name": "registerEventOrganizer",
      "outputs": [],
      "stateMutability": "nonpayable",
      "type": "function"
    },
    {
      "inputs": [
        {
          "internalType": "string",
          "name": "_CID",
          "type": "string"
        }
      ],
      "name": "registerUser",
      "outputs": [],
      "stateMutability": "nonpayable",
      "type": "function"
    },
    {
      "inputs": [
        {
          "internalType": "address",
          "name": "",
          "type": "address"
        },
        {
          "internalType": "uint256",
          "name": "",
          "type": "uint256"
        }
      ],
      "name": "ticketHolders",
      "outputs": [
        {
          "internalType": "address",
          "name": "userAddress",
          "type": "address"
        },
        {
          "internalType": "string",
          "name": "eventName",
          "type": "string"
        },
        {
          "internalType": "uint256",
          "name": "eventId",
          "type": "uint256"
        },
        {
          "internalType": "uint256",
          "name": "ticketsOwned",
          "type": "uint256"
        }
      ],
      "stateMutability": "view",
      "type": "function"
    },
    {
      "inputs": [
        {
          "internalType": "address",
          "name": "",
          "type": "address"
        }
      ],
      "name": "userCID",
      "outputs": [
        {
          "internalType": "string",
          "name": "",
          "type": "string"
        }
      ],
      "stateMutability": "view",
      "type": "function"
    }
  ],
  "bytecode": "0x608060405234801561001057600080fd5b50336000806101000a81548173ffffffffffffffffffffffffffffffffffffffff021916908373ffffffffffffffffffffffffffffffffffffffff160217905550612d13806100606000396000f3fe6080604052600436106100e85760003560e01c8063704f1b941161008a578063a5240e4911610059578063a5240e4914610317578063c27a500d14610354578063e4d7c8301461037f578063fb894fa2146103bc576100e8565b8063704f1b941461026757806382615569146102905780638da5cb5b146102d05780639e9580f6146102fb576100e8565b806320e24413116100c657806320e24413146101a8578063296c0c07146101e5578063298ec2081461022257806363d3b0191461023e576100e8565b8063038a03c4146100ed5780630544c5b91461012a5780630b79143014610167575b600080fd5b3480156100f957600080fd5b50610114600480360381019061010f9190611bff565b6103f9565b6040516101219190611cbc565b60405180910390f35b34801561013657600080fd5b50610151600480360381019061014c9190611d3c565b610585565b60405161015e9190611d84565b60405180910390f35b34801561017357600080fd5b5061018e60048036038101906101899190611bff565b6105a5565b60405161019f959493929190611dcf565b60405180910390f35b3480156101b457600080fd5b506101cf60048036038101906101ca9190611d3c565b610683565b6040516101dc9190611cbc565b60405180910390f35b3480156101f157600080fd5b5061020c60048036038101906102079190611d3c565b61091a565b6040516102199190611d84565b60405180910390f35b61023c60048036038101906102379190611e29565b61093a565b005b34801561024a57600080fd5b5061026560048036038101906102609190611f9e565b610e23565b005b34801561027357600080fd5b5061028e60048036038101906102899190611f9e565b610ffb565b005b34801561029c57600080fd5b506102b760048036038101906102b29190611fe7565b611140565b6040516102c79493929190612036565b60405180910390f35b3480156102dc57600080fd5b506102e5611235565b6040516102f29190612082565b60405180910390f35b6103156004803603810190610310919061209d565b611259565b005b34801561032357600080fd5b5061033e60048036038101906103399190611d3c565b6115c4565b60405161034b9190611cbc565b60405180910390f35b34801561036057600080fd5b50610369611664565b60405161037691906122ac565b60405180910390f35b34801561038b57600080fd5b506103a660048036038101906103a19190611d3c565b6118cc565b6040516103b39190611cbc565b60405180910390f35b3480156103c857600080fd5b506103e360048036038101906103de9190611d3c565b611ad0565b6040516103f09190611cbc565b60405180910390f35b606060011515600260003373ffffffffffffffffffffffffffffffffffffffff1673ffffffffffffffffffffffffffffffffffffffff16815260200190815260200160002060009054906101000a900460ff1615151461048e576040517f08c379a000000000000000000000000000000000000000000000000000000000815260040161048590612340565b60405180910390fd5b6000821180156104a057506007548211155b6104df576040517f08c379a00000000000000000000000000000000000000000000000000000000081526004016104d6906123ac565b60405180910390fd5b600560008381526020019081526020016000206000018054610500906123fb565b80601f016020809104026020016040519081016040528092919081815260200182805461052c906123fb565b80156105795780601f1061054e57610100808354040283529160200191610579565b820191906000526020600020905b81548152906001019060200180831161055c57829003601f168201915b50505050509050919050565b60046020528060005260406000206000915054906101000a900460ff1681565b60056020528060005260406000206000915090508060000180546105c8906123fb565b80601f01602080910402602001604051908101604052809291908181526020018280546105f4906123fb565b80156106415780601f1061061657610100808354040283529160200191610641565b820191906000526020600020905b81548152906001019060200180831161062457829003601f168201915b5050505050908060010154908060020154908060030154908060040160009054906101000a900473ffffffffffffffffffffffffffffffffffffffff16905085565b606060011515600460003373ffffffffffffffffffffffffffffffffffffffff1673ffffffffffffffffffffffffffffffffffffffff16815260200190815260200160002060009054906101000a900460ff16151514610718576040517f08c379a000000000000000000000000000000000000000000000000000000000815260040161070f9061249e565b60405180910390fd5b600073ffffffffffffffffffffffffffffffffffffffff168273ffffffffffffffffffffffffffffffffffffffff1603610787576040517f08c379a000000000000000000000000000000000000000000000000000000000815260040161077e9061250a565b60405180910390fd5b60008054906101000a900473ffffffffffffffffffffffffffffffffffffffff1673ffffffffffffffffffffffffffffffffffffffff163373ffffffffffffffffffffffffffffffffffffffff16148061080c57508173ffffffffffffffffffffffffffffffffffffffff163373ffffffffffffffffffffffffffffffffffffffff16145b61084b576040517f08c379a00000000000000000000000000000000000000000000000000000000081526004016108429061259c565b60405180910390fd5b600360008373ffffffffffffffffffffffffffffffffffffffff1673ffffffffffffffffffffffffffffffffffffffff1681526020019081526020016000208054610895906123fb565b80601f01602080910402602001604051908101604052809291908181526020018280546108c1906123fb565b801561090e5780601f106108e35761010080835404028352916020019161090e565b820191906000526020600020905b8154815290600101906020018083116108f157829003601f168201915b50505050509050919050565b60026020528060005260406000206000915054906101000a900460ff1681565b60011515600260003373ffffffffffffffffffffffffffffffffffffffff1673ffffffffffffffffffffffffffffffffffffffff16815260200190815260200160002060009054906101000a900460ff161515146109cd576040517f08c379a00000000000000000000000000000000000000000000000000000000081526004016109c490612340565b60405180910390fd5b600754821115610a12576040517f08c379a0000000000000000000000000000000000000000000000000000000008152600401610a09906123ac565b60405180910390fd5b60008111610a55576040517f08c379a0000000000000000000000000000000000000000000000000000000008152600401610a4c9061262e565b60405180910390fd5b8060056000848152602001908152602001600020600201541015610aae576040517f08c379a0000000000000000000000000000000000000000000000000000000008152600401610aa59061269a565b60405180910390fd5b6000816005600085815260200190815260200160002060030154610ad291906126e9565b905080341015610b17576040517f08c379a0000000000000000000000000000000000000000000000000000000008152600401610b0e90612777565b60405180910390fd5b60008134610b259190612797565b90506000811115610b78573373ffffffffffffffffffffffffffffffffffffffff166108fc829081150290604051600060405180830381858888f19350505050158015610b76573d6000803e3d6000fd5b505b82600560008681526020019081526020016000206002016000828254610b9e9190612797565b925050819055506005600085815260200190815260200160002060040160009054906101000a900473ffffffffffffffffffffffffffffffffffffffff1673ffffffffffffffffffffffffffffffffffffffff166108fc839081150290604051600060405180830381858888f19350505050158015610c21573d6000803e3d6000fd5b506000600660003373ffffffffffffffffffffffffffffffffffffffff1673ffffffffffffffffffffffffffffffffffffffff16815260200190815260200160002090508060405180608001604052803373ffffffffffffffffffffffffffffffffffffffff168152602001600560008981526020019081526020016000206000018054610cae906123fb565b80601f0160208091040260200160405190810160405280929190818152602001828054610cda906123fb565b8015610d275780601f10610cfc57610100808354040283529160200191610d27565b820191906000526020600020905b815481529060010190602001808311610d0a57829003601f168201915b5050505050815260200187815260200186815250908060018154018082558091505060019003906000526020600020906004020160009091909190915060008201518160000160006101000a81548173ffffffffffffffffffffffffffffffffffffffff021916908373ffffffffffffffffffffffffffffffffffffffff1602179055506020820151816001019081610dc09190612977565b50604082015181600201556060820151816003015550503373ffffffffffffffffffffffffffffffffffffffff1684867f94c5953e15f54d38b82a662bdd5739fc91af3a23d3ef7e67269dfaeee71a813c60405160405180910390a45050505050565b60011515600260003373ffffffffffffffffffffffffffffffffffffffff1673ffffffffffffffffffffffffffffffffffffffff16815260200190815260200160002060009054906101000a900460ff16151514610eb6576040517f08c379a0000000000000000000000000000000000000000000000000000000008152600401610ead90612340565b60405180910390fd5b6000815111610efa576040517f08c379a0000000000000000000000000000000000000000000000000000000008152600401610ef190612a95565b60405180910390fd5b80600360003373ffffffffffffffffffffffffffffffffffffffff1673ffffffffffffffffffffffffffffffffffffffff1681526020019081526020016000209081610f469190612977565b506001600460003373ffffffffffffffffffffffffffffffffffffffff1673ffffffffffffffffffffffffffffffffffffffff16815260200190815260200160002060006101000a81548160ff02191690831515021790555080604051610fad9190612af1565b60405180910390203373ffffffffffffffffffffffffffffffffffffffff167fac35be65b927c19690056f54322574255afb94436fc8b4637810cfcc1fb3daae60405160405180910390a350565b600081511161103f576040517f08c379a000000000000000000000000000000000000000000000000000000000815260040161103690612a95565b60405180910390fd5b80600160003373ffffffffffffffffffffffffffffffffffffffff1673ffffffffffffffffffffffffffffffffffffffff168152602001908152602001600020908161108b9190612977565b506001600260003373ffffffffffffffffffffffffffffffffffffffff1673ffffffffffffffffffffffffffffffffffffffff16815260200190815260200160002060006101000a81548160ff021916908315150217905550806040516110f29190612af1565b60405180910390203373ffffffffffffffffffffffffffffffffffffffff167f48cac28ad4dc618e15f4c2dd5e97751182f166de97b25618318b2112aa951a2f60405160405180910390a350565b6006602052816000526040600020818154811061115c57600080fd5b9060005260206000209060040201600091509150508060000160009054906101000a900473ffffffffffffffffffffffffffffffffffffffff16908060010180546111a6906123fb565b80601f01602080910402602001604051908101604052809291908181526020018280546111d2906123fb565b801561121f5780601f106111f45761010080835404028352916020019161121f565b820191906000526020600020905b81548152906001019060200180831161120257829003601f168201915b5050505050908060020154908060030154905084565b60008054906101000a900473ffffffffffffffffffffffffffffffffffffffff1681565b60011515600460003373ffffffffffffffffffffffffffffffffffffffff1673ffffffffffffffffffffffffffffffffffffffff16815260200190815260200160002060009054906101000a900460ff161515146112ec576040517f08c379a00000000000000000000000000000000000000000000000000000000081526004016112e39061249e565b60405180910390fd5b6000835111611330576040517f08c379a000000000000000000000000000000000000000000000000000000000815260040161132790612b54565b60405180910390fd5b60008211611373576040517f08c379a000000000000000000000000000000000000000000000000000000000815260040161136a9061262e565b60405180910390fd5b600060646003848461138591906126e9565b61138f91906126e9565b6113999190612ba3565b9050803410156113de576040517f08c379a00000000000000000000000000000000000000000000000000000000081526004016113d590612777565b60405180910390fd5b600081346113ec9190612797565b9050600081111561143f573373ffffffffffffffffffffffffffffffffffffffff166108fc829081150290604051600060405180830381858888f1935050505015801561143d573d6000803e3d6000fd5b505b60008054906101000a900473ffffffffffffffffffffffffffffffffffffffff1673ffffffffffffffffffffffffffffffffffffffff166108fc839081150290604051600060405180830381858888f193505050501580156114a5573d6000803e3d6000fd5b50600760008154809291906114b990612bd4565b91905055506007547f748ff5cfd7b66bdd8e21581c2a864756fe7085378c0003183e579bfafba2832560405160405180910390a26040518060a001604052808681526020018581526020018581526020018481526020013373ffffffffffffffffffffffffffffffffffffffff1681525060056000600754815260200190815260200160002060008201518160000190816115549190612977565b5060208201518160010155604082015181600201556060820151816003015560808201518160040160006101000a81548173ffffffffffffffffffffffffffffffffffffffff021916908373ffffffffffffffffffffffffffffffffffffffff1602179055509050505050505050565b600160205280600052604060002060009150905080546115e3906123fb565b80601f016020809104026020016040519081016040528092919081815260200182805461160f906123fb565b801561165c5780601f106116315761010080835404028352916020019161165c565b820191906000526020600020905b81548152906001019060200180831161163f57829003601f168201915b505050505081565b606060011515600260003373ffffffffffffffffffffffffffffffffffffffff1673ffffffffffffffffffffffffffffffffffffffff16815260200190815260200160002060009054906101000a900460ff161515146116f9576040517f08c379a00000000000000000000000000000000000000000000000000000000081526004016116f090612340565b60405180910390fd5b600060075467ffffffffffffffff81111561171757611716611e73565b5b60405190808252806020026020018201604052801561175057816020015b61173d611b70565b8152602001906001900390816117355790505b5090506000600190505b60075481116118c457600560008281526020019081526020016000206040518060a0016040529081600082018054611791906123fb565b80601f01602080910402602001604051908101604052809291908181526020018280546117bd906123fb565b801561180a5780601f106117df5761010080835404028352916020019161180a565b820191906000526020600020905b8154815290600101906020018083116117ed57829003601f168201915b505050505081526020016001820154815260200160028201548152602001600382015481526020016004820160009054906101000a900473ffffffffffffffffffffffffffffffffffffffff1673ffffffffffffffffffffffffffffffffffffffff1673ffffffffffffffffffffffffffffffffffffffff1681525050826001836118959190612797565b815181106118a6576118a5612c1c565b5b602002602001018190525080806118bc90612bd4565b91505061175a565b508091505090565b6060600073ffffffffffffffffffffffffffffffffffffffff168273ffffffffffffffffffffffffffffffffffffffff160361193d576040517f08c379a00000000000000000000000000000000000000000000000000000000081526004016119349061250a565b60405180910390fd5b60008054906101000a900473ffffffffffffffffffffffffffffffffffffffff1673ffffffffffffffffffffffffffffffffffffffff163373ffffffffffffffffffffffffffffffffffffffff1614806119c257508173ffffffffffffffffffffffffffffffffffffffff163373ffffffffffffffffffffffffffffffffffffffff16145b611a01576040517f08c379a00000000000000000000000000000000000000000000000000000000081526004016119f890612cbd565b60405180910390fd5b600160008373ffffffffffffffffffffffffffffffffffffffff1673ffffffffffffffffffffffffffffffffffffffff1681526020019081526020016000208054611a4b906123fb565b80601f0160208091040260200160405190810160405280929190818152602001828054611a77906123fb565b8015611ac45780601f10611a9957610100808354040283529160200191611ac4565b820191906000526020600020905b815481529060010190602001808311611aa757829003601f168201915b50505050509050919050565b60036020528060005260406000206000915090508054611aef906123fb565b80601f0160208091040260200160405190810160405280929190818152602001828054611b1b906123fb565b8015611b685780601f10611b3d57610100808354040283529160200191611b68565b820191906000526020600020905b815481529060010190602001808311611b4b57829003601f168201915b505050505081565b6040518060a0016040528060608152602001600081526020016000815260200160008152602001600073ffffffffffffffffffffffffffffffffffffffff1681525090565b6000604051905090565b600080fd5b600080fd5b6000819050919050565b611bdc81611bc9565b8114611be757600080fd5b50565b600081359050611bf981611bd3565b92915050565b600060208284031215611c1557611c14611bbf565b5b6000611c2384828501611bea565b91505092915050565b600081519050919050565b600082825260208201905092915050565b60005b83811015611c66578082015181840152602081019050611c4b565b60008484015250505050565b6000601f19601f8301169050919050565b6000611c8e82611c2c565b611c988185611c37565b9350611ca8818560208601611c48565b611cb181611c72565b840191505092915050565b60006020820190508181036000830152611cd68184611c83565b905092915050565b600073ffffffffffffffffffffffffffffffffffffffff82169050919050565b6000611d0982611cde565b9050919050565b611d1981611cfe565b8114611d2457600080fd5b50565b600081359050611d3681611d10565b92915050565b600060208284031215611d5257611d51611bbf565b5b6000611d6084828501611d27565b91505092915050565b60008115159050919050565b611d7e81611d69565b82525050565b6000602082019050611d996000830184611d75565b92915050565b611da881611bc9565b82525050565b6000611db982611cde565b9050919050565b611dc981611dae565b82525050565b600060a0820190508181036000830152611de98188611c83565b9050611df86020830187611d9f565b611e056040830186611d9f565b611e126060830185611d9f565b611e1f6080830184611dc0565b9695505050505050565b60008060408385031215611e4057611e3f611bbf565b5b6000611e4e85828601611bea565b9250506020611e5f85828601611bea565b9150509250929050565b600080fd5b600080fd5b7f4e487b7100000000000000000000000000000000000000000000000000000000600052604160045260246000fd5b611eab82611c72565b810181811067ffffffffffffffff82111715611eca57611ec9611e73565b5b80604052505050565b6000611edd611bb5565b9050611ee98282611ea2565b919050565b600067ffffffffffffffff821115611f0957611f08611e73565b5b611f1282611c72565b9050602081019050919050565b82818337600083830152505050565b6000611f41611f3c84611eee565b611ed3565b905082815260208101848484011115611f5d57611f5c611e6e565b5b611f68848285611f1f565b509392505050565b600082601f830112611f8557611f84611e69565b5b8135611f95848260208601611f2e565b91505092915050565b600060208284031215611fb457611fb3611bbf565b5b600082013567ffffffffffffffff811115611fd257611fd1611bc4565b5b611fde84828501611f70565b91505092915050565b60008060408385031215611ffe57611ffd611bbf565b5b600061200c85828601611d27565b925050602061201d85828601611bea565b9150509250929050565b61203081611cfe565b82525050565b600060808201905061204b6000830187612027565b818103602083015261205d8186611c83565b905061206c6040830185611d9f565b6120796060830184611d9f565b95945050505050565b60006020820190506120976000830184611dc0565b92915050565b6000806000606084860312156120b6576120b5611bbf565b5b600084013567ffffffffffffffff8111156120d4576120d3611bc4565b5b6120e086828701611f70565b93505060206120f186828701611bea565b925050604061210286828701611bea565b9150509250925092565b600081519050919050565b600082825260208201905092915050565b6000819050602082019050919050565b600082825260208201905092915050565b600061215482611c2c565b61215e8185612138565b935061216e818560208601611c48565b61217781611c72565b840191505092915050565b61218b81611bc9565b82525050565b61219a81611dae565b82525050565b600060a08301600083015184820360008601526121bd8282612149565b91505060208301516121d26020860182612182565b5060408301516121e56040860182612182565b5060608301516121f86060860182612182565b50608083015161220b6080860182612191565b508091505092915050565b600061222283836121a0565b905092915050565b6000602082019050919050565b60006122428261210c565b61224c8185612117565b93508360208202850161225e85612128565b8060005b8581101561229a578484038952815161227b8582612216565b94506122868361222a565b925060208a01995050600181019050612262565b50829750879550505050505092915050565b600060208201905081810360008301526122c68184612237565b905092915050565b7f4f6e6c7920726567697374657265642075736572732063616e2063616c6c207460008201527f6869732066756e6374696f6e0000000000000000000000000000000000000000602082015250565b600061232a602c83611c37565b9150612335826122ce565b604082019050919050565b600060208201905081810360008301526123598161231d565b9050919050565b7f4576656e7420646f6573206e6f74206578697374000000000000000000000000600082015250565b6000612396601483611c37565b91506123a182612360565b602082019050919050565b600060208201905081810360008301526123c581612389565b9050919050565b7f4e487b7100000000000000000000000000000000000000000000000000000000600052602260045260246000fd5b6000600282049050600182168061241357607f821691505b602082108103612426576124256123cc565b5b50919050565b7f4f6e6c792072656769737465726564206f7267616e697a6572732063616e206360008201527f616c6c20746869732066756e6374696f6e000000000000000000000000000000602082015250565b6000612488603183611c37565b91506124938261242c565b604082019050919050565b600060208201905081810360008301526124b78161247b565b9050919050565b7f496e76616c696420616464726573730000000000000000000000000000000000600082015250565b60006124f4600f83611c37565b91506124ff826124be565b602082019050919050565b60006020820190508181036000830152612523816124e7565b9050919050565b7f4f6e6c79206f776e6572206f72206f7267616e697a65722063616e2063616c6c60008201527f20746869732066756e6374696f6e000000000000000000000000000000000000602082015250565b6000612586602e83611c37565b91506125918261252a565b604082019050919050565b600060208201905081810360008301526125b581612579565b9050919050565b7f546f74616c207469636b6574732073686f756c6420626520677265617465722060008201527f7468616e20300000000000000000000000000000000000000000000000000000602082015250565b6000612618602683611c37565b9150612623826125bc565b604082019050919050565b600060208201905081810360008301526126478161260b565b9050919050565b7f4e6f7420656e6f756768207469636b65747320617661696c61626c6500000000600082015250565b6000612684601c83611c37565b915061268f8261264e565b602082019050919050565b600060208201905081810360008301526126b381612677565b9050919050565b7f4e487b7100000000000000000000000000000000000000000000000000000000600052601160045260246000fd5b60006126f482611bc9565b91506126ff83611bc9565b925082820261270d81611bc9565b91508282048414831517612724576127236126ba565b5b5092915050565b7f4e6f7420656e6f7567682065746865722073656e740000000000000000000000600082015250565b6000612761601583611c37565b915061276c8261272b565b602082019050919050565b6000602082019050818103600083015261279081612754565b9050919050565b60006127a282611bc9565b91506127ad83611bc9565b92508282039050818111156127c5576127c46126ba565b5b92915050565b60008190508160005260206000209050919050565b60006020601f8301049050919050565b600082821b905092915050565b60006008830261282d7fffffffffffffffffffffffffffffffffffffffffffffffffffffffffffffffff826127f0565b61283786836127f0565b95508019841693508086168417925050509392505050565b6000819050919050565b600061287461286f61286a84611bc9565b61284f565b611bc9565b9050919050565b6000819050919050565b61288e83612859565b6128a261289a8261287b565b8484546127fd565b825550505050565b600090565b6128b76128aa565b6128c2818484612885565b505050565b5b818110156128e6576128db6000826128af565b6001810190506128c8565b5050565b601f82111561292b576128fc816127cb565b612905846127e0565b81016020851015612914578190505b612928612920856127e0565b8301826128c7565b50505b505050565b600082821c905092915050565b600061294e60001984600802612930565b1980831691505092915050565b6000612967838361293d565b9150826002028217905092915050565b61298082611c2c565b67ffffffffffffffff81111561299957612998611e73565b5b6129a382546123fb565b6129ae8282856128ea565b600060209050601f8311600181146129e157600084156129cf578287015190505b6129d9858261295b565b865550612a41565b601f1984166129ef866127cb565b60005b82811015612a17578489015182556001820191506020850194506020810190506129f2565b86831015612a345784890151612a30601f89168261293d565b8355505b6001600288020188555050505b505050505050565b7f4349442063616e6e6f7420626520656d70747900000000000000000000000000600082015250565b6000612a7f601383611c37565b9150612a8a82612a49565b602082019050919050565b60006020820190508181036000830152612aae81612a72565b9050919050565b600081905092915050565b6000612acb82611c2c565b612ad58185612ab5565b9350612ae5818560208601611c48565b80840191505092915050565b6000612afd8284612ac0565b915081905092915050565b7f4576656e74204349442073686f756c64206e6f7420626520656d707479000000600082015250565b6000612b3e601d83611c37565b9150612b4982612b08565b602082019050919050565b60006020820190508181036000830152612b6d81612b31565b9050919050565b7f4e487b7100000000000000000000000000000000000000000000000000000000600052601260045260246000fd5b6000612bae82611bc9565b9150612bb983611bc9565b925082612bc957612bc8612b74565b5b828204905092915050565b6000612bdf82611bc9565b91507fffffffffffffffffffffffffffffffffffffffffffffffffffffffffffffffff8203612c1157612c106126ba565b5b600182019050919050565b7f4e487b7100000000000000000000000000000000000000000000000000000000600052603260045260246000fd5b7f4f6e6c79206f776e6572206f7220757365722063616e2063616c6c207468697360008201527f2066756e6374696f6e0000000000000000000000000000000000000000000000602082015250565b6000612ca7602983611c37565b9150612cb282612c4b565b604082019050919050565b60006020820190508181036000830152612cd681612c9a565b905091905056fea26469706673582212206586ca71873122ccb1a3ca3ce573d5de6a36cd23ae211f87bc102a63b61f138664736f6c63430008130033",
  "linkReferences": {},
  "deployedLinkReferences": {}
}