{
  "_format": "hh-sol-artifact-1",
  "contractName": "Tickets",
  "sourceName": "contracts/Tickets.sol",
  "abi": [
    {
      "inputs": [],
      "stateMutability": "nonpayable",
      "type": "constructor"
    },
    {
      "anonymous": false,
      "inputs": [
        {
          "indexed": false,
          "internalType": "uint256",
          "name": "eventId",
          "type": "uint256"
        },
        {
          "indexed": true,
          "internalType": "address",
          "name": "organizer",
          "type": "address"
        },
        {
          "indexed": false,
          "internalType": "string",
          "name": "eventCid",
          "type": "string"
        },
        {
          "indexed": false,
          "internalType": "uint256",
          "name": "creationTime",
          "type": "uint256"
        }
      ],
      "name": "EventCreated",
      "type": "event"
    },
    {
      "anonymous": false,
      "inputs": [
        {
          "indexed": true,
          "internalType": "address",
          "name": "organizerAddress",
          "type": "address"
        },
        {
          "indexed": false,
          "internalType": "string",
          "name": "CID",
          "type": "string"
        },
        {
          "indexed": false,
          "internalType": "uint256",
          "name": "registerTime",
          "type": "uint256"
        }
      ],
      "name": "OrganizerRegistered",
      "type": "event"
    },
    {
      "anonymous": false,
      "inputs": [
        {
          "indexed": false,
          "internalType": "uint256",
          "name": "eventId",
          "type": "uint256"
        },
        {
          "indexed": false,
          "internalType": "uint256",
          "name": "ticketsBought",
          "type": "uint256"
        },
        {
          "indexed": true,
          "internalType": "address",
          "name": "buyer",
          "type": "address"
        },
        {
          "indexed": false,
          "internalType": "uint256",
          "name": "purchaseTime",
          "type": "uint256"
        }
      ],
      "name": "TicketPurchased",
      "type": "event"
    },
    {
      "inputs": [
        {
          "internalType": "uint256",
          "name": "",
          "type": "uint256"
        }
      ],
      "name": "allEvents",
      "outputs": [
        {
          "internalType": "string",
          "name": "eventCID",
          "type": "string"
        },
        {
          "internalType": "uint256",
          "name": "totalTickets",
          "type": "uint256"
        },
        {
          "internalType": "uint256",
          "name": "remTickets",
          "type": "uint256"
        },
        {
          "internalType": "uint256",
          "name": "price",
          "type": "uint256"
        },
        {
          "internalType": "address payable",
          "name": "creator",
          "type": "address"
        }
      ],
      "stateMutability": "view",
      "type": "function"
    },
    {
      "inputs": [
        {
          "internalType": "uint256",
          "name": "",
          "type": "uint256"
        }
      ],
      "name": "allOrganizers",
      "outputs": [
        {
          "internalType": "address",
          "name": "",
          "type": "address"
        }
      ],
      "stateMutability": "view",
      "type": "function"
    },
    {
      "inputs": [
        {
          "internalType": "uint256",
          "name": "_eventId",
          "type": "uint256"
        },
        {
          "internalType": "uint256",
          "name": "_totalTicketsToBuy",
          "type": "uint256"
        }
      ],
      "name": "buyTicket",
      "outputs": [],
      "stateMutability": "payable",
      "type": "function"
    },
    {
      "inputs": [
        {
          "internalType": "string",
          "name": "_eventCid",
          "type": "string"
        },
        {
          "internalType": "uint256",
          "name": "_totalTickets",
          "type": "uint256"
        },
        {
          "internalType": "uint256",
          "name": "_price",
          "type": "uint256"
        }
      ],
      "name": "createEvent",
      "outputs": [],
      "stateMutability": "payable",
      "type": "function"
    },
    {
      "inputs": [
        {
          "internalType": "uint256",
          "name": "",
          "type": "uint256"
        }
      ],
      "name": "events",
      "outputs": [
        {
          "internalType": "string",
          "name": "eventCID",
          "type": "string"
        },
        {
          "internalType": "uint256",
          "name": "totalTickets",
          "type": "uint256"
        },
        {
          "internalType": "uint256",
          "name": "remTickets",
          "type": "uint256"
        },
        {
          "internalType": "uint256",
          "name": "price",
          "type": "uint256"
        },
        {
          "internalType": "address payable",
          "name": "creator",
          "type": "address"
        }
      ],
      "stateMutability": "view",
      "type": "function"
    },
    {
      "inputs": [
        {
          "internalType": "address",
          "name": "",
          "type": "address"
        },
        {
          "internalType": "uint256",
          "name": "",
          "type": "uint256"
        }
      ],
      "name": "eventsCreated",
      "outputs": [
        {
          "internalType": "uint256",
          "name": "",
          "type": "uint256"
        }
      ],
      "stateMutability": "view",
      "type": "function"
    },
    {
      "inputs": [],
      "name": "getAllEvents",
      "outputs": [
        {
          "components": [
            {
              "internalType": "string",
              "name": "eventCID",
              "type": "string"
            },
            {
              "internalType": "uint256",
              "name": "totalTickets",
              "type": "uint256"
            },
            {
              "internalType": "uint256",
              "name": "remTickets",
              "type": "uint256"
            },
            {
              "internalType": "uint256",
              "name": "price",
              "type": "uint256"
            },
            {
              "internalType": "address payable",
              "name": "creator",
              "type": "address"
            }
          ],
          "internalType": "struct Tickets.Event[]",
          "name": "",
          "type": "tuple[]"
        }
      ],
      "stateMutability": "view",
      "type": "function"
    },
    {
      "inputs": [],
      "name": "getAllOrganizers",
      "outputs": [
        {
          "internalType": "address[]",
          "name": "",
          "type": "address[]"
        }
      ],
      "stateMutability": "view",
      "type": "function"
    },
    {
      "inputs": [
        {
          "internalType": "address",
          "name": "_organizerAddress",
          "type": "address"
        }
      ],
      "name": "isOrganizers",
      "outputs": [
        {
          "internalType": "bool",
          "name": "",
          "type": "bool"
        }
      ],
      "stateMutability": "view",
      "type": "function"
    },
    {
      "inputs": [],
      "name": "isOwner",
      "outputs": [
        {
          "internalType": "bool",
          "name": "",
          "type": "bool"
        }
      ],
      "stateMutability": "view",
      "type": "function"
    },
    {
      "inputs": [
        {
          "internalType": "address",
          "name": "",
          "type": "address"
        }
      ],
      "name": "organizerCID",
      "outputs": [
        {
          "internalType": "string",
          "name": "",
          "type": "string"
        }
      ],
      "stateMutability": "view",
      "type": "function"
    },
    {
      "inputs": [
        {
          "internalType": "address",
          "name": "",
          "type": "address"
        }
      ],
      "name": "organizers",
      "outputs": [
        {
          "internalType": "bool",
          "name": "",
          "type": "bool"
        }
      ],
      "stateMutability": "view",
      "type": "function"
    },
    {
      "inputs": [],
      "name": "owner",
      "outputs": [
        {
          "internalType": "address payable",
          "name": "",
          "type": "address"
        }
      ],
      "stateMutability": "view",
      "type": "function"
    },
    {
      "inputs": [
        {
          "internalType": "string",
          "name": "_CID",
          "type": "string"
        }
      ],
      "name": "registerEventOrganizer",
      "outputs": [],
      "stateMutability": "nonpayable",
      "type": "function"
    },
    {
      "inputs": [
        {
          "internalType": "address",
          "name": "",
          "type": "address"
        },
        {
          "internalType": "uint256",
          "name": "",
          "type": "uint256"
        }
      ],
      "name": "ticketHolders",
      "outputs": [
        {
          "internalType": "address",
          "name": "userAddress",
          "type": "address"
        },
        {
          "internalType": "string",
          "name": "eventName",
          "type": "string"
        },
        {
          "internalType": "uint256",
          "name": "eventId",
          "type": "uint256"
        },
        {
          "internalType": "uint256",
          "name": "ticketsOwned",
          "type": "uint256"
        }
      ],
      "stateMutability": "view",
      "type": "function"
    }
  ],
  "bytecode": "0x608060405234801561001057600080fd5b5033600560006101000a81548173ffffffffffffffffffffffffffffffffffffffff021916908373ffffffffffffffffffffffffffffffffffffffff160217905550612835806100616000396000f3fe6080604052600436106100e85760003560e01c80636e389f901161008a5780639e9580f6116100595780639e9580f61461032c578063b19588a614610348578063c27a500d14610385578063fb894fa2146103b0576100e8565b80636e389f901461025957806382615569146102965780638da5cb5b146102d65780638f32d59b14610301576100e8565b8063298ec208116100c6578063298ec208146101965780633aba8bd7146101b25780633bec5cff146101ef57806363d3b01914610230576100e8565b80630544c5b9146100ed5780630b7914301461012a5780631e67f7211461016b575b600080fd5b3480156100f957600080fd5b50610114600480360381019061010f91906115ca565b6103ed565b6040516101219190611612565b60405180910390f35b34801561013657600080fd5b50610151600480360381019061014c9190611663565b61040d565b604051610162959493929190611750565b60405180910390f35b34801561017757600080fd5b506101806104eb565b60405161018d9190611868565b60405180910390f35b6101b060048036038101906101ab919061188a565b6105c0565b005b3480156101be57600080fd5b506101d960048036038101906101d491906118ca565b610a24565b6040516101e6919061190a565b60405180910390f35b3480156101fb57600080fd5b5061021660048036038101906102119190611663565b610a55565b604051610227959493929190611750565b60405180910390f35b34801561023c57600080fd5b5061025760048036038101906102529190611a5a565b610b43565b005b34801561026557600080fd5b50610280600480360381019061027b91906115ca565b610ce2565b60405161028d9190611612565b60405180910390f35b3480156102a257600080fd5b506102bd60048036038101906102b891906118ca565b610d38565b6040516102cd9493929190611ab2565b60405180910390f35b3480156102e257600080fd5b506102eb610e2d565b6040516102f89190611afe565b60405180910390f35b34801561030d57600080fd5b50610316610e53565b6040516103239190611612565b60405180910390f35b61034660048036038101906103419190611b19565b610eab565b005b34801561035457600080fd5b5061036f600480360381019061036a9190611663565b611314565b60405161037c9190611b88565b60405180910390f35b34801561039157600080fd5b5061039a611353565b6040516103a79190611d43565b60405180910390f35b3480156103bc57600080fd5b506103d760048036038101906103d291906115ca565b6114b8565b6040516103e49190611d65565b60405180910390f35b60046020528060005260406000206000915054906101000a900460ff1681565b600060205280600052604060002060009150905080600001805461043090611db6565b80601f016020809104026020016040519081016040528092919081815260200182805461045c90611db6565b80156104a95780601f1061047e576101008083540402835291602001916104a9565b820191906000526020600020905b81548152906001019060200180831161048c57829003601f168201915b5050505050908060010154908060020154908060030154908060040160009054906101000a900473ffffffffffffffffffffffffffffffffffffffff16905085565b60606104f5610e53565b610534576040517f08c379a000000000000000000000000000000000000000000000000000000000815260040161052b90611e59565b60405180910390fd5b60068054806020026020016040519081016040528092919081815260200182805480156105b657602002820191906000526020600020905b8160009054906101000a900473ffffffffffffffffffffffffffffffffffffffff1673ffffffffffffffffffffffffffffffffffffffff168152602001906001019080831161056c575b5050505050905090565b600854821115610605576040517f08c379a00000000000000000000000000000000000000000000000000000000081526004016105fc90611ec5565b60405180910390fd5b8060008084815260200190815260200160002060020154101561065d576040517f08c379a000000000000000000000000000000000000000000000000000000000815260040161065490611f31565b60405180910390fd5b61066633610ce2565b156106a6576040517f08c379a000000000000000000000000000000000000000000000000000000000815260040161069d90611fc3565b60405180910390fd5b600081600080858152602001908152602001600020600301546106c99190612012565b90508034101561070e576040517f08c379a0000000000000000000000000000000000000000000000000000000008152600401610705906120a0565b60405180910390fd5b6000813461071c91906120c0565b9050600081111561076f573373ffffffffffffffffffffffffffffffffffffffff166108fc829081150290604051600060405180830381858888f1935050505015801561076d573d6000803e3d6000fd5b505b60008085815260200190815260200160002060040160009054906101000a900473ffffffffffffffffffffffffffffffffffffffff1673ffffffffffffffffffffffffffffffffffffffff166108fc839081150290604051600060405180830381858888f193505050501580156107ea573d6000803e3d6000fd5b5082600080868152602001908152602001600020600201600082825461081091906120c0565b925050819055506000600160003373ffffffffffffffffffffffffffffffffffffffff1673ffffffffffffffffffffffffffffffffffffffff16815260200190815260200160002090508060405180608001604052803373ffffffffffffffffffffffffffffffffffffffff16815260200160008089815260200190815260200160002060000180546108a290611db6565b80601f01602080910402602001604051908101604052809291908181526020018280546108ce90611db6565b801561091b5780601f106108f05761010080835404028352916020019161091b565b820191906000526020600020905b8154815290600101906020018083116108fe57829003601f168201915b5050505050815260200187815260200186815250908060018154018082558091505060019003906000526020600020906004020160009091909190915060008201518160000160006101000a81548173ffffffffffffffffffffffffffffffffffffffff021916908373ffffffffffffffffffffffffffffffffffffffff16021790555060208201518160010190816109b491906122a0565b50604082015181600201556060820151816003015550503373ffffffffffffffffffffffffffffffffffffffff167fc3b7539e996dc1d1252af1e3c72474162b7a9c7cc7411ca8905732eaf6fff328868642604051610a1593929190612372565b60405180910390a25050505050565b60026020528160005260406000208181548110610a4057600080fd5b90600052602060002001600091509150505481565b60078181548110610a6557600080fd5b9060005260206000209060050201600091509050806000018054610a8890611db6565b80601f0160208091040260200160405190810160405280929190818152602001828054610ab490611db6565b8015610b015780601f10610ad657610100808354040283529160200191610b01565b820191906000526020600020905b815481529060010190602001808311610ae457829003601f168201915b5050505050908060010154908060020154908060030154908060040160009054906101000a900473ffffffffffffffffffffffffffffffffffffffff16905085565b6000815111610b87576040517f08c379a0000000000000000000000000000000000000000000000000000000008152600401610b7e906123f5565b60405180910390fd5b80600360003373ffffffffffffffffffffffffffffffffffffffff1673ffffffffffffffffffffffffffffffffffffffff1681526020019081526020016000209081610bd391906122a0565b506001600460003373ffffffffffffffffffffffffffffffffffffffff1673ffffffffffffffffffffffffffffffffffffffff16815260200190815260200160002060006101000a81548160ff0219169083151502179055506006339080600181540180825580915050600190039060005260206000200160009091909190916101000a81548173ffffffffffffffffffffffffffffffffffffffff021916908373ffffffffffffffffffffffffffffffffffffffff1602179055503373ffffffffffffffffffffffffffffffffffffffff167f3d5483a93df0921e07ba2b0050c4d0f5793795035f1db5af3face517df5e333b8242604051610cd7929190612415565b60405180910390a250565b6000600460008373ffffffffffffffffffffffffffffffffffffffff1673ffffffffffffffffffffffffffffffffffffffff16815260200190815260200160002060009054906101000a900460ff169050919050565b60016020528160005260406000208181548110610d5457600080fd5b9060005260206000209060040201600091509150508060000160009054906101000a900473ffffffffffffffffffffffffffffffffffffffff1690806001018054610d9e90611db6565b80601f0160208091040260200160405190810160405280929190818152602001828054610dca90611db6565b8015610e175780601f10610dec57610100808354040283529160200191610e17565b820191906000526020600020905b815481529060010190602001808311610dfa57829003601f168201915b5050505050908060020154908060030154905084565b600560009054906101000a900473ffffffffffffffffffffffffffffffffffffffff1681565b6000600560009054906101000a900473ffffffffffffffffffffffffffffffffffffffff1673ffffffffffffffffffffffffffffffffffffffff163373ffffffffffffffffffffffffffffffffffffffff1614905090565b6000835111610eef576040517f08c379a0000000000000000000000000000000000000000000000000000000008152600401610ee690612491565b60405180910390fd5b610ef833610ce2565b610f37576040517f08c379a0000000000000000000000000000000000000000000000000000000008152600401610f2e906124fd565b60405180910390fd5b60008211610f7a576040517f08c379a0000000000000000000000000000000000000000000000000000000008152600401610f719061258f565b60405180910390fd5b610f82610e53565b15610fc2576040517f08c379a0000000000000000000000000000000000000000000000000000000008152600401610fb9906125fb565b60405180910390fd5b6000606460038484610fd49190612012565b610fde9190612012565b610fe8919061264a565b90508034101561102d576040517f08c379a0000000000000000000000000000000000000000000000000000000008152600401611024906120a0565b60405180910390fd5b600560009054906101000a900473ffffffffffffffffffffffffffffffffffffffff1673ffffffffffffffffffffffffffffffffffffffff166108fc829081150290604051600060405180830381858888f19350505050158015611095573d6000803e3d6000fd5b50600081346110a491906120c0565b905060008111156110f7573373ffffffffffffffffffffffffffffffffffffffff166108fc829081150290604051600060405180830381858888f193505050501580156110f5573d6000803e3d6000fd5b505b6008600081548092919061110a9061267b565b91905055503373ffffffffffffffffffffffffffffffffffffffff167f56acb10c6ecae7e178ece5d22c2f0346efb606427ea6a15f96904d0ceec03d1d600854874260405161115b939291906126c3565b60405180910390a26040518060a001604052808681526020018581526020018581526020018481526020013373ffffffffffffffffffffffffffffffffffffffff16815250600080600854815260200190815260200160002060008201518160000190816111c991906122a0565b5060208201518160010155604082015181600201556060820151816003015560808201518160040160006101000a81548173ffffffffffffffffffffffffffffffffffffffff021916908373ffffffffffffffffffffffffffffffffffffffff160217905550905050600760008060085481526020019081526020016000209080600181540180825580915050600190039060005260206000209060050201600090919091909150600082018160000190816112859190612717565b506001820154816001015560028201548160020155600382015481600301556004820160009054906101000a900473ffffffffffffffffffffffffffffffffffffffff168160040160006101000a81548173ffffffffffffffffffffffffffffffffffffffff021916908373ffffffffffffffffffffffffffffffffffffffff16021790555050505050505050565b6006818154811061132457600080fd5b906000526020600020016000915054906101000a900473ffffffffffffffffffffffffffffffffffffffff1681565b60606007805480602002602001604051908101604052809291908181526020016000905b828210156114af57838290600052602060002090600502016040518060a00160405290816000820180546113aa90611db6565b80601f01602080910402602001604051908101604052809291908181526020018280546113d690611db6565b80156114235780601f106113f857610100808354040283529160200191611423565b820191906000526020600020905b81548152906001019060200180831161140657829003601f168201915b505050505081526020016001820154815260200160028201548152602001600382015481526020016004820160009054906101000a900473ffffffffffffffffffffffffffffffffffffffff1673ffffffffffffffffffffffffffffffffffffffff1673ffffffffffffffffffffffffffffffffffffffff168152505081526020019060010190611377565b50505050905090565b600360205280600052604060002060009150905080546114d790611db6565b80601f016020809104026020016040519081016040528092919081815260200182805461150390611db6565b80156115505780601f1061152557610100808354040283529160200191611550565b820191906000526020600020905b81548152906001019060200180831161153357829003601f168201915b505050505081565b6000604051905090565b600080fd5b600080fd5b600073ffffffffffffffffffffffffffffffffffffffff82169050919050565b60006115978261156c565b9050919050565b6115a78161158c565b81146115b257600080fd5b50565b6000813590506115c48161159e565b92915050565b6000602082840312156115e0576115df611562565b5b60006115ee848285016115b5565b91505092915050565b60008115159050919050565b61160c816115f7565b82525050565b60006020820190506116276000830184611603565b92915050565b6000819050919050565b6116408161162d565b811461164b57600080fd5b50565b60008135905061165d81611637565b92915050565b60006020828403121561167957611678611562565b5b60006116878482850161164e565b91505092915050565b600081519050919050565b600082825260208201905092915050565b60005b838110156116ca5780820151818401526020810190506116af565b60008484015250505050565b6000601f19601f8301169050919050565b60006116f282611690565b6116fc818561169b565b935061170c8185602086016116ac565b611715816116d6565b840191505092915050565b6117298161162d565b82525050565b600061173a8261156c565b9050919050565b61174a8161172f565b82525050565b600060a082019050818103600083015261176a81886116e7565b90506117796020830187611720565b6117866040830186611720565b6117936060830185611720565b6117a06080830184611741565b9695505050505050565b600081519050919050565b600082825260208201905092915050565b6000819050602082019050919050565b6117df8161158c565b82525050565b60006117f183836117d6565b60208301905092915050565b6000602082019050919050565b6000611815826117aa565b61181f81856117b5565b935061182a836117c6565b8060005b8381101561185b57815161184288826117e5565b975061184d836117fd565b92505060018101905061182e565b5085935050505092915050565b60006020820190508181036000830152611882818461180a565b905092915050565b600080604083850312156118a1576118a0611562565b5b60006118af8582860161164e565b92505060206118c08582860161164e565b9150509250929050565b600080604083850312156118e1576118e0611562565b5b60006118ef858286016115b5565b92505060206119008582860161164e565b9150509250929050565b600060208201905061191f6000830184611720565b92915050565b600080fd5b600080fd5b7f4e487b7100000000000000000000000000000000000000000000000000000000600052604160045260246000fd5b611967826116d6565b810181811067ffffffffffffffff821117156119865761198561192f565b5b80604052505050565b6000611999611558565b90506119a5828261195e565b919050565b600067ffffffffffffffff8211156119c5576119c461192f565b5b6119ce826116d6565b9050602081019050919050565b82818337600083830152505050565b60006119fd6119f8846119aa565b61198f565b905082815260208101848484011115611a1957611a1861192a565b5b611a248482856119db565b509392505050565b600082601f830112611a4157611a40611925565b5b8135611a518482602086016119ea565b91505092915050565b600060208284031215611a7057611a6f611562565b5b600082013567ffffffffffffffff811115611a8e57611a8d611567565b5b611a9a84828501611a2c565b91505092915050565b611aac8161158c565b82525050565b6000608082019050611ac76000830187611aa3565b8181036020830152611ad981866116e7565b9050611ae86040830185611720565b611af56060830184611720565b95945050505050565b6000602082019050611b136000830184611741565b92915050565b600080600060608486031215611b3257611b31611562565b5b600084013567ffffffffffffffff811115611b5057611b4f611567565b5b611b5c86828701611a2c565b9350506020611b6d8682870161164e565b9250506040611b7e8682870161164e565b9150509250925092565b6000602082019050611b9d6000830184611aa3565b92915050565b600081519050919050565b600082825260208201905092915050565b6000819050602082019050919050565b600082825260208201905092915050565b6000611beb82611690565b611bf58185611bcf565b9350611c058185602086016116ac565b611c0e816116d6565b840191505092915050565b611c228161162d565b82525050565b611c318161172f565b82525050565b600060a0830160008301518482036000860152611c548282611be0565b9150506020830151611c696020860182611c19565b506040830151611c7c6040860182611c19565b506060830151611c8f6060860182611c19565b506080830151611ca26080860182611c28565b508091505092915050565b6000611cb98383611c37565b905092915050565b6000602082019050919050565b6000611cd982611ba3565b611ce38185611bae565b935083602082028501611cf585611bbf565b8060005b85811015611d315784840389528151611d128582611cad565b9450611d1d83611cc1565b925060208a01995050600181019050611cf9565b50829750879550505050505092915050565b60006020820190508181036000830152611d5d8184611cce565b905092915050565b60006020820190508181036000830152611d7f81846116e7565b905092915050565b7f4e487b7100000000000000000000000000000000000000000000000000000000600052602260045260246000fd5b60006002820490506001821680611dce57607f821691505b602082108103611de157611de0611d87565b5b50919050565b7f4f6e6c79206f776e65722063616e207669657720616c6c206f7267616e697a6560008201527f7273000000000000000000000000000000000000000000000000000000000000602082015250565b6000611e4360228361169b565b9150611e4e82611de7565b604082019050919050565b60006020820190508181036000830152611e7281611e36565b9050919050565b7f4576656e7420646f6573206e6f74206578697374000000000000000000000000600082015250565b6000611eaf60148361169b565b9150611eba82611e79565b602082019050919050565b60006020820190508181036000830152611ede81611ea2565b9050919050565b7f4e6f7420656e6f756768207469636b657473206c656674000000000000000000600082015250565b6000611f1b60178361169b565b9150611f2682611ee5565b602082019050919050565b60006020820190508181036000830152611f4a81611f0e565b9050919050565b7f4f7267616e697a65722063616e6e6f7420627579207469636b65747320666f7260008201527f207468656972206f776e206576656e7400000000000000000000000000000000602082015250565b6000611fad60308361169b565b9150611fb882611f51565b604082019050919050565b60006020820190508181036000830152611fdc81611fa0565b9050919050565b7f4e487b7100000000000000000000000000000000000000000000000000000000600052601160045260246000fd5b600061201d8261162d565b91506120288361162d565b92508282026120368161162d565b9150828204841483151761204d5761204c611fe3565b5b5092915050565b7f4e6f7420656e6f7567682065746865722073656e740000000000000000000000600082015250565b600061208a60158361169b565b915061209582612054565b602082019050919050565b600060208201905081810360008301526120b98161207d565b9050919050565b60006120cb8261162d565b91506120d68361162d565b92508282039050818111156120ee576120ed611fe3565b5b92915050565b60008190508160005260206000209050919050565b60006020601f8301049050919050565b600082821b905092915050565b6000600883026121567fffffffffffffffffffffffffffffffffffffffffffffffffffffffffffffffff82612119565b6121608683612119565b95508019841693508086168417925050509392505050565b6000819050919050565b600061219d6121986121938461162d565b612178565b61162d565b9050919050565b6000819050919050565b6121b783612182565b6121cb6121c3826121a4565b848454612126565b825550505050565b600090565b6121e06121d3565b6121eb8184846121ae565b505050565b5b8181101561220f576122046000826121d8565b6001810190506121f1565b5050565b601f82111561225457612225816120f4565b61222e84612109565b8101602085101561223d578190505b61225161224985612109565b8301826121f0565b50505b505050565b600082821c905092915050565b600061227760001984600802612259565b1980831691505092915050565b60006122908383612266565b9150826002028217905092915050565b6122a982611690565b67ffffffffffffffff8111156122c2576122c161192f565b5b6122cc8254611db6565b6122d7828285612213565b600060209050601f83116001811461230a57600084156122f8578287015190505b6123028582612284565b86555061236a565b601f198416612318866120f4565b60005b828110156123405784890151825560018201915060208501945060208101905061231b565b8683101561235d5784890151612359601f891682612266565b8355505b6001600288020188555050505b505050505050565b60006060820190506123876000830186611720565b6123946020830185611720565b6123a16040830184611720565b949350505050565b7f4349442063616e6e6f7420626520656d70747900000000000000000000000000600082015250565b60006123df60138361169b565b91506123ea826123a9565b602082019050919050565b6000602082019050818103600083015261240e816123d2565b9050919050565b6000604082019050818103600083015261242f81856116e7565b905061243e6020830184611720565b9392505050565b7f4576656e74204349442073686f756c64206e6f7420626520656d707479000000600082015250565b600061247b601d8361169b565b915061248682612445565b602082019050919050565b600060208201905081810360008301526124aa8161246e565b9050919050565b7f4f6e6c79206f7267616e697a65722063616e20637265617465206576656e7400600082015250565b60006124e7601f8361169b565b91506124f2826124b1565b602082019050919050565b60006020820190508181036000830152612516816124da565b9050919050565b7f546f74616c207469636b6574732073686f756c6420626520677265617465722060008201527f7468616e20300000000000000000000000000000000000000000000000000000602082015250565b600061257960268361169b565b91506125848261251d565b604082019050919050565b600060208201905081810360008301526125a88161256c565b9050919050565b7f4f776e65722063616e6e6f7420637265617465206576656e7400000000000000600082015250565b60006125e560198361169b565b91506125f0826125af565b602082019050919050565b60006020820190508181036000830152612614816125d8565b9050919050565b7f4e487b7100000000000000000000000000000000000000000000000000000000600052601260045260246000fd5b60006126558261162d565b91506126608361162d565b9250826126705761266f61261b565b5b828204905092915050565b60006126868261162d565b91507fffffffffffffffffffffffffffffffffffffffffffffffffffffffffffffffff82036126b8576126b7611fe3565b5b600182019050919050565b60006060820190506126d86000830186611720565b81810360208301526126ea81856116e7565b90506126f96040830184611720565b949350505050565b60008154905061271081611db6565b9050919050565b8181036127255750506127fd565b61272e82612701565b67ffffffffffffffff8111156127475761274661192f565b5b6127518254611db6565b61275c828285612213565b6000601f83116001811461278b5760008415612779578287015490505b6127838582612284565b8655506127f6565b601f198416612799876120f4565b96506127a4866120f4565b60005b828110156127cc578489015482556001820191506001850194506020810190506127a7565b868310156127e957848901546127e5601f891682612266565b8355505b6001600288020188555050505b5050505050505b56fea2646970667358221220c0eaa6c7f82ceca0ebabd4d223ebbe78139f2ecffb231fc19c19bdd2f96a18b964736f6c63430008130033",
  "linkReferences": {},
  "deployedLinkReferences": {}
}