{
  "_format": "hh-sol-artifact-1",
  "contractName": "Tickets",
  "sourceName": "contracts/Tickets.sol",
  "abi": [
    {
      "inputs": [],
      "stateMutability": "nonpayable",
      "type": "constructor"
    },
    {
      "anonymous": false,
      "inputs": [
        {
          "indexed": false,
          "internalType": "uint256",
          "name": "eventId",
          "type": "uint256"
        },
        {
          "indexed": true,
          "internalType": "address",
          "name": "organizer",
          "type": "address"
        },
        {
          "indexed": false,
          "internalType": "string",
          "name": "eventCid",
          "type": "string"
        }
      ],
      "name": "EventCreated",
      "type": "event"
    },
    {
      "anonymous": false,
      "inputs": [
        {
          "indexed": true,
          "internalType": "address",
          "name": "organizerAddress",
          "type": "address"
        },
        {
          "indexed": false,
          "internalType": "string",
          "name": "CID",
          "type": "string"
        }
      ],
      "name": "OrganizerRegistered",
      "type": "event"
    },
    {
      "anonymous": false,
      "inputs": [
        {
          "indexed": false,
          "internalType": "uint256",
          "name": "eventId",
          "type": "uint256"
        },
        {
          "indexed": true,
          "internalType": "uint256",
          "name": "ticketsBought",
          "type": "uint256"
        },
        {
          "indexed": true,
          "internalType": "address",
          "name": "buyer",
          "type": "address"
        }
      ],
      "name": "TicketPurchased",
      "type": "event"
    },
    {
      "inputs": [
        {
          "internalType": "uint256",
          "name": "_eventId",
          "type": "uint256"
        },
        {
          "internalType": "uint256",
          "name": "_totalTicketsToBuy",
          "type": "uint256"
        }
      ],
      "name": "buyTicket",
      "outputs": [],
      "stateMutability": "payable",
      "type": "function"
    },
    {
      "inputs": [
        {
          "internalType": "string",
          "name": "_eventCid",
          "type": "string"
        },
        {
          "internalType": "uint256",
          "name": "_totalTickets",
          "type": "uint256"
        },
        {
          "internalType": "uint256",
          "name": "_price",
          "type": "uint256"
        }
      ],
      "name": "createEvent",
      "outputs": [],
      "stateMutability": "payable",
      "type": "function"
    },
    {
      "inputs": [
        {
          "internalType": "uint256",
          "name": "",
          "type": "uint256"
        }
      ],
      "name": "events",
      "outputs": [
        {
          "internalType": "string",
          "name": "eventCID",
          "type": "string"
        },
        {
          "internalType": "uint256",
          "name": "totalTickets",
          "type": "uint256"
        },
        {
          "internalType": "uint256",
          "name": "remTickets",
          "type": "uint256"
        },
        {
          "internalType": "uint256",
          "name": "price",
          "type": "uint256"
        },
        {
          "internalType": "address payable",
          "name": "creator",
          "type": "address"
        }
      ],
      "stateMutability": "view",
      "type": "function"
    },
    {
      "inputs": [
        {
          "internalType": "address",
          "name": "",
          "type": "address"
        },
        {
          "internalType": "uint256",
          "name": "",
          "type": "uint256"
        }
      ],
      "name": "eventsCreated",
      "outputs": [
        {
          "internalType": "uint256",
          "name": "",
          "type": "uint256"
        }
      ],
      "stateMutability": "view",
      "type": "function"
    },
    {
      "inputs": [],
      "name": "getAllEvents",
      "outputs": [
        {
          "components": [
            {
              "internalType": "string",
              "name": "eventCID",
              "type": "string"
            },
            {
              "internalType": "uint256",
              "name": "totalTickets",
              "type": "uint256"
            },
            {
              "internalType": "uint256",
              "name": "remTickets",
              "type": "uint256"
            },
            {
              "internalType": "uint256",
              "name": "price",
              "type": "uint256"
            },
            {
              "internalType": "address payable",
              "name": "creator",
              "type": "address"
            }
          ],
          "internalType": "struct Tickets.Event[]",
          "name": "",
          "type": "tuple[]"
        }
      ],
      "stateMutability": "view",
      "type": "function"
    },
    {
      "inputs": [
        {
          "internalType": "address",
          "name": "_organizerAddress",
          "type": "address"
        }
      ],
      "name": "isOrganizers",
      "outputs": [
        {
          "internalType": "bool",
          "name": "",
          "type": "bool"
        }
      ],
      "stateMutability": "view",
      "type": "function"
    },
    {
      "inputs": [],
      "name": "isOwner",
      "outputs": [
        {
          "internalType": "bool",
          "name": "",
          "type": "bool"
        }
      ],
      "stateMutability": "view",
      "type": "function"
    },
    {
      "inputs": [
        {
          "internalType": "address",
          "name": "",
          "type": "address"
        }
      ],
      "name": "organizerCID",
      "outputs": [
        {
          "internalType": "string",
          "name": "",
          "type": "string"
        }
      ],
      "stateMutability": "view",
      "type": "function"
    },
    {
      "inputs": [
        {
          "internalType": "address",
          "name": "",
          "type": "address"
        }
      ],
      "name": "organizers",
      "outputs": [
        {
          "internalType": "bool",
          "name": "",
          "type": "bool"
        }
      ],
      "stateMutability": "view",
      "type": "function"
    },
    {
      "inputs": [],
      "name": "owner",
      "outputs": [
        {
          "internalType": "address payable",
          "name": "",
          "type": "address"
        }
      ],
      "stateMutability": "view",
      "type": "function"
    },
    {
      "inputs": [
        {
          "internalType": "string",
          "name": "_CID",
          "type": "string"
        }
      ],
      "name": "registerEventOrganizer",
      "outputs": [],
      "stateMutability": "nonpayable",
      "type": "function"
    },
    {
      "inputs": [
        {
          "internalType": "address",
          "name": "",
          "type": "address"
        },
        {
          "internalType": "uint256",
          "name": "",
          "type": "uint256"
        }
      ],
      "name": "ticketHolders",
      "outputs": [
        {
          "internalType": "address",
          "name": "userAddress",
          "type": "address"
        },
        {
          "internalType": "string",
          "name": "eventName",
          "type": "string"
        },
        {
          "internalType": "uint256",
          "name": "eventId",
          "type": "uint256"
        },
        {
          "internalType": "uint256",
          "name": "ticketsOwned",
          "type": "uint256"
        }
      ],
      "stateMutability": "view",
      "type": "function"
    }
  ],
  "bytecode": "0x608060405234801561001057600080fd5b5033600560006101000a81548173ffffffffffffffffffffffffffffffffffffffff021916908373ffffffffffffffffffffffffffffffffffffffff160217905550612089806100616000396000f3fe6080604052600436106100a75760003560e01c8063826155691161006457806382615569146101e95780638da5cb5b146102295780638f32d59b146102545780639e9580f61461027f578063c27a500d1461029b578063fb894fa2146102c6576100a7565b80630544c5b9146100ac5780630b791430146100e9578063298ec2081461012a5780633aba8bd71461014657806363d3b019146101835780636e389f90146101ac575b600080fd5b3480156100b857600080fd5b506100d360048036038101906100ce91906111b9565b610303565b6040516100e09190611201565b60405180910390f35b3480156100f557600080fd5b50610110600480360381019061010b9190611252565b610323565b60405161012195949392919061133f565b60405180910390f35b610144600480360381019061013f9190611399565b610401565b005b34801561015257600080fd5b5061016d600480360381019061016891906113d9565b610819565b60405161017a9190611419565b60405180910390f35b34801561018f57600080fd5b506101aa60048036038101906101a59190611569565b61084a565b005b3480156101b857600080fd5b506101d360048036038101906101ce91906111b9565b610984565b6040516101e09190611201565b60405180910390f35b3480156101f557600080fd5b50610210600480360381019061020b91906113d9565b6109da565b60405161022094939291906115c1565b60405180910390f35b34801561023557600080fd5b5061023e610acf565b60405161024b919061160d565b60405180910390f35b34801561026057600080fd5b50610269610af5565b6040516102769190611201565b60405180910390f35b61029960048036038101906102949190611628565b610b4d565b005b3480156102a757600080fd5b506102b0610e91565b6040516102bd9190611837565b60405180910390f35b3480156102d257600080fd5b506102ed60048036038101906102e891906111b9565b611062565b6040516102fa9190611859565b60405180910390f35b60046020528060005260406000206000915054906101000a900460ff1681565b6000602052806000526040600020600091509050806000018054610346906118aa565b80601f0160208091040260200160405190810160405280929190818152602001828054610372906118aa565b80156103bf5780601f10610394576101008083540402835291602001916103bf565b820191906000526020600020905b8154815290600101906020018083116103a257829003601f168201915b5050505050908060010154908060020154908060030154908060040160009054906101000a900473ffffffffffffffffffffffffffffffffffffffff16905085565b600654821115610446576040517f08c379a000000000000000000000000000000000000000000000000000000000815260040161043d90611927565b60405180910390fd5b8060008084815260200190815260200160002060020154101561049e576040517f08c379a000000000000000000000000000000000000000000000000000000000815260040161049590611993565b60405180910390fd5b600081600080858152602001908152602001600020600301546104c191906119e2565b905080341015610506576040517f08c379a00000000000000000000000000000000000000000000000000000000081526004016104fd90611a70565b60405180910390fd5b600081346105149190611a90565b90506000811115610567573373ffffffffffffffffffffffffffffffffffffffff166108fc829081150290604051600060405180830381858888f19350505050158015610565573d6000803e3d6000fd5b505b60008085815260200190815260200160002060040160009054906101000a900473ffffffffffffffffffffffffffffffffffffffff1673ffffffffffffffffffffffffffffffffffffffff166108fc839081150290604051600060405180830381858888f193505050501580156105e2573d6000803e3d6000fd5b508260008086815260200190815260200160002060020160008282546106089190611a90565b925050819055506000600160003373ffffffffffffffffffffffffffffffffffffffff1673ffffffffffffffffffffffffffffffffffffffff16815260200190815260200160002090508060405180608001604052803373ffffffffffffffffffffffffffffffffffffffff168152602001600080898152602001908152602001600020600001805461069a906118aa565b80601f01602080910402602001604051908101604052809291908181526020018280546106c6906118aa565b80156107135780601f106106e857610100808354040283529160200191610713565b820191906000526020600020905b8154815290600101906020018083116106f657829003601f168201915b5050505050815260200187815260200186815250908060018154018082558091505060019003906000526020600020906004020160009091909190915060008201518160000160006101000a81548173ffffffffffffffffffffffffffffffffffffffff021916908373ffffffffffffffffffffffffffffffffffffffff16021790555060208201518160010190816107ac9190611c70565b50604082015181600201556060820151816003015550503373ffffffffffffffffffffffffffffffffffffffff16847f94c5953e15f54d38b82a662bdd5739fc91af3a23d3ef7e67269dfaeee71a813c8760405161080a9190611419565b60405180910390a35050505050565b6002602052816000526040600020818154811061083557600080fd5b90600052602060002001600091509150505481565b600081511161088e576040517f08c379a000000000000000000000000000000000000000000000000000000000815260040161088590611d8e565b60405180910390fd5b80600360003373ffffffffffffffffffffffffffffffffffffffff1673ffffffffffffffffffffffffffffffffffffffff16815260200190815260200160002090816108da9190611c70565b506001600460003373ffffffffffffffffffffffffffffffffffffffff1673ffffffffffffffffffffffffffffffffffffffff16815260200190815260200160002060006101000a81548160ff0219169083151502179055503373ffffffffffffffffffffffffffffffffffffffff167fac35be65b927c19690056f54322574255afb94436fc8b4637810cfcc1fb3daae826040516109799190611859565b60405180910390a250565b6000600460008373ffffffffffffffffffffffffffffffffffffffff1673ffffffffffffffffffffffffffffffffffffffff16815260200190815260200160002060009054906101000a900460ff169050919050565b600160205281600052604060002081815481106109f657600080fd5b9060005260206000209060040201600091509150508060000160009054906101000a900473ffffffffffffffffffffffffffffffffffffffff1690806001018054610a40906118aa565b80601f0160208091040260200160405190810160405280929190818152602001828054610a6c906118aa565b8015610ab95780601f10610a8e57610100808354040283529160200191610ab9565b820191906000526020600020905b815481529060010190602001808311610a9c57829003601f168201915b5050505050908060020154908060030154905084565b600560009054906101000a900473ffffffffffffffffffffffffffffffffffffffff1681565b6000600560009054906101000a900473ffffffffffffffffffffffffffffffffffffffff1673ffffffffffffffffffffffffffffffffffffffff163373ffffffffffffffffffffffffffffffffffffffff1614905090565b6000835111610b91576040517f08c379a0000000000000000000000000000000000000000000000000000000008152600401610b8890611dfa565b60405180910390fd5b610b9a33610984565b610bd9576040517f08c379a0000000000000000000000000000000000000000000000000000000008152600401610bd090611e66565b60405180910390fd5b60008211610c1c576040517f08c379a0000000000000000000000000000000000000000000000000000000008152600401610c1390611ef8565b60405180910390fd5b6000606460038484610c2e91906119e2565b610c3891906119e2565b610c429190611f47565b905080341015610c87576040517f08c379a0000000000000000000000000000000000000000000000000000000008152600401610c7e90611a70565b60405180910390fd5b600560009054906101000a900473ffffffffffffffffffffffffffffffffffffffff1673ffffffffffffffffffffffffffffffffffffffff166108fc829081150290604051600060405180830381858888f19350505050158015610cef573d6000803e3d6000fd5b5060008134610cfe9190611a90565b90506000811115610d51573373ffffffffffffffffffffffffffffffffffffffff166108fc829081150290604051600060405180830381858888f19350505050158015610d4f573d6000803e3d6000fd5b505b60066000815480929190610d6490611f78565b91905055503373ffffffffffffffffffffffffffffffffffffffff167ffc695dea2478fb938a11068aeedddd7046a5fe655f136e30a325d353fe187a4560065487604051610db3929190611fc0565b60405180910390a26040518060a001604052808681526020018581526020018581526020018481526020013373ffffffffffffffffffffffffffffffffffffffff1681525060008060065481526020019081526020016000206000820151816000019081610e219190611c70565b5060208201518160010155604082015181600201556060820151816003015560808201518160040160006101000a81548173ffffffffffffffffffffffffffffffffffffffff021916908373ffffffffffffffffffffffffffffffffffffffff1602179055509050505050505050565b6060600060065467ffffffffffffffff811115610eb157610eb061143e565b5b604051908082528060200260200182016040528015610eea57816020015b610ed7611102565b815260200190600190039081610ecf5790505b50905060005b60065481101561105a57600080600183610f0a9190611ff0565b81526020019081526020016000206040518060a0016040529081600082018054610f33906118aa565b80601f0160208091040260200160405190810160405280929190818152602001828054610f5f906118aa565b8015610fac5780601f10610f8157610100808354040283529160200191610fac565b820191906000526020600020905b815481529060010190602001808311610f8f57829003601f168201915b505050505081526020016001820154815260200160028201548152602001600382015481526020016004820160009054906101000a900473ffffffffffffffffffffffffffffffffffffffff1673ffffffffffffffffffffffffffffffffffffffff1673ffffffffffffffffffffffffffffffffffffffff168152505082828151811061103c5761103b612024565b5b6020026020010181905250808061105290611f78565b915050610ef0565b508091505090565b60036020528060005260406000206000915090508054611081906118aa565b80601f01602080910402602001604051908101604052809291908181526020018280546110ad906118aa565b80156110fa5780601f106110cf576101008083540402835291602001916110fa565b820191906000526020600020905b8154815290600101906020018083116110dd57829003601f168201915b505050505081565b6040518060a0016040528060608152602001600081526020016000815260200160008152602001600073ffffffffffffffffffffffffffffffffffffffff1681525090565b6000604051905090565b600080fd5b600080fd5b600073ffffffffffffffffffffffffffffffffffffffff82169050919050565b60006111868261115b565b9050919050565b6111968161117b565b81146111a157600080fd5b50565b6000813590506111b38161118d565b92915050565b6000602082840312156111cf576111ce611151565b5b60006111dd848285016111a4565b91505092915050565b60008115159050919050565b6111fb816111e6565b82525050565b600060208201905061121660008301846111f2565b92915050565b6000819050919050565b61122f8161121c565b811461123a57600080fd5b50565b60008135905061124c81611226565b92915050565b60006020828403121561126857611267611151565b5b60006112768482850161123d565b91505092915050565b600081519050919050565b600082825260208201905092915050565b60005b838110156112b957808201518184015260208101905061129e565b60008484015250505050565b6000601f19601f8301169050919050565b60006112e18261127f565b6112eb818561128a565b93506112fb81856020860161129b565b611304816112c5565b840191505092915050565b6113188161121c565b82525050565b60006113298261115b565b9050919050565b6113398161131e565b82525050565b600060a082019050818103600083015261135981886112d6565b9050611368602083018761130f565b611375604083018661130f565b611382606083018561130f565b61138f6080830184611330565b9695505050505050565b600080604083850312156113b0576113af611151565b5b60006113be8582860161123d565b92505060206113cf8582860161123d565b9150509250929050565b600080604083850312156113f0576113ef611151565b5b60006113fe858286016111a4565b925050602061140f8582860161123d565b9150509250929050565b600060208201905061142e600083018461130f565b92915050565b600080fd5b600080fd5b7f4e487b7100000000000000000000000000000000000000000000000000000000600052604160045260246000fd5b611476826112c5565b810181811067ffffffffffffffff821117156114955761149461143e565b5b80604052505050565b60006114a8611147565b90506114b4828261146d565b919050565b600067ffffffffffffffff8211156114d4576114d361143e565b5b6114dd826112c5565b9050602081019050919050565b82818337600083830152505050565b600061150c611507846114b9565b61149e565b90508281526020810184848401111561152857611527611439565b5b6115338482856114ea565b509392505050565b600082601f8301126115505761154f611434565b5b81356115608482602086016114f9565b91505092915050565b60006020828403121561157f5761157e611151565b5b600082013567ffffffffffffffff81111561159d5761159c611156565b5b6115a98482850161153b565b91505092915050565b6115bb8161117b565b82525050565b60006080820190506115d660008301876115b2565b81810360208301526115e881866112d6565b90506115f7604083018561130f565b611604606083018461130f565b95945050505050565b60006020820190506116226000830184611330565b92915050565b60008060006060848603121561164157611640611151565b5b600084013567ffffffffffffffff81111561165f5761165e611156565b5b61166b8682870161153b565b935050602061167c8682870161123d565b925050604061168d8682870161123d565b9150509250925092565b600081519050919050565b600082825260208201905092915050565b6000819050602082019050919050565b600082825260208201905092915050565b60006116df8261127f565b6116e981856116c3565b93506116f981856020860161129b565b611702816112c5565b840191505092915050565b6117168161121c565b82525050565b6117258161131e565b82525050565b600060a083016000830151848203600086015261174882826116d4565b915050602083015161175d602086018261170d565b506040830151611770604086018261170d565b506060830151611783606086018261170d565b506080830151611796608086018261171c565b508091505092915050565b60006117ad838361172b565b905092915050565b6000602082019050919050565b60006117cd82611697565b6117d781856116a2565b9350836020820285016117e9856116b3565b8060005b85811015611825578484038952815161180685826117a1565b9450611811836117b5565b925060208a019950506001810190506117ed565b50829750879550505050505092915050565b6000602082019050818103600083015261185181846117c2565b905092915050565b6000602082019050818103600083015261187381846112d6565b905092915050565b7f4e487b7100000000000000000000000000000000000000000000000000000000600052602260045260246000fd5b600060028204905060018216806118c257607f821691505b6020821081036118d5576118d461187b565b5b50919050565b7f4576656e7420646f6573206e6f74206578697374000000000000000000000000600082015250565b600061191160148361128a565b915061191c826118db565b602082019050919050565b6000602082019050818103600083015261194081611904565b9050919050565b7f4e6f7420656e6f756768207469636b657473206c656674000000000000000000600082015250565b600061197d60178361128a565b915061198882611947565b602082019050919050565b600060208201905081810360008301526119ac81611970565b9050919050565b7f4e487b7100000000000000000000000000000000000000000000000000000000600052601160045260246000fd5b60006119ed8261121c565b91506119f88361121c565b9250828202611a068161121c565b91508282048414831517611a1d57611a1c6119b3565b5b5092915050565b7f4e6f7420656e6f7567682065746865722073656e740000000000000000000000600082015250565b6000611a5a60158361128a565b9150611a6582611a24565b602082019050919050565b60006020820190508181036000830152611a8981611a4d565b9050919050565b6000611a9b8261121c565b9150611aa68361121c565b9250828203905081811115611abe57611abd6119b3565b5b92915050565b60008190508160005260206000209050919050565b60006020601f8301049050919050565b600082821b905092915050565b600060088302611b267fffffffffffffffffffffffffffffffffffffffffffffffffffffffffffffffff82611ae9565b611b308683611ae9565b95508019841693508086168417925050509392505050565b6000819050919050565b6000611b6d611b68611b638461121c565b611b48565b61121c565b9050919050565b6000819050919050565b611b8783611b52565b611b9b611b9382611b74565b848454611af6565b825550505050565b600090565b611bb0611ba3565b611bbb818484611b7e565b505050565b5b81811015611bdf57611bd4600082611ba8565b600181019050611bc1565b5050565b601f821115611c2457611bf581611ac4565b611bfe84611ad9565b81016020851015611c0d578190505b611c21611c1985611ad9565b830182611bc0565b50505b505050565b600082821c905092915050565b6000611c4760001984600802611c29565b1980831691505092915050565b6000611c608383611c36565b9150826002028217905092915050565b611c798261127f565b67ffffffffffffffff811115611c9257611c9161143e565b5b611c9c82546118aa565b611ca7828285611be3565b600060209050601f831160018114611cda5760008415611cc8578287015190505b611cd28582611c54565b865550611d3a565b601f198416611ce886611ac4565b60005b82811015611d1057848901518255600182019150602085019450602081019050611ceb565b86831015611d2d5784890151611d29601f891682611c36565b8355505b6001600288020188555050505b505050505050565b7f4349442063616e6e6f7420626520656d70747900000000000000000000000000600082015250565b6000611d7860138361128a565b9150611d8382611d42565b602082019050919050565b60006020820190508181036000830152611da781611d6b565b9050919050565b7f4576656e74204349442073686f756c64206e6f7420626520656d707479000000600082015250565b6000611de4601d8361128a565b9150611def82611dae565b602082019050919050565b60006020820190508181036000830152611e1381611dd7565b9050919050565b7f4f6e6c79206f7267616e697a65722063616e20637265617465206576656e7400600082015250565b6000611e50601f8361128a565b9150611e5b82611e1a565b602082019050919050565b60006020820190508181036000830152611e7f81611e43565b9050919050565b7f546f74616c207469636b6574732073686f756c6420626520677265617465722060008201527f7468616e20300000000000000000000000000000000000000000000000000000602082015250565b6000611ee260268361128a565b9150611eed82611e86565b604082019050919050565b60006020820190508181036000830152611f1181611ed5565b9050919050565b7f4e487b7100000000000000000000000000000000000000000000000000000000600052601260045260246000fd5b6000611f528261121c565b9150611f5d8361121c565b925082611f6d57611f6c611f18565b5b828204905092915050565b6000611f838261121c565b91507fffffffffffffffffffffffffffffffffffffffffffffffffffffffffffffffff8203611fb557611fb46119b3565b5b600182019050919050565b6000604082019050611fd5600083018561130f565b8181036020830152611fe781846112d6565b90509392505050565b6000611ffb8261121c565b91506120068361121c565b925082820190508082111561201e5761201d6119b3565b5b92915050565b7f4e487b7100000000000000000000000000000000000000000000000000000000600052603260045260246000fdfea264697066735822122033f67dc5ad7a0e6600e2ce68705db223261ce3b9c51f385f94faf06041b4508564736f6c63430008130033",
  "linkReferences": {},
  "deployedLinkReferences": {}
}