{
  "_format": "hh-sol-artifact-1",
  "contractName": "Tickets",
  "sourceName": "contracts/Tickets.sol",
  "abi": [
    {
      "anonymous": false,
      "inputs": [
        {
          "indexed": true,
          "internalType": "uint256",
          "name": "eventId",
          "type": "uint256"
        }
      ],
      "name": "EventCreated",
      "type": "event"
    },
    {
      "anonymous": false,
      "inputs": [
        {
          "indexed": true,
          "internalType": "address",
          "name": "organizerAddress",
          "type": "address"
        },
        {
          "indexed": true,
          "internalType": "string",
          "name": "CID",
          "type": "string"
        }
      ],
      "name": "OrganizerRegistered",
      "type": "event"
    },
    {
      "anonymous": false,
      "inputs": [
        {
          "indexed": true,
          "internalType": "uint256",
          "name": "eventId",
          "type": "uint256"
        },
        {
          "indexed": true,
          "internalType": "address",
          "name": "buyer",
          "type": "address"
        }
      ],
      "name": "TicketPurchased",
      "type": "event"
    },
    {
      "inputs": [
        {
          "internalType": "uint256",
          "name": "_eventId",
          "type": "uint256"
        },
        {
          "internalType": "uint256",
          "name": "_totalAmount",
          "type": "uint256"
        },
        {
          "internalType": "uint256",
          "name": "_totalTickets",
          "type": "uint256"
        }
      ],
      "name": "buyTicket",
      "outputs": [],
      "stateMutability": "payable",
      "type": "function"
    },
    {
      "inputs": [
        {
          "internalType": "string",
          "name": "_eventCid",
          "type": "string"
        },
        {
          "internalType": "uint256",
          "name": "_totalTickets",
          "type": "uint256"
        },
        {
          "internalType": "uint256",
          "name": "_price",
          "type": "uint256"
        }
      ],
      "name": "createEvent",
      "outputs": [],
      "stateMutability": "payable",
      "type": "function"
    },
    {
      "inputs": [
        {
          "internalType": "uint256",
          "name": "",
          "type": "uint256"
        }
      ],
      "name": "events",
      "outputs": [
        {
          "internalType": "string",
          "name": "eventCID",
          "type": "string"
        },
        {
          "internalType": "uint256",
          "name": "totalTickets",
          "type": "uint256"
        },
        {
          "internalType": "uint256",
          "name": "remTickets",
          "type": "uint256"
        },
        {
          "internalType": "uint256",
          "name": "price",
          "type": "uint256"
        },
        {
          "internalType": "address payable",
          "name": "creator",
          "type": "address"
        }
      ],
      "stateMutability": "view",
      "type": "function"
    },
    {
      "inputs": [],
      "name": "getAllEvents",
      "outputs": [
        {
          "components": [
            {
              "internalType": "string",
              "name": "eventCID",
              "type": "string"
            },
            {
              "internalType": "uint256",
              "name": "totalTickets",
              "type": "uint256"
            },
            {
              "internalType": "uint256",
              "name": "remTickets",
              "type": "uint256"
            },
            {
              "internalType": "uint256",
              "name": "price",
              "type": "uint256"
            },
            {
              "internalType": "address payable",
              "name": "creator",
              "type": "address"
            }
          ],
          "internalType": "struct Tickets.Event[]",
          "name": "",
          "type": "tuple[]"
        }
      ],
      "stateMutability": "view",
      "type": "function"
    },
    {
      "inputs": [
        {
          "internalType": "uint256",
          "name": "_eventId",
          "type": "uint256"
        }
      ],
      "name": "getIpfsCID",
      "outputs": [
        {
          "internalType": "string",
          "name": "",
          "type": "string"
        }
      ],
      "stateMutability": "view",
      "type": "function"
    },
    {
      "inputs": [
        {
          "internalType": "address",
          "name": "_organizerAddress",
          "type": "address"
        }
      ],
      "name": "getOrganizerCID",
      "outputs": [
        {
          "internalType": "string",
          "name": "",
          "type": "string"
        }
      ],
      "stateMutability": "view",
      "type": "function"
    },
    {
      "inputs": [
        {
          "internalType": "address",
          "name": "_organizerAddress",
          "type": "address"
        }
      ],
      "name": "isOrganizers",
      "outputs": [
        {
          "internalType": "bool",
          "name": "",
          "type": "bool"
        }
      ],
      "stateMutability": "view",
      "type": "function"
    },
    {
      "inputs": [
        {
          "internalType": "address",
          "name": "",
          "type": "address"
        }
      ],
      "name": "organizerCID",
      "outputs": [
        {
          "internalType": "string",
          "name": "",
          "type": "string"
        }
      ],
      "stateMutability": "view",
      "type": "function"
    },
    {
      "inputs": [
        {
          "internalType": "address",
          "name": "",
          "type": "address"
        }
      ],
      "name": "organizers",
      "outputs": [
        {
          "internalType": "bool",
          "name": "",
          "type": "bool"
        }
      ],
      "stateMutability": "view",
      "type": "function"
    },
    {
      "inputs": [],
      "name": "owner",
      "outputs": [
        {
          "internalType": "address payable",
          "name": "",
          "type": "address"
        }
      ],
      "stateMutability": "view",
      "type": "function"
    },
    {
      "inputs": [
        {
          "internalType": "string",
          "name": "_CID",
          "type": "string"
        }
      ],
      "name": "registerEventOrganizer",
      "outputs": [],
      "stateMutability": "nonpayable",
      "type": "function"
    },
    {
      "inputs": [
        {
          "internalType": "address",
          "name": "",
          "type": "address"
        },
        {
          "internalType": "uint256",
          "name": "",
          "type": "uint256"
        }
      ],
      "name": "ticketHolders",
      "outputs": [
        {
          "internalType": "address",
          "name": "userAddress",
          "type": "address"
        },
        {
          "internalType": "string",
          "name": "eventName",
          "type": "string"
        },
        {
          "internalType": "uint256",
          "name": "eventId",
          "type": "uint256"
        },
        {
          "internalType": "uint256",
          "name": "ticketsOwned",
          "type": "uint256"
        }
      ],
      "stateMutability": "view",
      "type": "function"
    }
  ],
  "bytecode": "0x608060405234801561001057600080fd5b50336000806101000a81548173ffffffffffffffffffffffffffffffffffffffff021916908373ffffffffffffffffffffffffffffffffffffffff160217905550612453806100606000396000f3fe6080604052600436106100a75760003560e01c80638261556911610064578063826155691461020a5780638da5cb5b1461024a5780639e9580f614610275578063c27a500d14610291578063c4c6710d146102bc578063fb894fa2146102d8576100a7565b8063038a03c4146100ac5780630544c5b9146100e95780630b7914301461012657806320e244131461016757806363d3b019146101a45780636e389f90146101cd575b600080fd5b3480156100b857600080fd5b506100d360048036038101906100ce9190611450565b610315565b6040516100e0919061150d565b60405180910390f35b3480156100f557600080fd5b50610110600480360381019061010b919061158d565b61040e565b60405161011d91906115d5565b60405180910390f35b34801561013257600080fd5b5061014d60048036038101906101489190611450565b61042e565b60405161015e959493929190611620565b60405180910390f35b34801561017357600080fd5b5061018e6004803603810190610189919061158d565b61050c565b60405161019b919061150d565b60405180910390f35b3480156101b057600080fd5b506101cb60048036038101906101c691906117af565b6107a3565b005b3480156101d957600080fd5b506101f460048036038101906101ef919061158d565b6108e8565b60405161020191906115d5565b60405180910390f35b34801561021657600080fd5b50610231600480360381019061022c91906117f8565b61093e565b6040516102419493929190611847565b60405180910390f35b34801561025657600080fd5b5061025f610a33565b60405161026c9190611893565b60405180910390f35b61028f600480360381019061028a91906118ae565b610a57565b005b34801561029d57600080fd5b506102a6610dc2565b6040516102b39190611abd565b60405180910390f35b6102d660048036038101906102d19190611adf565b610f97565b005b3480156102e457600080fd5b506102ff60048036038101906102fa919061158d565b611321565b60405161030c919061150d565b60405180910390f35b606060008211801561032957506005548211155b610368576040517f08c379a000000000000000000000000000000000000000000000000000000000815260040161035f90611b7e565b60405180910390fd5b60036000838152602001908152602001600020600001805461038990611bcd565b80601f01602080910402602001604051908101604052809291908181526020018280546103b590611bcd565b80156104025780601f106103d757610100808354040283529160200191610402565b820191906000526020600020905b8154815290600101906020018083116103e557829003601f168201915b50505050509050919050565b60026020528060005260406000206000915054906101000a900460ff1681565b600360205280600052604060002060009150905080600001805461045190611bcd565b80601f016020809104026020016040519081016040528092919081815260200182805461047d90611bcd565b80156104ca5780601f1061049f576101008083540402835291602001916104ca565b820191906000526020600020905b8154815290600101906020018083116104ad57829003601f168201915b5050505050908060010154908060020154908060030154908060040160009054906101000a900473ffffffffffffffffffffffffffffffffffffffff16905085565b606060011515600260003373ffffffffffffffffffffffffffffffffffffffff1673ffffffffffffffffffffffffffffffffffffffff16815260200190815260200160002060009054906101000a900460ff161515146105a1576040517f08c379a000000000000000000000000000000000000000000000000000000000815260040161059890611c70565b60405180910390fd5b600073ffffffffffffffffffffffffffffffffffffffff168273ffffffffffffffffffffffffffffffffffffffff1603610610576040517f08c379a000000000000000000000000000000000000000000000000000000000815260040161060790611cdc565b60405180910390fd5b60008054906101000a900473ffffffffffffffffffffffffffffffffffffffff1673ffffffffffffffffffffffffffffffffffffffff163373ffffffffffffffffffffffffffffffffffffffff16148061069557508173ffffffffffffffffffffffffffffffffffffffff163373ffffffffffffffffffffffffffffffffffffffff16145b6106d4576040517f08c379a00000000000000000000000000000000000000000000000000000000081526004016106cb90611d6e565b60405180910390fd5b600160008373ffffffffffffffffffffffffffffffffffffffff1673ffffffffffffffffffffffffffffffffffffffff168152602001908152602001600020805461071e90611bcd565b80601f016020809104026020016040519081016040528092919081815260200182805461074a90611bcd565b80156107975780601f1061076c57610100808354040283529160200191610797565b820191906000526020600020905b81548152906001019060200180831161077a57829003601f168201915b50505050509050919050565b60008151116107e7576040517f08c379a00000000000000000000000000000000000000000000000000000000081526004016107de90611dda565b60405180910390fd5b80600160003373ffffffffffffffffffffffffffffffffffffffff1673ffffffffffffffffffffffffffffffffffffffff16815260200190815260200160002090816108339190611fa6565b506001600260003373ffffffffffffffffffffffffffffffffffffffff1673ffffffffffffffffffffffffffffffffffffffff16815260200190815260200160002060006101000a81548160ff0219169083151502179055508060405161089a91906120b4565b60405180910390203373ffffffffffffffffffffffffffffffffffffffff167fac35be65b927c19690056f54322574255afb94436fc8b4637810cfcc1fb3daae60405160405180910390a350565b6000600260008373ffffffffffffffffffffffffffffffffffffffff1673ffffffffffffffffffffffffffffffffffffffff16815260200190815260200160002060009054906101000a900460ff169050919050565b6004602052816000526040600020818154811061095a57600080fd5b9060005260206000209060040201600091509150508060000160009054906101000a900473ffffffffffffffffffffffffffffffffffffffff16908060010180546109a490611bcd565b80601f01602080910402602001604051908101604052809291908181526020018280546109d090611bcd565b8015610a1d5780601f106109f257610100808354040283529160200191610a1d565b820191906000526020600020905b815481529060010190602001808311610a0057829003601f168201915b5050505050908060020154908060030154905084565b60008054906101000a900473ffffffffffffffffffffffffffffffffffffffff1681565b60011515600260003373ffffffffffffffffffffffffffffffffffffffff1673ffffffffffffffffffffffffffffffffffffffff16815260200190815260200160002060009054906101000a900460ff16151514610aea576040517f08c379a0000000000000000000000000000000000000000000000000000000008152600401610ae190611c70565b60405180910390fd5b6000835111610b2e576040517f08c379a0000000000000000000000000000000000000000000000000000000008152600401610b2590612117565b60405180910390fd5b60008211610b71576040517f08c379a0000000000000000000000000000000000000000000000000000000008152600401610b68906121a9565b60405180910390fd5b6000606460038484610b8391906121f8565b610b8d91906121f8565b610b979190612269565b905080341015610bdc576040517f08c379a0000000000000000000000000000000000000000000000000000000008152600401610bd3906122e6565b60405180910390fd5b60008134610bea9190612306565b90506000811115610c3d573373ffffffffffffffffffffffffffffffffffffffff166108fc829081150290604051600060405180830381858888f19350505050158015610c3b573d6000803e3d6000fd5b505b60008054906101000a900473ffffffffffffffffffffffffffffffffffffffff1673ffffffffffffffffffffffffffffffffffffffff166108fc839081150290604051600060405180830381858888f19350505050158015610ca3573d6000803e3d6000fd5b5060056000815480929190610cb79061233a565b91905055506005547f748ff5cfd7b66bdd8e21581c2a864756fe7085378c0003183e579bfafba2832560405160405180910390a26040518060a001604052808681526020018581526020018581526020018481526020013373ffffffffffffffffffffffffffffffffffffffff168152506003600060055481526020019081526020016000206000820151816000019081610d529190611fa6565b5060208201518160010155604082015181600201556060820151816003015560808201518160040160006101000a81548173ffffffffffffffffffffffffffffffffffffffff021916908373ffffffffffffffffffffffffffffffffffffffff1602179055509050505050505050565b6060600060055467ffffffffffffffff811115610de257610de1611684565b5b604051908082528060200260200182016040528015610e1b57816020015b610e086113c1565b815260200190600190039081610e005790505b5090506000600190505b6005548111610f8f57600360008281526020019081526020016000206040518060a0016040529081600082018054610e5c90611bcd565b80601f0160208091040260200160405190810160405280929190818152602001828054610e8890611bcd565b8015610ed55780601f10610eaa57610100808354040283529160200191610ed5565b820191906000526020600020905b815481529060010190602001808311610eb857829003601f168201915b505050505081526020016001820154815260200160028201548152602001600382015481526020016004820160009054906101000a900473ffffffffffffffffffffffffffffffffffffffff1673ffffffffffffffffffffffffffffffffffffffff1673ffffffffffffffffffffffffffffffffffffffff168152505082600183610f609190612306565b81518110610f7157610f70612382565b5b60200260200101819052508080610f879061233a565b915050610e25565b508091505090565b600554831115610fdc576040517f08c379a0000000000000000000000000000000000000000000000000000000008152600401610fd390611b7e565b60405180910390fd5b6000821161101f576040517f08c379a0000000000000000000000000000000000000000000000000000000008152600401611016906121a9565b60405180910390fd5b8060036000858152602001908152602001600020600201541015611078576040517f08c379a000000000000000000000000000000000000000000000000000000000815260040161106f906123fd565b60405180910390fd5b6003600084815260200190815260200160002060040160009054906101000a900473ffffffffffffffffffffffffffffffffffffffff1673ffffffffffffffffffffffffffffffffffffffff166108fc839081150290604051600060405180830381858888f193505050501580156110f4573d6000803e3d6000fd5b508160036000858152602001908152602001600020600201600082825461111b9190612306565b925050819055506000600460003373ffffffffffffffffffffffffffffffffffffffff1673ffffffffffffffffffffffffffffffffffffffff16815260200190815260200160002090508060405180608001604052803373ffffffffffffffffffffffffffffffffffffffff1681526020016003600088815260200190815260200160002060000180546111ae90611bcd565b80601f01602080910402602001604051908101604052809291908181526020018280546111da90611bcd565b80156112275780601f106111fc57610100808354040283529160200191611227565b820191906000526020600020905b81548152906001019060200180831161120a57829003601f168201915b5050505050815260200186815260200184815250908060018154018082558091505060019003906000526020600020906004020160009091909190915060008201518160000160006101000a81548173ffffffffffffffffffffffffffffffffffffffff021916908373ffffffffffffffffffffffffffffffffffffffff16021790555060208201518160010190816112c09190611fa6565b50604082015181600201556060820151816003015550503373ffffffffffffffffffffffffffffffffffffffff16847f785f2865353ae960010300f584fc6c577b757a853af69a99c769df3c8232d3de60405160405180910390a350505050565b6001602052806000526040600020600091509050805461134090611bcd565b80601f016020809104026020016040519081016040528092919081815260200182805461136c90611bcd565b80156113b95780601f1061138e576101008083540402835291602001916113b9565b820191906000526020600020905b81548152906001019060200180831161139c57829003601f168201915b505050505081565b6040518060a0016040528060608152602001600081526020016000815260200160008152602001600073ffffffffffffffffffffffffffffffffffffffff1681525090565b6000604051905090565b600080fd5b600080fd5b6000819050919050565b61142d8161141a565b811461143857600080fd5b50565b60008135905061144a81611424565b92915050565b60006020828403121561146657611465611410565b5b60006114748482850161143b565b91505092915050565b600081519050919050565b600082825260208201905092915050565b60005b838110156114b757808201518184015260208101905061149c565b60008484015250505050565b6000601f19601f8301169050919050565b60006114df8261147d565b6114e98185611488565b93506114f9818560208601611499565b611502816114c3565b840191505092915050565b6000602082019050818103600083015261152781846114d4565b905092915050565b600073ffffffffffffffffffffffffffffffffffffffff82169050919050565b600061155a8261152f565b9050919050565b61156a8161154f565b811461157557600080fd5b50565b60008135905061158781611561565b92915050565b6000602082840312156115a3576115a2611410565b5b60006115b184828501611578565b91505092915050565b60008115159050919050565b6115cf816115ba565b82525050565b60006020820190506115ea60008301846115c6565b92915050565b6115f98161141a565b82525050565b600061160a8261152f565b9050919050565b61161a816115ff565b82525050565b600060a082019050818103600083015261163a81886114d4565b905061164960208301876115f0565b61165660408301866115f0565b61166360608301856115f0565b6116706080830184611611565b9695505050505050565b600080fd5b600080fd5b7f4e487b7100000000000000000000000000000000000000000000000000000000600052604160045260246000fd5b6116bc826114c3565b810181811067ffffffffffffffff821117156116db576116da611684565b5b80604052505050565b60006116ee611406565b90506116fa82826116b3565b919050565b600067ffffffffffffffff82111561171a57611719611684565b5b611723826114c3565b9050602081019050919050565b82818337600083830152505050565b600061175261174d846116ff565b6116e4565b90508281526020810184848401111561176e5761176d61167f565b5b611779848285611730565b509392505050565b600082601f8301126117965761179561167a565b5b81356117a684826020860161173f565b91505092915050565b6000602082840312156117c5576117c4611410565b5b600082013567ffffffffffffffff8111156117e3576117e2611415565b5b6117ef84828501611781565b91505092915050565b6000806040838503121561180f5761180e611410565b5b600061181d85828601611578565b925050602061182e8582860161143b565b9150509250929050565b6118418161154f565b82525050565b600060808201905061185c6000830187611838565b818103602083015261186e81866114d4565b905061187d60408301856115f0565b61188a60608301846115f0565b95945050505050565b60006020820190506118a86000830184611611565b92915050565b6000806000606084860312156118c7576118c6611410565b5b600084013567ffffffffffffffff8111156118e5576118e4611415565b5b6118f186828701611781565b93505060206119028682870161143b565b92505060406119138682870161143b565b9150509250925092565b600081519050919050565b600082825260208201905092915050565b6000819050602082019050919050565b600082825260208201905092915050565b60006119658261147d565b61196f8185611949565b935061197f818560208601611499565b611988816114c3565b840191505092915050565b61199c8161141a565b82525050565b6119ab816115ff565b82525050565b600060a08301600083015184820360008601526119ce828261195a565b91505060208301516119e36020860182611993565b5060408301516119f66040860182611993565b506060830151611a096060860182611993565b506080830151611a1c60808601826119a2565b508091505092915050565b6000611a3383836119b1565b905092915050565b6000602082019050919050565b6000611a538261191d565b611a5d8185611928565b935083602082028501611a6f85611939565b8060005b85811015611aab5784840389528151611a8c8582611a27565b9450611a9783611a3b565b925060208a01995050600181019050611a73565b50829750879550505050505092915050565b60006020820190508181036000830152611ad78184611a48565b905092915050565b600080600060608486031215611af857611af7611410565b5b6000611b068682870161143b565b9350506020611b178682870161143b565b9250506040611b288682870161143b565b9150509250925092565b7f4576656e7420646f6573206e6f74206578697374000000000000000000000000600082015250565b6000611b68601483611488565b9150611b7382611b32565b602082019050919050565b60006020820190508181036000830152611b9781611b5b565b9050919050565b7f4e487b7100000000000000000000000000000000000000000000000000000000600052602260045260246000fd5b60006002820490506001821680611be557607f821691505b602082108103611bf857611bf7611b9e565b5b50919050565b7f4f6e6c792072656769737465726564206f7267616e697a6572732063616e206360008201527f616c6c20746869732066756e6374696f6e000000000000000000000000000000602082015250565b6000611c5a603183611488565b9150611c6582611bfe565b604082019050919050565b60006020820190508181036000830152611c8981611c4d565b9050919050565b7f496e76616c696420616464726573730000000000000000000000000000000000600082015250565b6000611cc6600f83611488565b9150611cd182611c90565b602082019050919050565b60006020820190508181036000830152611cf581611cb9565b9050919050565b7f4f6e6c79206f776e6572206f72206f7267616e697a65722063616e2063616c6c60008201527f20746869732066756e6374696f6e000000000000000000000000000000000000602082015250565b6000611d58602e83611488565b9150611d6382611cfc565b604082019050919050565b60006020820190508181036000830152611d8781611d4b565b9050919050565b7f4349442063616e6e6f7420626520656d70747900000000000000000000000000600082015250565b6000611dc4601383611488565b9150611dcf82611d8e565b602082019050919050565b60006020820190508181036000830152611df381611db7565b9050919050565b60008190508160005260206000209050919050565b60006020601f8301049050919050565b600082821b905092915050565b600060088302611e5c7fffffffffffffffffffffffffffffffffffffffffffffffffffffffffffffffff82611e1f565b611e668683611e1f565b95508019841693508086168417925050509392505050565b6000819050919050565b6000611ea3611e9e611e998461141a565b611e7e565b61141a565b9050919050565b6000819050919050565b611ebd83611e88565b611ed1611ec982611eaa565b848454611e2c565b825550505050565b600090565b611ee6611ed9565b611ef1818484611eb4565b505050565b5b81811015611f1557611f0a600082611ede565b600181019050611ef7565b5050565b601f821115611f5a57611f2b81611dfa565b611f3484611e0f565b81016020851015611f43578190505b611f57611f4f85611e0f565b830182611ef6565b50505b505050565b600082821c905092915050565b6000611f7d60001984600802611f5f565b1980831691505092915050565b6000611f968383611f6c565b9150826002028217905092915050565b611faf8261147d565b67ffffffffffffffff811115611fc857611fc7611684565b5b611fd28254611bcd565b611fdd828285611f19565b600060209050601f8311600181146120105760008415611ffe578287015190505b6120088582611f8a565b865550612070565b601f19841661201e86611dfa565b60005b8281101561204657848901518255600182019150602085019450602081019050612021565b86831015612063578489015161205f601f891682611f6c565b8355505b6001600288020188555050505b505050505050565b600081905092915050565b600061208e8261147d565b6120988185612078565b93506120a8818560208601611499565b80840191505092915050565b60006120c08284612083565b915081905092915050565b7f4576656e74204349442073686f756c64206e6f7420626520656d707479000000600082015250565b6000612101601d83611488565b915061210c826120cb565b602082019050919050565b60006020820190508181036000830152612130816120f4565b9050919050565b7f546f74616c207469636b6574732073686f756c6420626520677265617465722060008201527f7468616e20300000000000000000000000000000000000000000000000000000602082015250565b6000612193602683611488565b915061219e82612137565b604082019050919050565b600060208201905081810360008301526121c281612186565b9050919050565b7f4e487b7100000000000000000000000000000000000000000000000000000000600052601160045260246000fd5b60006122038261141a565b915061220e8361141a565b925082820261221c8161141a565b91508282048414831517612233576122326121c9565b5b5092915050565b7f4e487b7100000000000000000000000000000000000000000000000000000000600052601260045260246000fd5b60006122748261141a565b915061227f8361141a565b92508261228f5761228e61223a565b5b828204905092915050565b7f4e6f7420656e6f7567682065746865722073656e740000000000000000000000600082015250565b60006122d0601583611488565b91506122db8261229a565b602082019050919050565b600060208201905081810360008301526122ff816122c3565b9050919050565b60006123118261141a565b915061231c8361141a565b9250828203905081811115612334576123336121c9565b5b92915050565b60006123458261141a565b91507fffffffffffffffffffffffffffffffffffffffffffffffffffffffffffffffff8203612377576123766121c9565b5b600182019050919050565b7f4e487b7100000000000000000000000000000000000000000000000000000000600052603260045260246000fd5b7f4e6f7420656e6f756768207469636b657473206c656674000000000000000000600082015250565b60006123e7601783611488565b91506123f2826123b1565b602082019050919050565b60006020820190508181036000830152612416816123da565b905091905056fea264697066735822122097af4d1df09932a4cf201c767a4d7de6d15b6797891a663aa243dc93316dc4fc64736f6c63430008130033",
  "linkReferences": {},
  "deployedLinkReferences": {}
}