{
  "_format": "hh-sol-artifact-1",
  "contractName": "Tickets",
  "sourceName": "contracts/Tickets.sol",
  "abi": [
    {
      "inputs": [],
      "stateMutability": "nonpayable",
      "type": "constructor"
    },
    {
      "anonymous": false,
      "inputs": [
        {
          "indexed": true,
          "internalType": "uint256",
          "name": "eventId",
          "type": "uint256"
        },
        {
          "indexed": true,
          "internalType": "address",
          "name": "organizer",
          "type": "address"
        }
      ],
      "name": "EventCreated",
      "type": "event"
    },
    {
      "anonymous": false,
      "inputs": [
        {
          "indexed": true,
          "internalType": "address",
          "name": "organizerAddress",
          "type": "address"
        },
        {
          "indexed": true,
          "internalType": "string",
          "name": "CID",
          "type": "string"
        }
      ],
      "name": "OrganizerRegistered",
      "type": "event"
    },
    {
      "anonymous": false,
      "inputs": [
        {
          "indexed": true,
          "internalType": "uint256",
          "name": "eventId",
          "type": "uint256"
        },
        {
          "indexed": true,
          "internalType": "uint256",
          "name": "ticketsBought",
          "type": "uint256"
        },
        {
          "indexed": true,
          "internalType": "address",
          "name": "buyer",
          "type": "address"
        }
      ],
      "name": "TicketPurchased",
      "type": "event"
    },
    {
      "inputs": [
        {
          "internalType": "uint256",
          "name": "_eventId",
          "type": "uint256"
        },
        {
          "internalType": "uint256",
          "name": "_totalTicketsToBuy",
          "type": "uint256"
        }
      ],
      "name": "buyTicket",
      "outputs": [],
      "stateMutability": "payable",
      "type": "function"
    },
    {
      "inputs": [
        {
          "internalType": "string",
          "name": "_eventCid",
          "type": "string"
        },
        {
          "internalType": "uint256",
          "name": "_totalTickets",
          "type": "uint256"
        },
        {
          "internalType": "uint256",
          "name": "_price",
          "type": "uint256"
        }
      ],
      "name": "createEvent",
      "outputs": [],
      "stateMutability": "payable",
      "type": "function"
    },
    {
      "inputs": [
        {
          "internalType": "uint256",
          "name": "",
          "type": "uint256"
        }
      ],
      "name": "events",
      "outputs": [
        {
          "internalType": "string",
          "name": "eventCID",
          "type": "string"
        },
        {
          "internalType": "uint256",
          "name": "totalTickets",
          "type": "uint256"
        },
        {
          "internalType": "uint256",
          "name": "remTickets",
          "type": "uint256"
        },
        {
          "internalType": "uint256",
          "name": "price",
          "type": "uint256"
        },
        {
          "internalType": "address payable",
          "name": "creator",
          "type": "address"
        }
      ],
      "stateMutability": "view",
      "type": "function"
    },
    {
      "inputs": [
        {
          "internalType": "address",
          "name": "",
          "type": "address"
        },
        {
          "internalType": "uint256",
          "name": "",
          "type": "uint256"
        }
      ],
      "name": "eventsCreated",
      "outputs": [
        {
          "internalType": "uint256",
          "name": "",
          "type": "uint256"
        }
      ],
      "stateMutability": "view",
      "type": "function"
    },
    {
      "inputs": [],
      "name": "getAllEvents",
      "outputs": [
        {
          "components": [
            {
              "internalType": "string",
              "name": "eventCID",
              "type": "string"
            },
            {
              "internalType": "uint256",
              "name": "totalTickets",
              "type": "uint256"
            },
            {
              "internalType": "uint256",
              "name": "remTickets",
              "type": "uint256"
            },
            {
              "internalType": "uint256",
              "name": "price",
              "type": "uint256"
            },
            {
              "internalType": "address payable",
              "name": "creator",
              "type": "address"
            }
          ],
          "internalType": "struct Tickets.Event[]",
          "name": "",
          "type": "tuple[]"
        }
      ],
      "stateMutability": "view",
      "type": "function"
    },
    {
      "inputs": [
        {
          "internalType": "address",
          "name": "_organizerAddress",
          "type": "address"
        }
      ],
      "name": "getOrganizerCID",
      "outputs": [
        {
          "internalType": "string",
          "name": "",
          "type": "string"
        }
      ],
      "stateMutability": "view",
      "type": "function"
    },
    {
      "inputs": [
        {
          "internalType": "address",
          "name": "_organizerAddress",
          "type": "address"
        }
      ],
      "name": "isOrganizers",
      "outputs": [
        {
          "internalType": "bool",
          "name": "",
          "type": "bool"
        }
      ],
      "stateMutability": "view",
      "type": "function"
    },
    {
      "inputs": [
        {
          "internalType": "address",
          "name": "",
          "type": "address"
        }
      ],
      "name": "organizerCID",
      "outputs": [
        {
          "internalType": "string",
          "name": "",
          "type": "string"
        }
      ],
      "stateMutability": "view",
      "type": "function"
    },
    {
      "inputs": [
        {
          "internalType": "address",
          "name": "",
          "type": "address"
        }
      ],
      "name": "organizers",
      "outputs": [
        {
          "internalType": "bool",
          "name": "",
          "type": "bool"
        }
      ],
      "stateMutability": "view",
      "type": "function"
    },
    {
      "inputs": [],
      "name": "owner",
      "outputs": [
        {
          "internalType": "address payable",
          "name": "",
          "type": "address"
        }
      ],
      "stateMutability": "view",
      "type": "function"
    },
    {
      "inputs": [
        {
          "internalType": "string",
          "name": "_CID",
          "type": "string"
        }
      ],
      "name": "registerEventOrganizer",
      "outputs": [],
      "stateMutability": "nonpayable",
      "type": "function"
    },
    {
      "inputs": [
        {
          "internalType": "address",
          "name": "",
          "type": "address"
        },
        {
          "internalType": "uint256",
          "name": "",
          "type": "uint256"
        }
      ],
      "name": "ticketHolders",
      "outputs": [
        {
          "internalType": "address",
          "name": "userAddress",
          "type": "address"
        },
        {
          "internalType": "string",
          "name": "eventName",
          "type": "string"
        },
        {
          "internalType": "uint256",
          "name": "eventId",
          "type": "uint256"
        },
        {
          "internalType": "uint256",
          "name": "ticketsOwned",
          "type": "uint256"
        }
      ],
      "stateMutability": "view",
      "type": "function"
    }
  ],
  "bytecode": "0x608060405234801561001057600080fd5b5033600560006101000a81548173ffffffffffffffffffffffffffffffffffffffff021916908373ffffffffffffffffffffffffffffffffffffffff16021790555061234c806100616000396000f3fe6080604052600436106100a75760003560e01c80636e389f90116100645780636e389f90146101e957806382615569146102265780638da5cb5b146102665780639e9580f614610291578063c27a500d146102ad578063fb894fa2146102d8576100a7565b80630544c5b9146100ac5780630b791430146100e957806320e244131461012a578063298ec208146101675780633aba8bd71461018357806363d3b019146101c0575b600080fd5b3480156100b857600080fd5b506100d360048036038101906100ce919061138f565b610315565b6040516100e091906113d7565b60405180910390f35b3480156100f557600080fd5b50610110600480360381019061010b9190611428565b610335565b604051610121959493929190611515565b60405180910390f35b34801561013657600080fd5b50610151600480360381019061014c919061138f565b610413565b60405161015e919061156f565b60405180910390f35b610181600480360381019061017c9190611591565b610637565b005b34801561018f57600080fd5b506101aa60048036038101906101a591906115d1565b610a45565b6040516101b79190611611565b60405180910390f35b3480156101cc57600080fd5b506101e760048036038101906101e29190611761565b610a76565b005b3480156101f557600080fd5b50610210600480360381019061020b919061138f565b610bbb565b60405161021d91906113d7565b60405180910390f35b34801561023257600080fd5b5061024d600480360381019061024891906115d1565b610c11565b60405161025d94939291906117b9565b60405180910390f35b34801561027257600080fd5b5061027b610d06565b6040516102889190611805565b60405180910390f35b6102ab60048036038101906102a69190611820565b610d2c565b005b3480156102b957600080fd5b506102c2611064565b6040516102cf9190611a2f565b60405180910390f35b3480156102e457600080fd5b506102ff60048036038101906102fa919061138f565b611238565b60405161030c919061156f565b60405180910390f35b60046020528060005260406000206000915054906101000a900460ff1681565b600060205280600052604060002060009150905080600001805461035890611a80565b80601f016020809104026020016040519081016040528092919081815260200182805461038490611a80565b80156103d15780601f106103a6576101008083540402835291602001916103d1565b820191906000526020600020905b8154815290600101906020018083116103b457829003601f168201915b5050505050908060010154908060020154908060030154908060040160009054906101000a900473ffffffffffffffffffffffffffffffffffffffff16905085565b6060600073ffffffffffffffffffffffffffffffffffffffff168273ffffffffffffffffffffffffffffffffffffffff1603610484576040517f08c379a000000000000000000000000000000000000000000000000000000000815260040161047b90611afd565b60405180910390fd5b600560009054906101000a900473ffffffffffffffffffffffffffffffffffffffff1673ffffffffffffffffffffffffffffffffffffffff163373ffffffffffffffffffffffffffffffffffffffff1614806105295750600460003373ffffffffffffffffffffffffffffffffffffffff1673ffffffffffffffffffffffffffffffffffffffff16815260200190815260200160002060009054906101000a900460ff165b610568576040517f08c379a000000000000000000000000000000000000000000000000000000000815260040161055f90611b8f565b60405180910390fd5b600360008373ffffffffffffffffffffffffffffffffffffffff1673ffffffffffffffffffffffffffffffffffffffff16815260200190815260200160002080546105b290611a80565b80601f01602080910402602001604051908101604052809291908181526020018280546105de90611a80565b801561062b5780601f106106005761010080835404028352916020019161062b565b820191906000526020600020905b81548152906001019060200180831161060e57829003601f168201915b50505050509050919050565b60065482111561067c576040517f08c379a000000000000000000000000000000000000000000000000000000000815260040161067390611bfb565b60405180910390fd5b806000808481526020019081526020016000206002015410156106d4576040517f08c379a00000000000000000000000000000000000000000000000000000000081526004016106cb90611c67565b60405180910390fd5b600081600080858152602001908152602001600020600301546106f79190611cb6565b90508034101561073c576040517f08c379a000000000000000000000000000000000000000000000000000000000815260040161073390611d44565b60405180910390fd5b6000813461074a9190611d64565b9050600081111561079d573373ffffffffffffffffffffffffffffffffffffffff166108fc829081150290604051600060405180830381858888f1935050505015801561079b573d6000803e3d6000fd5b505b60008085815260200190815260200160002060040160009054906101000a900473ffffffffffffffffffffffffffffffffffffffff1673ffffffffffffffffffffffffffffffffffffffff166108fc839081150290604051600060405180830381858888f19350505050158015610818573d6000803e3d6000fd5b5082600080868152602001908152602001600020600201600082825461083e9190611d64565b925050819055506000600160003373ffffffffffffffffffffffffffffffffffffffff1673ffffffffffffffffffffffffffffffffffffffff16815260200190815260200160002090508060405180608001604052803373ffffffffffffffffffffffffffffffffffffffff16815260200160008089815260200190815260200160002060000180546108d090611a80565b80601f01602080910402602001604051908101604052809291908181526020018280546108fc90611a80565b80156109495780601f1061091e57610100808354040283529160200191610949565b820191906000526020600020905b81548152906001019060200180831161092c57829003601f168201915b5050505050815260200187815260200186815250908060018154018082558091505060019003906000526020600020906004020160009091909190915060008201518160000160006101000a81548173ffffffffffffffffffffffffffffffffffffffff021916908373ffffffffffffffffffffffffffffffffffffffff16021790555060208201518160010190816109e29190611f44565b50604082015181600201556060820151816003015550503373ffffffffffffffffffffffffffffffffffffffff1684867f94c5953e15f54d38b82a662bdd5739fc91af3a23d3ef7e67269dfaeee71a813c60405160405180910390a45050505050565b60026020528160005260406000208181548110610a6157600080fd5b90600052602060002001600091509150505481565b6000815111610aba576040517f08c379a0000000000000000000000000000000000000000000000000000000008152600401610ab190612062565b60405180910390fd5b80600360003373ffffffffffffffffffffffffffffffffffffffff1673ffffffffffffffffffffffffffffffffffffffff1681526020019081526020016000209081610b069190611f44565b506001600460003373ffffffffffffffffffffffffffffffffffffffff1673ffffffffffffffffffffffffffffffffffffffff16815260200190815260200160002060006101000a81548160ff02191690831515021790555080604051610b6d91906120be565b60405180910390203373ffffffffffffffffffffffffffffffffffffffff167fac35be65b927c19690056f54322574255afb94436fc8b4637810cfcc1fb3daae60405160405180910390a350565b6000600460008373ffffffffffffffffffffffffffffffffffffffff1673ffffffffffffffffffffffffffffffffffffffff16815260200190815260200160002060009054906101000a900460ff169050919050565b60016020528160005260406000208181548110610c2d57600080fd5b9060005260206000209060040201600091509150508060000160009054906101000a900473ffffffffffffffffffffffffffffffffffffffff1690806001018054610c7790611a80565b80601f0160208091040260200160405190810160405280929190818152602001828054610ca390611a80565b8015610cf05780601f10610cc557610100808354040283529160200191610cf0565b820191906000526020600020905b815481529060010190602001808311610cd357829003601f168201915b5050505050908060020154908060030154905084565b600560009054906101000a900473ffffffffffffffffffffffffffffffffffffffff1681565b6000835111610d70576040517f08c379a0000000000000000000000000000000000000000000000000000000008152600401610d6790612121565b60405180910390fd5b610d7933610bbb565b610db8576040517f08c379a0000000000000000000000000000000000000000000000000000000008152600401610daf9061218d565b60405180910390fd5b60008211610dfb576040517f08c379a0000000000000000000000000000000000000000000000000000000008152600401610df29061221f565b60405180910390fd5b6000606460038484610e0d9190611cb6565b610e179190611cb6565b610e21919061226e565b905080341015610e66576040517f08c379a0000000000000000000000000000000000000000000000000000000008152600401610e5d90611d44565b60405180910390fd5b60008134610e749190611d64565b90506000811115610ec7573373ffffffffffffffffffffffffffffffffffffffff166108fc829081150290604051600060405180830381858888f19350505050158015610ec5573d6000803e3d6000fd5b505b600560009054906101000a900473ffffffffffffffffffffffffffffffffffffffff1673ffffffffffffffffffffffffffffffffffffffff166108fc839081150290604051600060405180830381858888f19350505050158015610f2f573d6000803e3d6000fd5b5060066000815480929190610f439061229f565b91905055503373ffffffffffffffffffffffffffffffffffffffff166006547fe43349c008949cf6b65249356e6f918d4aaa0ca79f2b1166df4a4a98c9c16de260405160405180910390a36040518060a001604052808681526020018581526020018581526020018481526020013373ffffffffffffffffffffffffffffffffffffffff1681525060008060065481526020019081526020016000206000820151816000019081610ff49190611f44565b5060208201518160010155604082015181600201556060820151816003015560808201518160040160006101000a81548173ffffffffffffffffffffffffffffffffffffffff021916908373ffffffffffffffffffffffffffffffffffffffff1602179055509050505050505050565b6060600060065467ffffffffffffffff81111561108457611083611636565b5b6040519080825280602002602001820160405280156110bd57816020015b6110aa6112d8565b8152602001906001900390816110a25790505b5090506000600190505b6006548111611230576000808281526020019081526020016000206040518060a00160405290816000820180546110fd90611a80565b80601f016020809104026020016040519081016040528092919081815260200182805461112990611a80565b80156111765780601f1061114b57610100808354040283529160200191611176565b820191906000526020600020905b81548152906001019060200180831161115957829003601f168201915b505050505081526020016001820154815260200160028201548152602001600382015481526020016004820160009054906101000a900473ffffffffffffffffffffffffffffffffffffffff1673ffffffffffffffffffffffffffffffffffffffff1673ffffffffffffffffffffffffffffffffffffffff1681525050826001836112019190611d64565b81518110611212576112116122e7565b5b602002602001018190525080806112289061229f565b9150506110c7565b508091505090565b6003602052806000526040600020600091509050805461125790611a80565b80601f016020809104026020016040519081016040528092919081815260200182805461128390611a80565b80156112d05780601f106112a5576101008083540402835291602001916112d0565b820191906000526020600020905b8154815290600101906020018083116112b357829003601f168201915b505050505081565b6040518060a0016040528060608152602001600081526020016000815260200160008152602001600073ffffffffffffffffffffffffffffffffffffffff1681525090565b6000604051905090565b600080fd5b600080fd5b600073ffffffffffffffffffffffffffffffffffffffff82169050919050565b600061135c82611331565b9050919050565b61136c81611351565b811461137757600080fd5b50565b60008135905061138981611363565b92915050565b6000602082840312156113a5576113a4611327565b5b60006113b38482850161137a565b91505092915050565b60008115159050919050565b6113d1816113bc565b82525050565b60006020820190506113ec60008301846113c8565b92915050565b6000819050919050565b611405816113f2565b811461141057600080fd5b50565b600081359050611422816113fc565b92915050565b60006020828403121561143e5761143d611327565b5b600061144c84828501611413565b91505092915050565b600081519050919050565b600082825260208201905092915050565b60005b8381101561148f578082015181840152602081019050611474565b60008484015250505050565b6000601f19601f8301169050919050565b60006114b782611455565b6114c18185611460565b93506114d1818560208601611471565b6114da8161149b565b840191505092915050565b6114ee816113f2565b82525050565b60006114ff82611331565b9050919050565b61150f816114f4565b82525050565b600060a082019050818103600083015261152f81886114ac565b905061153e60208301876114e5565b61154b60408301866114e5565b61155860608301856114e5565b6115656080830184611506565b9695505050505050565b6000602082019050818103600083015261158981846114ac565b905092915050565b600080604083850312156115a8576115a7611327565b5b60006115b685828601611413565b92505060206115c785828601611413565b9150509250929050565b600080604083850312156115e8576115e7611327565b5b60006115f68582860161137a565b925050602061160785828601611413565b9150509250929050565b600060208201905061162660008301846114e5565b92915050565b600080fd5b600080fd5b7f4e487b7100000000000000000000000000000000000000000000000000000000600052604160045260246000fd5b61166e8261149b565b810181811067ffffffffffffffff8211171561168d5761168c611636565b5b80604052505050565b60006116a061131d565b90506116ac8282611665565b919050565b600067ffffffffffffffff8211156116cc576116cb611636565b5b6116d58261149b565b9050602081019050919050565b82818337600083830152505050565b60006117046116ff846116b1565b611696565b9050828152602081018484840111156117205761171f611631565b5b61172b8482856116e2565b509392505050565b600082601f8301126117485761174761162c565b5b81356117588482602086016116f1565b91505092915050565b60006020828403121561177757611776611327565b5b600082013567ffffffffffffffff8111156117955761179461132c565b5b6117a184828501611733565b91505092915050565b6117b381611351565b82525050565b60006080820190506117ce60008301876117aa565b81810360208301526117e081866114ac565b90506117ef60408301856114e5565b6117fc60608301846114e5565b95945050505050565b600060208201905061181a6000830184611506565b92915050565b60008060006060848603121561183957611838611327565b5b600084013567ffffffffffffffff8111156118575761185661132c565b5b61186386828701611733565b935050602061187486828701611413565b925050604061188586828701611413565b9150509250925092565b600081519050919050565b600082825260208201905092915050565b6000819050602082019050919050565b600082825260208201905092915050565b60006118d782611455565b6118e181856118bb565b93506118f1818560208601611471565b6118fa8161149b565b840191505092915050565b61190e816113f2565b82525050565b61191d816114f4565b82525050565b600060a083016000830151848203600086015261194082826118cc565b91505060208301516119556020860182611905565b5060408301516119686040860182611905565b50606083015161197b6060860182611905565b50608083015161198e6080860182611914565b508091505092915050565b60006119a58383611923565b905092915050565b6000602082019050919050565b60006119c58261188f565b6119cf818561189a565b9350836020820285016119e1856118ab565b8060005b85811015611a1d57848403895281516119fe8582611999565b9450611a09836119ad565b925060208a019950506001810190506119e5565b50829750879550505050505092915050565b60006020820190508181036000830152611a4981846119ba565b905092915050565b7f4e487b7100000000000000000000000000000000000000000000000000000000600052602260045260246000fd5b60006002820490506001821680611a9857607f821691505b602082108103611aab57611aaa611a51565b5b50919050565b7f496e76616c696420616464726573730000000000000000000000000000000000600082015250565b6000611ae7600f83611460565b9150611af282611ab1565b602082019050919050565b60006020820190508181036000830152611b1681611ada565b9050919050565b7f4f6e6c79206f776e6572206f72206f7267616e697a65722063616e2063616c6c60008201527f20746869732066756e6374696f6e000000000000000000000000000000000000602082015250565b6000611b79602e83611460565b9150611b8482611b1d565b604082019050919050565b60006020820190508181036000830152611ba881611b6c565b9050919050565b7f4576656e7420646f6573206e6f74206578697374000000000000000000000000600082015250565b6000611be5601483611460565b9150611bf082611baf565b602082019050919050565b60006020820190508181036000830152611c1481611bd8565b9050919050565b7f4e6f7420656e6f756768207469636b657473206c656674000000000000000000600082015250565b6000611c51601783611460565b9150611c5c82611c1b565b602082019050919050565b60006020820190508181036000830152611c8081611c44565b9050919050565b7f4e487b7100000000000000000000000000000000000000000000000000000000600052601160045260246000fd5b6000611cc1826113f2565b9150611ccc836113f2565b9250828202611cda816113f2565b91508282048414831517611cf157611cf0611c87565b5b5092915050565b7f4e6f7420656e6f7567682065746865722073656e740000000000000000000000600082015250565b6000611d2e601583611460565b9150611d3982611cf8565b602082019050919050565b60006020820190508181036000830152611d5d81611d21565b9050919050565b6000611d6f826113f2565b9150611d7a836113f2565b9250828203905081811115611d9257611d91611c87565b5b92915050565b60008190508160005260206000209050919050565b60006020601f8301049050919050565b600082821b905092915050565b600060088302611dfa7fffffffffffffffffffffffffffffffffffffffffffffffffffffffffffffffff82611dbd565b611e048683611dbd565b95508019841693508086168417925050509392505050565b6000819050919050565b6000611e41611e3c611e37846113f2565b611e1c565b6113f2565b9050919050565b6000819050919050565b611e5b83611e26565b611e6f611e6782611e48565b848454611dca565b825550505050565b600090565b611e84611e77565b611e8f818484611e52565b505050565b5b81811015611eb357611ea8600082611e7c565b600181019050611e95565b5050565b601f821115611ef857611ec981611d98565b611ed284611dad565b81016020851015611ee1578190505b611ef5611eed85611dad565b830182611e94565b50505b505050565b600082821c905092915050565b6000611f1b60001984600802611efd565b1980831691505092915050565b6000611f348383611f0a565b9150826002028217905092915050565b611f4d82611455565b67ffffffffffffffff811115611f6657611f65611636565b5b611f708254611a80565b611f7b828285611eb7565b600060209050601f831160018114611fae5760008415611f9c578287015190505b611fa68582611f28565b86555061200e565b601f198416611fbc86611d98565b60005b82811015611fe457848901518255600182019150602085019450602081019050611fbf565b868310156120015784890151611ffd601f891682611f0a565b8355505b6001600288020188555050505b505050505050565b7f4349442063616e6e6f7420626520656d70747900000000000000000000000000600082015250565b600061204c601383611460565b915061205782612016565b602082019050919050565b6000602082019050818103600083015261207b8161203f565b9050919050565b600081905092915050565b600061209882611455565b6120a28185612082565b93506120b2818560208601611471565b80840191505092915050565b60006120ca828461208d565b915081905092915050565b7f4576656e74204349442073686f756c64206e6f7420626520656d707479000000600082015250565b600061210b601d83611460565b9150612116826120d5565b602082019050919050565b6000602082019050818103600083015261213a816120fe565b9050919050565b7f4f6e6c79206f7267616e697a65722063616e20637265617465206576656e7400600082015250565b6000612177601f83611460565b915061218282612141565b602082019050919050565b600060208201905081810360008301526121a68161216a565b9050919050565b7f546f74616c207469636b6574732073686f756c6420626520677265617465722060008201527f7468616e20300000000000000000000000000000000000000000000000000000602082015250565b6000612209602683611460565b9150612214826121ad565b604082019050919050565b60006020820190508181036000830152612238816121fc565b9050919050565b7f4e487b7100000000000000000000000000000000000000000000000000000000600052601260045260246000fd5b6000612279826113f2565b9150612284836113f2565b9250826122945761229361223f565b5b828204905092915050565b60006122aa826113f2565b91507fffffffffffffffffffffffffffffffffffffffffffffffffffffffffffffffff82036122dc576122db611c87565b5b600182019050919050565b7f4e487b7100000000000000000000000000000000000000000000000000000000600052603260045260246000fdfea2646970667358221220fe79b4276409cd4763c25180afddf8de22648de8235ffeb03cf2bd584d004b5964736f6c63430008130033",
  "linkReferences": {},
  "deployedLinkReferences": {}
}