{
  "_format": "hh-sol-artifact-1",
  "contractName": "EventOrganizer",
  "sourceName": "contracts/EventOrganizer.sol",
  "abi": [
    {
      "anonymous": false,
      "inputs": [
        {
          "indexed": true,
          "internalType": "address",
          "name": "organizerAddress",
          "type": "address"
        },
        {
          "indexed": true,
          "internalType": "string",
          "name": "CID",
          "type": "string"
        }
      ],
      "name": "OrganizerRegistered",
      "type": "event"
    },
    {
      "inputs": [
        {
          "internalType": "address",
          "name": "_organizerAddress",
          "type": "address"
        }
      ],
      "name": "getOrganizerCID",
      "outputs": [
        {
          "internalType": "string",
          "name": "",
          "type": "string"
        }
      ],
      "stateMutability": "view",
      "type": "function"
    },
    {
      "inputs": [
        {
          "internalType": "address",
          "name": "_organizerAddress",
          "type": "address"
        }
      ],
      "name": "isOrganizers",
      "outputs": [
        {
          "internalType": "bool",
          "name": "",
          "type": "bool"
        }
      ],
      "stateMutability": "view",
      "type": "function"
    },
    {
      "inputs": [
        {
          "internalType": "address",
          "name": "",
          "type": "address"
        }
      ],
      "name": "organizerCID",
      "outputs": [
        {
          "internalType": "string",
          "name": "",
          "type": "string"
        }
      ],
      "stateMutability": "view",
      "type": "function"
    },
    {
      "inputs": [
        {
          "internalType": "address",
          "name": "",
          "type": "address"
        }
      ],
      "name": "organizers",
      "outputs": [
        {
          "internalType": "bool",
          "name": "",
          "type": "bool"
        }
      ],
      "stateMutability": "view",
      "type": "function"
    },
    {
      "inputs": [],
      "name": "owner",
      "outputs": [
        {
          "internalType": "address payable",
          "name": "",
          "type": "address"
        }
      ],
      "stateMutability": "view",
      "type": "function"
    },
    {
      "inputs": [
        {
          "internalType": "string",
          "name": "_CID",
          "type": "string"
        }
      ],
      "name": "registerEventOrganizer",
      "outputs": [],
      "stateMutability": "nonpayable",
      "type": "function"
    }
  ],
  "bytecode": "0x608060405234801561001057600080fd5b50336000806101000a81548173ffffffffffffffffffffffffffffffffffffffff021916908373ffffffffffffffffffffffffffffffffffffffff160217905550610f25806100606000396000f3fe608060405234801561001057600080fd5b50600436106100625760003560e01c80630544c5b91461006757806320e244131461009757806363d3b019146100c75780636e389f90146100e35780638da5cb5b14610113578063fb894fa214610131575b600080fd5b610081600480360381019061007c91906106e9565b610161565b60405161008e9190610731565b60405180910390f35b6100b160048036038101906100ac91906106e9565b610181565b6040516100be91906107dc565b60405180910390f35b6100e160048036038101906100dc9190610933565b610418565b005b6100fd60048036038101906100f891906106e9565b61055d565b60405161010a9190610731565b60405180910390f35b61011b6105b3565b604051610128919061099d565b60405180910390f35b61014b600480360381019061014691906106e9565b6105d7565b60405161015891906107dc565b60405180910390f35b60026020528060005260406000206000915054906101000a900460ff1681565b606060011515600260003373ffffffffffffffffffffffffffffffffffffffff1673ffffffffffffffffffffffffffffffffffffffff16815260200190815260200160002060009054906101000a900460ff16151514610216576040517f08c379a000000000000000000000000000000000000000000000000000000000815260040161020d90610a2a565b60405180910390fd5b600073ffffffffffffffffffffffffffffffffffffffff168273ffffffffffffffffffffffffffffffffffffffff1603610285576040517f08c379a000000000000000000000000000000000000000000000000000000000815260040161027c90610a96565b60405180910390fd5b60008054906101000a900473ffffffffffffffffffffffffffffffffffffffff1673ffffffffffffffffffffffffffffffffffffffff163373ffffffffffffffffffffffffffffffffffffffff16148061030a57508173ffffffffffffffffffffffffffffffffffffffff163373ffffffffffffffffffffffffffffffffffffffff16145b610349576040517f08c379a000000000000000000000000000000000000000000000000000000000815260040161034090610b28565b60405180910390fd5b600160008373ffffffffffffffffffffffffffffffffffffffff1673ffffffffffffffffffffffffffffffffffffffff168152602001908152602001600020805461039390610b77565b80601f01602080910402602001604051908101604052809291908181526020018280546103bf90610b77565b801561040c5780601f106103e15761010080835404028352916020019161040c565b820191906000526020600020905b8154815290600101906020018083116103ef57829003601f168201915b50505050509050919050565b600081511161045c576040517f08c379a000000000000000000000000000000000000000000000000000000000815260040161045390610bf4565b60405180910390fd5b80600160003373ffffffffffffffffffffffffffffffffffffffff1673ffffffffffffffffffffffffffffffffffffffff16815260200190815260200160002090816104a89190610dca565b506001600260003373ffffffffffffffffffffffffffffffffffffffff1673ffffffffffffffffffffffffffffffffffffffff16815260200190815260200160002060006101000a81548160ff0219169083151502179055508060405161050f9190610ed8565b60405180910390203373ffffffffffffffffffffffffffffffffffffffff167fac35be65b927c19690056f54322574255afb94436fc8b4637810cfcc1fb3daae60405160405180910390a350565b6000600260008373ffffffffffffffffffffffffffffffffffffffff1673ffffffffffffffffffffffffffffffffffffffff16815260200190815260200160002060009054906101000a900460ff169050919050565b60008054906101000a900473ffffffffffffffffffffffffffffffffffffffff1681565b600160205280600052604060002060009150905080546105f690610b77565b80601f016020809104026020016040519081016040528092919081815260200182805461062290610b77565b801561066f5780601f106106445761010080835404028352916020019161066f565b820191906000526020600020905b81548152906001019060200180831161065257829003601f168201915b505050505081565b6000604051905090565b600080fd5b600080fd5b600073ffffffffffffffffffffffffffffffffffffffff82169050919050565b60006106b68261068b565b9050919050565b6106c6816106ab565b81146106d157600080fd5b50565b6000813590506106e3816106bd565b92915050565b6000602082840312156106ff576106fe610681565b5b600061070d848285016106d4565b91505092915050565b60008115159050919050565b61072b81610716565b82525050565b60006020820190506107466000830184610722565b92915050565b600081519050919050565b600082825260208201905092915050565b60005b8381101561078657808201518184015260208101905061076b565b60008484015250505050565b6000601f19601f8301169050919050565b60006107ae8261074c565b6107b88185610757565b93506107c8818560208601610768565b6107d181610792565b840191505092915050565b600060208201905081810360008301526107f681846107a3565b905092915050565b600080fd5b600080fd5b7f4e487b7100000000000000000000000000000000000000000000000000000000600052604160045260246000fd5b61084082610792565b810181811067ffffffffffffffff8211171561085f5761085e610808565b5b80604052505050565b6000610872610677565b905061087e8282610837565b919050565b600067ffffffffffffffff82111561089e5761089d610808565b5b6108a782610792565b9050602081019050919050565b82818337600083830152505050565b60006108d66108d184610883565b610868565b9050828152602081018484840111156108f2576108f1610803565b5b6108fd8482856108b4565b509392505050565b600082601f83011261091a576109196107fe565b5b813561092a8482602086016108c3565b91505092915050565b60006020828403121561094957610948610681565b5b600082013567ffffffffffffffff81111561096757610966610686565b5b61097384828501610905565b91505092915050565b60006109878261068b565b9050919050565b6109978161097c565b82525050565b60006020820190506109b2600083018461098e565b92915050565b7f4f6e6c792072656769737465726564206f7267616e697a6572732063616e206360008201527f616c6c20746869732066756e6374696f6e000000000000000000000000000000602082015250565b6000610a14603183610757565b9150610a1f826109b8565b604082019050919050565b60006020820190508181036000830152610a4381610a07565b9050919050565b7f496e76616c696420616464726573730000000000000000000000000000000000600082015250565b6000610a80600f83610757565b9150610a8b82610a4a565b602082019050919050565b60006020820190508181036000830152610aaf81610a73565b9050919050565b7f4f6e6c79206f776e6572206f72206f7267616e697a65722063616e2063616c6c60008201527f20746869732066756e6374696f6e000000000000000000000000000000000000602082015250565b6000610b12602e83610757565b9150610b1d82610ab6565b604082019050919050565b60006020820190508181036000830152610b4181610b05565b9050919050565b7f4e487b7100000000000000000000000000000000000000000000000000000000600052602260045260246000fd5b60006002820490506001821680610b8f57607f821691505b602082108103610ba257610ba1610b48565b5b50919050565b7f4349442063616e6e6f7420626520656d70747900000000000000000000000000600082015250565b6000610bde601383610757565b9150610be982610ba8565b602082019050919050565b60006020820190508181036000830152610c0d81610bd1565b9050919050565b60008190508160005260206000209050919050565b60006020601f8301049050919050565b600082821b905092915050565b600060088302610c767fffffffffffffffffffffffffffffffffffffffffffffffffffffffffffffffff82610c39565b610c808683610c39565b95508019841693508086168417925050509392505050565b6000819050919050565b6000819050919050565b6000610cc7610cc2610cbd84610c98565b610ca2565b610c98565b9050919050565b6000819050919050565b610ce183610cac565b610cf5610ced82610cce565b848454610c46565b825550505050565b600090565b610d0a610cfd565b610d15818484610cd8565b505050565b5b81811015610d3957610d2e600082610d02565b600181019050610d1b565b5050565b601f821115610d7e57610d4f81610c14565b610d5884610c29565b81016020851015610d67578190505b610d7b610d7385610c29565b830182610d1a565b50505b505050565b600082821c905092915050565b6000610da160001984600802610d83565b1980831691505092915050565b6000610dba8383610d90565b9150826002028217905092915050565b610dd38261074c565b67ffffffffffffffff811115610dec57610deb610808565b5b610df68254610b77565b610e01828285610d3d565b600060209050601f831160018114610e345760008415610e22578287015190505b610e2c8582610dae565b865550610e94565b601f198416610e4286610c14565b60005b82811015610e6a57848901518255600182019150602085019450602081019050610e45565b86831015610e875784890151610e83601f891682610d90565b8355505b6001600288020188555050505b505050505050565b600081905092915050565b6000610eb28261074c565b610ebc8185610e9c565b9350610ecc818560208601610768565b80840191505092915050565b6000610ee48284610ea7565b91508190509291505056fea26469706673582212206d3992192899d2b40115a68fbf43a0ea1898d1d7d7596f4fec41446ae34965bd64736f6c63430008130033",
  "linkReferences": {},
  "deployedLinkReferences": {}
}