{
  "_format": "hh-sol-artifact-1",
  "contractName": "EventOrganizer",
  "sourceName": "contracts/EventOrganizer.sol",
  "abi": [
    {
      "anonymous": false,
      "inputs": [
        {
          "indexed": true,
          "internalType": "address",
          "name": "organizerAddress",
          "type": "address"
        },
        {
          "indexed": true,
          "internalType": "string",
          "name": "CID",
          "type": "string"
        }
      ],
      "name": "OrganizerRegistered",
      "type": "event"
    },
    {
      "anonymous": false,
      "inputs": [
        {
          "indexed": true,
          "internalType": "address",
          "name": "userAddress",
          "type": "address"
        },
        {
          "indexed": true,
          "internalType": "string",
          "name": "CID",
          "type": "string"
        }
      ],
      "name": "UserRegistered",
      "type": "event"
    },
    {
      "inputs": [
        {
          "internalType": "address",
          "name": "_organizerAddress",
          "type": "address"
        }
      ],
      "name": "getOrganizerCID",
      "outputs": [
        {
          "internalType": "string",
          "name": "",
          "type": "string"
        }
      ],
      "stateMutability": "view",
      "type": "function"
    },
    {
      "inputs": [
        {
          "internalType": "address",
          "name": "_userAddress",
          "type": "address"
        }
      ],
      "name": "getUserCID",
      "outputs": [
        {
          "internalType": "string",
          "name": "",
          "type": "string"
        }
      ],
      "stateMutability": "view",
      "type": "function"
    },
    {
      "inputs": [
        {
          "internalType": "address",
          "name": "",
          "type": "address"
        }
      ],
      "name": "isUsers",
      "outputs": [
        {
          "internalType": "bool",
          "name": "",
          "type": "bool"
        }
      ],
      "stateMutability": "view",
      "type": "function"
    },
    {
      "inputs": [
        {
          "internalType": "address",
          "name": "",
          "type": "address"
        }
      ],
      "name": "organizerCID",
      "outputs": [
        {
          "internalType": "string",
          "name": "",
          "type": "string"
        }
      ],
      "stateMutability": "view",
      "type": "function"
    },
    {
      "inputs": [
        {
          "internalType": "address",
          "name": "",
          "type": "address"
        }
      ],
      "name": "organizers",
      "outputs": [
        {
          "internalType": "bool",
          "name": "",
          "type": "bool"
        }
      ],
      "stateMutability": "view",
      "type": "function"
    },
    {
      "inputs": [],
      "name": "owner",
      "outputs": [
        {
          "internalType": "address payable",
          "name": "",
          "type": "address"
        }
      ],
      "stateMutability": "view",
      "type": "function"
    },
    {
      "inputs": [
        {
          "internalType": "string",
          "name": "_CID",
          "type": "string"
        }
      ],
      "name": "registerEventOrganizer",
      "outputs": [],
      "stateMutability": "nonpayable",
      "type": "function"
    },
    {
      "inputs": [
        {
          "internalType": "string",
          "name": "_CID",
          "type": "string"
        }
      ],
      "name": "registerUser",
      "outputs": [],
      "stateMutability": "nonpayable",
      "type": "function"
    },
    {
      "inputs": [
        {
          "internalType": "address",
          "name": "",
          "type": "address"
        }
      ],
      "name": "userCID",
      "outputs": [
        {
          "internalType": "string",
          "name": "",
          "type": "string"
        }
      ],
      "stateMutability": "view",
      "type": "function"
    }
  ],
  "bytecode": "0x608060405234801561001057600080fd5b50336000806101000a81548173ffffffffffffffffffffffffffffffffffffffff021916908373ffffffffffffffffffffffffffffffffffffffff160217905550611417806100606000396000f3fe608060405234801561001057600080fd5b50600436106100935760003560e01c8063704f1b9411610066578063704f1b94146101445780638da5cb5b14610160578063a5240e491461017e578063e4d7c830146101ae578063fb894fa2146101de57610093565b80630544c5b91461009857806320e24413146100c8578063296c0c07146100f857806363d3b01914610128575b600080fd5b6100b260048036038101906100ad9190610b49565b61020e565b6040516100bf9190610b91565b60405180910390f35b6100e260048036038101906100dd9190610b49565b61022e565b6040516100ef9190610c3c565b60405180910390f35b610112600480360381019061010d9190610b49565b6104c5565b60405161011f9190610b91565b60405180910390f35b610142600480360381019061013d9190610d93565b6104e5565b005b61015e60048036038101906101599190610d93565b61062a565b005b61016861076f565b6040516101759190610dfd565b60405180910390f35b61019860048036038101906101939190610b49565b610793565b6040516101a59190610c3c565b60405180910390f35b6101c860048036038101906101c39190610b49565b610833565b6040516101d59190610c3c565b60405180910390f35b6101f860048036038101906101f39190610b49565b610a37565b6040516102059190610c3c565b60405180910390f35b60046020528060005260406000206000915054906101000a900460ff1681565b606060011515600460003373ffffffffffffffffffffffffffffffffffffffff1673ffffffffffffffffffffffffffffffffffffffff16815260200190815260200160002060009054906101000a900460ff161515146102c3576040517f08c379a00000000000000000000000000000000000000000000000000000000081526004016102ba90610e8a565b60405180910390fd5b600073ffffffffffffffffffffffffffffffffffffffff168273ffffffffffffffffffffffffffffffffffffffff1603610332576040517f08c379a000000000000000000000000000000000000000000000000000000000815260040161032990610ef6565b60405180910390fd5b60008054906101000a900473ffffffffffffffffffffffffffffffffffffffff1673ffffffffffffffffffffffffffffffffffffffff163373ffffffffffffffffffffffffffffffffffffffff1614806103b757508173ffffffffffffffffffffffffffffffffffffffff163373ffffffffffffffffffffffffffffffffffffffff16145b6103f6576040517f08c379a00000000000000000000000000000000000000000000000000000000081526004016103ed90610f88565b60405180910390fd5b600360008373ffffffffffffffffffffffffffffffffffffffff1673ffffffffffffffffffffffffffffffffffffffff168152602001908152602001600020805461044090610fd7565b80601f016020809104026020016040519081016040528092919081815260200182805461046c90610fd7565b80156104b95780601f1061048e576101008083540402835291602001916104b9565b820191906000526020600020905b81548152906001019060200180831161049c57829003601f168201915b50505050509050919050565b60026020528060005260406000206000915054906101000a900460ff1681565b6000815111610529576040517f08c379a000000000000000000000000000000000000000000000000000000000815260040161052090611054565b60405180910390fd5b80600360003373ffffffffffffffffffffffffffffffffffffffff1673ffffffffffffffffffffffffffffffffffffffff1681526020019081526020016000209081610575919061122a565b506001600460003373ffffffffffffffffffffffffffffffffffffffff1673ffffffffffffffffffffffffffffffffffffffff16815260200190815260200160002060006101000a81548160ff021916908315150217905550806040516105dc9190611338565b60405180910390203373ffffffffffffffffffffffffffffffffffffffff167fac35be65b927c19690056f54322574255afb94436fc8b4637810cfcc1fb3daae60405160405180910390a350565b600081511161066e576040517f08c379a000000000000000000000000000000000000000000000000000000000815260040161066590611054565b60405180910390fd5b80600160003373ffffffffffffffffffffffffffffffffffffffff1673ffffffffffffffffffffffffffffffffffffffff16815260200190815260200160002090816106ba919061122a565b506001600260003373ffffffffffffffffffffffffffffffffffffffff1673ffffffffffffffffffffffffffffffffffffffff16815260200190815260200160002060006101000a81548160ff021916908315150217905550806040516107219190611338565b60405180910390203373ffffffffffffffffffffffffffffffffffffffff167f48cac28ad4dc618e15f4c2dd5e97751182f166de97b25618318b2112aa951a2f60405160405180910390a350565b60008054906101000a900473ffffffffffffffffffffffffffffffffffffffff1681565b600160205280600052604060002060009150905080546107b290610fd7565b80601f01602080910402602001604051908101604052809291908181526020018280546107de90610fd7565b801561082b5780601f106108005761010080835404028352916020019161082b565b820191906000526020600020905b81548152906001019060200180831161080e57829003601f168201915b505050505081565b6060600073ffffffffffffffffffffffffffffffffffffffff168273ffffffffffffffffffffffffffffffffffffffff16036108a4576040517f08c379a000000000000000000000000000000000000000000000000000000000815260040161089b90610ef6565b60405180910390fd5b60008054906101000a900473ffffffffffffffffffffffffffffffffffffffff1673ffffffffffffffffffffffffffffffffffffffff163373ffffffffffffffffffffffffffffffffffffffff16148061092957508173ffffffffffffffffffffffffffffffffffffffff163373ffffffffffffffffffffffffffffffffffffffff16145b610968576040517f08c379a000000000000000000000000000000000000000000000000000000000815260040161095f906113c1565b60405180910390fd5b600160008373ffffffffffffffffffffffffffffffffffffffff1673ffffffffffffffffffffffffffffffffffffffff16815260200190815260200160002080546109b290610fd7565b80601f01602080910402602001604051908101604052809291908181526020018280546109de90610fd7565b8015610a2b5780601f10610a0057610100808354040283529160200191610a2b565b820191906000526020600020905b815481529060010190602001808311610a0e57829003601f168201915b50505050509050919050565b60036020528060005260406000206000915090508054610a5690610fd7565b80601f0160208091040260200160405190810160405280929190818152602001828054610a8290610fd7565b8015610acf5780601f10610aa457610100808354040283529160200191610acf565b820191906000526020600020905b815481529060010190602001808311610ab257829003601f168201915b505050505081565b6000604051905090565b600080fd5b600080fd5b600073ffffffffffffffffffffffffffffffffffffffff82169050919050565b6000610b1682610aeb565b9050919050565b610b2681610b0b565b8114610b3157600080fd5b50565b600081359050610b4381610b1d565b92915050565b600060208284031215610b5f57610b5e610ae1565b5b6000610b6d84828501610b34565b91505092915050565b60008115159050919050565b610b8b81610b76565b82525050565b6000602082019050610ba66000830184610b82565b92915050565b600081519050919050565b600082825260208201905092915050565b60005b83811015610be6578082015181840152602081019050610bcb565b60008484015250505050565b6000601f19601f8301169050919050565b6000610c0e82610bac565b610c188185610bb7565b9350610c28818560208601610bc8565b610c3181610bf2565b840191505092915050565b60006020820190508181036000830152610c568184610c03565b905092915050565b600080fd5b600080fd5b7f4e487b7100000000000000000000000000000000000000000000000000000000600052604160045260246000fd5b610ca082610bf2565b810181811067ffffffffffffffff82111715610cbf57610cbe610c68565b5b80604052505050565b6000610cd2610ad7565b9050610cde8282610c97565b919050565b600067ffffffffffffffff821115610cfe57610cfd610c68565b5b610d0782610bf2565b9050602081019050919050565b82818337600083830152505050565b6000610d36610d3184610ce3565b610cc8565b905082815260208101848484011115610d5257610d51610c63565b5b610d5d848285610d14565b509392505050565b600082601f830112610d7a57610d79610c5e565b5b8135610d8a848260208601610d23565b91505092915050565b600060208284031215610da957610da8610ae1565b5b600082013567ffffffffffffffff811115610dc757610dc6610ae6565b5b610dd384828501610d65565b91505092915050565b6000610de782610aeb565b9050919050565b610df781610ddc565b82525050565b6000602082019050610e126000830184610dee565b92915050565b7f4f6e6c792072656769737465726564206f7267616e697a6572732063616e206360008201527f616c6c20746869732066756e6374696f6e000000000000000000000000000000602082015250565b6000610e74603183610bb7565b9150610e7f82610e18565b604082019050919050565b60006020820190508181036000830152610ea381610e67565b9050919050565b7f496e76616c696420616464726573730000000000000000000000000000000000600082015250565b6000610ee0600f83610bb7565b9150610eeb82610eaa565b602082019050919050565b60006020820190508181036000830152610f0f81610ed3565b9050919050565b7f4f6e6c79206f776e6572206f72206f7267616e697a65722063616e2063616c6c60008201527f20746869732066756e6374696f6e000000000000000000000000000000000000602082015250565b6000610f72602e83610bb7565b9150610f7d82610f16565b604082019050919050565b60006020820190508181036000830152610fa181610f65565b9050919050565b7f4e487b7100000000000000000000000000000000000000000000000000000000600052602260045260246000fd5b60006002820490506001821680610fef57607f821691505b60208210810361100257611001610fa8565b5b50919050565b7f4349442063616e6e6f7420626520656d70747900000000000000000000000000600082015250565b600061103e601383610bb7565b915061104982611008565b602082019050919050565b6000602082019050818103600083015261106d81611031565b9050919050565b60008190508160005260206000209050919050565b60006020601f8301049050919050565b600082821b905092915050565b6000600883026110d67fffffffffffffffffffffffffffffffffffffffffffffffffffffffffffffffff82611099565b6110e08683611099565b95508019841693508086168417925050509392505050565b6000819050919050565b6000819050919050565b600061112761112261111d846110f8565b611102565b6110f8565b9050919050565b6000819050919050565b6111418361110c565b61115561114d8261112e565b8484546110a6565b825550505050565b600090565b61116a61115d565b611175818484611138565b505050565b5b818110156111995761118e600082611162565b60018101905061117b565b5050565b601f8211156111de576111af81611074565b6111b884611089565b810160208510156111c7578190505b6111db6111d385611089565b83018261117a565b50505b505050565b600082821c905092915050565b6000611201600019846008026111e3565b1980831691505092915050565b600061121a83836111f0565b9150826002028217905092915050565b61123382610bac565b67ffffffffffffffff81111561124c5761124b610c68565b5b6112568254610fd7565b61126182828561119d565b600060209050601f8311600181146112945760008415611282578287015190505b61128c858261120e565b8655506112f4565b601f1984166112a286611074565b60005b828110156112ca578489015182556001820191506020850194506020810190506112a5565b868310156112e757848901516112e3601f8916826111f0565b8355505b6001600288020188555050505b505050505050565b600081905092915050565b600061131282610bac565b61131c81856112fc565b935061132c818560208601610bc8565b80840191505092915050565b60006113448284611307565b915081905092915050565b7f4f6e6c79206f776e6572206f7220757365722063616e2063616c6c207468697360008201527f2066756e6374696f6e0000000000000000000000000000000000000000000000602082015250565b60006113ab602983610bb7565b91506113b68261134f565b604082019050919050565b600060208201905081810360008301526113da8161139e565b905091905056fea2646970667358221220369fc4f371a68611414c2d6f119e820af8cfc176b896180b543688a86db254a664736f6c63430008130033",
  "linkReferences": {},
  "deployedLinkReferences": {}
}