{
  "_format": "hh-sol-artifact-1",
  "contractName": "EventOrganizer",
  "sourceName": "contracts/EventOrganizer.sol",
  "abi": [
    {
      "anonymous": false,
      "inputs": [
        {
          "indexed": true,
          "internalType": "address",
          "name": "organizerAddress",
          "type": "address"
        },
        {
          "indexed": true,
          "internalType": "string",
          "name": "CID",
          "type": "string"
        }
      ],
      "name": "OrganizerRegistered",
      "type": "event"
    },
    {
      "anonymous": false,
      "inputs": [
        {
          "indexed": true,
          "internalType": "address",
          "name": "userAddress",
          "type": "address"
        },
        {
          "indexed": true,
          "internalType": "string",
          "name": "CID",
          "type": "string"
        }
      ],
      "name": "UserRegistered",
      "type": "event"
    },
    {
      "inputs": [
        {
          "internalType": "address",
          "name": "_organizerAddress",
          "type": "address"
        }
      ],
      "name": "getOrganizerCID",
      "outputs": [
        {
          "internalType": "string",
          "name": "",
          "type": "string"
        }
      ],
      "stateMutability": "view",
      "type": "function"
    },
    {
      "inputs": [
        {
          "internalType": "address",
          "name": "_userAddress",
          "type": "address"
        }
      ],
      "name": "getUserCID",
      "outputs": [
        {
          "internalType": "string",
          "name": "",
          "type": "string"
        }
      ],
      "stateMutability": "view",
      "type": "function"
    },
    {
      "inputs": [
        {
          "internalType": "address",
          "name": "",
          "type": "address"
        }
      ],
      "name": "isUsers",
      "outputs": [
        {
          "internalType": "bool",
          "name": "",
          "type": "bool"
        }
      ],
      "stateMutability": "view",
      "type": "function"
    },
    {
      "inputs": [
        {
          "internalType": "address",
          "name": "",
          "type": "address"
        }
      ],
      "name": "organizerCID",
      "outputs": [
        {
          "internalType": "string",
          "name": "",
          "type": "string"
        }
      ],
      "stateMutability": "view",
      "type": "function"
    },
    {
      "inputs": [
        {
          "internalType": "address",
          "name": "",
          "type": "address"
        }
      ],
      "name": "organizers",
      "outputs": [
        {
          "internalType": "bool",
          "name": "",
          "type": "bool"
        }
      ],
      "stateMutability": "view",
      "type": "function"
    },
    {
      "inputs": [],
      "name": "owner",
      "outputs": [
        {
          "internalType": "address payable",
          "name": "",
          "type": "address"
        }
      ],
      "stateMutability": "view",
      "type": "function"
    },
    {
      "inputs": [
        {
          "internalType": "string",
          "name": "_CID",
          "type": "string"
        }
      ],
      "name": "registerEventOrganizer",
      "outputs": [],
      "stateMutability": "nonpayable",
      "type": "function"
    },
    {
      "inputs": [
        {
          "internalType": "string",
          "name": "_CID",
          "type": "string"
        }
      ],
      "name": "registerUser",
      "outputs": [],
      "stateMutability": "nonpayable",
      "type": "function"
    },
    {
      "inputs": [
        {
          "internalType": "address",
          "name": "",
          "type": "address"
        }
      ],
      "name": "userCID",
      "outputs": [
        {
          "internalType": "string",
          "name": "",
          "type": "string"
        }
      ],
      "stateMutability": "view",
      "type": "function"
    }
  ],
  "bytecode": "0x608060405234801561001057600080fd5b50336000806101000a81548173ffffffffffffffffffffffffffffffffffffffff021916908373ffffffffffffffffffffffffffffffffffffffff16021790555061153c806100606000396000f3fe608060405234801561001057600080fd5b50600436106100935760003560e01c8063704f1b9411610066578063704f1b94146101445780638da5cb5b14610160578063a5240e491461017e578063e4d7c830146101ae578063fb894fa2146101de57610093565b80630544c5b91461009857806320e24413146100c8578063296c0c07146100f857806363d3b01914610128575b600080fd5b6100b260048036038101906100ad9190610bdc565b61020e565b6040516100bf9190610c24565b60405180910390f35b6100e260048036038101906100dd9190610bdc565b61022e565b6040516100ef9190610ccf565b60405180910390f35b610112600480360381019061010d9190610bdc565b6104c5565b60405161011f9190610c24565b60405180910390f35b610142600480360381019061013d9190610e26565b6104e5565b005b61015e60048036038101906101599190610e26565b61062a565b005b61016861076f565b6040516101759190610e90565b60405180910390f35b61019860048036038101906101939190610bdc565b610793565b6040516101a59190610ccf565b60405180910390f35b6101c860048036038101906101c39190610bdc565b610833565b6040516101d59190610ccf565b60405180910390f35b6101f860048036038101906101f39190610bdc565b610aca565b6040516102059190610ccf565b60405180910390f35b60046020528060005260406000206000915054906101000a900460ff1681565b606060011515600460003373ffffffffffffffffffffffffffffffffffffffff1673ffffffffffffffffffffffffffffffffffffffff16815260200190815260200160002060009054906101000a900460ff161515146102c3576040517f08c379a00000000000000000000000000000000000000000000000000000000081526004016102ba90610f1d565b60405180910390fd5b600073ffffffffffffffffffffffffffffffffffffffff168273ffffffffffffffffffffffffffffffffffffffff1603610332576040517f08c379a000000000000000000000000000000000000000000000000000000000815260040161032990610f89565b60405180910390fd5b60008054906101000a900473ffffffffffffffffffffffffffffffffffffffff1673ffffffffffffffffffffffffffffffffffffffff163373ffffffffffffffffffffffffffffffffffffffff1614806103b757508173ffffffffffffffffffffffffffffffffffffffff163373ffffffffffffffffffffffffffffffffffffffff16145b6103f6576040517f08c379a00000000000000000000000000000000000000000000000000000000081526004016103ed9061101b565b60405180910390fd5b600360008373ffffffffffffffffffffffffffffffffffffffff1673ffffffffffffffffffffffffffffffffffffffff16815260200190815260200160002080546104409061106a565b80601f016020809104026020016040519081016040528092919081815260200182805461046c9061106a565b80156104b95780601f1061048e576101008083540402835291602001916104b9565b820191906000526020600020905b81548152906001019060200180831161049c57829003601f168201915b50505050509050919050565b60026020528060005260406000206000915054906101000a900460ff1681565b6000815111610529576040517f08c379a0000000000000000000000000000000000000000000000000000000008152600401610520906110e7565b60405180910390fd5b80600360003373ffffffffffffffffffffffffffffffffffffffff1673ffffffffffffffffffffffffffffffffffffffff168152602001908152602001600020908161057591906112bd565b506001600460003373ffffffffffffffffffffffffffffffffffffffff1673ffffffffffffffffffffffffffffffffffffffff16815260200190815260200160002060006101000a81548160ff021916908315150217905550806040516105dc91906113cb565b60405180910390203373ffffffffffffffffffffffffffffffffffffffff167fac35be65b927c19690056f54322574255afb94436fc8b4637810cfcc1fb3daae60405160405180910390a350565b600081511161066e576040517f08c379a0000000000000000000000000000000000000000000000000000000008152600401610665906110e7565b60405180910390fd5b80600160003373ffffffffffffffffffffffffffffffffffffffff1673ffffffffffffffffffffffffffffffffffffffff16815260200190815260200160002090816106ba91906112bd565b506001600260003373ffffffffffffffffffffffffffffffffffffffff1673ffffffffffffffffffffffffffffffffffffffff16815260200190815260200160002060006101000a81548160ff0219169083151502179055508060405161072191906113cb565b60405180910390203373ffffffffffffffffffffffffffffffffffffffff167f48cac28ad4dc618e15f4c2dd5e97751182f166de97b25618318b2112aa951a2f60405160405180910390a350565b60008054906101000a900473ffffffffffffffffffffffffffffffffffffffff1681565b600160205280600052604060002060009150905080546107b29061106a565b80601f01602080910402602001604051908101604052809291908181526020018280546107de9061106a565b801561082b5780601f106108005761010080835404028352916020019161082b565b820191906000526020600020905b81548152906001019060200180831161080e57829003601f168201915b505050505081565b606060011515600260003373ffffffffffffffffffffffffffffffffffffffff1673ffffffffffffffffffffffffffffffffffffffff16815260200190815260200160002060009054906101000a900460ff161515146108c8576040517f08c379a00000000000000000000000000000000000000000000000000000000081526004016108bf90611454565b60405180910390fd5b600073ffffffffffffffffffffffffffffffffffffffff168273ffffffffffffffffffffffffffffffffffffffff1603610937576040517f08c379a000000000000000000000000000000000000000000000000000000000815260040161092e90610f89565b60405180910390fd5b60008054906101000a900473ffffffffffffffffffffffffffffffffffffffff1673ffffffffffffffffffffffffffffffffffffffff163373ffffffffffffffffffffffffffffffffffffffff1614806109bc57508173ffffffffffffffffffffffffffffffffffffffff163373ffffffffffffffffffffffffffffffffffffffff16145b6109fb576040517f08c379a00000000000000000000000000000000000000000000000000000000081526004016109f2906114e6565b60405180910390fd5b600160008373ffffffffffffffffffffffffffffffffffffffff1673ffffffffffffffffffffffffffffffffffffffff1681526020019081526020016000208054610a459061106a565b80601f0160208091040260200160405190810160405280929190818152602001828054610a719061106a565b8015610abe5780601f10610a9357610100808354040283529160200191610abe565b820191906000526020600020905b815481529060010190602001808311610aa157829003601f168201915b50505050509050919050565b60036020528060005260406000206000915090508054610ae99061106a565b80601f0160208091040260200160405190810160405280929190818152602001828054610b159061106a565b8015610b625780601f10610b3757610100808354040283529160200191610b62565b820191906000526020600020905b815481529060010190602001808311610b4557829003601f168201915b505050505081565b6000604051905090565b600080fd5b600080fd5b600073ffffffffffffffffffffffffffffffffffffffff82169050919050565b6000610ba982610b7e565b9050919050565b610bb981610b9e565b8114610bc457600080fd5b50565b600081359050610bd681610bb0565b92915050565b600060208284031215610bf257610bf1610b74565b5b6000610c0084828501610bc7565b91505092915050565b60008115159050919050565b610c1e81610c09565b82525050565b6000602082019050610c396000830184610c15565b92915050565b600081519050919050565b600082825260208201905092915050565b60005b83811015610c79578082015181840152602081019050610c5e565b60008484015250505050565b6000601f19601f8301169050919050565b6000610ca182610c3f565b610cab8185610c4a565b9350610cbb818560208601610c5b565b610cc481610c85565b840191505092915050565b60006020820190508181036000830152610ce98184610c96565b905092915050565b600080fd5b600080fd5b7f4e487b7100000000000000000000000000000000000000000000000000000000600052604160045260246000fd5b610d3382610c85565b810181811067ffffffffffffffff82111715610d5257610d51610cfb565b5b80604052505050565b6000610d65610b6a565b9050610d718282610d2a565b919050565b600067ffffffffffffffff821115610d9157610d90610cfb565b5b610d9a82610c85565b9050602081019050919050565b82818337600083830152505050565b6000610dc9610dc484610d76565b610d5b565b905082815260208101848484011115610de557610de4610cf6565b5b610df0848285610da7565b509392505050565b600082601f830112610e0d57610e0c610cf1565b5b8135610e1d848260208601610db6565b91505092915050565b600060208284031215610e3c57610e3b610b74565b5b600082013567ffffffffffffffff811115610e5a57610e59610b79565b5b610e6684828501610df8565b91505092915050565b6000610e7a82610b7e565b9050919050565b610e8a81610e6f565b82525050565b6000602082019050610ea56000830184610e81565b92915050565b7f4f6e6c792072656769737465726564206f7267616e697a6572732063616e206360008201527f616c6c20746869732066756e6374696f6e000000000000000000000000000000602082015250565b6000610f07603183610c4a565b9150610f1282610eab565b604082019050919050565b60006020820190508181036000830152610f3681610efa565b9050919050565b7f496e76616c696420616464726573730000000000000000000000000000000000600082015250565b6000610f73600f83610c4a565b9150610f7e82610f3d565b602082019050919050565b60006020820190508181036000830152610fa281610f66565b9050919050565b7f4f6e6c79206f776e6572206f72206f7267616e697a65722063616e2063616c6c60008201527f20746869732066756e6374696f6e000000000000000000000000000000000000602082015250565b6000611005602e83610c4a565b915061101082610fa9565b604082019050919050565b6000602082019050818103600083015261103481610ff8565b9050919050565b7f4e487b7100000000000000000000000000000000000000000000000000000000600052602260045260246000fd5b6000600282049050600182168061108257607f821691505b6020821081036110955761109461103b565b5b50919050565b7f4349442063616e6e6f7420626520656d70747900000000000000000000000000600082015250565b60006110d1601383610c4a565b91506110dc8261109b565b602082019050919050565b60006020820190508181036000830152611100816110c4565b9050919050565b60008190508160005260206000209050919050565b60006020601f8301049050919050565b600082821b905092915050565b6000600883026111697fffffffffffffffffffffffffffffffffffffffffffffffffffffffffffffffff8261112c565b611173868361112c565b95508019841693508086168417925050509392505050565b6000819050919050565b6000819050919050565b60006111ba6111b56111b08461118b565b611195565b61118b565b9050919050565b6000819050919050565b6111d48361119f565b6111e86111e0826111c1565b848454611139565b825550505050565b600090565b6111fd6111f0565b6112088184846111cb565b505050565b5b8181101561122c576112216000826111f5565b60018101905061120e565b5050565b601f8211156112715761124281611107565b61124b8461111c565b8101602085101561125a578190505b61126e6112668561111c565b83018261120d565b50505b505050565b600082821c905092915050565b600061129460001984600802611276565b1980831691505092915050565b60006112ad8383611283565b9150826002028217905092915050565b6112c682610c3f565b67ffffffffffffffff8111156112df576112de610cfb565b5b6112e9825461106a565b6112f4828285611230565b600060209050601f8311600181146113275760008415611315578287015190505b61131f85826112a1565b865550611387565b601f19841661133586611107565b60005b8281101561135d57848901518255600182019150602085019450602081019050611338565b8683101561137a5784890151611376601f891682611283565b8355505b6001600288020188555050505b505050505050565b600081905092915050565b60006113a582610c3f565b6113af818561138f565b93506113bf818560208601610c5b565b80840191505092915050565b60006113d7828461139a565b915081905092915050565b7f4f6e6c7920726567697374657265642075736572732063616e2063616c6c207460008201527f6869732066756e6374696f6e0000000000000000000000000000000000000000602082015250565b600061143e602c83610c4a565b9150611449826113e2565b604082019050919050565b6000602082019050818103600083015261146d81611431565b9050919050565b7f4f6e6c79206f776e6572206f7220757365722063616e2063616c6c207468697360008201527f2066756e6374696f6e0000000000000000000000000000000000000000000000602082015250565b60006114d0602983610c4a565b91506114db82611474565b604082019050919050565b600060208201905081810360008301526114ff816114c3565b905091905056fea2646970667358221220f9fd688829e45cc005b6225b219b14cd7a9decc9fe218c06392301ba9d7edabd64736f6c63430008130033",
  "linkReferences": {},
  "deployedLinkReferences": {}
}