{
  "_format": "hh-sol-artifact-1",
  "contractName": "EventOrganizer",
  "sourceName": "contracts/EventOrganizer.sol",
  "abi": [
    {
      "inputs": [],
      "stateMutability": "nonpayable",
      "type": "constructor"
    },
    {
      "anonymous": false,
      "inputs": [
        {
          "indexed": true,
          "internalType": "address",
          "name": "organizerAddress",
          "type": "address"
        },
        {
          "indexed": true,
          "internalType": "string",
          "name": "CID",
          "type": "string"
        }
      ],
      "name": "OrganizerRegistered",
      "type": "event"
    },
    {
      "inputs": [
        {
          "internalType": "address",
          "name": "_organizerAddress",
          "type": "address"
        }
      ],
      "name": "getOrganizerCID",
      "outputs": [
        {
          "internalType": "string",
          "name": "",
          "type": "string"
        }
      ],
      "stateMutability": "view",
      "type": "function"
    },
    {
      "inputs": [
        {
          "internalType": "address",
          "name": "_organizerAddress",
          "type": "address"
        }
      ],
      "name": "isOrganizers",
      "outputs": [
        {
          "internalType": "bool",
          "name": "",
          "type": "bool"
        }
      ],
      "stateMutability": "view",
      "type": "function"
    },
    {
      "inputs": [
        {
          "internalType": "address",
          "name": "",
          "type": "address"
        }
      ],
      "name": "organizerCID",
      "outputs": [
        {
          "internalType": "string",
          "name": "",
          "type": "string"
        }
      ],
      "stateMutability": "view",
      "type": "function"
    },
    {
      "inputs": [
        {
          "internalType": "address",
          "name": "",
          "type": "address"
        }
      ],
      "name": "organizers",
      "outputs": [
        {
          "internalType": "bool",
          "name": "",
          "type": "bool"
        }
      ],
      "stateMutability": "view",
      "type": "function"
    },
    {
      "inputs": [],
      "name": "owner",
      "outputs": [
        {
          "internalType": "address payable",
          "name": "",
          "type": "address"
        }
      ],
      "stateMutability": "view",
      "type": "function"
    },
    {
      "inputs": [
        {
          "internalType": "string",
          "name": "_CID",
          "type": "string"
        }
      ],
      "name": "registerEventOrganizer",
      "outputs": [],
      "stateMutability": "nonpayable",
      "type": "function"
    }
  ],
  "bytecode": "0x608060405234801561001057600080fd5b50336000806101000a81548173ffffffffffffffffffffffffffffffffffffffff021916908373ffffffffffffffffffffffffffffffffffffffff160217905550610e1e806100606000396000f3fe608060405234801561001057600080fd5b50600436106100625760003560e01c80630544c5b91461006757806320e244131461009757806363d3b019146100c75780636e389f90146100e35780638da5cb5b14610113578063fb894fa214610131575b600080fd5b610081600480360381019061007c9190610674565b610161565b60405161008e91906106bc565b60405180910390f35b6100b160048036038101906100ac9190610674565b610181565b6040516100be9190610767565b60405180910390f35b6100e160048036038101906100dc91906108be565b6103a3565b005b6100fd60048036038101906100f89190610674565b6104e8565b60405161010a91906106bc565b60405180910390f35b61011b61053e565b6040516101289190610928565b60405180910390f35b61014b60048036038101906101469190610674565b610562565b6040516101589190610767565b60405180910390f35b60026020528060005260406000206000915054906101000a900460ff1681565b6060600073ffffffffffffffffffffffffffffffffffffffff168273ffffffffffffffffffffffffffffffffffffffff16036101f2576040517f08c379a00000000000000000000000000000000000000000000000000000000081526004016101e99061098f565b60405180910390fd5b60008054906101000a900473ffffffffffffffffffffffffffffffffffffffff1673ffffffffffffffffffffffffffffffffffffffff163373ffffffffffffffffffffffffffffffffffffffff1614806102955750600260003373ffffffffffffffffffffffffffffffffffffffff1673ffffffffffffffffffffffffffffffffffffffff16815260200190815260200160002060009054906101000a900460ff165b6102d4576040517f08c379a00000000000000000000000000000000000000000000000000000000081526004016102cb90610a21565b60405180910390fd5b600160008373ffffffffffffffffffffffffffffffffffffffff1673ffffffffffffffffffffffffffffffffffffffff168152602001908152602001600020805461031e90610a70565b80601f016020809104026020016040519081016040528092919081815260200182805461034a90610a70565b80156103975780601f1061036c57610100808354040283529160200191610397565b820191906000526020600020905b81548152906001019060200180831161037a57829003601f168201915b50505050509050919050565b60008151116103e7576040517f08c379a00000000000000000000000000000000000000000000000000000000081526004016103de90610aed565b60405180910390fd5b80600160003373ffffffffffffffffffffffffffffffffffffffff1673ffffffffffffffffffffffffffffffffffffffff16815260200190815260200160002090816104339190610cc3565b506001600260003373ffffffffffffffffffffffffffffffffffffffff1673ffffffffffffffffffffffffffffffffffffffff16815260200190815260200160002060006101000a81548160ff0219169083151502179055508060405161049a9190610dd1565b60405180910390203373ffffffffffffffffffffffffffffffffffffffff167fac35be65b927c19690056f54322574255afb94436fc8b4637810cfcc1fb3daae60405160405180910390a350565b6000600260008373ffffffffffffffffffffffffffffffffffffffff1673ffffffffffffffffffffffffffffffffffffffff16815260200190815260200160002060009054906101000a900460ff169050919050565b60008054906101000a900473ffffffffffffffffffffffffffffffffffffffff1681565b6001602052806000526040600020600091509050805461058190610a70565b80601f01602080910402602001604051908101604052809291908181526020018280546105ad90610a70565b80156105fa5780601f106105cf576101008083540402835291602001916105fa565b820191906000526020600020905b8154815290600101906020018083116105dd57829003601f168201915b505050505081565b6000604051905090565b600080fd5b600080fd5b600073ffffffffffffffffffffffffffffffffffffffff82169050919050565b600061064182610616565b9050919050565b61065181610636565b811461065c57600080fd5b50565b60008135905061066e81610648565b92915050565b60006020828403121561068a5761068961060c565b5b60006106988482850161065f565b91505092915050565b60008115159050919050565b6106b6816106a1565b82525050565b60006020820190506106d160008301846106ad565b92915050565b600081519050919050565b600082825260208201905092915050565b60005b838110156107115780820151818401526020810190506106f6565b60008484015250505050565b6000601f19601f8301169050919050565b6000610739826106d7565b61074381856106e2565b93506107538185602086016106f3565b61075c8161071d565b840191505092915050565b60006020820190508181036000830152610781818461072e565b905092915050565b600080fd5b600080fd5b7f4e487b7100000000000000000000000000000000000000000000000000000000600052604160045260246000fd5b6107cb8261071d565b810181811067ffffffffffffffff821117156107ea576107e9610793565b5b80604052505050565b60006107fd610602565b905061080982826107c2565b919050565b600067ffffffffffffffff82111561082957610828610793565b5b6108328261071d565b9050602081019050919050565b82818337600083830152505050565b600061086161085c8461080e565b6107f3565b90508281526020810184848401111561087d5761087c61078e565b5b61088884828561083f565b509392505050565b600082601f8301126108a5576108a4610789565b5b81356108b584826020860161084e565b91505092915050565b6000602082840312156108d4576108d361060c565b5b600082013567ffffffffffffffff8111156108f2576108f1610611565b5b6108fe84828501610890565b91505092915050565b600061091282610616565b9050919050565b61092281610907565b82525050565b600060208201905061093d6000830184610919565b92915050565b7f496e76616c696420616464726573730000000000000000000000000000000000600082015250565b6000610979600f836106e2565b915061098482610943565b602082019050919050565b600060208201905081810360008301526109a88161096c565b9050919050565b7f4f6e6c79206f776e6572206f72206f7267616e697a65722063616e2063616c6c60008201527f20746869732066756e6374696f6e000000000000000000000000000000000000602082015250565b6000610a0b602e836106e2565b9150610a16826109af565b604082019050919050565b60006020820190508181036000830152610a3a816109fe565b9050919050565b7f4e487b7100000000000000000000000000000000000000000000000000000000600052602260045260246000fd5b60006002820490506001821680610a8857607f821691505b602082108103610a9b57610a9a610a41565b5b50919050565b7f4349442063616e6e6f7420626520656d70747900000000000000000000000000600082015250565b6000610ad76013836106e2565b9150610ae282610aa1565b602082019050919050565b60006020820190508181036000830152610b0681610aca565b9050919050565b60008190508160005260206000209050919050565b60006020601f8301049050919050565b600082821b905092915050565b600060088302610b6f7fffffffffffffffffffffffffffffffffffffffffffffffffffffffffffffffff82610b32565b610b798683610b32565b95508019841693508086168417925050509392505050565b6000819050919050565b6000819050919050565b6000610bc0610bbb610bb684610b91565b610b9b565b610b91565b9050919050565b6000819050919050565b610bda83610ba5565b610bee610be682610bc7565b848454610b3f565b825550505050565b600090565b610c03610bf6565b610c0e818484610bd1565b505050565b5b81811015610c3257610c27600082610bfb565b600181019050610c14565b5050565b601f821115610c7757610c4881610b0d565b610c5184610b22565b81016020851015610c60578190505b610c74610c6c85610b22565b830182610c13565b50505b505050565b600082821c905092915050565b6000610c9a60001984600802610c7c565b1980831691505092915050565b6000610cb38383610c89565b9150826002028217905092915050565b610ccc826106d7565b67ffffffffffffffff811115610ce557610ce4610793565b5b610cef8254610a70565b610cfa828285610c36565b600060209050601f831160018114610d2d5760008415610d1b578287015190505b610d258582610ca7565b865550610d8d565b601f198416610d3b86610b0d565b60005b82811015610d6357848901518255600182019150602085019450602081019050610d3e565b86831015610d805784890151610d7c601f891682610c89565b8355505b6001600288020188555050505b505050505050565b600081905092915050565b6000610dab826106d7565b610db58185610d95565b9350610dc58185602086016106f3565b80840191505092915050565b6000610ddd8284610da0565b91508190509291505056fea264697066735822122066c2f13dfafd95bd2d119adbbb48dd46a3ef74f42d548fc83b0bbac3ea9d01b064736f6c63430008130033",
  "linkReferences": {},
  "deployedLinkReferences": {}
}