{
  "_format": "hh-sol-artifact-1",
  "contractName": "EventOrganizer",
  "sourceName": "contracts/EventOrganizer.sol",
  "abi": [
    {
      "anonymous": false,
      "inputs": [
        {
          "indexed": true,
          "internalType": "address",
          "name": "organizerAddress",
          "type": "address"
        },
        {
          "indexed": true,
          "internalType": "string",
          "name": "CID",
          "type": "string"
        }
      ],
      "name": "OrganizerRegistered",
      "type": "event"
    },
    {
      "anonymous": false,
      "inputs": [
        {
          "indexed": true,
          "internalType": "address",
          "name": "userAddress",
          "type": "address"
        },
        {
          "indexed": true,
          "internalType": "string",
          "name": "CID",
          "type": "string"
        }
      ],
      "name": "UserRegistered",
      "type": "event"
    },
    {
      "inputs": [
        {
          "internalType": "address",
          "name": "_organizerAddress",
          "type": "address"
        }
      ],
      "name": "getOrganizerCID",
      "outputs": [
        {
          "internalType": "string",
          "name": "",
          "type": "string"
        }
      ],
      "stateMutability": "view",
      "type": "function"
    },
    {
      "inputs": [
        {
          "internalType": "address",
          "name": "_userAddress",
          "type": "address"
        }
      ],
      "name": "getUserCID",
      "outputs": [
        {
          "internalType": "string",
          "name": "",
          "type": "string"
        }
      ],
      "stateMutability": "view",
      "type": "function"
    },
    {
      "inputs": [
        {
          "internalType": "address",
          "name": "_organizerAddress",
          "type": "address"
        }
      ],
      "name": "isOrganizers",
      "outputs": [
        {
          "internalType": "bool",
          "name": "",
          "type": "bool"
        }
      ],
      "stateMutability": "view",
      "type": "function"
    },
    {
      "inputs": [
        {
          "internalType": "address",
          "name": "_UserAddress",
          "type": "address"
        }
      ],
      "name": "isRegisteredUser",
      "outputs": [
        {
          "internalType": "bool",
          "name": "",
          "type": "bool"
        }
      ],
      "stateMutability": "view",
      "type": "function"
    },
    {
      "inputs": [
        {
          "internalType": "address",
          "name": "",
          "type": "address"
        }
      ],
      "name": "isUsers",
      "outputs": [
        {
          "internalType": "bool",
          "name": "",
          "type": "bool"
        }
      ],
      "stateMutability": "view",
      "type": "function"
    },
    {
      "inputs": [
        {
          "internalType": "address",
          "name": "",
          "type": "address"
        }
      ],
      "name": "organizerCID",
      "outputs": [
        {
          "internalType": "string",
          "name": "",
          "type": "string"
        }
      ],
      "stateMutability": "view",
      "type": "function"
    },
    {
      "inputs": [
        {
          "internalType": "address",
          "name": "",
          "type": "address"
        }
      ],
      "name": "organizers",
      "outputs": [
        {
          "internalType": "bool",
          "name": "",
          "type": "bool"
        }
      ],
      "stateMutability": "view",
      "type": "function"
    },
    {
      "inputs": [],
      "name": "owner",
      "outputs": [
        {
          "internalType": "address payable",
          "name": "",
          "type": "address"
        }
      ],
      "stateMutability": "view",
      "type": "function"
    },
    {
      "inputs": [
        {
          "internalType": "string",
          "name": "_CID",
          "type": "string"
        }
      ],
      "name": "registerEventOrganizer",
      "outputs": [],
      "stateMutability": "nonpayable",
      "type": "function"
    },
    {
      "inputs": [
        {
          "internalType": "string",
          "name": "_CID",
          "type": "string"
        }
      ],
      "name": "registerUser",
      "outputs": [],
      "stateMutability": "nonpayable",
      "type": "function"
    },
    {
      "inputs": [
        {
          "internalType": "address",
          "name": "",
          "type": "address"
        }
      ],
      "name": "userCID",
      "outputs": [
        {
          "internalType": "string",
          "name": "",
          "type": "string"
        }
      ],
      "stateMutability": "view",
      "type": "function"
    }
  ],
  "bytecode": "0x608060405234801561001057600080fd5b50336000806101000a81548173ffffffffffffffffffffffffffffffffffffffff021916908373ffffffffffffffffffffffffffffffffffffffff160217905550611539806100606000396000f3fe608060405234801561001057600080fd5b50600436106100a95760003560e01c80636e389f90116100715780636e389f901461018a578063704f1b94146101ba5780638da5cb5b146101d6578063a5240e49146101f4578063e4d7c83014610224578063fb894fa214610254576100a9565b80630544c5b9146100ae5780631f5bdf5d146100de57806320e244131461010e578063296c0c071461013e57806363d3b0191461016e575b600080fd5b6100c860048036038101906100c39190610c6b565b610284565b6040516100d59190610cb3565b60405180910390f35b6100f860048036038101906100f39190610c6b565b6102a4565b6040516101059190610cb3565b60405180910390f35b61012860048036038101906101239190610c6b565b6102fa565b6040516101359190610d5e565b60405180910390f35b61015860048036038101906101539190610c6b565b610591565b6040516101659190610cb3565b60405180910390f35b61018860048036038101906101839190610eb5565b6105b1565b005b6101a4600480360381019061019f9190610c6b565b6106f6565b6040516101b19190610cb3565b60405180910390f35b6101d460048036038101906101cf9190610eb5565b61074c565b005b6101de610891565b6040516101eb9190610f1f565b60405180910390f35b61020e60048036038101906102099190610c6b565b6108b5565b60405161021b9190610d5e565b60405180910390f35b61023e60048036038101906102399190610c6b565b610955565b60405161024b9190610d5e565b60405180910390f35b61026e60048036038101906102699190610c6b565b610b59565b60405161027b9190610d5e565b60405180910390f35b60046020528060005260406000206000915054906101000a900460ff1681565b6000600260008373ffffffffffffffffffffffffffffffffffffffff1673ffffffffffffffffffffffffffffffffffffffff16815260200190815260200160002060009054906101000a900460ff169050919050565b606060011515600460003373ffffffffffffffffffffffffffffffffffffffff1673ffffffffffffffffffffffffffffffffffffffff16815260200190815260200160002060009054906101000a900460ff1615151461038f576040517f08c379a000000000000000000000000000000000000000000000000000000000815260040161038690610fac565b60405180910390fd5b600073ffffffffffffffffffffffffffffffffffffffff168273ffffffffffffffffffffffffffffffffffffffff16036103fe576040517f08c379a00000000000000000000000000000000000000000000000000000000081526004016103f590611018565b60405180910390fd5b60008054906101000a900473ffffffffffffffffffffffffffffffffffffffff1673ffffffffffffffffffffffffffffffffffffffff163373ffffffffffffffffffffffffffffffffffffffff16148061048357508173ffffffffffffffffffffffffffffffffffffffff163373ffffffffffffffffffffffffffffffffffffffff16145b6104c2576040517f08c379a00000000000000000000000000000000000000000000000000000000081526004016104b9906110aa565b60405180910390fd5b600360008373ffffffffffffffffffffffffffffffffffffffff1673ffffffffffffffffffffffffffffffffffffffff168152602001908152602001600020805461050c906110f9565b80601f0160208091040260200160405190810160405280929190818152602001828054610538906110f9565b80156105855780601f1061055a57610100808354040283529160200191610585565b820191906000526020600020905b81548152906001019060200180831161056857829003601f168201915b50505050509050919050565b60026020528060005260406000206000915054906101000a900460ff1681565b60008151116105f5576040517f08c379a00000000000000000000000000000000000000000000000000000000081526004016105ec90611176565b60405180910390fd5b80600360003373ffffffffffffffffffffffffffffffffffffffff1673ffffffffffffffffffffffffffffffffffffffff1681526020019081526020016000209081610641919061134c565b506001600460003373ffffffffffffffffffffffffffffffffffffffff1673ffffffffffffffffffffffffffffffffffffffff16815260200190815260200160002060006101000a81548160ff021916908315150217905550806040516106a8919061145a565b60405180910390203373ffffffffffffffffffffffffffffffffffffffff167fac35be65b927c19690056f54322574255afb94436fc8b4637810cfcc1fb3daae60405160405180910390a350565b6000600460008373ffffffffffffffffffffffffffffffffffffffff1673ffffffffffffffffffffffffffffffffffffffff16815260200190815260200160002060009054906101000a900460ff169050919050565b6000815111610790576040517f08c379a000000000000000000000000000000000000000000000000000000000815260040161078790611176565b60405180910390fd5b80600160003373ffffffffffffffffffffffffffffffffffffffff1673ffffffffffffffffffffffffffffffffffffffff16815260200190815260200160002090816107dc919061134c565b506001600260003373ffffffffffffffffffffffffffffffffffffffff1673ffffffffffffffffffffffffffffffffffffffff16815260200190815260200160002060006101000a81548160ff02191690831515021790555080604051610843919061145a565b60405180910390203373ffffffffffffffffffffffffffffffffffffffff167f48cac28ad4dc618e15f4c2dd5e97751182f166de97b25618318b2112aa951a2f60405160405180910390a350565b60008054906101000a900473ffffffffffffffffffffffffffffffffffffffff1681565b600160205280600052604060002060009150905080546108d4906110f9565b80601f0160208091040260200160405190810160405280929190818152602001828054610900906110f9565b801561094d5780601f106109225761010080835404028352916020019161094d565b820191906000526020600020905b81548152906001019060200180831161093057829003601f168201915b505050505081565b6060600073ffffffffffffffffffffffffffffffffffffffff168273ffffffffffffffffffffffffffffffffffffffff16036109c6576040517f08c379a00000000000000000000000000000000000000000000000000000000081526004016109bd90611018565b60405180910390fd5b60008054906101000a900473ffffffffffffffffffffffffffffffffffffffff1673ffffffffffffffffffffffffffffffffffffffff163373ffffffffffffffffffffffffffffffffffffffff161480610a4b57508173ffffffffffffffffffffffffffffffffffffffff163373ffffffffffffffffffffffffffffffffffffffff16145b610a8a576040517f08c379a0000000000000000000000000000000000000000000000000000000008152600401610a81906114e3565b60405180910390fd5b600160008373ffffffffffffffffffffffffffffffffffffffff1673ffffffffffffffffffffffffffffffffffffffff1681526020019081526020016000208054610ad4906110f9565b80601f0160208091040260200160405190810160405280929190818152602001828054610b00906110f9565b8015610b4d5780601f10610b2257610100808354040283529160200191610b4d565b820191906000526020600020905b815481529060010190602001808311610b3057829003601f168201915b50505050509050919050565b60036020528060005260406000206000915090508054610b78906110f9565b80601f0160208091040260200160405190810160405280929190818152602001828054610ba4906110f9565b8015610bf15780601f10610bc657610100808354040283529160200191610bf1565b820191906000526020600020905b815481529060010190602001808311610bd457829003601f168201915b505050505081565b6000604051905090565b600080fd5b600080fd5b600073ffffffffffffffffffffffffffffffffffffffff82169050919050565b6000610c3882610c0d565b9050919050565b610c4881610c2d565b8114610c5357600080fd5b50565b600081359050610c6581610c3f565b92915050565b600060208284031215610c8157610c80610c03565b5b6000610c8f84828501610c56565b91505092915050565b60008115159050919050565b610cad81610c98565b82525050565b6000602082019050610cc86000830184610ca4565b92915050565b600081519050919050565b600082825260208201905092915050565b60005b83811015610d08578082015181840152602081019050610ced565b60008484015250505050565b6000601f19601f8301169050919050565b6000610d3082610cce565b610d3a8185610cd9565b9350610d4a818560208601610cea565b610d5381610d14565b840191505092915050565b60006020820190508181036000830152610d788184610d25565b905092915050565b600080fd5b600080fd5b7f4e487b7100000000000000000000000000000000000000000000000000000000600052604160045260246000fd5b610dc282610d14565b810181811067ffffffffffffffff82111715610de157610de0610d8a565b5b80604052505050565b6000610df4610bf9565b9050610e008282610db9565b919050565b600067ffffffffffffffff821115610e2057610e1f610d8a565b5b610e2982610d14565b9050602081019050919050565b82818337600083830152505050565b6000610e58610e5384610e05565b610dea565b905082815260208101848484011115610e7457610e73610d85565b5b610e7f848285610e36565b509392505050565b600082601f830112610e9c57610e9b610d80565b5b8135610eac848260208601610e45565b91505092915050565b600060208284031215610ecb57610eca610c03565b5b600082013567ffffffffffffffff811115610ee957610ee8610c08565b5b610ef584828501610e87565b91505092915050565b6000610f0982610c0d565b9050919050565b610f1981610efe565b82525050565b6000602082019050610f346000830184610f10565b92915050565b7f4f6e6c792072656769737465726564206f7267616e697a6572732063616e206360008201527f616c6c20746869732066756e6374696f6e000000000000000000000000000000602082015250565b6000610f96603183610cd9565b9150610fa182610f3a565b604082019050919050565b60006020820190508181036000830152610fc581610f89565b9050919050565b7f496e76616c696420616464726573730000000000000000000000000000000000600082015250565b6000611002600f83610cd9565b915061100d82610fcc565b602082019050919050565b6000602082019050818103600083015261103181610ff5565b9050919050565b7f4f6e6c79206f776e6572206f72206f7267616e697a65722063616e2063616c6c60008201527f20746869732066756e6374696f6e000000000000000000000000000000000000602082015250565b6000611094602e83610cd9565b915061109f82611038565b604082019050919050565b600060208201905081810360008301526110c381611087565b9050919050565b7f4e487b7100000000000000000000000000000000000000000000000000000000600052602260045260246000fd5b6000600282049050600182168061111157607f821691505b602082108103611124576111236110ca565b5b50919050565b7f4349442063616e6e6f7420626520656d70747900000000000000000000000000600082015250565b6000611160601383610cd9565b915061116b8261112a565b602082019050919050565b6000602082019050818103600083015261118f81611153565b9050919050565b60008190508160005260206000209050919050565b60006020601f8301049050919050565b600082821b905092915050565b6000600883026111f87fffffffffffffffffffffffffffffffffffffffffffffffffffffffffffffffff826111bb565b61120286836111bb565b95508019841693508086168417925050509392505050565b6000819050919050565b6000819050919050565b600061124961124461123f8461121a565b611224565b61121a565b9050919050565b6000819050919050565b6112638361122e565b61127761126f82611250565b8484546111c8565b825550505050565b600090565b61128c61127f565b61129781848461125a565b505050565b5b818110156112bb576112b0600082611284565b60018101905061129d565b5050565b601f821115611300576112d181611196565b6112da846111ab565b810160208510156112e9578190505b6112fd6112f5856111ab565b83018261129c565b50505b505050565b600082821c905092915050565b600061132360001984600802611305565b1980831691505092915050565b600061133c8383611312565b9150826002028217905092915050565b61135582610cce565b67ffffffffffffffff81111561136e5761136d610d8a565b5b61137882546110f9565b6113838282856112bf565b600060209050601f8311600181146113b657600084156113a4578287015190505b6113ae8582611330565b865550611416565b601f1984166113c486611196565b60005b828110156113ec578489015182556001820191506020850194506020810190506113c7565b868310156114095784890151611405601f891682611312565b8355505b6001600288020188555050505b505050505050565b600081905092915050565b600061143482610cce565b61143e818561141e565b935061144e818560208601610cea565b80840191505092915050565b60006114668284611429565b915081905092915050565b7f4f6e6c79206f776e6572206f7220757365722063616e2063616c6c207468697360008201527f2066756e6374696f6e0000000000000000000000000000000000000000000000602082015250565b60006114cd602983610cd9565b91506114d882611471565b604082019050919050565b600060208201905081810360008301526114fc816114c0565b905091905056fea2646970667358221220a065a9a2d6c4198dc2d68f9043dd0c01c92337ac7e73d4f60644cf9d4af67b9364736f6c63430008130033",
  "linkReferences": {},
  "deployedLinkReferences": {}
}